:100000000C947A050C94C1050C94C1050C94C1059F
:100010000C94C1050C94C1050C94C1050C94C10548
:100020000C94C1050C94C1050C94F01B0C94AC1BF2
:100030000C942B230C94C1050C94C1050C94C105A0
:100040000C94C1050C94C1050C94C1050C94C10518
:100050000C94C1050C94CB1C0C94C1050C94C105E7
:100060000C94C1050C94C1050C94C1050C94C105F8
:100070000C94C1050C94C1050C94C1050C94C105E8
:100080000C94C1050C94C1050C94C1050C94C105D8
:100090000C94C1050C94C1050C94C1050C94C105C8
:1000A0000C94C1050C94C1050C94C105050109808F
:1000B000A101850319012AB700150126B700950192
:1000C00075108100C0050C0901A101850419012AE0
:1000D000A002150126A002950175108100C005013E
:1000E0000906A1018505050719E029E71500250185
:1000F0009508750181020507190029EF15002501F2
:1001000095F075018102050819012905950575010C
:100110009102950175039101C00660FF0961A1017B
:100120000962150026FF00952075088102096315F4
:100130000026FF00952075089102C005010906A15F
:1001400001050719E029E7150025019508750181CA
:10015000029501750881010507190029FF15002680
:10016000FF00950675088100050819012905950508
:1001700075019102950175039101C0000000000016
:100180000000000000000000000000000000007EF1
:100190000F00D4FFFFFFC700000078000000000040
:1001A0000000002A2B2800000000000000000000D2
:1001B00000000000000029000000002C1E34202157
:1001C0002224342627252E362D3738271E1F20219E
:1001D00022232425263333362E37381F04050607FD
:1001E00008090A0B0C0D0E0F101112131415161717
:1001F00018191A1B1C1D2F3130232D350405060735
:1002000008090A0B0C0D0E0F1011121314151617F6
:1002100018191A1B1C1D2F3130354C29001E001FC8
:1002200000200021002200230024002500260027B2
:10023000002D002E0035002A002B00000014001AAB
:10024000000800150017001C0018000C0012001315
:10025000002F0030000000390000000400160007E5
:100260000009000A000B000D000E000F00330034DF
:1002700000310028000000E1001D001B00060019ED
:1002800000050011001000360037003800E500526C
:10029000001150E000E2000000E300000000002C2C
:1002A0000000000000000000000000500051004F5E
:1002B0000001003A003B003C003D003E003F004092
:1002C0000041004200430001000100010001000163
:1002D0000000000100010001000100010001000117
:1002E0000001000100010001000100000001000008
:1002F00000010001000100010001000100010001F6
:1003000000010001000100010001000000010001E6
:1003100000010001000100010001000100010001D5
:100320000001000100010010500100010000000167
:1003300000000000000100000000000000000000BC
:1003400000AC00AD00AB00010001000100010001A4
:100350000001000100010001000100010001000195
:100360000001000100010000000100010001000186
:100370000001000100010001000100010001000175
:100380000000000100000001000100010001000167
:100390000001000100010001000100010001000155
:1003A0000000000100010001000100010001000146
:1003B0000001000100010001000100010001000135
:1003C000000100000001000000000001000000002A
:1003D0000000000000000001000100010001000118
:1003E0000001000100010001000100010001000105
:1003F00000010001000100010001000100000001F6
:1004000000010001000100010001000100010001E4
:1004100000010001000100000001000000010001D6
:1004200000010001000100010001000100010001C4
:1004300000010001000100000001000100010001B5
:1004400000010001000100010001000100010001A4
:100450000001000100010001000000010000000097
:100460000001000000000000000000000001000189
:1004700000010000AF313836313231333835343392
:10048000403136332E636F6D0000DA02818FD9F16F
:10049000DB40A4A62EAF00A0C000A1C800AED5804E
:1004A000A81FD300408D1420002020555345520032
:1004B000322046554E4300312042415345005D20D5
:1004C0002020007B7C20202020007D7E4C4F434B51
:1004D000002020205B008081828384858687888934
:1004E0008A8B8C8D8E8F9091929394A0A1A2A3A4BD
:1004F000A5A6A7A8A9AAABACADAEAFB0B1B2B3B434
:10050000C0C1C2C3C4C5C6C7C8C9CACBCCCDCECF73
:10051000D0D1D2D3D400AE09025B00030100A0FA0F
:100520000904000001030101000921110100012259
:1005300040000705810308000A09040100020300C6
:100540000000092111010001222200070582032079
:100550000001070503032000010904020001030054
:100560000000092111010001226D0007058403200C
:10057000000A120110010000000818182F2F0100B6
:10058000010203010403300000001403500048007E
:10059000450052004F004D004F004E004500000046
:1005A0000E034C00550041004E005400590000005D
:1005B000040309040000000000003E5B4F5B3E00A6
:1005C0003E6B4F6B3E001C3E7C3E1C00183C7E3C4C
:1005D00018001C577D571C001C5E7F5E1C00001815
:1005E0003C180000FFE7C3E7FF00001824180000D4
:1005F000FFE7DBE7FF0030483A060E00262979299D
:100600002600407F05050700407F05253F005A3C36
:10061000663C5A007F3E1C1C0800081C1C3E7F00E4
:1006200014227F2214005F5F005F5F0006097F01D4
:100630007F00006689956A0060606060600094A237
:10064000FFA2940008047E04080010207E20100001
:1006500008082A1C0800081C2A0808001E10101090
:1006600010000C1E0C1E0C0030383E383000060EF8
:100670003E0E060000000000000000005E000000CA
:10068000000600060000143E143E1400242A7F2AAF
:100690001200261608343200364A56205000000A4E
:1006A00006000000003C420000000000423C000048
:1006B0002A1C3E1C2A0008083E08080000A0600012
:1006C0000000080808080800000060600000201012
:1006D000080402003C4242423C0000447E400000CC
:1006E000645252524C0022424A4A36003824227E3A
:1006F00020002E4A4A4A32003C4A4A4A320002024C
:10070000621A0600344A4A4A34004C5252523C00A3
:100710000000140000000040340000000008142213
:100720000000141414141400000022140800000423
:10073000520A04003E415D594E007C1212127C00A8
:100740007E4A4A4A34003C42424242007E42424291
:100750003C007E4A4A4A4A007E0A0A0A0A003C4293
:10076000425272007E0808087E0000007E000000F1
:100770002040423E00007E10081462007E4040404F
:1007800040007E0408047E007E0408107E003C4287
:1007900042423C007E1212120C003C4252225C008B
:1007A0007C1212325E004C4A4A4A320002027E0239
:1007B00002003E4040403E001E2040201E003E40C1
:1007C00038403E00621408146200060870080600F3
:1007D00062524A464200007E424200000204081073
:1007E0002000000042427E0008040204080040404D
:1007F000404040000000060A0000605454547C0051
:100800007E4848483000304848484800304848480A
:100810007E0038545454580000087C0A000098A404
:10082000A4A478007E080808700000007A00000088
:100830002040403A00007E102844000000007E4026
:1008400000007C04780478007C04040478003844B8
:1008500044443800FC242424180018242424FC00D8
:100860007C080404080048545454240000047E44C6
:1008700000003C4040407C001C2040201C003C40CC
:1008800030403C004428102844005CA0A0A07C001C
:100890004464544C4400FEC1C1C9C5DDC5C9C1C1D1
:1008A000FE00FCFEFEEEF6C6F6EEFEFEFC003C266A
:1008B00023263C000103053F05330138003C0000BE
:1008C000000000000000000000000000001C3C7858
:1008D0003C1C0080E010080000140C1E2C5440400A
:1008E0004040449A244080808080E01088C8CEC870
:1008F0008E080E080E080E080810E08080808080A8
:1009000080402020202070701C781818181888C08B
:1009100040C040C040C040C040C080000000000057
:10092000000000000000001E003F2121212D2D218C
:100930003F00F00804C4242424C40408F000F0F8A4
:10094000FC3CDCDCDC3CFCF8F000FEC1C1C9C5DDD0
:10095000C5C9C1C1FE00FCFEFEEEF6C6F6EEFEFE07
:10096000FC0000000000000000000000000000008B
:100970000000000000000000000000000000000077
:100980000000000000000000000000000000000067
:10099000000000070F112101010101C1213925C506
:1009A00005091224292A2A2AAAAAFF0007EF4CCFF8
:1009B000474040C0404043E30000FFAAAA2A2A2A39
:1009C0004A8A2A52220202024282024282020F1DF7
:1009D000171D97DD575D57DD971D0F0000000000C4
:1009E0000000000000000000000000000000000007
:1009F0000000070810131111111310080700070F4A
:100A00001F1C1E1E1E1C1F0F070000000000000000
:100A100000000000000000000000000000000000D6
:100A200000000000000000000000000000000000C6
:100A3000000000000004021F22242000000000002B
:100A400000000000000000000000000000000000A6
:100A50000000000000000000000000070505050779
:100A6000000000000000102F10000306080B3A0AD7
:100A70003A0A3A0A3A0A3A0B0806030030293E2895
:100A8000300001010101010105070105030100001A
:100A900000000F18111214180F00000000000000D1
:100AA000000000000000000000000000020A2A2AE6
:100AB0002A0000000000000000000000000000000C
:100AC0000000000000000000000000000000000026
:100AD0000000000000000000000000000000000016
:100AE0000000000000000000000000000000000006
:100AF0000000000011241FBECFEFDAE0DEBFCDBF43
:100B000004B603FE27C08091AF049091B004A09179
:100B1000B104B091B2048730904BA740B04BD1F4F0
:100B20001092AF041092B0041092B1041092B2046B
:100B300014BE84B7877F84BF0FB6F894A8958091C0
:100B40006000886180936000109260000FBEE0E05A
:100B5000F8E3099511E0A0E0B1E0E2E2FAE402C0B6
:100B600005900D92A038B107D9F724E0A0E8B1E0D4
:100B700001C01D92AF3AB207E1F70E946B1E0C94C0
:100B8000BC240C940000E8EDF0E080818E7F80832F
:100B90001092E2001092DA001092E100A0EEB0E0B4
:100BA0008C9181608C9380818F77808319BCA7EDB5
:100BB000B0E08C918E7F8C9380818F7E80831092A9
:100BC000710208952091E4003091E50095E6A901B5
:100BD0002091EC00822F817020FF06C08091E800F8
:100BE00080FF06C080E008952091E80022FD1AC031
:100BF00080919F02882389F0853089F08091EB00F5
:100C000085FD0FC02091E4003091E50042175307A5
:100C1000F9F29150E1F684E0089582E0089583E0CE
:100C2000089581E00895EF92FF920F931F93CF9361
:100C30007C018B010E94E205C82F811117C08091B1
:100C4000E80085FD0BC08091E8008E778093E80076
:100C50000E94E205882399F3C82F08C0F70181910B
:100C60007F018093F1000150110949F78C2FCF913A
:100C70001F910F91FF90EF900895CF93FC01809109
:100C80009F02843001F5C091E900CF702091EC0003
:100C9000922F917020FD90E8C92B82E08093E900AB
:100CA0008091E80080FF0CC050E040E060E270E01E
:100CB000CF010E9413068091E8008E778093E800B0
:100CC000CF70C093E900CF9108958091970287FF7C
:100CD00013C08091E80082FF06C08091E8008B7706
:100CE0008093E80004C080919F028111F2CF0895A3
:100CF00080919F028823D9F38091E80080FFF8CF8C
:100D00008091E8008E77ECCF982F9093E900242F04
:100D1000762F50E0891731F07091EC002091ED00B2
:100D20005091F00021FD07C09F5F973071F78093CD
:100D3000E90081E008953091EB003E7F3093EB00B5
:100D40003091ED003D7F3093ED003091EB0031604C
:100D50003093EB007093EC002093ED005093F00083
:100D60002091EE0027FDE0CF80E00895CF92DF9242
:100D7000EF92FF920F931F93CF93DF93C8EDD0E0D4
:100D800088818F7E8883E7EDF0E0808181608083B9
:100D900084E082BF81E08093710288818E7F8883A6
:100DA00002EE10E0F80110821092DA0081EEC82EF7
:100DB000D12CF601108288818F77888388818068A2
:100DC000888388818F7D888319BC10929F0210923E
:100DD0009602109295021092940290EEE92EF12C58
:100DE000F70180818B7F808388818160888342E0E6
:100DF00060E080E00E948406F60180818E7F80831F
:100E0000F801808181608083808188608083F70120
:100E100080818E7F8083888180618883DF91CF91FC
:100E20001F910F91FF90EF90DF90CF900895FC01FC
:100E300080919D0290919E0286179707A0F0611500
:100E4000710529F49091E8009E779093E80090E076
:100E50006115710551F4911108C08091E80082FF7D
:100E600034C080E00895BC01F2CF80919F028823B6
:100E7000C1F18530C1F18091E80083FD30C08091DF
:100E8000E80082FDEACF8091E80080FFE1CF809109
:100E9000F3002091F200382F6115710519F0283008
:100EA000310558F091E02830310509F090E02091AB
:100EB000E8002E772093E800CBCF81918093F1005A
:100EC000615071092F5F3F4FE7CF80919F028823C8
:100ED00041F0853041F08091E80083FFBECF81E092
:100EE000089582E0089583E0089508958091730243
:100EF00008952FB7F89460911F027091200280919D
:100F00002102909122022FBF0895209112012223E5
:100F1000C9F020912E0227FF15C0E62FE695E69531
:100F2000E695EE31D8F4E80FF92FF11D677021E056
:100F300030E001C0220F6A95EAF7209582812823CC
:100F400022830895FC01329608962191621303C012
:100F5000DF0111971C92E817F907B9F7089520915E
:100F600012012223C1F020912E0227FF14C0E62F88
:100F7000E695E695E695EE31F8F4E80FF92FF11DC8
:100F8000677021E030E001C0220F6A95EAF78281A4
:100F9000822B82830895FC0132962FEF30E041913D
:100FA000641751F02F3F19F4411101C0232F3F5F07
:100FB0003630A9F72F3F09F40895820F911D27FDC0
:100FC0009A95FC0162830895CF92DF92EF92FF928F
:100FD0006C01EE24FF2420E0C114D104E104F104EB
:100FE00019F0C701B60120E1C72ED82EE92EFF2443
:100FF000C114D104E104F10419F0285FC701B6015E
:101000006B017C0154E0F694E794D794C7945A9509
:10101000D1F7C114D104E104F10419F02C5FC70128
:10102000B6016B017C0142E0F694E794D794C79433
:101030004A95D1F7C114D104E104F10419F02E5FEF
:10104000C701B6019695879577956795672B682BAD
:10105000692B09F02F5F822FFF90EF90DF90CF90E8
:10106000089580911A02811110921A0208958091B8
:10107000190290911802892B90911702892B809365
:10108000800190911A029923A1F0892B809380010D
:1010900080911201882341F180912E0287FF24C0A4
:1010A0008EE1E2E8F1E090E0815000F591110E94BC
:1010B0003108E0913002F09131023097E1F08091F7
:1010C0001201882359F080912E0287FF07C080917A
:1010D00080018093810185E0809380010280F3810B
:1010E000E02D80E891E0099486E0DBCF2191222376
:1010F000D9F29F5FD9CF08952FE0929F800D1124E0
:10110000982F977086958695869525E0829FF001A9
:101110001124EC51FE4F50E040E080E0219130E09E
:10112000092E02C0369527950A94E2F721703327DD
:10113000042E01C0220F0A94EAF7822B4F5F5F4F03
:101140004530510559F708952FE0929F800D1124E5
:10115000982F977041E001C0440F9A95EAF7869561
:101160008695869595E0899FF0011124EC51FE4FFC
:1011700090E080E070E05191DF0111979B01082E13
:1011800002C0369527950A94E2F72170219525270C
:10119000242325272C9301968530910561F7089526
:1011A0008091E3019091B201981301C008958F5F7F
:1011B0008770FACF882341F0809590911802892397
:1011C000809318020C9437080895882339F0909181
:1011D0001802982B909318020C94370808958823CE
:1011E00041F08095909119028923809319020C9403
:1011F00037080895882339F090911902982B90931D
:1012000019020C94370808952091A9013091AA0180
:101210002817390771F09093AA018093A901E091F2
:101220003002F0913102309721F00084F185E02DF9
:10123000099408952091A7013091A8012817390732
:1012400071F09093A8018093A701E0913002F09192
:101250003102309721F00680F781E02D099408953E
:1012600010921802109217020E94370890E080E056
:101270000E941A0990E080E00C9404096093A00297
:101280007093A1028093A2029093A3020C94300960
:101290000F931F936091A0027091A1028091A2020E
:1012A0009091A3028B019C010670112722273327FE
:1012B000063011052105310529F468601F910F9151
:1012C0000C943E09677FFACF0F931F9341E050E0E3
:1012D00060E070E004C0440F551F661F771F8A95B9
:1012E000D2F7CB01BA0160957095809590950091E9
:1012F000A0021091A1022091A2023091A3026023CA
:101300007123822393231F910F910C943E09909196
:1013100016028095892380931602282F277071F476
:10132000282F082E000C330B9217130639F08595E1
:10133000859585950E9464091092160208950F9371
:101340001F9341E050E060E070E004C0440F551F7F
:10135000661F771F8A95D2F78091A0029091A10213
:10136000A091A202B091A3028A019B01082B192B24
:101370002A2B3B2BC901B8011F910F910C943E09F8
:1013800060931B0270931C0280931D0290931E02B7
:101390000C943009882379F19CEF980F913A38F436
:1013A000682F80E891E00E9485070C94370890E24E
:1013B000980F983088F4877021E030E0A90102C0CE
:1013C000440F551F8A95E2F7CA0180959091190242
:1013D000892380931902E9CF9BE5980F933020F47D
:1013E00090E080E00C941A09885A873120F490E04C
:1013F00080E00C9404090895CF93C82F882309F442
:1014000067C08CEF8C0F813AC0F580911201882360
:1014100011F180912E0287FF1EC0EC2FE695E69514
:10142000E695F0E0E058FE4F828190E04C2F477047
:1014300021E030E002C0220F331F4A95E2F78223F9
:101440009323892B91F06C2F80E891E00E9485070F
:101450000E9437080AC0E2E8F1E088E891E02191B3
:10146000C21789F38E179F07D1F76C2F80E891E0A0
:101470000E94AF07CF910C94370880E28C0F883020
:1014800068F4C77021E030E001C0220FCA95EAF786
:1014900080911902822B80931902ECCFEBE5EC0FBF
:1014A000E33040F4F0E0ED5DFE4F808190E0CF91BD
:1014B0000C941A09C85AC73158F4EC2FF0E0EE0F1B
:1014C000FF1FEA5DFE4F80819181CF910C9404094A
:1014D000CF910895E0913002F0913102309721F0E0
:1014E0000190F081E02D099480E0089590912E0202
:1014F00092FF06C0282F28712830F9F4877F846076
:1015000093FF06C0282F28712831F1F4877E84616B
:1015100020912F0220FF06C0382F38713830D9F4BF
:10152000877F816021FF06C0282F28712831D1F4E0
:10153000877E816194FD877E0895282F2471243051
:10154000F9F68B7F8860DCCF282F2471243101F7D6
:101550008B7E8861DDCF382F3171313019F78E7F66
:101560008860E0CF282F2171213121F78E7E88619C
:10157000E1CF1092190280911201E2E8F1E0882394
:1015800059F080912E0287FF07C08EE1DF011D9286
:101590008A95E9F70C94300986E0F8CF1F93CF9332
:1015A000DF93CDB7DEB7AA970FB6F894DEBF0FBEB4
:1015B000CDBF87E992E02091F100DC012D93CD01B0
:1015C000B2E08F399B07B9F780919802833009F414
:1015D00071C0B8F4813009F448C0823009F4B2C057
:1015E0008091E80083FF93C28091970290919802C6
:1015F0009A3008F08CC2E92FF0E0E254FB4D0C94D5
:1016000057248A3009F48DC08B3009F470C08930BA
:1016100039F780919702813219F780919B0290915E
:101620009C02009711F00297D9F68091E800877F1D
:101630008093E8008091E80082FF37C09091F3002A
:101640008091F200029729F48091F1008B7F813024
:1016500021F48091F100809373028091E8008B77F0
:101660008093E8000E946506BBCF80919702813A83
:1016700009F0B6CF8091E800877F8093E8008091E1
:101680009B0290919C02892B61F460E284E792E0D6
:1016900070E00E9417078091E8008B778093E80044
:1016A0009FCF60E090E080E0F3CF80919F028111B6
:1016B000C1CF96CF80919702813A09F091CF809166
:1016C0009B0290919C02892B09F08ACF8091E800BF
:1016D000877F8093E8008091E80080FFFCCF8091B5
:1016E00012018093F1008091E8008E77B9CF80914C
:1016F0009702813209F074CF80919B0290919C02F5
:10170000892B09F06DCF8091E800877F8093E800F6
:101710000E94650680919902809312010E94B90A85
:101720005FCF80919702813209F05ACF8091E80013
:10173000877F8093E8000E94650680919A028093DB
:1017400072024ECF80919702813A09F049CF809181
:10175000E800877F8093E8008091E80080FFFCCF5D
:1017600080917202BECF803899F0823809F0CFC1E3
:1017700080919B028F70873008F0C9C18093E90087
:101780008091EB0085FB882780F91092E90006C064
:101790008091940290919502911182609091E8005D
:1017A000977F9093E8008093F1001092F100809170
:1017B000E8008E77A8C1882309F496C1823009F029
:1017C000A6C180919902811199C180919B028F706D
:1017D0002FEF280F263008F09AC18093E90020915E
:1017E000EB0020FF8BC1933031F48091EB008062DD
:1017F0008093EB0083C19091EB0090619093EB009C
:1018000021E030E001C0220F8A95EAF72093EA0038
:101810001092EA008091EB008860EACF811177C1D5
:10182000109199021F778091E3008078812B80933B
:10183000E3008091E800877F8093E8000E946506BE
:101840008091E80080FFFCCF8091E3008068809366
:10185000E30082E0111183E080939F0258C1805819
:10186000823008F054C12091990230919A022C3DA7
:10187000E3E03E07A1F583E08A838AE289834FB7DC
:10188000F894DE01139620E03EE051E2E32FF0E011
:1018900050935700E49120FF03C0E295EF703F5F43
:1018A000EF708E2F90E0EA30C0F0C7968D939D9335
:1018B0002F5F243159F74FBF8091E800877F8093D5
:1018C000E8006AE270E0CE0101960E94170780915D
:1018D000E8008B778093E8001AC1C096E7CF80912B
:1018E0009B0290919C02432F55274330510509F4E8
:1018F0004AC078F54130510509F485C08BE590E088
:10190000E7E1F5E04230510509F001C12091E8001E
:10191000277F2093E80020919D0230919E0282173C
:10192000930708F49C0140E02115310509F070C0CF
:1019300041116EC08091E80082FDC9CF80919F0265
:10194000882329F2853019F28091E80083FFF2CFD5
:10195000BECF4132510509F447C04232510509F06A
:10196000D6C08330910508F0D2C0FC01EE0FFF1FF6
:10197000ED58FE4F0190F081E02D80599E4FDC0123
:101980008C9190E01DC0332721303105E9F02115FD
:10199000310579F022303105F9F02330310509F0B5
:1019A000B6C0E4E8F5E0E4918E2F90E0E4E8F5E0DD
:1019B00007C0E0EBF5E0E4918E2F90E0E0EBF5E07E
:1019C000009709F4A4C0A2CFE0EAF5E0E4918E2FDD
:1019D00090E0E0EAF5E0F4CFEAE8F5E0E4918E2F5C
:1019E00090E0EAE8F5E0ECCF8330910508F08FC095
:1019F000880F991FFC01E758FE4F0190F081E02D00
:101A000089E090E083CF82E190E0E2E7F5E07ECFED
:101A100080919F02882309F45ACF853009F457CF6B
:101A20008091E80083FD53CF8091E80082FD82CF52
:101A30008091E80080FF78CF9091F3008091F200D0
:101A40002115310519F08830910550F041E00897D3
:101A500009F040E08091E8008E778093E80064CF41
:101A600044914093F1003196215031090196E8CF1D
:101A7000803809F04CC08091E800877F8093E800AF
:101A8000809196028093F10092CE811140C0109116
:101A900099021230E0F58091E800877F8093E8009A
:101AA000109396020E946506112311F084E005C090
:101AB0008091E30087FDFACF81E080939F0242E0AE
:101AC00061EC81E00E94840642E261EC84E00E94C5
:101AD000840642E261EC82E00E94840642E260EC0D
:101AE00083E00E94840613C080919902813079F4CA
:101AF00081E0933009F080E0809395021092E90034
:101B00008091E800877F8093E8000E9465068091BD
:101B1000E80083FF0AC08091E800877F8093E80097
:101B20008091EB0080628093EB00AA960FB6F89448
:101B3000DEBF0FBECDBFDF91CF911F910895CF9330
:101B4000DF93682F81E06A3019F06D3029F480E06E
:101B5000DF91CF910C942A0E8091AD049091AE0448
:101B600026E0FC01A7EAB4E001900D922A95E1F786
:101B7000603E08F456C026E0FC0111922A95E9F770
:101B8000C091AD04D091AE0446E050E0BE0187EABA
:101B900094E00E946D24C75AD2409E012A5F3F4FB5
:101BA000892B21F185E0D695C7958A95E1F741E02B
:101BB00050E0CA0102C0880F991FCA95E2F76091F0
:101BC000A5027091A602862B972BB901E5E07695C8
:101BD0006795EA95E1F702C0440F551F6A95E2F751
:101BE000842B952B9093A6028093A5024091A4028A
:101BF000642F70E0C9010E944324481B463010F452
:101C0000240F311D211582E0380710F030E020E06C
:101C100029553D4F3093AE042093AD04DF91CF9111
:101C20000895F6E06F9FB00111246C547A4F46E09E
:101C300050E00E946424A4CFCF93DF93EC01FE0117
:101C40008491811103C0DF91CF9108950E949F0D6F
:101C50002196F5CFCF93382FE091AD04F091AE04EB
:101C6000E75AF2402091A402622F70E0CF010E9457
:101C70004324281B822F332361F066E00E9437241F
:101C8000C82FC15010F4CF91089580E20E949F0D9B
:101C9000F8CF9F01280F311D2115324018F080E048
:101CA000F0E0E0E08E0F9F2F911D89559D4F90939E
:101CB000AE048093AD04E7CFCF92DF92EF92FF9214
:101CC0000F931F93CF93DF936C017B0164E670E069
:101CD00088E70E945423EC0197FD12C010E000E059
:101CE000F601E00FF11F849164E670E00E94B023DA
:101CF000EC01892B29F40F5F1F4F0E151F0581F78B
:101D00000E943324CE01DF91CF911F910F91FF905C
:101D1000EF90DF90CF9008950E947907605A754147
:101D20008F4F9F4F609355027093560280935702D6
:101D30009093580280915902811108C062E070E0CE
:101D400083E794E00E945C0E892B19F08091590280
:101D5000089581E080935902F9CFCF93DF9300D0AB
:101D60000F92CDB7DEB790919F02943011F5898321
:101D70007B836A839093E9008FEF9091E800815014
:101D800095FD06C095ED9A95F1F700008111F5CF0C
:101D90008091E80085FF0DC050E040E063E070E016
:101DA000CE0101960E9413068091E8008E77809301
:101DB000E8000F900F900F90DF91CF910895209140
:101DC0009F02243021F4BC0184E00C94AD0E0895F0
:101DD000BC0183E00C94AD0ECF93DF93EC018091B6
:101DE0009F028430C1F590911201992329F09091BE
:101DF0002E0260E297FD02C068E081E08093E90076
:101E00008FEF9091E800815095FD06C095ED9A9571
:101E1000F1F700008111F5CF8091E80085FF1BC02C
:101E20008091120170E050E040E0811104C050E068
:101E300040E068E070E0CE010E9413068091E80067
:101E40008E778093E80080E2FE01A4E7B2E0019083
:101E50000D928A95E1F7DF91CF91089581E080930B
:101E6000E00080E28093D8001092C9008FE19EE4E8
:101E70000197F1F700C0000087E090EBDC01809350
:101E8000AF049093B004A093B104B093B20488E17E
:101E90009CE00FB6F894A895809360000FBE9093D5
:101EA0006000FFCFCF93C82F0E94FC09C93349F4CB
:101EB0002FEF87EE93E0215080409040E1F700C083
:101EC00000008C2FCF910C94CA09FF920F931F939F
:101ED000CF93DF93E82FF0E0E556FE4FF490C82F44
:101EE000C695C695C695D0E0FE01E557FE4F049114
:101EF000877010E0082E02C0159507950A94E2F746
:101F000001701127C558DE4FFE01C491D0E002C018
:101F1000D595C7958A95E2F7C170DD2701151105A2
:101F200019F081EE0E94FC09209719F086EE0E94BC
:101F3000FC098F2D0E94520FCD2B19F086EE0E94C6
:101F4000CA09012B41F081EEDF91CF911F910F91D2
:101F5000FF900C94CA09DF91CF911F910F91FF90D0
:101F60000895CF9384E090E00E947A24C82F81E204
:101F700090E00E947A24982F8C2FCF9108950F9390
:101F80001F93CF93DF93C42FD0E0CC0FDD1F2EE142
:101F9000629FC00DD11D112436E9839FC00DD11D54
:101FA0001124CE0186960E947A24082F10E0102F6B
:101FB0000027CE0187960E947A249801282BC90118
:101FC000DF91CF911F910F910895462F843038F4FF
:101FD000753028F46F3018F4672F0C94BF0F90E021
:101FE00080E00895CF93DF930E94E50FEC018238E3
:101FF0009105A9F1D8F58133910509F496C048F50A
:102000008932910509F48AC08A9709F495C0C115EF
:1020100022E5D20708F0B6C0C11531E5D30708F0B4
:1020200026C1C83ED10508F09CC0C13ED10560F56F
:10203000C83AD10508F087C0C53AD10508F0EFC00D
:10204000C130D10509F12097F9F0C430D105E0F491
:1020500040C08533910509F45AC0C997C1F68091F3
:102060002E02837089F0C0EED0E00EC0833E910551
:1020700099F170F4803E910501F1823E910539F6A7
:1020800080912E0282FD21C0CE01DF91CF91089573
:10209000863E910561F1873E910571F1843E91057F
:1020A00009F0B5CF80912F0281FFEECF80912E02F3
:1020B000C7EED0E084FD0DC0E7CF80912E0280FDF9
:1020C00007C190912F0290FFDFCFC3EED0E084FFD5
:1020D000DBCFD0E0C0E0D8CF80912E0282FDFBC0E4
:1020E00090912F0290FDBFCF84FFCECFF2CF809191
:1020F0002E0283FDDDCFC8CF80912E0283FDEEC07E
:1021000090912F0291FFF0CFC4EED0E0BDCF80912F
:102110002E0285FFB9CFC9E2D0E0B6CF80912E0262
:1021200085FFB2CFC5E3D0E0AFCF80912E0286FF0E
:10213000ABCFCAE2D0E0A8CF80912E0286FFA4CF19
:10214000C1E3D0E0A1CFCF3BD10518F6C85AD0E00B
:10215000CC0FDD1FCA5DDE4F0990D881C02DD4643D
:1021600093CFC11540E5D40708F064C0C11580E4E1
:10217000D80708F05CC0CE019A9581159F4108F4FC
:1021800083CFA7CFC11536E5D30718F5C11545E5AF
:10219000D40708F084C0C11584E5D80708F07AC0D8
:1021A0009C2F969596959E0123703327C115D34594
:1021B00008F462C0C1E0D0E002C0CC0FDD1F2A9558
:1021C000E2F730E2939FC0011124C82BD92BDA68C3
:1021D0005BCFC1158AE5D80778F4C11599E5D90711
:1021E00008F068C0C11528E5D20708F472CFDC2FCB
:1021F000CC27C06FD06A48CFCE019056811590424F
:1022000008F067CF8D2F8F710E94760A90E0982F8B
:10221000882788279F719C012C2BE90149C0C55A4A
:10222000D0E0CD5DDE4FC881D0E0D0642DCFDF702F
:10223000D06A2ACFCE01E4E096958795EA95E1F73A
:1022400083702C2F26952695237040E2249F9001C1
:102250001124382B8C2F8370C1E0D0E002C0CC0F4A
:10226000DD1F8A95E2F7C22BD32BDC680DCFDC2F64
:10227000CC27C16FD06A08CFC1E0D0E002C0CC0F3C
:10228000DD1F2A95E2F720E2929FC0011124C82B9E
:10229000D92BEBCFDC2FCC27C46FD06AF5CE8C2F97
:1022A0000E94760AC82FD0E0DC2FCC27CC27DF7124
:1022B000D062EACE8C2F8F700E94760A34E0D695D9
:1022C000C7953A95E1F7CF709C2FEC01D069DCCE31
:1022D000C9E3D0E0D9CEC2EED0E0D6CEC6EED0E093
:1022E000D3CEBF92CF92DF92EF92FF920F931F93C4
:1022F000CF93DF938C01C090A002D090A102E09018
:10230000A202F090A30280911B0290911C02A09166
:102310001D02B0911E02C82AD92AEA2AFB2ACFE15F
:10232000D0E0BC2ED701C6010C2E04C0B695A795EF
:10233000979587950A94D2F780FD0EC0219788F76C
:10234000B12C8B2DDF91CF911F910F91FF90EF90CA
:10235000DF90CF90BF900895B8018C2F0E94F20FAC
:10236000019761F3EECFCF93DF93EC010E947111DF
:10237000BE01DF91CF910C94F20F0E94B311292F6F
:102380002F7092959F7092509E3078F4E92FF0E074
:10239000E853FB4D0C945724803F19F020F4883EFD
:1023A00020F481E00895843FE1F380E00895883EC1
:1023B000C0F3813FD1F7F5CF822F8695869586951C
:1023C00008956F927F928F929F92AF92BF92CF9219
:1023D000DF92EF92FF920F931F93CF93DF938BE1E6
:1023E000C82E82E0D82E9AEDE92EF12CE701C659CD
:1023F000D10936011BC0F50185909490692DC80163
:102400000E948824682DC80101960E94882482E0D9
:10241000A80EB11C0E5F1F4FC017D10761F78EE1E8
:10242000680E711C6E96CE15DF0529F08E010E51D7
:1024300011095301E0CF7E0186E9E80EF11C86E91F
:10244000C80ED11C82E3E81683E0F80679F6DF9126
:10245000CF911F910F91FF90EF90DF90CF90BF90A1
:10246000AF909F908F907F906F900895CF93DF9360
:10247000CEE7D2E060E0CE010E9488242196C1150B
:1024800084E0D807B9F7DF91CF910895CF93DF9318
:10249000D82FCFEF8111C0E26C2F82E290E00E9432
:1024A00088246FEFD11167E083E290E00E948824D6
:1024B0006C2F84E290E0DF91CF910C9488246CEE35
:1024C0007EEF90E080E00E94A62460E082E090E051
:1024D0000E94882460E083E090E00E9488241092AB
:1024E0001B0210921C0210921D0210921E0260E04C
:1024F00084E090E00E94882460E081E290E00E9405
:10250000882460E085E090E00E94882460E086E016
:1025100090E00E9488246FEF87E090E00E9488247A
:1025200040E050E0BA0188E090E00E949A2460E028
:102530008DE090E00E94882440E050E0BA0188E1FC
:1025400090E00E949A2460E087E190E00E94882455
:1025500040E050E0BA018CE190E00E949A2460E0F3
:1025600080E290E00E94882440E050E0BA018FE0D1
:1025700090E00E949A2440E050E0BA0183E190E0AC
:102580000C949A244F925F926F927F928F929F92B7
:10259000AF92BF92CF92DF92EF92FF920F931F9371
:1025A000CF93DF9300D000D00F92CDB7DEB76C0190
:1025B000FC0183819481892B31F080819181892371
:1025C0008F3F09F0FDC50F900F900F900F900F9067
:1025D000DF91CF911F910F91FF90EF90DF90CF90FF
:1025E000BF90AF909F908F907F906F905F904F9033
:1025F00008950E947111182F682F89819A810E9475
:10260000A40869817A81812F0E94E50F8C01F6016F
:102610008281882309F4C9C5980122513F452031A0
:10262000310508F0AEC58FEF93E00E947A24025185
:102630006EE7E62E62E0F62E8111C5CF011138C09B
:102640001C821B82CC24C3945AE0B52E87010F5FF5
:102650001F4FC7010E947A2489831A82882309F4B4
:10266000B2CF9FEF980F933090F58A83C98232E002
:10267000E30EF11CC8010E947A248B83882309F49D
:10268000A2CF8E010F5F1F4FF80180818823F1F2E6
:10269000813009F056C08181D2808130D1F40E5F43
:1026A0001F4F8D2D0E94FC098D2D0E94CA0918C054
:1026B000E114F4E0FF0609F486CFC7010E947A24F2
:1026C000811101C001502FEFE21AF20AB7CF780151
:1026D000D8CF823041F40E5F1F4F8D2D0E94FC0930
:1026E0000F5F1F4FD1CF833019F40E5F1F4FDCCF28
:1026F000843019F00F5F1F4FF3CF0E5F1F4F30E094
:1027000020E0B8016F5F7F4FF8014181ED2DE0536C
:10271000FF0BCF013A9750F02150310908F38FE9B0
:102720009FE00197F1F700C00000F6CFB29EF001E4
:10273000B39EF00D11249C012E0F3F1FD42E8B0150
:10274000E0CF0E94650FCCCF81E00E949F0903C0BB
:1027500081E00E9464090F900F900F900F900F90EE
:10276000DF91CF911F910F91FF90EF90DF90CF906D
:10277000BF90AF909F908F907F906F905F904F90A1
:102780000C94480982E0E1CF91E4811111C0063137
:102790001C4509F036C58091AB0169E2811165E302
:1027A00080E891E00E9485071BC0882381F392E4B2
:1027B000909332020631FCE51F0709F017C5882304
:1027C00051F3809119028A7A91E009F490E0909394
:1027D000AB0169E2811165E380E891E00E94AF07F7
:1027E0000F900F900F900F900F90DF91CF911F914E
:1027F0000F91FF90EF90DF90CF90BF90AF909F90A0
:102800008F907F906F905F904F900C94370893E477
:102810008111CECFBCCF94E48111CACFB8CF95E45B
:102820008111C6CFB4CF96E48111C2CFB0CF97E467
:102830008111BECFACCF98E48111BACFA8CF99E473
:102840008111B6CFA4CF9AE48111B2CFA0CF9BE47F
:102850008111AECF9CCF9CE48111AACF98CF9DE48B
:102860008111A6CF94CF9EE48111A2CF90CF9FE497
:1028700081119ECF8CCF90E581119ACF88CF91E5C1
:10288000811196CF84CF92E5811192CF80CF93E5CD
:1028900081118ECF7CCF94E581118ACF78CF95E5D9
:1028A000811186CF74CF96E5811182CF70CF97E5E5
:1028B00081117ECF6CCF98E581117ACF68CF99E5F1
:1028C000811176CF64CF9AE5811172CF60CF8823D2
:1028D00009F45DCF8091190281FF25C082E00E943A
:1028E000E5088FE10E94FC098091190281FF80C0F8
:1028F0008FE10E94CA0982E00F900F900F900F9015
:102900000F90DF91CF911F910F91FF90EF90DF908B
:10291000CF90BF90AF909F908F907F906F905F907F
:102920004F900C94DA0885FFDCCF8F7D80931902DD
:1029300005E714E04AE0D42EF80184918823A1F23F
:10294000813009F051C07801FFEFEF1AFF0AF7015B
:102950008491813069F47801F2E0EF0EF11CF70107
:102960001491812F0E94FC09812F0E94CA090AC07C
:10297000823061F47801F2E0EF0EF11CF7018491EE
:102980000E94FC0987010F5F1F4FD6CF833039F4B7
:102990007801F2E0EF0EF11CF7018491E6CF84306C
:1029A00089F77801F2E0EF0EF11CF701249190E035
:1029B00080E0F70131962053330B2A30310548F07F
:1029C000019700F3EFE9FFE03197F1F700C0000055
:1029D000F7CFD89EA001D99E500D1124C901840FB4
:1029E000951F24917F01E5CF0E94650F7801CACF22
:1029F00085FDE9CD8FE10F900F900F900F900F9014
:102A0000DF91CF911F910F91FF90EF90DF90CF90CA
:102A1000BF90AF909F908F907F906F905F904F90FE
:102A20000C94CA09882309F4B2CE02302CE51207AF
:102A300008F4D7C306313CE5130738F098012A5F44
:102A40003C452930310508F0CCC30E94B10F90936A
:102A50002F0280932E0200318CE5180709F4E9C09B
:102A600008F077C00830ECE51E0709F4D4C008F080
:102A700049C004302CE5120709F4C5C080F50230C6
:102A80008CE5180709F4B9C080912E0282600330EA
:102A90001C4509F4B5C060912E0210912F0284E00C
:102AA00090E00E948824612F81E290E00E948824B7
:102AB0000F900F900F900F900F90DF91CF911F917B
:102AC0000F91FF90EF90DF90CF90BF90AF909F90CD
:102AD0008F907F906F905F904F900C94B90A809187
:102AE0002E0280610630ECE51E0709F489C0809152
:102AF0002E02886007301C4508F482C080912E02A7
:102B000080627EC080912E028D7F0C302CE51207F2
:102B100009F476C058F40A308CE5180709F485C02A
:102B200008F47DC080912E028E7F6AC080912E02B3
:102B3000877F0E30ECE51E0709F462C080912E02FB
:102B40008B7F0F301C4508F45BC080912E028F7E76
:102B500057C00B3F2CE5120709F459C030F503317B
:102B60008CE5180709F46DC078F40131ECE51E0717
:102B700009F463C002311C4509F08DCF0E94B90AE7
:102B800080912E028F773CC005312CE5120709F4A5
:102B900060C008F474C00A3F1C4509F07CCF8091E6
:102BA0002F02816080932F0276CF0F3F9CE519079B
:102BB00009F44BC088F480912F028D7F0D3FFCE516
:102BC0001F0781F380912F028E7F0E3F1C4550F32B
:102BD00080912F028360E6CF01303DE5130709F4B1
:102BE00057C008F442C060E002301D4509F053CFE1
:102BF0008EE090E00E9488244ECF80912E0281606A
:102C000080932E0248CF80912E028460F9CF80916C
:102C10002F028260C7CF80912E028064F1CF0E9484
:102C2000B90A80912E028068EBCF80912E028C60D1
:102C3000E7CF80912E028F7DE3CF80912E028F7B94
:102C4000DFCF80912E02837FDBCF80912F028C7F9C
:102C5000A9CF80912E0282FB992790F921E092273B
:102C600090FB82F990FB83F9CBCF80912F02982FB4
:102C7000909591708E7F892B90FB81F993CF0E9464
:102C8000B90A90912E02892F97FB87F98058B8CF07
:102C900061E0AECF0E94B90A2FEF34E38CE02150FF
:102CA00030408040E1F700C000000E942E0F0F90DE
:102CB0000F900F900F900F90DF91CF911F910F9178
:102CC000FF90EF90DF90CF90BF90AF909F908F904C
:102CD0007F906F905F904F900C945F12C8010E949C
:102CE0007C08F82E9CC2212F2F70A22E107F19F085
:102CF000A29490EFA922FF20C9F0AA2069F080E2F7
:102D0000800F883010F081100BC080911902A82A22
:102D1000A09219020E943708802F0E94FC0918C057
:102D200080911802A82AA0921802F4CF802F0E9446
:102D3000CA09AA2069F0A094005E083010F0811042
:102D40003BC080911902A822A09219020E94370864
:102D5000EB2DE850FF0B349710F40E946A0AEE2026
:102D600009F431CC8091160280FD2DCCF60112823F
:102D70008595859585950E949F09C6010E94C2127E
:102D8000809116028595859585950F900F900F90EF
:102D90000F900F90DF91CF911F910F91FF90EF90C7
:102DA000DF90CF90BF90AF909F908F907F906F906B
:102DB0005F904F900C94640980911802A822A09211
:102DC0001802C4CF312F3F70932E107F103219F0AC
:102DD000929480EF9822882071F091E0891661F139
:102DE000FF20B9F1AA2071F1F601858180FF94CF0F
:102DF0008F70858327C0FF2091F090911A02892F50
:102E00008929A11003C00E94FA08A2CFE1E0AE1206
:102E1000FACF981709F49CCF80931A0299CFA1108A
:102E200006C00E943108892D0E94EF0891CFF1E081
:102E3000AF1609F48DCFF5CFFF2031F025E02A152C
:102E400008F486CF892DDFCF34E03A1508F480CF1F
:102E5000EACFAA2041F3093349F4FFEF27EE33E02C
:102E6000F15020403040E1F700C00000802F0E9468
:102E7000CA096ECF812F86958695837061F0813067
:102E800009F066CFC8019370F11002C090E080E0B5
:102E90000E9404095DCFC8019370F11002C090E058
:102EA00080E00E941A0954CF812F837009F066C018
:102EB000F1104ECF802F829586958770880F880FEE
:102EC000602F6F70462E512C712C612C082E04C07F
:102ED000440C551C661C771C0A94D2F740E050E065
:102EE000BA0104FF0FC04FE050E060E070E004C0A2
:102EF000440F551F661F771F8A95D2F7409550954E
:102F000060957095812F869586958370823019F132
:102F1000D8F400911B0210911C0220911D023091E7
:102F20001E02813069F04429552966297729CB0191
:102F3000BA0160237123822393230E94C00908CF22
:102F4000402A512A622A732ACB01BA0164297529C1
:102F500086299729F2CF4429552966297729009196
:102F60001B0210911C0220911D0230911E02CB0108
:102F7000BA016027712782279327DFCF8695FF202C
:102F800011F0812F8170882309F4E2CE802F829581
:102F900086958770880F880F602F6F70462E512C92
:102FA000712C612C082E04C0440C551C661C771C27
:102FB0000A94D2F740E050E0BA0104FF0FC04FE09E
:102FC00050E060E070E004C0440F551F661F771F9B
:102FD0008A95D2F74095509560957095812F86958A
:102FE00086958370823019F1D8F40091A002109177
:102FF000A1022091A2023091A302813069F04429FC
:10300000552966297729CB01BA01602371238223D0
:1030100093230E943E099CCE402A512A622A732A99
:10302000CB01BA016429752986299729F2CF442951
:103030005529662977290091A0021091A1022091BB
:10304000A2023091A302CB01BA0160277127822727
:103050009327DFCF1F70FF2029F0812F0E949F0947
:10306000802FD1CE802F0E94EF08812F0E9464090B
:103070006FCE802F92EF891609F450C0981578F022
:10308000E0EF8E1619F1F1EF8F1609F43FC0FF2023
:1030900009F467C0A11040CE812F8F713CC023EF8F
:1030A000821609F440C034EF8312F1CFFF2009F4F7
:1030B0004DC01F71812F0E949F09E8E01E9FC00133
:1030C0001124836080931602812F25C0FF20C9F050
:1030D00084E08A1508F43CCE1F7161E070E080E066
:1030E00090E004C0660F771F881F991F1A95D2F7CA
:1030F0000091A0021091A1022091A2023091A3029E
:10310000A4CF95E09A1508F423CEE6CF812F8F71D6
:10311000FF2009F4ABCF0E949F091ACE812F8F7137
:10312000FF20C9F3A3CF60E070E0CB01FF2009F4DA
:1031300070CF1F7161E070E080E090E004C0660F26
:10314000771F881F991F1A95D2F763CF81E00E94DD
:103150008709F1E0FA1508F0FBCD82E00E948709AB
:10316000F7CDAA2059F0893309F080CE2FEF37EE42
:1031700083E0215030408040E1F776CE812F8F717F
:1031800075CF0031FFE51F0709F4DECA01312FE5D5
:10319000120709F4F7CAF8013497EC31F10508F089
:1031A00041CCEA52FB4D0C94572400313FE5130704
:1031B00009F4CECA01319FE5190769F782E0C9CA4F
:1031C00085E0DE01119601900D928A95E1F7F601F6
:1031D000228189819A8121110CCA0E947C08182FB2
:1031E00010CA06312CE5120709F4EBCA882349F00E
:1031F0000115ECE51E0709F44DCD0E3D1C4509F403
:1032000056CDF60100811181882309F467CDC801EC
:103210000E947111F82E682FC8010E94A408B801FD
:103220008F2D0E94F20F8C01882EF601A580A294AA
:103230003FE0A322F280F110109218028091160252
:10324000877079F0FF2069F080E2800F883048F0C5
:1032500082E00E948709809116028770EE24E39431
:103260008111E12CB12EB2942FE0B222FBE0FB15CC
:1032700008F46ECDEB2DF0E0EE50FB4D0C9457248E
:103280001F93CF93DF938091B101807FA9F4809148
:10329000AE01882389F08091E301D091B201609161
:1032A000AC017091AD01A091AF01B091B001C62FFA
:1032B000C72316E0D81304C0DF91CF911F91089562
:1032C00090E0109711F0CF3F19F401968770F2CF7C
:1032D000189F9001199F300D1124F901ED54FE4FF4
:1032E00041814713F2CF40814613EFCF4281411114
:1032F000ECCF438154814A1B5B0B483C510528F7B6
:103300008091B1018F7080618093B101F901E8541F
:10331000FE4F80818F70806180838CEA91E00E94F3
:10332000C212DF91CF911F910C94D008AF92BF923F
:10333000CF92DF92EF92FF920F931F93CF93DF9381
:10334000CDB7DEB761970FB6F894DEBF0FBECDBF25
:103350008C0185E0F801DE011D9601900D928A95A1
:10336000E1F7F80180819181E2802CEAA22E21E030
:10337000B22E6091AF017091B0016115710509F431
:103380003EC13091AC014091AD01232F24232F3F4A
:1033900009F435C1C380D480F090AE01F601E61B7C
:1033A000F70BFF2009F4FBC02091B101522F507F91
:1033B000E83CF10508F0BBC0511178C0FE2C491360
:1033C00021C038131FC0E1101DC02F702061209351
:1033D000B101C5010E94C2128091B101F80185833B
:1033E0008F2D61960FB6F894DEBF0FBECDBFDF9173
:1033F000CF911F910F91FF90EF90DF90CF90BF90F2
:10340000AF900895CD2829F0282F29232F3F09F0C8
:1034100014C120E0F22FF170DF2E20FF3DC020917B
:10342000E3014091B20156E0241315C08D879E87B9
:103430008D859E850E94B311292F22952F702230F1
:10344000F8F0243020F59F70F9F0F8019581907F15
:10345000D9F4D12C1FC030E0529FF001539FF00DE2
:103460001124ED54FE4F6181961306C060818613CE
:1034700003C06281E61210C02F5F3F4F2770D4CF88
:103480009F7011F0882329F3805E883010F3C80103
:103490000E94C212FD2CA4CFEE2009F4A1CF80918E
:1034A000B10181608093B101F12C9ACF491312C010
:1034B000381310C0E1100EC0F8012583C8010E9426
:1034C000C21286E0F801ACEAB1E001900D928A9553
:1034D000E1F786CF8D879E878D859E850E94BD11E1
:1034E000882309F1EE20F9F08091B101803270F06B
:1034F0002091AC013091AD0138872F831986DB868E
:10350000CA868C87CE0107960E94C21286E0F80117
:10351000ACEAB1E001900D928A95E1F70E94401962
:10352000FF24F3945DCFC8010E94C212F9CF51115C
:103530000AC08CEA91E00E94C21286E0F501119265
:103540008A95E9F7B1CF49130FC038130DC0E110C8
:103550000BC0F8012583C8010E94C21286E0F50164
:1035600011928A95E9F73CCF8D879E878D859E8540
:103570000E94BD118823B9F2EE20A9F28091B10119
:10358000803220F22091AC013091AD013A83298341
:103590001B82DD82CC828E83CE010196B5CFE83CC2
:1035A000F105E0F6FE2CEE2009F4BDCF491316C05C
:1035B000381314C08091B10180FD83CF982F907F84
:1035C00009F47FCFF8018583903F09F477CF982FD6
:1035D000907F905F8F70892B858370CF8D879E87BA
:1035E0008D859E850E94BD11811190CF8091B10182
:1035F00081608093B101C8010E94C212F1CEEE2019
:1036000009F491CF8D879E878D859E850E94BD117F
:10361000F82E882309F487CF86E0F801ACEAB1E000
:1036200001900D928A95E1F78091AC019091AD01E6
:103630000E94B3110E944019D3CE21E02E25EACE7C
:103640001F93CF93DF93CDB7DEB767970FB6F8948C
:10365000DEBF0FBECDBF4B8B5C8B6D8B7E8B8F8B9C
:103660001A8A198A85E0FE017396DE011D96019083
:103670000D928A95E1F786E0FE013D96DE011796F0
:1036800001900D928A95E1F7CE0107960E94961956
:10369000811112C086E0FE013796DE01119601907D
:1036A0000D928A95E1F78A859B85892B29F08F8178
:1036B000988589238F3FB1F516E08091E3019091C1
:1036C000B20189131DC067960FB6F894DEBF0FBE16
:1036D000CDBFDF91CF911F91089596E0929FD001C9
:1036E000939FB00D1124AD54BE4FFE013196019051
:1036F0000D929A95E1F78093B2010E94D008DCCF39
:10370000819FC00111248D549E4F0E9496198823D9
:10371000D1F28091E30190E0019687709927809320
:10372000E301CBCF2091B20130E0C901019687704F
:1037300099274091E3014817190679F60E94B90AC2
:103740001092B2011092E30186E0ECEAF1E0DF01B1
:103750001D928A95E9F7B0CF1F920F920FB60F9284
:1037600011242F933F934F935F936F937F938F9386
:103770009F93AF93BF93CF93DF93EF93FF93D0913A
:10378000E900DF708091EC00C82FC17080FDC0E8B7
:103790001092E9008091F000877F8093F000789488
:1037A0000E94CE0A1092E9008091F0008860809318
:1037B000F000CD2BCF70C093E900FF91EF91DF9126
:1037C000CF91BF91AF919F918F917F916F915F91B9
:1037D0004F913F912F910F900FBE0F901F90189512
:1037E0001F920F920FB60F9211242F933F934F9376
:1037F0005F936F937F938F939F93AF93BF93EF9359
:10380000FF938091E10082FF09C08091E20082FF76
:1038100005C08091E1008B7F8093E1008091DA0008
:1038200080FF24C08091D80080FF20C08091DA0002
:103830008E7F8093DA008091D90080FF9FC080E165
:1038400089BD82E189BD09B400FEFDCF81E080938E
:103850009F0280917102811109C00E94C3050E94DC
:10386000B6068091E20084608093E2008091E100DE
:1038700080FF17C08091E20080FF13C08091E200BA
:103880008E7F8093E2008091E20080618093E2006D
:103890008091D80080628093D80019BC85E0809325
:1038A0009F028091E10084FF2DC08091E20084FF9F
:1038B00029C080E189BD82E189BD89B5982F9170C9
:1038C00080FFFBCF8091D8008F7D8093D8008091BE
:1038D000E1008F7E8093E1008091E2008F7E8093F3
:1038E000E2008091E20081608093E2008091960284
:1038F000882309F449C084E080939F020E94B90A9A
:103900000E946A0A8091E10083FF27C08091E20053
:1039100083FF23C08091E100877F8093E10082E0F4
:1039200080939F02109296028091E1008E7F809397
:10393000E1008091E2008E7F8093E2008091E200BE
:1039400080618093E20042E060E080E00E948406B3
:103950008091F00088608093F000FF91EF91BF911B
:10396000AF919F918F917F916F915F914F913F9117
:103970002F910F900FBE0F901F90189519BC1092A9
:103980009F021092710272CF8091E30087FD93E055
:1039900090939F02B3CF78941F921FB61F92112469
:1039A0008F939F93AF93BF9380911F0290912002BA
:1039B000A0912102B09122020196A11DB11D809318
:1039C0001F0290932002A0932102B0932202BF9184
:1039D000AF919F918F911F901FBE1F9018952FB789
:1039E000F89480911F0290912002A0912102B09141
:1039F00022022FBF08954F925F927F928F929F92E3
:103A0000AF92BF92CF92DF92EF92FF920F931F93EC
:103A1000CF93DF9344E551E064E2462E62E0562EF8
:103A200079E5872E71E0972EC0E0EE24E394F12C27
:103A3000DA018D91AD01E82FE295EF70F0E091A1F0
:103A40008F70570101C0AA0C8A95EAF7892F8A293D
:103A500081A382A1DA2DD0958D2382A3B0EABA95F5
:103A6000F1F739E5C32E31E0D32E30E020E090E0CD
:103A700080E0D6017D906D01672D62956F7070E0DA
:103A8000DB0190966C9170E0B72DBF7002C0759508
:103A90006795BA95E2F760FD70C0B701022E02C0CB
:103AA000660F771F0A94E2F7862B972B2F5F3F4F05
:103AB0002F303105F1F621A1D223D1A322A1A22AD0
:103AC000A2A2F201208131818217930709F458C024
:103AD0009183808381E0C82BF2E04F0E511C841645
:103AE000950609F0A5CFCC2309F44CC081E0809362
:103AF000A2010E94EF1C9093A1018093A00120914C
:103B0000A0013091A1014FB7F89480911F029091CC
:103B10002002A0912102B09122024FBF821B930B81
:103B20000697A0F18091240290912502909368025B
:103B300080936702809126029091270290936A02F7
:103B400080936902809128029091290290936C02DF
:103B500080936B0280912A0290912B0290936E02C7
:103B600080936D0280912C0290912D0290937002AF
:103B700080936F021092A20109C070E060E094CFC0
:103B800080E0A9CF8091A2018111B9CFE0912302F9
:103B9000EE0FEE0FE093230283B190E0880F892FA0
:103BA000881F990B29B122FB002700F922FF02C0D0
:103BB00002E010E0082BE02BE0932302EF70F0E02E
:103BC000ED5EFE4F80819091A401890F8093A40146
:103BD0008430ACF08091A3018F5F8093A30160914A
:103BE000A0027091A1028091A2029091A3020E9472
:103BF000E407882309F463C0813009F464C080912C
:103C0000A4018D3FACF48091A30181508093A30166
:103C10006091A0027091A1028091A2029091A302F2
:103C20000E94E407882309F450C0813009F451C090
:103C30008091A401837887FF03C081508C6F8F5FD0
:103C40008093A40186E880937A0080E880937B00CB
:103C500080910001856080937C0080917A0080646F
:103C600080937A0080917A0086FDFCCF8091780065
:103C7000909179002091A5013091A601AC01421BE1
:103C8000530B9A0157FF03C03195219531092D300F
:103C9000310524F09093A6018093A5018C2FDF912C
:103CA000CF911F910F91FF90EF90DF90CF90BF9039
:103CB000AF909F908F907F905F904F9008958AEA89
:103CC0000E94520F9CCF8EEBFBCF89EA0E94520FCD
:103CD000AFCF8DEBFBCFCDB7DEB7AC970FB6F89477
:103CE000DEBF0FBECDBF84B7877F84BF0FB6F89409
:103CF000A8958091600088618093600010926000B8
:103D00000FBE80E890E00FB6F89480936100909326
:103D100061000FBE85B7806885BF85B7806885BFA5
:103D20000E94C3050E94B6068091E20084608093E1
:103D3000E200789480919F028823A1F01091E9001D
:103D40001F709091EC00892F817090FD80E8182BF6
:103D50001092E9008091E80083FD0E94CE0A1F7056
:103D60001093E90082E084BD93E095BD9AEF97BD82
:103D700080936E00A4E5B1E049E551E061E070E0B8
:103D80008D91E82FE295EF70F0E011A18F709B010B
:103D900001C0220F8A95EAF7922F9095912391A363
:103DA00082A1822B82A34A175B0751F7A9E5B1E0F4
:103DB00061E070E08D91E82FE295EF70F0E041A1B5
:103DC0008F709B0101C0220F8A95EAF7922F909580
:103DD000942391A382A1822B82A321E0A836B2076B
:103DE00049F7109225021092240210926802109254
:103DF0006702109227021092260210926A02109215
:103E00006902109229021092280210926C021092FC
:103E10006B0210922B0210922A0210926E021092E4
:103E20006D0210922D0210922C02109270021092CC
:103E30006F020E94FB1C8FE39CE90197F1F700C021
:103E400000000E94FB1C8091670280FF0BC080E095
:103E50000E9446126FEF7FEF90E080E00E94A62460
:103E60000E942E0F90E080E00E9482248C3E9E4FA4
:103E700011F00E945F1227982F9A52985A9A83B194
:103E800090E0880F892F881F990B4A992FC120E055
:103E9000822B8093230280E48093000182E290E0F1
:103EA0000E947A24803209F0C0C383E290E00E942D
:103EB0007A24873009F0B9C384E290E00E947A2422
:103EC000803209F0B2C31092530280E88093A402BA
:103ED0000E944E236DE070E08CE994E00E945C0E3D
:103EE000892BE9F58091530263E070E081FD00C108
:103EF00089E994E00E945C0E892B89F56DE070E001
:103F000089E894E00E945C0E892B49F50E947907AC
:103F1000605A75418F4F9F4F6093550270935602C0
:103F20008093570290935802E7EAF2E080E092E033
:103F3000DF019C011D9221503040E1F7F093AE0467
:103F4000E093AD048FEF9FEF9093A6028093A502BC
:103F500081E080935A02809359021092540290E0BB
:103F600080E00E9482248C3E9E4F11F00E945F12DE
:103F700082E090E00E947A2480935C020E94B10F5C
:103F800090932F0280932E0283E090E00E947A2487
:103F9000682F70E090E080E00E94C00960912E02DE
:103FA000606860932E0210912F0284E090E00E94DE
:103FB0008824612F81E290E00E94882488E091E0CB
:103FC0009093310280933002DD24DA9444244394A8
:103FD000512C63E0C62E0E94FB1CB82EE7E6F2E0EF
:103FE000ADE5B2E010E000E0702F819191912D914C
:103FF0003D912817390709F484C060E0EE24E3946A
:10400000F12C28273927A9014E215F21452B09F4DE
:1040100072C069A37AA39C012E213F2191E0232B3A
:1040200009F490E09BA30E94EF1C8160782F9DA370
:104030008CA349A15AA16BA18DA10E94201B000F46
:10404000111FF801E35AFD4F80819181E826F9267E
:10405000F182E08280915A02882309F4E9C087EA5C
:1040600092E09093AE048093AD0486ED94E00E94BC
:104070001C0E0E946A0A182F6091A0027091A10282
:104080008091A2029091A3020E94E4078230B8F4CA
:1040900083EC94E011FF02C08AEC94E00E941C0EB5
:1040A00081ED94E00E941C0E80913202811101C0CA
:1040B0008AE20E949F0D8EEB94E00E941C0E60919C
:1040C000A0027091A1028091A2029091A3020E948D
:1040D000E407882361F1813009F4E5C089EA94E0BE
:1040E0000E941C0E81E00E942A0E25C022E0D0CE44
:1040F00086E994E0FFCE6F5FEE0CFF1C6F3009F095
:1041000082CF0F5F1F4F0530110509F06DCFDEA282
:10411000DFA218A60E94EF1C8160782F9AA789A7BA
:104120004EA15FA168A58AA50E94201B93CF87EBB3
:1041300094E00E941C0E2091A5023091A602211548
:10414000310509F457C080915402811153C0082FE2
:1041500010E07201082E02C0EE0CFF1C0A94E2F778
:10416000A70142235323452B09F4A0C09091530289
:1041700090FD9EC08295880F807680930301980100
:10418000369527953695279520930601815E809375
:1041900004011092070124E630E047E050E061E0BE
:1041A00071E088E70E94DF23892B21F5A801B5E0A3
:1041B000440F551FBA95E1F78091530280FD85C0E9
:1041C00049555D4F04E610E020E230E060E488E706
:1041D0000E940624892B71F40E948C0EE094F094C6
:1041E0008091A5029091A602E822F922F092A602FF
:1041F000E092A502809159028823D1F00E947907AC
:1042000000915502109156022091570230915802A8
:10421000601B710B820B930B97FD0AC062E070E08C
:1042200085E195E00E945C0E892B11F410925902F1
:10423000B1100E948C0E0E946A0A90915B0289174D
:1042400021F00E946A0A80935B0280919F02843071
:1042500009F0C1CEC092E9008091E80082FFBBCE98
:104260008091E80090E085FF0CC00E94E20540E2EA
:10427000E42EF12C8E010F5F1F4F882309F48DC0AF
:1042800091E08091E8008B778093E800992309F40E
:10429000A2CEE981E150E33108F0E3C0F0E0E25062
:1042A000FB4D0C94572480EB94E043CF8F5F4FCFAE
:1042B000880F880F880F8093030110920601895F91
:1042C00080930401C092070166CFA3E3B2E0E0E26D
:1042D0001D92EA95E9F72CE631E03CA72BA768E6AA
:1042E00071E0ABA5BCA58D91BCA7ABA7FB0101916B
:1042F000BF01040F152F111D09551D4FE82FF0E0C8
:10430000ED5CFD4F90E080E0A7E06A2E681A842CF7
:10431000082E01C0880C0A94EAF71801912CD101EB
:10432000AD901D01A820262D29192770722E022E6E
:10433000000C330BBA2D01C0BB0F7A94EAF77B2E29
:104340003195219531092770332701C0A6942A950C
:10435000EAF77A28A0807A287082939428E0921253
:10436000DECF019631968830910571F68BA59CA51C
:104370008057914009F0B5CF04E610E020E230E02C
:1043800043E352E023CF8091F100F80181938F0144
:10439000F1E0EF1AF10809F473CF8091E80085FD90
:1043A000F2CF8091E8008B778093E8000E94E205CD
:1043B000882399F365CF1A8289E08B83CE01019619
:1043C0000E943D0608CE8A81823009F43BC18330C9
:1043D00061F0813009F045C00E9479070E945D2498
:1043E0006B837C838D839E83E9CF8091670290915C
:1043F00068029827892798279C838B83809169027C
:1044000090916A029827892798279E838D838091AF
:104410006B0290916C0298278927982798878F8341
:1044200080916D0290916E029827892798279A872C
:10443000898780916F029091700298278927982729
:104440009C878B87BBCF8A81823059F46B817C81BA
:104450008D819E810E945D2485E290E00E948824E7
:10446000ADCFD982ABCF4C816B818A810E94BF0FC7
:104470009827892798279E838D83A0CF0D811E8141
:104480001027012710278A81EB802EE1E29E700120
:10449000112436E9839FE00CF11C11248C8190E0FB
:1044A000880F991FE80EF91E612FC70186960E949A
:1044B0008824602FC7018796D1CF0E94E1117ECF5B
:1044C00080E18A837BCF81E08A8392E89B8376CFE9
:1044D000EA80FB80FE24EF24FE248E010F5F1F4F35
:1044E000AC80A00EB12EB11CC70182589D4F0A1599
:1044F0001B0509F463CFA2E8EA16A1E0FA0650F41E
:104500000E947A24F8018483BFEFEB1AFB0A0F5F45
:104510001F4FEACFD80114961C92F6CF0A811B8157
:10452000102701271027FE0131965F01EC80E00E75
:10453000F12EF11CC80182589D4F0E151F0509F47C
:104540003DCF0238F1E01F0728F4D50114966C9195
:104550000E948824BFEFAB1ABB0A0F5F1F4FEACF40
:104560000E9436122BCFE4E0EA8328CFEA80FB805A
:10457000FE24EF24FE248E010F5F1F4FAC80A00E9F
:10458000B12EB11CC7018696A016B10609F416CF4C
:10459000F8E5EF16F2E0FF0658F40E947A24D801FD
:1045A00014968C93FFEFEF1AFF0A0F5F1F4FEACFAD
:1045B000F8011482F7CF0A811B81102701271027E9
:1045C0009E012F5F3F4F5901EC80E00EF12EF11C50
:1045D000C80186960E151F0509F4F0CE083532E0A5
:1045E000130728F4D50114966C910E948824BFEF1C
:1045F000AB1ABB0A0F5F1F4FEBCF80E00E94461241
:104600006FEF7FEF90E080E00E94A624D7CECE012E
:1046100001960E943D06EFEFF1EE24E0E150F040FC
:104620002040E1F700C000001BCC60E085E290E094
:104630000E9488240E94E1110E94361281E00E94AB
:10464000461241CC85E290E00E947A241B821C82B3
:104650001D828E83B3CE1F921FB61F9211248F939B
:104660009F93AF93BF9380911F0290912002A091DE
:104670002102B09122024196A11DB11D80931F021B
:1046800090932002A0932102B0932202BF91AF9198
:104690009F918F911F901FBE1F9018951092B90087
:1046A0008CE08093B8000895EF92FF920F931F93D0
:1046B000CF93DF93182FEB011092BC0084EA809314
:1046C000BC000E94EF1C7C018091BC0087FF27C0CA
:1046D0008091B900887F883029F08091B900887F67
:1046E0008031D9F51093BB0084E88093BC000E9410
:1046F000EF1C8C018091BC0087FF24C02091B90081
:10470000287F90E080E02831B1F081E090E0203413
:1047100011F490E080E09195819591090CC0CF3F14
:10472000DC0791F20E94EF1C8E199F098C179D07E0
:1047300058F28EEF9FEFDF91CF911F910F91FF9075
:10474000EF900895CF3FDC07A9F20E94EF1C801B79
:10475000910B8C179D0770F2ECCF8FEF9FEFEBCF93
:104760000F931F93CF93DF93EB018093BB0084E8FB
:104770008093BC000E94EF1C8C018091BC0087FFDD
:1047800011C02091B900287F81E090E0283211F417
:1047900090E080E0919581959109DF91CF911F91F3
:1047A0000F910895CF3FDC0741F30E94EF1C801B5F
:1047B000910B8C179D0708F38EEF9FEFEECFCF92F2
:1047C000DF92EF92FF920F931F93CF93DF936B01D2
:1047D0008A017901B9010E945423E6010C0D1D1DC7
:1047E000C017D10761F424E92093BC00DF91CF9179
:1047F0001F910F91FF90EF90DF90CF90089597FD5C
:10480000F2CFB70189910E94B023EACFCF92DF9215
:10481000EF92FF920F931F93CF93DF93C62F6A01FE
:104820007901B8010E94542397FD0CC0B8018C2F68
:104830000E94B023E601EC0CFD1CCE15DF0511F043
:1048400097FF0CC024E92093BC00DF91CF911F910A
:104850000F91FF90EF90DF90CF900895B80189916C
:104860000E94B023EACF84E98093BC000895991B8D
:1048700079E004C0991F961708F0961B881F7A9557
:10488000C9F780950895AA1BBB1B51E107C0AA1F59
:10489000BB1FA617B70710F0A61BB70B881F991FE1
:1048A0005A95A9F780959095BC01CD010895EE0F1A
:1048B000FF1F0590F491E02D099469279627692739
:1048C0007827872778270895FB01DC0102C005902F
:1048D0000D9241505040D8F70895FB01DC0104C00F
:1048E0008D910190801921F441505040C8F7881BE8
:1048F000990B0895F999FECF92BD81BDF89A992739
:1049000080B50895A8E1B0E042E050E00C94AE24F8
:10491000262FF999FECF92BD81BDF89A019700B478
:10492000021639F01FBA20BD0FB6F894FA9AF99A18
:104930000FBE08950396272F0E9489240E94882481
:10494000252F0E948924242F0C9489240196272F37
:104950000E9489240C948824DC01CB01FC01F99984
:10496000FECF06C0F2BDE1BDF89A319600B40D92BB
:1049700041505040B8F70895F894FFCFB30BDB0BCC
:10498000870DDB0B870D0E0C2F0C870D380D450D99
:10499000CC11CC11D511D511D711D511D511D511F7
:1049A000CC11CC11DC11D511D511DC11C413D513E8
:1049B00007140B140F14131417141B141F142314AF
:1049C00027142B142F14331437143B143F1443149F
:1049D00047144B144F14531457145B145F1463148F
:1049E0001215671473167316E216E2163A17A81614
:1049F000A816A81654172A1839183918DB21E321EC
:104A0000232233223E225D22312231223122FD2215
:104A100007236022632268228E22B022B322B622AC
:024A2000DB2297
:104A2200400021007F2200037607EC0E7507E80E96
:104A3200DF0E0100FF0100010000FFFF0000010086
:104A420001FF00818283E200E900EA00B500B600BE
:104A5200B700CD008301CC008A01920194012102AA
:104A6200230224022502260227022A02B300B400EE
:104A72006F00700033323130C69395949697343577
:104A8200366667F7F6F4F1F00008101818100800FF
:104A920040226D3B011901AC002905420562050067
:00000001FF
