:100000000C9436050C947D050C947D050C947D05AF
:100010000C947D050C947D050C947D050C947D0558
:100020000C947D050C947D050C94B7130C947313FC
:100030000C9405240C947D050C947D050C947D0591
:100040000C947D050C947D050C947D050C947D0528
:100050000C947D050C9492140C947D050C947D05F4
:100060000C947D050C947D050C947D050C947D0508
:100070000C947D050C947D050C947D050C947D05F8
:100080000C947D050C947D050C947D050C947D05E8
:100090000C947D050C947D050C947D050C947D05D8
:1000A0000C947D050C947D050C947D0500000000EA
:1000B0000000000000000000000000000000000040
:1000C0007E0F00D4FFFFFFC7000000780000000093
:1000D000000000002A2B28000000000000000000A3
:1000E0000000000000000029000000002C1E342049
:1000F000212224342627252E362D3738271E1F206F
:100100002122232425263333362E37381F040506B3
:100110000708090A0B0C0D0E0F10111213141516F7
:100120001718191A1B1C1D2F3130232D35040506F5
:100130000708090A0B0C0D0E0F10111213141516D7
:100140001718191A1B1C1D2F3130354C00AF3138D0
:10015000363132313338353433403136332E636FF4
:100160006D0029001E001F00200021002200230036
:1001700024002500260027002D002E0035002A002F
:100180002B00000014001A000800150017001C00C6
:1001900018000C00120013002F003000000039007E
:1001A000000004001600070009000A000B000D0003
:1001B0000E000F0033003400310028000000E10081
:1001C0001D001B000600190005001100100036007C
:1001D00037003800E50052000057E000E200000060
:1001E000E300000000002C00000000000000000000
:1001F0000000500051004F0001003A003B003C005D
:100200003D003E003F00400041004200430001002D
:1002100001000100010001000000010001000100D7
:1002200001000100010001000100010001000100C6
:1002300001000000010000000100010001000100B8
:1002400001000100010001000100010001000100A6
:100250000100000001000100010001000100010097
:10026000010001000100010001000100010001572F
:10027000010001000000010000000000010000007A
:100280000000000000000000AC00AD00AB00010069
:100290002F5C305C315C325C335C345C355C365CEA
:1002A000375C385C395C3A5C3B5C01000100000063
:1002B000085D095D0A5D0B5D0C5D0D5D0E5D0F5DFA
:1002C000105D115D01000100000001000000125DE1
:1002D000135D145D155D165D175D185D195D1A5D82
:1002E0000100010001000100000001001B5D1C5D18
:1002F0001D5D1E5D1F5D205D215D0100010001008F
:1003000001003C5C025701000100000001000000F8
:100310000000010000000000000000000000495C37
:100320004A5C4B5C00DA02818FD9F1DB40A4A62E37
:10033000AF00A0C000A1C800AED580A81FD3004068
:100340008D1420000102E33D0103E3000102E32DCF
:100350000103E30020204E4F4E450033204C545201
:100360004D00322046554E43003120424153450056
:100370005D20202000202020205B00434320005DE2
:10038000202020007B7C20202020007D7E4C4F43BD
:100390004B002020205B00808182838485868788B3
:1003A000898A8B8C8D8E8F9091929394A0A1A2A319
:1003B000A4A5A6A7A8A9AAABACADAEAFB0B1B2B385
:1003C000B4C0C1C2C3C4C5C6C7C8C9CACBCCCDCED0
:1003D000CFD0D1D2D3D400AE05010980A1018503CD
:1003E00019012AB700150126B70095017510810083
:1003F000C0050C0901A101850419012AA0021501FB
:1004000026A002950175108100C005010906A10111
:10041000050719E029E715002501950875018102F6
:100420009501750881010507190029FF150026FFB0
:1004300000950675088100050819012905950575BF
:10044000019102950175039101C009029F00040109
:1004500000A0FA09040000010301010009211101B3
:1004600000012240000705810308000A0904010079
:1004700001030000000921110100012232000705DB
:10048000820320000A080B02020101000009040295
:100490000000010100000924010001090001030915
:1004A00004030002010300000724010001410006CB
:1004B00024020101000624020202000924030103B0
:1004C00001020100092403020401010100090504DD
:1004D00002400005000005250101010905830240D5
:1004E00000050000052501010312011001000000B4
:1004F0000818182F2F010001020301040330000027
:1005000000140350004800450052004F004D004FBA
:10051000004E00450000000E034C00550041004E07
:10052000005400590000000403090400000000000A
:10053000003E5B4F5B3E003E6B4F6B3E001C3E7CC3
:100540003E1C00183C7E3C18001C577D571C001CAC
:100550005E7F5E1C0000183C180000FFE7C3E7FF49
:1005600000001824180000FFE7DBE7FF0030483ADE
:10057000060E00262979292600407F050507004040
:100580007F05253F005A3C663C5A007F3E1C1C08F4
:1005900000081C1C3E7F0014227F2214005F5F00B5
:1005A0005F5F0006097F017F00006689956A006031
:1005B000606060600094A2FFA2940008047E0408BA
:1005C0000010207E20100008082A1C0800081C2AA1
:1005D0000808001E10101010000C1E0C1E0C00301D
:1005E000383E383000060E3E0E06000000000000C7
:1005F0000000005E000000000600060000143E142B
:100600003E1400242A7F2A120026160834320036AF
:100610004A56205000000A06000000003C4200003C
:10062000000000423C00002A1C3E1C2A0008083E34
:1006300008080000A0600000000808080808000082
:1006400000606000002010080402003C4242423C6E
:100650000000447E400000645252524C0022424A44
:100660004A36003824227E20002E4A4A4A32003C74
:100670004A4A4A32000202621A0600344A4A4A349E
:10068000004C5252523C0000001400000000403464
:1006900000000000081422000014141414140000B8
:1006A00000221408000004520A04003E415D594E25
:1006B000007C1212127C007E4A4A4A34003C4242BC
:1006C0004242007E4242423C007E4A4A4A4A007E02
:1006D0000A0A0A0A003C42425272007E0808087E5A
:1006E0000000007E0000002040423E00007E100816
:1006F0001462007E40404040007E0408047E007E7C
:100700000408107E003C4242423C007E1212120C51
:10071000003C4252225C007C1212325E004C4A4A7B
:100720004A320002027E0202003E4040403E001E6D
:100730002040201E003E4038403E006214081462F3
:100740000006087008060062524A464200007E42D7
:10075000420000020408102000000042427E00080F
:1007600004020408004040404040000000060A0027
:1007700000605454547C007E48484830003048485B
:10078000484800304848487E0038545454580000C7
:10079000087C0A000098A4A4A478007E08080870C9
:1007A0000000007A0000002040403A00007E10283F
:1007B00044000000007E4000007C04780478007C47
:1007C0000404047800384444443800FC24242418E9
:1007D0000018242424FC007C080404080048545415
:1007E00054240000047E4400003C4040407C001C37
:1007F0002040201C003C4030403C0044281028444D
:10080000005CA0A0A07C004464544C4400FEC1C124
:10081000C9C5DDC5C9C1C1FE00FCFEFEEEF6C6F6C7
:10082000EEFEFEFC003C2623263C000103053F05AE
:10083000330138003C000000000000000000000010
:10084000000000001C3C783C1C0080E01008000008
:10085000140C1E2C5440404040449A244080808018
:1008600080E01088C8CEC88E080E080E080E080852
:1008700010E0808080808080402020202070701CCC
:10088000781818181888C040C040C040C040C04008
:10089000C0800000000000000000000000001E00FA
:1008A0003F2121212D2D213F00F00804C4242424C0
:1008B000C40408F000F0F8FC3CDCDCDC3CFCF8F0A4
:1008C00000FEC1C1C9C5DDC5C9C1C1FE00FCFEFE37
:1008D000EEF6C6F6EEFEFEFC000000000000000092
:1008E0000000000000000000000000000000000008
:1008F00000000000000000000000000000000000F8
:1009000000000000000000000000070F112101019D
:100910000101C1213925C505091224292A2A2AAA3B
:10092000AAFF0007EF4CCF474040C0404043E300E0
:1009300000FFAAAA2A2A2A4A8A2A5222020202422C
:1009400082024282020F1D171D97DD575D57DD970A
:100950001D0F00000000000000000000000000006B
:100960000000000000000000000708101311111122
:100970001310080700070F1F1C1E1E1E1C1F0F0749
:100980000000000000000000000000000000000067
:100990000000000000000000000000000000000057
:1009A00000000000000000000000000004021F2200
:1009B00024200000000000000000000000000000F3
:1009C0000000000000000000000000000000000027
:1009D00000000705050507000000000000102F10AB
:1009E000000306080B3A0A3A0A3A0A3A0A3A0B088E
:1009F00006030030293E28300001010101010105F4
:100A00000701050301000000000F18111214180F50
:100A100000000000000000000000000000000000D6
:100A2000000000020A2A2A2A00000000000000003C
:100A300000000000000000000000000000000000B6
:100A400000000000000000000000000000000000A6
:100A50000000000000000000000000000000000096
:100A600000000000000000000000000011241FBE74
:100A7000CFEFDAE0DEBFCDBF04B603FE27C0809122
:100A8000B3059091B405A091B505B091B605873036
:100A9000904BA740B04BD1F41092B3051092B4051F
:100AA0001092B5051092B60514BE84B7877F84BF37
:100AB0000FB6F894A89580916000886180936000DB
:100AC000109260000FBEE0E0F8E3099511E0A0E0AD
:100AD000B1E0EEE5FBE402C005900D92A83FB1073E
:100AE000D9F725E0A8EFB1E001C01D92A33BB20702
:100AF000E1F70E94C51E0C94A3250C9400000F93EF
:100B0000062F0F77282F2F77E091C604F091C704A6
:100B100040EB63E070E086EC94E009950F91089556
:100B2000CF92DF92EF92FF920F931F93CF93DF93B9
:100B300000D00F92CDB7DEB77C01162FD42EC22E77
:100B40008091EB048430B9F5E091E004F091E10488
:100B5000309709F440C0C701019763E070E00E943C
:100B60001D25CB01880F991F860F971F19834A8374
:100B7000CB824E2D481B9E012F5F3F4FBC0186EC60
:100B800094E00995E091E404F091E504309739F0A0
:100B90000C2D2D2D412FB70186EC94E009950F9077
:100BA0000F900F90DF91CF911F910F91FF90EF90D9
:100BB000DF90CF90089582E0E816F10409F45AC05E
:100BC00083E0E816F104A9F081E0E816F10409F4E5
:100BD00084C0F12CE12CE091E204F091E304309721
:100BE00089F20C2D2D2D412FB70186EC94E009954B
:100BF000C9CF862F807F803A11F188F48038D1F0F8
:100C0000E091CA04F091CB04803929F7309719F3A9
:100C1000123F49F12C2D4D2D612F6F7027C0803E62
:100C200099F0803FB1F0E091C804F091C904803B95
:100C300091F6ECCFE091CC04F091CD04E7CFE091B8
:100C4000CE04F091CF04E2CFE091D004F091D10432
:100C5000DDCF623F09F0BFCFE091D204F091D30421
:100C6000309709F4B8CF2C2D4D2D62EF86EC94E02F
:100C7000099588CF862F807F803DB9F0803FD1F0E5
:100C8000E091D404F091D504803C09F0A4CF3097D2
:100C900009F4A1CF812F8D7F4D2D612F6F70813F82
:100CA000C9F086EC94E009956DCFE091D604F091FF
:100CB000D704EDCFE091D804F091D904633F39F027
:100CC000613F09F088CFE091DA04F091DB043097BE
:100CD00009F481CF4D2D612FE4CFE091DC04F09138
:100CE000DD04683F38F4663F09F075CFE091DE041B
:100CF000F091DF04309709F46ECF612F86EC94E019
:100D0000099540CFE8EDF0E080818E7F80831092DE
:100D1000E2001092DA001092E100A0EEB0E08C91B7
:100D200081608C9380818F77808319BCA7EDB0E0C0
:100D30008C918E7F8C9380818F7E80831092A40211
:100D400008952091E4003091E50095E6A9012091F5
:100D5000EC00822F817020FF06C08091E80080FFA8
:100D600006C080E008952091E80022FD1AC080911D
:100D7000B102882389F0853089F08091EB0085FDF0
:100D80000FC02091E4003091E50042175307F9F2BB
:100D90009150E1F684E0089582E0089583E008959B
:100DA00081E00895EF92FF920F931F93CF937C0100
:100DB0008B010E94A106C82F811117C08091E80005
:100DC00085FD0BC08091E8008E778093E8000E943B
:100DD000A106882399F3C82F08C0F70181917F01EC
:100DE0008093F1000150110949F78C2FCF911F9189
:100DF0000F91FF90EF9008958091B30287FF13C089
:100E00008091E80082FF06C08091E8008B77809394
:100E1000E80004C08091B1028111F2CF0895809161
:100E2000B1028823D9F38091E80080FFF8CF809148
:100E3000E8008E77ECCF982F9093E900242F762F3F
:100E400050E0891731F07091EC002091ED00509145
:100E5000F00021FD07C09F5F973071F78093E90094
:100E600081E008953091EB003E7F3093EB003091AC
:100E7000ED003D7F3093ED003091EB003160309319
:100E8000EB007093EC002093ED005093F000209164
:100E9000EE0027FDE0CF80E00895CF92DF92EF9241
:100EA000FF920F931F93CF93DF93C8EDD0E088811B
:100EB0008F7E8883E7EDF0E080818160808384E02D
:100EC00082BF81E08093A40288818E7F888302EEB6
:100ED00010E0F80110821092DA0081EEC82ED12CB9
:100EE000F601108288818F77888388818068888363
:100EF00088818F7D888319BC1092B1021092B20252
:100F00001092B0021092AF0290EEE92EF12CF70190
:100F100080818B7F808388818160888342E060E06C
:100F200080E00E941B07F60180818E7F8083F8019C
:100F3000808181608083808188608083F7018081E7
:100F40008E7F8083888180618883DF91CF911F911C
:100F50000F91FF90EF90DF90CF900895FC0180916A
:100F6000B9029091BA0286179707A0F06115710532
:100F700029F49091E8009E779093E80090E0611545
:100F8000710551F4911108C08091E80082FF34C0CE
:100F900080E00895BC01F2CF8091B1028823C1F1B5
:100FA0008530C1F18091E80083FD30C08091E80078
:100FB00082FDEACF8091E80080FFE1CF8091F300CD
:100FC0002091F200382F6115710519F02830310594
:100FD00058F091E02830310509F090E02091E800C8
:100FE0002E772093E800CBCF81918093F100615060
:100FF00071092F5F3F4FE7CF8091B102882341F005
:10100000853041F08091E80083FFBECF81E00895F4
:1010100082E0089583E008950895089508958091E9
:10102000A6020895982F907F903BE9F040F4903904
:10103000D1F0903AC1F09038B1F080E00895903D41
:1010400019F020F4903CC9F782E00895903E59F0E1
:10105000903F99F7815F8F3080F7E82FF0E0E354FD
:10106000FE4F8081089583E00895DF92EF92FF9212
:101070000F931F93CF93DF9300D000D0CDB7DEB78F
:101080007B01142FD22E4A832B830C83842F0E9442
:101090001208811141C082E0E816F104C1F183E039
:1010A000E816F10439F0EA94EF2829F5173F29F4FE
:1010B00085E004C087E0073F09F084E089838091E0
:1010C000B1028430C1F4809153018F708093E900A4
:1010D00050E040E064E070E0CE0101960E94D2064C
:1010E000811109C08091E80085FD05C08091E8006C
:1010F0008E778093E8000F900F900F900F90DF9104
:10110000CF911F910F91FF90EF90DF90089587EF9F
:10111000D812D3CF86E0D2CF12951F701983CFCFCC
:10112000CF92DF92EF92FF920F931F93CF93DF93B3
:1011300000D000D000D00F92CDB7DEB78C0108519F
:101140001F4F8091B102843009F087C0809158010F
:101150008F708093E9008091E80082FF7EC08091CB
:10116000E80085FF7AC00E94A106811113C084E0C7
:10117000E82EF12CCE0101966C018091E80085FDEE
:1011800061C08091E8008B778093E8000E94A106FF
:10119000882399F38091E80085FD05C08091E800DF
:1011A0008B778093E800FA808F2D0E941208282FF9
:1011B000FD828B818E838C818F8321110BC089816D
:1011C000843041F1873031F1863031F121E08530D2
:1011D00009F0B7CF30E0E5E0F0E0EC0FFD1FE30FE2
:1011E000F11DF0804FB7F894D8011196EC9111974A
:1011F000F0E0CF01019612966C9170E00E943125CB
:10120000D8015C915817190649F44FBF3F5F321758
:1012100010F397CF23E0DECF22E0DCCF13968D9141
:101220009C911497E80FF91FF08211968C911197F9
:1012300090E0019612966C9170E00E943125F801C1
:101240008183E3CF8091F100D6018D936D01B1E0F0
:10125000EB1AF10809F091CF9DCF27960FB6F894BD
:10126000DEBF0FBECDBFDF91CF911F910F91FF90D9
:10127000EF90DF90CF9008959C01FC0132969FEF94
:1012800080E04191461751F09F3F19F4411101C090
:10129000982F8F5F8630A9F79F3F09F40895290F93
:1012A000311D97FD3A95F90162830895CF92DF923F
:1012B000EF92FF926C01EE24FF2420E0C114D104D0
:1012C000E104F10419F0C701B60120E1C72ED82EC0
:1012D000E92EFF24C114D104E104F10419F0285FC0
:1012E000C701B6016B017C0154E0F694E794D794F2
:1012F000C7945A95D1F7C114D104E104F10419F04F
:101300002C5FC701B6016B017C0142E0F694E794C3
:10131000D794C7944A95D1F7C114D104E104F104DC
:1013200019F02E5FC701B601969587957795679559
:10133000672B682B692B09F02F5F822FFF90EF90AE
:10134000DF90CF90089580959091620298239093BA
:10135000620208958091620290914502892B9091DA
:101360004402892B8093F801E0915602F0915702D4
:10137000309731F00280F381E02D88EF91E00994FD
:1013800008952FE0929F800D1124982F97708695D5
:101390008695869525E0829FF0011124EE5EFD4F33
:1013A00050E040E080E0219130E0092E02C0369507
:1013B00027950A94E2F721703327042E01C0220FEB
:1013C0000A94EAF7822B4F5F5F4F4530510559F77A
:1013D00008952FE0929F800D1124982F977041E07F
:1013E00001C0440F9A95EAF786958695869595E013
:1013F000899FF0011124EE5EFD4F90E080E070E0E7
:101400005191DF0111979B01082E02C03695279557
:101410000A94E2F7217021952527242325272C9370
:1014200001968530910561F70895882341F08095F4
:10143000909145028923809345020C94AA0908954E
:10144000882339F090914502982B909345020C9493
:10145000AA090895882321F00E94A3090C94AA09DF
:101460000895882339F090916202982B909362023C
:101470000C94AA09089520910802309109022817B6
:10148000390771F09093090280930802E0915602A7
:10149000F0915702309721F00084F185E02D0994F6
:1014A000089520910602309107022817390771F03C
:1014B0009093070280930602E0915602F091570242
:1014C000309721F00680F781E02D0994089510925D
:1014D0004502109244020E94AA0990E080E00E9416
:1014E000510A90E080E00C943B0A6093680270938C
:1014F000690280936A0290936B020C94670A0F93BF
:101500001F9341E050E060E070E004C0440F551FBD
:10151000661F771F8A95D2F7CB01BA016095709547
:1015200080959095009168021091690220916A025D
:1015300030916B0260237123822393231F910F91BB
:101540000C94750A0F931F9341E050E060E070E047
:1015500004C0440F551F661F771F8A95D2F78091EC
:10156000680290916902A0916A02B0916B028A01AF
:101570009B01082B192B2A2B3B2BC901B8011F916A
:101580000F910C94750A6093460270934702809302
:101590004802909349020C94670A882381F19CEFDA
:1015A000980F913A78F4EAEFF1E020E032E091917F
:1015B000891303C0DF0111971C922E173F07B9F75B
:1015C0000C94AA0990E2980F983050F4877091E03B
:1015D00001C0990F8A95EAF7892F0E94A309F0CFDD
:1015E0009BE5980F933020F490E080E00C94510A32
:1015F000885A873120F490E080E00C943B0A0895EB
:10160000CF93C82F882309F44EC08CEF8C0F813AFA
:10161000F8F4EAEFF1E080E092E0DF012D91C217EB
:1016200059F08A179B07D1F76C2F88EF91E00E9441
:101630003C09CF910C94AA092191C21303C0DF0188
:1016400011971C928E179F07B9F70E94AA09ECCF39
:1016500080E28C0F883068F4C77021E030E001C070
:10166000220FCA95EAF780916202822B8093620270
:10167000E0CFEBE5EC0FE33040F4F0E0E457FE4F51
:10168000808190E0CF910C94510AC85AC73158F428
:10169000EC2FF0E0EE0FFF1FE157FE4F80819181AC
:1016A000CF910C943B0ACF910895E0915602F091AE
:1016B0005702309721F00190F081E02D099480E0ED
:1016C0000895CF93DF93EC0181E0898B80916202D2
:1016D0009F81892B80936202809145029885892B96
:1016E000809345020E94AA09EA81FB81309739F074
:1016F0006C897D89CE010696DF91CF910994DF91A7
:10170000CF910895EF92FF920F931F93CF93DF93A2
:10171000EC018A85811139C0EB80FC8087E5F81ADD
:1017200026E12E9DC0012F9D900D1124DC01AD5F9F
:10173000BE4F1496ED91FC911597309731F0549669
:101740006D917C91875F9E4F099586E18E9D80010A
:101750008F9D100D11240D5F1E4FF80187810E948F
:10176000A309F8018085982F9095809145028923DF
:10177000809345020E94AA09188219861B861E8240
:101780001D821092100210920F02DF91CF911F91D3
:101790000F91FF90EF90089560E08BE70C947F0528
:1017A00080910D0281110C94CC0B0895972F70E05D
:1017B0002FE0929F600D711D1124FB014BE4849F6B
:1017C000E00DF11D1124EE0FFF1FEE59FE4F259184
:1017D0003491C9012238310591F1C0F52133310529
:1017E00009F490C028F52932310509F484C02A3261
:1017F000310509F48EC0211540E5340708F09DC07D
:10180000211540E4340708F01FC12F3B310508F0D3
:1018100087C0283A310508F00CC1253A310508F097
:10182000FFC02430310500F521303105E9F03CC01E
:101830002533310509F458C029333105E1F62091EB
:101840005402237089F080EE90E00895233E310524
:1018500071F158F4203E3105E9F0223E310559F688
:101860002091540222FD1EC00895263E310551F1FB
:10187000273E310571F1243E310509F0BCCF20919E
:10188000550221FFF1CF8091540284FD0DC087EEF7
:1018900090E008952091540220FD05C13091550239
:1018A00030FFE2CF24FF02C190E080E0DDCF209145
:1018B000540222FDFEC03091550230FDC4CF24FFFA
:1018C000D3CFF2CF2091540223FFCECF24FDECCF13
:1018D000DECF2091540223FDEFC03091550231FF3D
:1018E000EECF84EE90E008952091540225FFBCCF06
:1018F00089E290E008952091540225FFB5CF85E359
:1019000090E008952091540226FFAECF8AE290E045
:1019100008952091540226FFA7CF81E390E0089517
:10192000213E310508F2283E310508F49DCF3A9555
:1019300021153F4108F498CFB7CF211583E538072B
:1019400038F5211592E5390708F087C0211541E5E2
:10195000340708F07DC0C90164E0969587956A95C3
:10196000E1F7382F3370822F86958695837040E299
:10197000849FC0011124932B237041E050E002C0EA
:10198000440F551F2A95E2F7842B952B9C680895E8
:10199000211589E53807F0F4211598E5390708F095
:1019A0006FC0211544E5340708F07ECFA9014370CC
:1019B000552781E090E002C0880F991F4A95E2F711
:1019C0002695269540E2249F90011124822B932B8B
:1019D0009A68089521158AE5380708F065CF822FA7
:1019E0008F704091540242FF05C023FF4EC0822FEA
:1019F000877084609091550290FF07C0982F98716E
:101A0000983009F048C0877F816044FD877E94E06C
:101A1000369527959A95E1F72F70922F9069089542
:101A2000255AE22FF0E0E457FE4F808190E0906469
:101A30000895285AE22FF0E0EE0FFF1FE157FE4F06
:101A40008081918194640895C9019F70906A08957E
:101A5000922F8827816F906A0895A90143705527B6
:101A600081E090E002C0880F991F4A95E2F7269521
:101A7000269540E2249F90011124822B932B86CF40
:101A8000922F8827806F906A089522FFB3CF822F0C
:101A90008B708860AFCF982F9171913009F0B5CFDE
:101AA0008E7F8860B2CF89E390E0089583EE90E066
:101AB000089582EE90E0089586EE90E00895BF923A
:101AC000CF92DF92EF92FF920F931F93CF93DF930A
:101AD0008C01C0906802D0906902E0906A02F09098
:101AE0006B028091460290914702A0914802B0910A
:101AF0004902C82AD92AEA2AFB2ACFE1D0E0BC2E23
:101B0000D701C6010C2E04C0B695A7959795879569
:101B10000A94D2F780FD0EC0219788F7B12C8B2D47
:101B2000DF91CF911F910F91FF90EF90DF90CF90B9
:101B3000BF900895B8018C2F0E94D60B019761F3D6
:101B4000EECF82E00C947F0AFC018081813019F491
:101B500080E00C94A20A80E00E94A20A82E08093B6
:101B60000002089581E00C947F0AFC01808181309D
:101B700019F482E00C94A20A80E00E94A20A81E09B
:101B800080930002089580E00C947F0AFC0180811C
:101B9000813011F40C94A20A80910002FBCF1092C4
:101BA0006202EAEFF1E086E0DF011D928A95E9F733
:101BB0000C94670A1F93CF93DF93CDB7DEB7AA9734
:101BC0000FB6F894DEBF0FBECDBF83EB92E020913D
:101BD000F100FC012193CF01F2E08B3B9F07B9F7A5
:101BE0008091B402833009F46FC0B8F4813009F4F5
:101BF00046C0823009F4B0C08091E80083FF91C2F2
:101C00008091B3029091B4029A3008F08AC2E92F11
:101C1000F0E0EB55FA4D0C9445258A3009F48BC061
:101C20008B3009F46EC0893039F78091B30281326C
:101C300019F78091B7029091B8020297E8F6809167
:101C4000E800877F8093E8008091E80082FF37C03A
:101C50009091F3008091F200029729F48091F100B5
:101C60008B7F813021F48091F1008093A6028091D6
:101C7000E8008B778093E8000E94FC06BDCF80913E
:101C8000B302813A09F0B8CF8091E800877F809352
:101C9000E8008091B7029091B802892B61F468E066
:101CA00087EA92E070E00E94AE078091E8008B77AF
:101CB0008093E800A1CF60E090E080E0F3CF8091D6
:101CC000B1028111C1CF98CF8091B302813A09F05E
:101CD00093CF8091B7029091B802892B09F08CCFF5
:101CE0008091E800877F8093E8008091E80080FF82
:101CF000FCCF809168018093F1008091E8008E779D
:101D0000B9CF8091B302813209F076CF8091B702CA
:101D10009091B802892B09F06FCF8091E800877FFE
:101D20008093E8000E94FC068091B50280936801D0
:101D30000E94CF0D61CF8091B302813209F05CCF58
:101D40008091E800877F8093E8000E94FC068091E4
:101D5000B6028093A50250CF8091B302813A09F078
:101D60004BCF8091E800877F8093E8008091E80066
:101D700080FFFCCF8091A502BECF803899F08238D9
:101D800009F0CFC18091B7028F70873008F0C9C1C8
:101D90008093E9008091EB0085FB882780F9109201
:101DA000E90006C08091AF029091B002911182606B
:101DB0009091E800977F9093E8008093F100109253
:101DC000F1008091E8008E77A8C1882309F496C1BC
:101DD000823009F0A6C18091B502811199C180912C
:101DE000B7028F702FEF280F263008F09AC180932A
:101DF000E9002091EB0020FF8BC1933031F48091FA
:101E0000EB0080628093EB0083C19091EB009061C6
:101E10009093EB0021E030E001C0220F8A95EAF7B1
:101E20002093EA001092EA008091EB008860EACFEC
:101E3000811177C11091B5021F778091E3008078FE
:101E4000812B8093E3008091E800877F8093E800F6
:101E50000E94FC068091E80080FFFCCF8091E300A7
:101E600080688093E30082E0111183E08093B102E7
:101E700058C18058823008F054C18091B5029091C9
:101E8000B6028C3D23E09207A1F583E08A838AE2C3
:101E900089834FB7F894DE01139620E03EE051E2CB
:101EA000E32FF0E050935700E49120FF03C0E29548
:101EB000EF703F5FEF708E2F90E0EA30C0F0C79672
:101EC0008D939D932F5F243159F74FBF8091E80088
:101ED000877F8093E8006AE270E0CE0101960E945D
:101EE000AE078091E8008B778093E8001AC1C09616
:101EF000E7CF4091B7025091B802292F3327233002
:101F0000310509F445C078F52130310509F47BC06D
:101F10008FE990E0EAE4F4E02230310509F001C1F4
:101F20002091E800277F2093E8002091B9023091AA
:101F3000BA028217930708F49C0140E0211531058D
:101F400009F070C041116EC08091E80082FDC9CFD8
:101F50008091B102882329F2853019F28091E8003E
:101F600083FFF2CFBECF2132310509F440C02232C7
:101F7000310509F0D6C04115510509F44EC0413074
:101F8000510509F0CEC082E390E0E8EDF3E0C8CF60
:101F9000992781309105D9F0009771F08230910531
:101FA000F1F0039709F0BDC0EBEFF4E0E4918E2F60
:101FB00090E0EBEFF4E007C0E7E2F5E0E4918E2F6C
:101FC00090E0E7E2F5E0009709F4ABC0A9CFE7E1C4
:101FD000F5E0E4918E2F90E0E7E1F5E0F4CFE1E069
:101FE000F5E0E4918E2F90E0E1E0F5E0ECCF4115D3
:101FF000510571F04130510509F093C089E090E03E
:10200000E5E7F4E08DCF82E190E0E9EEF4E088CFFF
:1020100089E090E0ECE5F4E083CF80E490E0EAE052
:10202000F4E07ECF8091B102882309F45ACF853045
:1020300009F457CF8091E80083FD53CF8091E800E9
:1020400082FD82CF8091E80080FF78CF9091F300ED
:102050008091F2002115310519F08830910550F07A
:1020600041E0089709F040E08091E8008E77809386
:10207000E80064CF44914093F1003196215031093A
:102080000196E8CF803809F04CC08091E800877F46
:102090008093E8008091B2028093F10092CE81118A
:1020A00040C01091B5021230E0F58091E800877FC2
:1020B0008093E8001093B2020E94FC06112311F0F5
:1020C00084E005C08091E30087FDFACF81E0809332
:1020D000B10242E061EC81E00E941B0742E261EC48
:1020E00082E00E941B0742E361E883E00E941B0735
:1020F00042E360E884E00E941B0713C08091B502B0
:10210000813079F481E0933009F080E08093B0026F
:102110001092E9008091E800877F8093E8000E9498
:10212000FC068091E80083FF0AC08091E800877F69
:102130008093E8008091EB0080628093EB00AA9688
:102140000FB6F894DEBF0FBECDBFDF91CF911F91C8
:102150000895CF93DF93682F81E06A3019F06D30D6
:1021600029F480E0DF91CF910C9434118091C40464
:102170009091C50426E0FC01AEEBB4E001900D9215
:102180002A95E1F7603E08F456C026E0FC01119262
:102190002A95E9F7C091C404D091C50446E050E007
:1021A000BE018EEB94E00E945425CE5BD2409E018E
:1021B0002A5F3F4F892B21F185E0D695C7958A95F7
:1021C000E1F741E050E0CA0102C0880F991FCA95AB
:1021D000E2F76091BC027091BD02862B972BB9018A
:1021E000E5E076956795EA95E1F702C0440F551F43
:1021F0006A95E2F7842B952B9093BD028093BC02E5
:102200004091BB02642F70E0C9010E941D25481B4C
:10221000463010F4240F311D211582E0380710F0EC
:1022200030E020E022543D4F3093C5042093C40495
:10223000DF91CF910895F6E06F9FB0011124655DA5
:102240007A4F46E050E00E944B25A4CFCF93DF9316
:10225000EC01FE018491811103C0DF91CF910895BB
:102260000E94A9102196F5CFCF93382FE091C40496
:10227000F091C504EE5BF2402091BB02622F70E04A
:10228000CF010E941D25281B822F332361F066E0B9
:102290000E941125C82FC15010F4CF91089580E2FB
:1022A0000E94A910F8CF9F01280F311D211532403F
:1022B00018F080E0F0E0E0E08E0F9F2F911D825437
:1022C0009D4F9093C5048093C404E7CFCF92DF92D3
:1022D000EF92FF920F931F93CF93DF936C017B01DB
:1022E00064E670E088E70E942E24EC0197FD12C09E
:1022F00010E000E0F601E00FF11F849164E670E069
:102300000E948A24EC01892B29F40F5F1F4F0E15C0
:102310001F0581F70E940D25CE01DF91CF911F91FE
:102320000F91FF90EF90DF90CF9008952FB7F89422
:1023300080918E0290918F02A0919002B0919102B3
:102340002FBF805A9541AF4FBF4F80939202909319
:102350009302A0939402B09395028091960281110A
:1023600008C062E070E08CE491E00E946611892B65
:1023700019F080919602089581E080939602F9CF3A
:10238000CF9384E090E00E946125C82F81E290E025
:102390000E946125982F8C2FCF910895CF93DF93C2
:1023A00000D00F92CDB7DEB79091B102943019F5FD
:1023B00089837B836A8382E08093E9008FEF909129
:1023C000E800815095FD06C095ED9A95F1F7000063
:1023D0008111F5CF8091E80085FF0DC050E040E00D
:1023E00063E070E0CE0101960E94D2068091E80081
:1023F0008E778093E8000F900F900F90DF91CF9130
:1024000008952091B102243021F4BC0184E00C94A1
:10241000CE110895BC0183E00C94CE11CF93DF93CD
:10242000EC018091B102843039F581E08093E900BC
:102430008FEF9091E800815095FD06C095ED9A953B
:10244000F1F700008111F5CF8091E80085FF14C0FD
:1024500050E040E068E070E0CE010E94D20680913A
:10246000E8008E778093E80088E0FE01A7EAB2E0FA
:1024700001900D928A95E1F7DF91CF91089581E067
:102480008093E00080E28093D8001092C9008FE131
:102490009EE40197F1F700C0000087E090EBDC01BB
:1024A0008093B3059093B405A093B505B093B6059A
:1024B00088E19CE00FB6F894A895809360000FBE69
:1024C00090936000FFCFCF93C82F0E94000BC933B9
:1024D00049F42FEF87EE93E0215080409040E1F7E0
:1024E00000C000008C2FCF910C94CD0ACF92DF92C8
:1024F000EF92FF920F931F93CF93DF93EC018AE04B
:10250000C82EFE018491882309F481C0813009F02E
:102510003EC031968491813039F42296FE01849137
:102520000E9463122196EDCF823031F42296FE0193
:1025300084910E94000BF6CF833031F42296FE0185
:1025400084910E94CD0AEECF843009F05EC02296BD
:10255000FE01249190E080E0FE0131962053330B80
:102560002A30310548F00197E8F2EFE9FFE03197B2
:10257000F1F700C00000F7CFC89EA001C99E500D22
:102580001124C901840F951F2491EF01E5CFE82F95
:10259000F0E0E453FF4FD490082F0695069506957A
:1025A00010E0F801E454FF4FE4908770F12C082EFE
:1025B00002C0F594E7940A94E2F721E0E222FF24B6
:1025C00004551F4FF801049110E002C015950795BE
:1025D0008A95E2F701701127E114F10419F081EEF8
:1025E0000E94000B0115110519F086EE0E94000BE8
:1025F0008D2D0E946312012B19F086EE0E94CD0AE8
:10260000EF2809F48FCF81EE9CCFEF018BCFDF91C4
:10261000CF911F910F91FF90EF90DF90CF90089591
:102620006CEE7EEF90E080E00E948D2560E082E01D
:1026300090E00E946F2560E083E090E00E946F25AB
:1026400010924602109247021092480210924902DC
:1026500060E084E090E00E946F2560E081E290E01D
:102660000E946F2560E085E090E00E946F2560E0A9
:1026700086E090E00E946F256FEF87E090E00E9477
:102680006F2540E050E0BA0188E090E00E9481258B
:1026900060E08DE090E00E946F2540E050E0BA01DC
:1026A00088E190E00E94812560E087E190E00E944F
:1026B0006F2540E050E0BA018CE190E00E94812556
:1026C00060E080E290E00E946F2540E050E0BA01B7
:1026D0008FE090E00E94812540E050E0BA0183E164
:1026E00090E00C9481251F920F920FB60F92112447
:1026F0002F933F934F935F936F937F938F939F930A
:10270000AF93BF93CF93DF93EF93FF93D091E90003
:10271000DF708091EC00C82FC17080FDC0E810927E
:10272000E9008091F000877F8093F00078940E9408
:10273000DA0D1092E9008091F00088608093F0003B
:10274000CD2BCF70C093E900FF91EF91DF91CF9136
:10275000BF91AF919F918F917F916F915F914F91B9
:102760003F912F910F900FBE0F901F9018951F92C1
:102770000F920FB60F9211242F933F934F935F93B5
:102780006F937F938F939F93AF93BF93EF93FF9339
:102790008091E10082FF09C08091E20082FF05C0C4
:1027A0008091E1008B7F8093E1008091DA0080FFCF
:1027B00024C08091D80080FF20C08091DA008E7FF5
:1027C0008093DA008091D90080FF9FC080E189BDAD
:1027D00082E189BD09B400FEFDCF81E08093B102A2
:1027E0008091A402811109C00E9482060E944D07B7
:1027F0008091E20084608093E2008091E10080FF9C
:1028000017C08091E20080FF13C08091E2008E7FAC
:102810008093E2008091E20080618093E2008091E9
:10282000D80080628093D80019BC85E08093B10203
:102830008091E10084FF2DC08091E20084FF29C0D7
:1028400080E189BD82E189BD89B5982F917080FFB3
:10285000FBCF8091D8008F7D8093D8008091E100DC
:102860008F7E8093E1008091E2008F7E8093E20072
:102870008091E20081608093E2008091B20288231F
:1028800009F449C084E08093B1020E94CF0D0E94F8
:10289000550B8091E10083FF27C08091E20083FF08
:1028A00023C08091E100877F8093E10082E08093E4
:1028B000B1021092B2028091E1008E7F8093E1001C
:1028C0008091E2008E7F8093E2008091E20080613F
:1028D0008093E20042E060E080E00E941B0780916C
:1028E000F00088608093F000FF91EF91BF91AF916D
:1028F0009F918F917F916F915F914F913F912F9118
:102900000F900FBE0F901F90189519BC1092B10236
:102910001092A40272CF8091E30087FD93E0909320
:10292000B102B3CF78941F921FB61F9211248F93D8
:102930009F93AF93BF9380918E0290918F02A0914D
:102940009002B09191020196A11DB11D80938E025B
:1029500090938F02A0939002B0939102BF91AF9198
:102960009F918F911F901FBE1F9018952FB7F894BD
:1029700080918E0290918F02A0919002B09191026D
:102980002FBF08954F925F926F927F928F929F9286
:10299000AF92BF92CF92DF92EF92FF920F931F936D
:1029A000CF93DF93CDB7DEB7A8970FB6F894DEBF0D
:1029B0000FBECDBF6C01DC0113968D919C911497D5
:1029C000892B49F01C911196FC90812F8F218F3F0C
:1029D00011F00C940E1DA8960FB6F894DEBF0FBE32
:1029E000CDBFDF91CF911F910F91FF90EF90DF90BE
:1029F000CF90BF90AF909F908F907F906F905F909F
:102A00004F9008950E945F0D082F682F89819A8149
:102A10000E94E909E12FF0E0BFE0FB9EE00DF11D0F
:102A200011242BE4029FE00DF11D1124EE0FFF1F76
:102A3000EE59FE4FE590F490D60112968C918111DB
:102A400012C2F6018281FFE1EF16F10409F475C3A9
:102A500008F09EC090E1E916F10409F446C308F0BD
:102A60004EC0B9E0EB16F10409F42BC350F5F6E0C3
:102A7000EF16F10409F41DC3B8F494E0E916F1046B
:102A800009F40BC3A5E0EA16F10409F40DC3A6E2AC
:102A9000EA16ACE5FA0609F0A2C3882309F46AC174
:102AA00081E080930E0297CFB7E0EB16F10409F4B2
:102AB00004C3E8E0EE16F10451F795E48111F1C288
:102AC00059C1FCE0EF16F10409F403C368F49AE07D
:102AD000E916F10409F4F9C2ABE0EA16F104B9F61B
:102AE00098E48111DEC246C1BEE0EB16F10409F4A0
:102AF000F8C208F4F2C29CE48111D3C23BC1F7E1F1
:102B0000EF16F10409F405C3F8F493E1E916F104B2
:102B100009F4F3C270F4B1E1EB16F10409F4E9C26F
:102B2000E2E1EE16F10409F0B2CF9FE48111B9C2DF
:102B300021C1F5E1EF16F10409F4E7C208F4E1C29E
:102B400093E58111AEC216C19AE1E916F10409F4C8
:102B5000E8C270F4B8E1EB16F10409F4DEC2E9E171
:102B6000EE16F10409F093CF96E581119AC202C1E5
:102B7000FCE1EF16F10409F4DCC208F4D6C29DE1D1
:102B8000E916F10409F083CF9AE581118AC2F2C0F7
:102B9000A4E1EA16ADE5FA0609F411C208F078C01E
:102BA000EDE0EE16EDE5FE0609F4C4C1E8F52AE015
:102BB000E2162DE5F20609F4A1C1E0F4A8E0EA1658
:102BC000ADE5FA0609F48CC1B9E0EB16BDE5FB06EC
:102BD00009F05DCF882309F4FECE82E0809347019F
:102BE00087E58093660280E38093480182E38093C7
:102BF0004901F1CEEBE0EE16EDE5FE0609F48CC1DD
:102C0000FCE0EF16FDE5FF0609F041CF882309F44B
:102C1000E2CE85E08093470184E58093660280E3FD
:102C20008093480185E3E3CF20E1E2162DE5F2062B
:102C300009F49CC1D0F4AEE0EA16ADE5FA0609F459
:102C400087C1BFE0EB16BDE5FB0609F020CF882366
:102C500009F4C1CE88E08093470189E4809366023D
:102C600080E38093480188E3C2CFE2E1EE16EDE510
:102C7000FE0609F497C108F487C1882309F4ABCE96
:102C80008CE08093470183E58093660281E3ACCFBB
:102C90002BE1E2162DE5F20609F4C8C188F5A7E19B
:102CA000EA16ADE5FA0609F4A0C1B8F4E5E1EE16BE
:102CB000EDE5FE0609F48EC1F6E1EF16FDE5FF062F
:102CC00009F0E5CE882309F486CE8FE08093470192
:102CD00087E48093660281E3A3CF29E1E2162DE524
:102CE000F20609F498C108F48BC1882309F473CE65
:102CF00083E1809347018CE48093660281E340C1C5
:102D0000AEE1EA16ADE5FA0609F4A6C1B8F4ECE1C5
:102D1000EE16EDE5FE0609F494C1FDE1EF16FDE5C2
:102D2000FF0609F0B4CE882309F455CE86E18093DE
:102D3000470183E48093660282E33EC120E2E2160B
:102D40002DE5F20609F49EC108F491C1A1E2EA164C
:102D5000ADE5FA0609F09BCE882361F09AE19093E5
:102D600047019DE49093660292E39093480196E3B5
:102D70009093490190910E02911185C290910D029C
:102D8000911181C2C70197558F3F910509F008F451
:102D90003BC3D60112968C91882309F480C6B2E019
:102DA000EB16BCE5FB0608F44DC6E6E1EE16ECE5D5
:102DB000FE0638F097012A5F3C452930310508F0BE
:102DC00041C60E94C0119093550280935402F0E1D5
:102DD000EF16FCE5FF0609F426C408F0A5C388E059
:102DE000E8168CE5F80609F414C408F06EC3A4E0F4
:102DF000EA16ACE5FA0609F400C408F057C3E2E0AD
:102E0000EE16ECE5FE0609F4F2C3809154028260EE
:102E1000F3E0EF16FCE5FF0609F4ECC36091540201
:102E20001091550284E090E00E946F25612F81E2AD
:102E300090E00E946F25A8960FB6F894DEBF0FBEF3
:102E4000CDBFDF91CF911F910F91FF90EF90DF9059
:102E5000CF90BF90AF909F908F907F906F905F903A
:102E60004F900C94CF0D809145018F3F09F4E9CD2F
:102E700003E011E0B12CA12C992493948091450199
:102E8000082E000C990B8A159B050CF4DACDF8017D
:102E900086818823F9F0818592858E159F0539F406
:102EA00080910F02909110028E159F0599F0D80124
:102EB0001F969C921F971C96FC92EE921B97519620
:102EC0008C91811103C0C8010E94610BC801069654
:102ED0000E94820BBFEFAB1ABB0A0A5E1F4FCECF18
:102EE000882309F478CD81E08093470181E58093C0
:102EF000660280E38093480181E379CE882309F458
:102F00006ACD83E08093470185E48093660280E385
:102F10008093480183E36BCE882309F45CCD84E081
:102F20008093470182E58093660280E380934801A5
:102F300084E35DCE882309F44ECD86E0809347017B
:102F400089E58093660280E38093480186E34FCE53
:102F5000882309F440CD87E08093470185E580937D
:102F6000660280E38093480187E341CE882309F419
:102F700032CD89E0809347018FE48093660280E33D
:102F80008093480189E333CE882309F424CD8AE075
:102F90008093470180E58093660281E38093480136
:102FA00080E325CE882309F416CD8BE0809347017A
:102FB00081E48093660281E38093480118CE8823E0
:102FC00009F409CD8DE08093470184E48093660283
:102FD00081E39ECF882309F4FECC8EE080934701E5
:102FE00086E48093660281E3A1CF882309F4F3CCC1
:102FF00080E18093470188E48093660281E3A4CF57
:10300000882309F4E8CC81E1809347018AE4809326
:10301000660281E3A7CF882309F4DDCC82E18093A7
:1030200047018BE48093660281E31BCE882309F479
:10303000D2CC84E1809347018AE58093660282E3E3
:10304000ADCF882309F4C7CC85E18093470188E59B
:103050008093660282E34ECF882309F4BCCC87E1DB
:103060008093470186E58093660282E351CF8823EF
:1030700009F4B1CC88E18093470182E48093660231
:1030800082E354CF882309F4A6CC89E180934701D9
:103090008EE48093660282E3C3CD91E4882309F431
:1030A00069CE9093670266CE882309F463CE92E4DA
:1030B000F8CF93E48111F5CF5DCE94E48111F1CF87
:1030C00059CE96E48111EDCF55CE97E48111E9CF29
:1030D00051CE99E48111E5CF4DCE9AE48111E1CF33
:1030E00049CE9BE48111DDCF45CE9DE48111D9CF3E
:1030F00041CE9EE48111D5CF3DCE90E58111D1CF57
:1031000039CE91E58111CDCF35CE92E58111C9CF70
:1031100031CE94E58111C5CF2DCE95E58111C1CF7A
:1031200029CE97E58111BDCF25CE98E58111B9CF84
:1031300021CE99E58111B5CF1DCE882309F41ACE91
:103140008091620281FF07C082E00E94200A8FE125
:103150000E94000B09C085FFFACF80E20E94A309FC
:103160008EE491E00E9476128091620281FF1CC081
:103170008FE10E94CD0A82E0A8960FB6F894DEBFD8
:103180000FBECDBFDF91CF911F910F91FF90EF90B8
:10319000DF90CF90BF90AF909F908F907F906F9077
:1031A0005F904F900C94150A85FD15CC8FE1A89681
:1031B0000FB6F894DEBF0FBECDBFDF91CF911F9148
:1031C0000F91FF90EF90DF90CF90BF90AF909F90C6
:1031D0008F907F906F905F904F900C94CD0AE7E2B4
:1031E000EE16ECE5FE0641F4882309F4C3CD0E94F7
:1031F000D00B10920E02EFCBF8E2EF16FCE5FF06C3
:1032000041F490910E02882309F4B4CD9111EFCFCF
:1032100047CC2CE2E2162CE5F20639F4882309F4B7
:10322000A9CD81E080930D02D6CB9DE2E9169CE505
:10323000F90641F4882309F49DCD0E94CC0B10922D
:103240000D02C9CBAEE2EA16ACE5FA0641F48823DA
:1032500009F490CD80910D028111EFCFE2CFB9E258
:10326000EB16BCE5FB0609F085CD882309F482CD79
:103270000E94D00B8091000190E001968370992705
:1032800080930001A8CB882309F441C0E0EEEE163C
:10329000F10451F40E94D00B81E080930C02109253
:1032A0000B0210920A0297CBF2EEEF16F10461F4D2
:1032B0000E94D00B80910C02882319F081E080934A
:1032C0000B0210920C0287CB23EEE216F10439F4C4
:1032D00090910B029923D9F00E94D00BF2CF92E586
:1032E000E916F10451F480910101909102010A97CD
:1032F00090930201809301016ECBA1E5EA16F104DF
:1033000031F480910101909102010A96F1CF9091E0
:10331000000191110DC0F601918145E050E0491B7B
:1033200051092081205FFCE04F9F200D112411C026
:10333000913089F5D60111969C91119745E050E0A6
:10334000491B5109242F220F220F240F9C919D5CB1
:10335000290F90910D02882309F447C0992361F049
:103360002F77E091C604F091C7040FE740E963E0CE
:1033700070E086EC94E0099580910C02882329F096
:1033800080910A028F5F80930A02EFEFEE16F1043C
:1033900008F0F8CC20CB923051F4F601918145E051
:1033A00050E0491B510920812D5CF7E0BDCF2CE096
:1033B000933079F693E2E9E6F1E0DE0111960190AF
:1033C0000D929A95E1F7D601EC91EC0FFD2FF11DCE
:1033D00011969C9145E050E0491B51092085BCE0C5
:1033E0004B9F200D1124275FB4CF992371F22F77C3
:1033F000E091C604F091C70400E040E863E070E0AB
:1034000086EC94E00995C1CF20914501022E000C75
:10341000330B2817390714F480934501D60112960F
:103420002C91129736E1389F5001399FB00C11242E
:1034300085010D5F1E4FF801208B12969C918681AD
:10344000992339F1F286E1868F5F86830E94B61454
:10345000D8011E969C938E931D9717961C921797D2
:103460008091450290916202892B18968C9318974F
:10347000ED91FC911197309739F054966D917C91B4
:10348000C501875F9E4F0995F0921002E0920F02EE
:1034900080CC882309F47DCC8189882309F479CCF8
:1034A000C501875F9E4F0E94820B73CC80915402AE
:1034B000806126E0E2162CE5F20609F49BC008F4D0
:1034C000A0C080915402806295C0809154028D7F8B
:1034D0009CE0E9169CE5F90609F48CC078F480912B
:1034E00054028C60BAE0EB16BCE5FB0609F482C01E
:1034F00008F493C0809154028E7F7CC08091540266
:10350000877FFEE0EF16FCE5FF0609F473C08091AB
:1035100054028B7F2FE0E2162CE5F20608F46AC015
:10352000809154028F7E66C08BEFE8168CE5F8061A
:1035300009F46BC068F5A3E1EA16ACE5FA0609F4F4
:103540007AC090F4E1E1EE16ECE5FE0609F46FC0F6
:10355000F2E1EF16FCE5FF0609F060CC0E94CF0D0A
:10356000809154028F7746C025E1E2162CE5F206E1
:1035700009F469C008F47DC08091550281609AEF1A
:10358000E9169CE5F90609F049CC8093550246CC32
:10359000AFEFEA16ACE5FA0609F451C0A0F4809149
:1035A00055028D7FEDEFEE16ECE5FE0671F380918E
:1035B00055028E7FFEEFEF16FCE5FF0630F380919B
:1035C00055028360E2CF21E0E2162DE5F20609F410
:1035D00059C008F444C060E092E0E9169DE5F906A0
:1035E00009F01CCC8EE090E00E946F2517CC8091F2
:1035F000540281608093540211CC80915402846003
:10360000F9CF809154028860F5CF80915502826095
:10361000BCCF809154028064EDCF0E94CF0D809189
:1036200054028068E7CF809154028F7DE3CF809170
:1036300054028F7BDFCF80915402837FDBCF809158
:1036400055028C7FA2CF8091540282FB992790F97A
:1036500021E0922790FB82F990FB83F9CBCF8091F8
:103660005502982F909591708E7F892B90FB81F950
:103670008CCF0E94CF0D90915402892F97FB87F930
:103680008058B8CF61E0AECF85E314C2882359F0EB
:10369000E114ACE5FA0609F451C0BEEDEB16BCE549
:1036A000FB0609F45AC0D6010D911C91882309F438
:1036B0006CC0C8010E945F0DF82E682FC8010E94DF
:1036C000E909B8018F2D0E94D60B182FE82EF601BC
:1036D0008281811110924502092F02950F700430EA
:1036E00009F4A5C008F056C0023008F465C00850BF
:1036F000110B0230110510F40E94550B85E0F60104
:10370000DE01949601900D928A95E1F78CA19DA11E
:103710000E94C1099DA1ECA1F0E02FE0929FE00D75
:10372000F11D11249BE4899FE00DF11D1124EE0F82
:10373000FF1FEE59FE4F859194914DC90E94CF0D08
:103740000E94CC0BEFEFF4E32CE0E150F04020407E
:10375000E1F700C000000E943F12A8960FB6F8944F
:10376000DEBF0FBECDBFDF91CF911F910F91FF90B4
:10377000EF90DF90CF90BF90AF909F908F907F9011
:103780006F905F904F900C941013C8010E94C10974
:10379000F82E97CF083009F466C0093009F0A7CF9A
:1037A0009F70F92E882309F432C1892F0E94A20A42
:1037B000812F0E94310A9BCFF92FFF70FF2E907F3F
:1037C00019F0F29490EFF9228823C9F0FF2069F0F4
:1037D00080E2810F883010F0E1100BC0809162020E
:1037E000F82AF09262020E94AA09812F0E94000B1F
:1037F0007ECF80914502F82AF0924502F4CF812FC6
:103800000E94CD0AFF2009F472CF105E183010F02C
:10381000E11006C08F2D0E94A3090E94AA0967CF5C
:10382000F09480914502F822F0924502F6CF292FBC
:1038300026952695237051F0213009F058CF882322
:1038400079F0812F93700E943B0A51CF882329F091
:10385000812F93700E94510A4ACF90E080E0FACF06
:1038600090E080E0F0CF292F237009F065C081112E
:103870003ECF812F829586958770880F880F612FA4
:103880006F70862E912CB12CA12C082E04C0880CB0
:10389000991CAA1CBB1C0A94D2F740E050E0BA0164
:1038A00014FF0FC04FE050E060E070E004C0440F30
:1038B000551F661F771F8A95D2F7409550956095E2
:1038C0007095969596959370923019F1D8F4409032
:1038D0004602509047026090480270904902913031
:1038E00069F0482959296A297B29CB01BA01642149
:1038F0007521862197210E94C30AF9CE8428952834
:10390000A628B728CB01BA01682979298A299B29D9
:10391000F2CF482959296A297B2980904602909044
:103920004702A0904802B0904902CB01BA01682535
:1039300079258A259B25DFCF2695882311F0292F0D
:103940002170222309F4D3CE812F8295869587702A
:10395000880F880F612F6F70862E912CB12CA12CAF
:10396000082E04C0880C991CAA1CBB1C0A94D2F710
:1039700040E050E0BA0114FF0FC04FE050E060E0BB
:1039800070E004C0440F551F661F771F8A95D2F759
:103990004095509560957095969596959370923058
:1039A00019F1D8F4409068025090690260906A0260
:1039B00070906B02913069F0482959296A297B2956
:1039C000CB01BA0164217521862197210E94750AD5
:1039D0008ECE84289528A628B728CB01BA0168295D
:1039E00079298A299B29F2CF482959296A297B29D3
:1039F0008090680290906902A0906A02B0906B0279
:103A0000CB01BA01682579258A259B25DFCF812F37
:103A10000E942A0A8F2D0E947F0A69CE85E0F60156
:103A2000DE01119601900D928A95E1F7F60122814F
:103A300089819A8121110C9402150E94C109082FD5
:103A40000C940A15F6E1EF16FCE5FF0609F01ECE10
:103A5000809162028A7A91E009F490E090931102D9
:103A600069E2811165E388EF91E00E943C09A89624
:103A70000FB6F894DEBF0FBECDBFDF91CF911F917F
:103A80000F91FF90EF90DF90CF90BF90AF909F90FD
:103A90008F907F906F905F904F900C94AA0926E1D1
:103AA000E2162CE5F20609F0FECD8091110281119B
:103AB000EBCD89E2EAEFF1E020E032E09191891369
:103AC00003C0DF0111971C922E173F07B9F7CFCF24
:103AD0006F927F929F92AF92BF92CF92DF92EF92BE
:103AE000FF920F931F93CF93DF936CEC71E02AE466
:103AF000622E22E0722E31EDA32E31E0B32EC0E013
:103B0000EE24E394F12CDB018D91BD01E82FE295C9
:103B1000EF70F0E091A18F70870101C0000F8A95CE
:103B2000EAF7892F802B81A382A1902E909489217E
:103B300082A3B0EABA95F1F791EDC92E91E0D92EA2
:103B400050E040E030E020E0D601DD916D018D2FA6
:103B500082958F7090E0DC0190968C9190E0DF7000
:103B600002C095958795DA95E2F780FD70C0C70190
:103B7000042E02C0880F991F0A94E2F7282B392BD4
:103B80004F5F5F4F4F305105F9F681A1892181A325
:103B900082A1082B02A3F3018081918128173907A4
:103BA00009F458C03183208381E0C82BF2E06F0E06
:103BB000711CA616B70609F0A6CFCC2309F44CC099
:103BC00081E0809303020E94B614909302028093D6
:103BD000010220910102309102024FB7F8948091C6
:103BE0008E0290918F02A0919002B09191024FBFEE
:103BF000821B930B0697A0F180914A0290914B0291
:103C0000909359028093580280914C0290914D02FA
:103C100090935B0280935A0280914E0290914F02E2
:103C200090935D0280935C028091500290915102CA
:103C300090935F0280935E028091520290915302B2
:103C400090936102809360021092030209C090E099
:103C500080E094CF80E0A9CF809103028111B9CF99
:103C60008091450110E0D6E18F3F09F082C086E8DF
:103C700080937A0080E880937B0080914601856084
:103C800080937C0080917A00806480937A00809198
:103C90007A0086FDFCCF6091780080917900782FC2
:103CA00080910402909105029B01281B390BC901E8
:103CB00037FF03C09195819591090D9784F070931A
:103CC00005026093040277FF02C0695F7F4F83E0C3
:103CD000759567958A95E1F78BE10E947F058C2F9A
:103CE000DF91CF911F910F91FF90EF90DF90CF90D8
:103CF000BF90AF909F907F906F900895D29FF001FA
:103D0000D39FF00D1124ED5FFE4F42895389411579
:103D1000510511F448EC50E0D29FF001D39FF00D13
:103D20001124ED5FFE4F8681882311F125853685AC
:103D30006FB7F89480918E0290918F02A0919002BB
:103D4000B09191026FBF821B930B4817590780F403
:103D50001D9F700111248189811105C0C7018D5FEC
:103D60009E4F0E94610BC701875F9E4F0E94820B8E
:103D70001F5F212F30E080914501082E000C990B28
:103D8000821793070CF0BACF72CFCDB7DEB7289762
:103D90000FB6F894DEBF0FBECDBF1092EB041092A9
:103DA000ED041092EC0480EC8093B0058EEE94E06C
:103DB0009093B2058093B1051092AF051092AE05B5
:103DC0001092CB041092CA041092CD041092CC042D
:103DD0001092CF041092CE041092D1041092D0040D
:103DE0001092D3041092D2041092D5041092D404ED
:103DF0001092D7041092D6041092D9041092D804CD
:103E00001092DB041092DA041092DD041092DC04AC
:103E10001092DF041092DE041092E1041092E0048C
:103E20001092E5041092E40485E398E09093C704AF
:103E30008093C60480E998E09093E7048093E604B9
:103E40008CE098E09093E3048093E2048DE098E0A6
:103E50009093C9048093C80484B7877F84BF0FB64A
:103E6000F894A8958091600088618093600010921A
:103E700060000FBE80E890E00FB6F8948093610078
:103E8000909361000FBE85B7806885BF85B7806855
:103E900085BF0E9482060E944D078091E2008460E7
:103EA0008093E20078948091B1028823A1F0109170
:103EB000E9001F709091EC00892F817090FD80E8DF
:103EC000182B1092E9008091E80083FD0E94DA0D22
:103ED0001F701093E90082E084BD93E095BD9AEFD6
:103EE00097BD80936E00ACECB1E041ED51E061E034
:103EF00070E08D91E82FE295EF70F0E011A18F70E6
:103F00009B0101C0220F8A95EAF7922F9095912389
:103F100091A382A1822B82A34A175B0751F7A1EDDF
:103F2000B1E040EE51E061E070E08D91E82FE29564
:103F3000EF70F0E011A18F709B0101C0220F8A95F4
:103F4000EAF7922F9095912391A382A1822B82A3CD
:103F50004A175B0751F710924B0210924A021092D7
:103F600059021092580210924D0210924C02109277
:103F70005B0210925A0210924F0210924E0210925F
:103F80005D0210925C021092510210925002109247
:103F90005F0210925E02109253021092520210922F
:103FA0006102109260020E94681D8FE39CE90197F4
:103FB000F1F700C000000E94681D8091580280FF48
:103FC00008C06FEF7FEF90E080E00E948D250E9497
:103FD0003F1290E080E00E9469258C3E9E4F11F0D8
:103FE0000E94101380E48093460110928C0280E8B6
:103FF0008093BB020E9428246DE070E087E393E089
:104000000E946611892B09F046C080918C0263E002
:1040100070E081FDEFC084E393E00E946611892B7C
:10402000D1F56DE070E084E293E00E946611892B87
:1040300091F52FB7F89480918E0290918F02A09104
:104040009002B09191022FBF805A9541AF4FBF4F60
:104050008093920290939302A0939402B09395025E
:10406000EEEBF2E080E092E0DF019C011D92215036
:104070003040E1F7F093C504E093C4048FEF9FEF65
:104080009093BD028093BC0281E08093970280935D
:10409000960210928D0290E080E00E9469258C3E8D
:1040A0009E4F11F00E94101382E090E00E94612563
:1040B000809399020E94C0119093550280935402FC
:1040C00083E090E00E946125682F70E090E080E03E
:1040D0000E94C30A27982F9A52985A9A83B190E067
:1040E000880F892F881F990B4A9987C020E0822B5F
:1040F000809365028EE591E090935702809356027B
:1041000053E0452E512CCC24C394D12C0E94681D21
:10411000B82EA8E5B2E0EAE9F2E010E000E0702E87
:104120008D909D90819191918815990509F46DC0AC
:10413000A12CEE24E394F12C882599259C012E21B5
:104140003F21232B09F45BC00E94B614A9827A8216
:104150008E209F2021E0892809F420E02B838160B4
:104160009D838C83CE0101960E94C214000F111F03
:10417000F801E656FD4F80819181E826F926F1820B
:10418000E082E0916502EE0FEE0FE093650283B1ED
:1041900090E0880F892F881F990B4A994AC020E028
:1041A000822BE82BE0936502EF70F0E0E052FE4FC7
:1041B000808190916402890F8093640284300CF4B2
:1041C0004BC0809163028F5F8093630260916802AD
:1041D0007091690280916A0290916B020E94560967
:1041E000813009F456C0882339F1823009F455C072
:1041F0008AEA50C081E393E010CF22E078CFA39405
:10420000EE0CFF1C2FE0A21299CF0F5F1F4F05305D
:10421000110509F084CF0E94B6142FEF29832A8359
:104220001B8281609D838C83CE0101960E94C21403
:10423000A8CF22E030E0B4CF809162028171C1F258
:1042400081E00E94A30984E493E00E9476128091A9
:104250006202816080936202809164028D3F9CF5CE
:104260008091630281508093630260916802709133
:10427000690280916A0290916B020E945609813016
:1042800009F466C0882379F0823009F465C089EAB0
:1042900060C08EEB0E946312DFCF6FE38091470115
:1042A0000E947F05D9CF80916202817181F381E004
:1042B0000E94A3098CE493E00E947612809162022E
:1042C00081608093620280916402837887FF03C0DB
:1042D00081508C6F8F5F8093640280919702882356
:1042E00009F40FC18EEB92E09093C5048093C4044F
:1042F00087E993E00E9426110E94550B182F6091C8
:1043000068027091690280916A0290916B020E942A
:104310005609823038F18230E9F16091680270917B
:10432000690280916A0290916B020E945609813065
:1043300009F437C1882309F454C0823009F434C128
:1043400084E593E00E94261181E00E9434114DC063
:104350008DEB0E946312B7CF61E4809147010E9408
:104360007F05B1CF84E893E011FF02C08BE893E0B2
:104370000E94261182E993E00E9426118091670233
:10438000811101C08AE20E94A9108FE793E00E9488
:104390002611C3CF8BE793E00E942611E8E4F1E0F9
:1043A00001900020E9F78F0101501109A8E4EA2EDD
:1043B000A1E0FA2EE016F10670F085E793E00E9486
:1043C000261180916602811101C08AE20E94A91023
:1043D00080E793E0DCCFD7018D917D010E94A91089
:1043E000E9CF89E693E00E9426112091BC0230912A
:1043F000BD022115310509F459C080918D0281114A
:1044000055C0082F10E0EE24E394F12C082E02C0D2
:10441000EE0CFF1C0A94E2F7A70142235323452B1D
:1044200009F4C5C090918C0290FDC3C08295880F9D
:10443000807680934D01980136952795369527957E
:1044400020935001815E80934E011092510124E629
:1044500030E047E050E06BE471E088E70E94B92467
:10446000892B21F5A80175E0440F551F7A95E1F7D6
:1044700080918C0280FDABC042545D4F04E610E099
:1044800020E230E060E488E70E94E024892B71F4A8
:104490000E949611E094F0948091BC029091BD022C
:1044A000E822F922F092BD02E092BC0280919602CD
:1044B000882339F12FB7F89480918E0290918F0262
:1044C000A0919002B09191022FBF40919202509121
:1044D00093026091940270919502841B950BA60B38
:1044E000B70BB7FD0EC080919602882351F062E0B1
:1044F00070E086ED93E00E946611892B11F4109212
:104500009602B1100E949611E091E604F091E70442
:10451000309719F086EC94E009959FB7F8940091D4
:10452000AF058091AE05081708F4B6C0081B9FBF01
:10453000F12CE12C10E034E0932E88248394E016D3
:10454000F10608F4ADC00E94550B909198028917AE
:1045500021F00E94550B809398028091B102843023
:1045600009F0D4CD809153018F708093E900909130
:10457000E80090FFCBCD9091B102943009F0C6CD08
:104580008093E9009091F3008091F200892B09F467
:10459000BDCD8091E8008E778093E8000E94A1064F
:1045A000B5CD82E693E01FCF8BE593E01CCF8F5F04
:1045B00028CF880F880F880F80934D0110925001EB
:1045C000895F80934E0183E08093510140CF80E268
:1045D000ECE6F2E011928A95E9F724EF31E03887B2
:1045E0002F8300EF11E067E0962EAF81B8852D9103
:1045F000B887AF83F80121908F01240E352E311C2E
:10460000C10182549D4F1C01E22FF0E0E459FD4F9F
:1046100030E020E0992D921B9E83AA24A394022EC1
:1046200001C0AA0C0A94EAF7310190E0D3018D9100
:104630003D018A216E81691B6770862E062E000C53
:10464000770BB82F01C0BB0F8A94EAF78B2E7195B8
:10465000619571096770772701C086956A95EAF7B9
:10466000882A8081882A80829F5F9830F9F62F5FA0
:104670003F4F31962830310569F6E8EFF1E02F81A0
:104680003885E217F30709F0B0CF04E610E020E226
:1046900030E04CE652E0F6CE2091B005020F46CF56
:1046A0008091AE0590E06091B00570E00E943125E8
:1046B0002091B1053091B205280F391FD901BC9066
:1046C000A090EB04B7EFBB15E8F48092EB0420E078
:1046D00040E06B2D81E090E00E949005A092EB04F9
:1046E0002FB7F8948091AE0590E001966091B005E7
:1046F00070E00E9431258093AE052FBF8FEFE81A3E
:10470000F80A1DCFB7FE52C0E4E0AE1631F0B09209
:10471000E804D092ED04C092EC048B2D0E941208A4
:10472000813069F08823D1F08230A9F0833099F08C
:104730001092EB041092ED041092EC04D1CF809310
:10474000EB0420E040E06B2D81E090E00E949005BA
:104750001092EB04C5CF8093EB04C2CFF0EFBF16ED
:10476000E1F027EFB212E4CF2091EC043091ED0498
:10477000C901B2010E941D25FC01EA53FB4FB2A200
:10478000C90101969093ED048093EC042091EA0412
:104790004091E9046091E804D9CF9092EB04B09283
:1047A000E804D092ED04C092EC049ACFAA2009F458
:1047B00097CF2091EC043091ED04C901B2010E9421
:1047C0001D25AC01FC01EA53FB4FB2A2C9010196C1
:1047D0009093ED048093EC044130510589F0423010
:1047E000510509F07DCF2091EA044091E9046091E0
:1047F000E8040E9490058091EB04843091F670CF1C
:1048000032E020E0A3126CCFF0CF1F921FB61F92B0
:1048100011248F939F93AF93BF9380918E029091B9
:104820008F02A0919002B09191024196A11DB11DFD
:1048300080938E0290938F02A0939002B093910286
:10484000BF91AF919F918F911F901FBE1F901895A0
:104850001092B9008CE08093B8000895EF92FF9217
:104860000F931F93CF93DF93182FEB011092BC008F
:1048700084EA8093BC000E94B6147C018091BC0045
:1048800087FF27C08091B900887F883029F0809108
:10489000B900887F8031D9F51093BB0084E88093FC
:1048A000BC000E94B6148C018091BC0087FF24C01C
:1048B0002091B900287F90E080E02831B1F081E0BC
:1048C00090E0203411F490E080E091958195910979
:1048D0000CC0CF3FDC0791F20E94B6148E199F09DD
:1048E0008C179D0758F28EEF9FEFDF91CF911F91AC
:1048F0000F91FF90EF900895CF3FDC07A9F20E943F
:10490000B614801B910B8C179D0770F2ECCF8FEFC4
:104910009FEFEBCF0F931F93CF93DF93EB01809328
:10492000BB0084E88093BC000E94B6148C01809187
:10493000BC0087FF11C02091B900287F81E090E082
:10494000283211F490E080E0919581959109DF91F2
:10495000CF911F910F910895CF3FDC0741F30E9443
:10496000B614801B910B8C179D0708F38EEF9FEFF9
:10497000EECFCF92DF92EF92FF920F931F93CF93E0
:10498000DF936B018A017901B9010E942E24E601AF
:104990000C0D1D1DC017D10761F424E92093BC0044
:1049A000DF91CF911F910F91FF90EF90DF90CF900B
:1049B000089597FDF2CFB70189910E948A24EACF2A
:1049C000CF92DF92EF92FF920F931F93CF93DF93DB
:1049D000C62F6A017901B8010E942E2497FD0CC0F0
:1049E000B8018C2F0E948A24E601EC0CFD1CCE1528
:1049F000DF0511F097FF0CC024E92093BC00DF9184
:104A0000CF911F910F91FF90EF90DF90CF9008957D
:104A1000B80189910E948A24EACF84E98093BC007E
:104A20000895991B79E004C0991F961708F0961B0A
:104A3000881F7A95C9F780950895AA1BBB1B51E181
:104A400007C0AA1FBB1FA617B70710F0A61BB70BFE
:104A5000881F991F5A95A9F780959095BC01CD01A3
:104A6000089597FB072E16F4009407D077FD09D020
:104A70000E941D2507FC05D03EF4909581959F4F1F
:104A80000895709561957F4F0895EE0FFF1F059073
:104A9000F491E02D0994FB01DC0102C005900D9218
:104AA00041505040D8F70895FB01DC0104C08D91BE
:104AB0000190801921F441505040C8F7881B990B90
:104AC0000895F999FECF92BD81BDF89A992780B5D6
:104AD0000895A8E1B0E042E050E00C949525262F1F
:104AE000F999FECF92BD81BDF89A019700B40216E4
:104AF00039F01FBA20BD0FB6F894FA9AF99A0FBE92
:104B000008950396272F0E9470250E946F25252F58
:104B10000E947025242F0C9470250196272F0E9447
:104B200070250C946F25DC01CB01FC01F999FECFB7
:104B300006C0F2BDE1BDF89A319600B40D92415025
:104B40005040B8F70895F894FFCFBD0EE50E9110D0
:0E4B5000E50E9110180F390F911042104F1002
:104B5E000364000000C60DC30D000000000000003D
:104B6E000000000000000000000000B50DB20D00B6
:104B7E000000000000000000000000000000000027
:104B8E0000A40DA10D0000000000000000000000B8
:104B9E000000000000FF40013031000021007F22A4
:104BAE0000030383400000010440000001000F08D1
:104BBE000E120E080A120112010002040507090B5B
:104BCE000C0E1011131517181A1C1D1F2123242645
:104BDE0028292B2D2F3032343537393B818283E211
:104BEE0000E900EA00B500B600B700CD008301CCA5
:104BFE00008A019201940121022302240225022639
:104C0E000227022A02B300B4006F007000020302F2
:104C1E0000000100010101010100010133323130B8
:104C2E00C693959496973435366667F7F6F4F1F099
:104C3E0000FF0100010000FFFF0000010001FF0066
:084C4E000008101818100800FE
:00000001FF
