:100000000C949D050C94E4050C94E4050C94E40513
:100010000C94E4050C94E4050C94E4050C94E405BC
:100020000C94E4050C94E4050C9465190C942119C6
:100030000C9454270C94E4050C94E4050C94E4050A
:100040000C94E4050C94E4050C94E4050C94E4058C
:100050000C94E4050C94401A0C94E4050C94E4050B
:100060000C94E4050C94E4050C94E4050C94E4056C
:100070000C94E4050C94E4050C94E4050C94E4055C
:100080000C94E4050C94E4050C94E4050C94E4054C
:100090000C94E4050C94E4050C94E4050C94E4053C
:1000A0000C94E4050C94E4050C94E40500AF2900DD
:1000B0001E001F0020002100220023002400250034
:1000C000260027002D002E0035002A002B000000FE
:1000D00014001A000800150017001C0018000C007E
:1000E000120013002F00300000003900000004004F
:1000F0001600070009000A000B000D000E000F009B
:1001000033003400310028000000E1001D001B0016
:1001100006001900050011001000360037003800F5
:10012000E50052000057E000E2000000E30000009C
:1001300000002C0000000000000000000000500043
:1001400051004F0001003A003B003C003D003E00E2
:100150003F00400041004200430001000100010057
:100160000100010000000100010001000100010088
:100170000100010001000100010001000100000078
:100180000100000001000100010001000100010068
:100190000100010001000100010001000100000058
:1001A0000100010001000100010001000100010047
:1001B00001000100010001000100015701000100E0
:1001C000000001000000000001000000000000002D
:1001D00000000000AC00AD00AB0001002F5C305C03
:1001E000315C325C335C345C355C365C375C385C8B
:1001F000395C3A5C3B5C0100010000000357045786
:10020000055706570757085709570A570B570C57F2
:10021000010001000000010000000D570E570F57AC
:100220001057115712571357145715570100010053
:100230000100010000000100165717571857195701
:100240001A571B571C5701000100010001003C5CBC
:100250000257010001000000010000000000010041
:1002600000000000000000000000495C4A5C4B5C9C
:10027000000000000000000000000000000000007E
:10028000000000000000000000000000000000006E
:10029000000000000000000000000000000000005E
:1002A000000000000000000000000000000000004E
:1002B000000000000000000000000000000000003E
:1002C000000000000000000000000000000000002E
:1002D000000000000000000000000000000000001E
:1002E000000000000000000000000000000000000E
:1002F00000000000000000000000000000000000FE
:1003000000000000000000000000000000000000ED
:1003100000010101010101000101010100000000D3
:1003200000000000000000000000010001000101C9
:1003300001010101010101010101010101010101AD
:1003400001010101010101010101010000000101A0
:10035000000000000000000000000000000000009D
:100360000000000000000000000000010101010089
:1003700000000000000000002A2B28000000000000
:100380000000000000000000000000290000000044
:100390002C1E3420212224342627252E362D3738B2
:1003A000271E1F202122232425263333362E3738BB
:1003B0001F0405060708090A0B0C0D0E0F10111279
:1003C000131415161718191A1B1C1D2F3130232D45
:1003D000350405060708090A0B0C0D0E0F10111243
:1003E000131415161718191A1B1C1D2F3130354CF4
:1003F0006C75616E7479403136332E636F6D000019
:10040000DA02818FD9F1DB40A4A62EAF00A0C00094
:10041000A1C800AED580A81FD300408D14200020B5
:10042000204E4F4E450033204C54524D0032204652
:10043000554E4300312042415345005D20202000AD
:10044000202020205B00434320005D202020007BF3
:100450007C20202020007D7E4C4F434B002020201C
:100460005B00808182838485868788898A8B8C8DD6
:100470008E8F9091929394A0A1A2A3A4A5A6A7A8C1
:10048000A9AAABACADAEAFB0B1B2B3B4C0C1C2C338
:10049000C4C5C6C7C8C9CACBCCCDCECFD0D1D2D3A4
:1004A000D400AE05010980A10185031A81002A83C9
:1004B00000160100260300950175108100C0050C8F
:1004C0000901A10185041A01002A9C0216010026D7
:1004D0009C02950175108100C005010906A1010566
:1004E0000719E029E7150025019508750181029596
:1004F00001750881010507190029FF150026FF0075
:1005000095067508810005081901290595057501ED
:100510009102950175039101C009029F0004010039
:10052000A0FA0904000001030101000921110100E2
:10053000012240000705810308000A0904010001A7
:100540000300000009211101000122360007058285
:100550000320000A080B0202010100000904020046
:100560000001010000092401000109000103090440
:1005700003000201030000072401000141000624DA
:100580000201010006240202020009240301030102
:10059000020100092403020401010100090504020B
:1005A0004000050000052501010109058302400006
:1005B00005000005250101031201100100000008DB
:1005C000EDFE606001000102030104033000000041
:1005D000140350004800450052004F004D004F00EA
:1005E0004E00450000000E034C00550041004E0037
:1005F000540059000000040309040000000000003A
:100600003E5B4F5B3E003E6B4F6B3E001C3E7C3EB4
:100610001C00183C7E3C18001C577D571C001C5EBB
:100620007F5E1C0000183C180000FFE7C3E7FF00D6
:10063000001824180000FFE7DBE7FF0030483A0607
:100640000E00262979292600407F05050700407FF6
:1006500005253F005A3C663C5A007F3E1C1C0800A2
:10066000081C1C3E7F0014227F2214005F5F005F85
:100670005F0006097F017F00006689956A0060605F
:100680006060600094A2FFA2940008047E04080049
:1006900010207E20100008082A1C0800081C2A08C8
:1006A00008001E10101010000C1E0C1E0C0030381C
:1006B0003E383000060E3E0E06000000000000002E
:1006C00000005E000000000600060000143E143E1C
:1006D0001400242A7F2A1200261608343200364AD3
:1006E00056205000000A06000000003C42000000B6
:1006F0000000423C00002A1C3E1C2A0008083E085C
:10070000080000A0600000000808080808000000B9
:10071000606000002010080402003C4242423C009D
:1007200000447E400000645252524C0022424A4A29
:1007300036003824227E20002E4A4A4A32003C4AA3
:100740004A4A32000202621A0600344A4A4A340017
:100750004C5252523C000000140000000040340093
:1007600000000008142200001414141414000000E7
:10077000221408000004520A04003E415D594E0054
:100780007C1212127C007E4A4A4A34003C424242A9
:1007900042007E4242423C007E4A4A4A4A007E0A69
:1007A0000A0A0A003C42425272007E0808087E0093
:1007B00000007E0000002040423E00007E10081431
:1007C00062007E40404040007E0408047E007E04BB
:1007D00008107E003C4242423C007E1212120C0085
:1007E0003C4252225C007C1212325E004C4A4A4A61
:1007F000320002027E0202003E4040403E001E20C7
:1008000040201E003E4038403E0062140814620042
:1008100006087008060062524A464200007E4242C4
:100820000000020408102000000042427E0008047C
:10083000020408004040404040000000060A00005A
:10084000605454547C007E48484830003048484842
:100850004800304848487E00385454545800000836
:100860007C0A000098A4A4A478007E080808700000
:1008700000007A0000002040403A00007E1028442A
:10088000000000007E4000007C04780478007C04B6
:1008900004047800384444443800FC24242418001C
:1008A00018242424FC007C080404080048545454F0
:1008B000240000047E4400003C4040407C001C209A
:1008C00040201C003C4030403C004428102844009C
:1008D0005CA0A0A07C004464544C4400FEC1C1C98B
:1008E000C5DDC5C9C1C1FE00FCFEFEEEF6C6F6EED2
:1008F000FEFEFC003C2623263C000103053F053399
:100900000138003C00000000000000000000000072
:100910000000001C3C783C1C0080E0100800001423
:100920000C1E2C5440404040449A244080808080DB
:10093000E01088C8CEC88E080E080E080E080810F1
:10094000E0808080808080402020202070701C7893
:100950001818181888C040C040C040C040C040C0EF
:10096000800000000000000000000000001E003FAA
:100970002121212D2D213F00F00804C4242424C46A
:100980000408F000F0F8FC3CDCDCDC3CFCF8F00097
:10099000FEC1C1C9C5DDC5C9C1C1FE00FCFEFEEE78
:1009A000F6C6F6EEFEFEFC000000000000000000AF
:1009B0000000000000000000000000000000000037
:1009C0000000000000000000000000000000000027
:1009D000000000000000000000070F1121010101CC
:1009E00001C1213925C505091224292A2A2AAAAAC2
:1009F000FF0007EF4CCF474040C0404043E30000BA
:100A0000FFAAAA2A2A2A4A8A2A52220202024282D9
:100A1000024282020F1D171D97DD575D57DD971D9E
:100A20000F000000000000000000000000000000B7
:100A3000000000000000000007081013111111133E
:100A400010080700070F1F1C1E1E1E1C1F0F07008B
:100A50000000000000000000000000000000000096
:100A60000000000000000000000000000000000086
:100A7000000000000000000000000004021F22240B
:100A80002000000000000000000000000000000046
:100A90000000000000000000000000000000000056
:100AA000000705050507000000000000102F1000DA
:100AB0000306080B3A0A3A0A3A0A3A0A3A0B0806B7
:100AC000030030293E283000010101010101050722
:100AD00001050301000000000F18111214180F0087
:100AE0000000000000000000000000000000000006
:100AF0000000020A2A2A2A0000000000000000006C
:100B000000000000000000000000000000000000E5
:100B100000000000000000000000000000000000D5
:100B200000000000000000000000000000000000C5
:100B30000000000000000000000011241FBECFEFE5
:100B4000DAE0DEBFCDBF04B603FE27C08091BB074D
:100B50009091BC07A091BD07B091BE078730904B24
:100B6000A740B04BD1F41092BB071092BC07109273
:100B7000BD071092BE0714BE84B7877F84BF0FB62F
:100B8000F894A8958091600088618093600010922D
:100B900060000FBEE0E0F8E3099514E0A0E0B1E0EA
:100BA000E4E3F2E502C005900D92A230B107D9F757
:100BB00027E0A2E0B4E001C01D92AB3BB207E1F731
:100BC0000E94A5220C94F2280C940000CF92DF9290
:100BD000EF92FF920F931F93CF93DF9300D00F926A
:100BE000CDB7DEB77C01162FD42EC22E8091E8043B
:100BF0008430B9F5E091DD04F091DE04309709F41A
:100C000040C0C701019763E070E00E946C28CB01EF
:100C1000880F991F860F971F19834A83CB824E2D09
:100C2000481B9E012F5F3F4FBC0183EC94E0099568
:100C3000E091E104F091E204309739F00C2D2D2D74
:100C4000412FB70183EC94E009950F900F900F901E
:100C5000DF91CF911F910F91FF90EF90DF90CF9098
:100C6000089582E0E816F10409F45AC083E0E8161A
:100C7000F104A9F081E0E816F10409F484C0F12C34
:100C8000E12CE091DF04F091E004309789F20C2D23
:100C90002D2D412FB70183EC94E00995C9CF862F04
:100CA000807F803A11F188F48038D1F0E091C70458
:100CB000F091C804803929F7309719F3123F49F1B0
:100CC0002C2D4D2D612F6F7027C0803E99F0803FF5
:100CD000B1F0E091C504F091C604803B91F6ECCFF1
:100CE000E091C904F091CA04E7CFE091CB04F09100
:100CF000CC04E2CFE091CD04F091CE04DDCF623F91
:100D000009F0BFCFE091CF04F091D004309709F4FF
:100D1000B8CF2C2D4D2D62EF83EC94E0099588CF50
:100D2000862F807F803DB9F0803FD1F0E091D104E3
:100D3000F091D204803C09F0A4CF309709F4A1CF00
:100D4000812F8D7F4D2D612F6F70813FC9F083EC16
:100D500094E009956DCFE091D304F091D404EDCFE8
:100D6000E091D504F091D604633F39F0613F09F07A
:100D700088CFE091D704F091D804309709F481CF5F
:100D80004D2D612FE4CFE091D904F091DA04683F52
:100D900038F4663F09F075CFE091DB04F091DC0494
:100DA000309709F46ECF612F83EC94E0099540CF22
:100DB000E8EDF0E080818E7F80831092E200109257
:100DC000DA001092E100A0EEB0E08C9181608C938B
:100DD00080818F77808319BCA7EDB0E08C918E7FE6
:100DE0008C9380818F7E80831092AC040895209133
:100DF000E4003091E50095E6A9012091EC00822FF6
:100E0000817020FF06C08091E80080FF06C080E06E
:100E100008952091E80022FD1AC08091B90488232A
:100E200089F0853089F08091EB0085FD0FC020911D
:100E3000E4003091E50042175307F9F29150E1F6D2
:100E400084E0089582E0089583E0089581E00895A4
:100E5000EF92FF920F931F93CF937C018B010E941F
:100E6000F706C82F811117C08091E80085FD0BC0DF
:100E70008091E8008E778093E8000E94F70688232F
:100E800099F3C82F08C0F70181917F018093F10089
:100E90000150110949F78C2FCF911F910F91FF90AD
:100EA000EF9008958091BB0487FF13C08091E80004
:100EB00082FF06C08091E8008B778093E80004C031
:100EC0008091B9048111F2CF08958091B9048823EB
:100ED000D9F38091E80080FFF8CF8091E8008E7709
:100EE000ECCF982F9093E900242F762F50E08917AC
:100EF00031F07091EC002091ED005091F00021FD57
:100F000007C09F5F973071F78093E90081E00895F3
:100F10003091EB003E7F3093EB003091ED003D7F50
:100F20003093ED003091EB0031603093EB00709323
:100F3000EC002093ED005093F0002091EE0027FD8F
:100F4000E0CF80E00895CF92DF92EF92FF920F936F
:100F50001F93CF93DF93C8EDD0E088818F7E888385
:100F6000E7EDF0E080818160808384E082BF81E0F2
:100F70008093AC0488818E7F888302EE10E0F801B4
:100F800010821092DA0081EEC82ED12CF601108268
:100F900088818F77888388818068888388818F7D26
:100FA000888319BC1092B9041092BA041092B80444
:100FB0001092B70490EEE92EF12CF70180818B7F1F
:100FC000808388818160888342E060E080E00E94C5
:100FD0007107F60180818E7F8083F80180818160B6
:100FE0008083808188608083F70180818E7F808309
:100FF000888180618883DF91CF911F910F91FF904D
:10100000EF90DF90CF900895FC018091C104909102
:10101000C20486179707A0F06115710529F4909115
:10102000E8009E779093E80090E06115710551F417
:10103000911108C08091E80082FF34C080E00895DB
:10104000BC01F2CF8091B9048823C1F18530C1F190
:101050008091E80083FD30C08091E80082FDEACFF6
:101060008091E80080FFE1CF8091F3002091F200B1
:10107000382F6115710519F02830310558F091E0CD
:101080002830310509F090E02091E8002E77209378
:10109000E800CBCF81918093F100615071092F5FFF
:1010A0003F4FE7CF8091B904882341F0853041F06C
:1010B0008091E80083FFBECF81E0089582E008952B
:1010C00083E008950895089508958091AE040895E9
:1010D000982F907F903BE9F040F49039D1F0903A0E
:1010E000C1F09038B1F080E00895903D19F020F4FF
:1010F000903CC9F782E00895903E59F0903F99F7EF
:10110000815F8F3080F7E82FF0E0E952FC4F80815B
:10111000089583E00895DF92EF92FF920F931F935B
:10112000CF93DF9300D000D0CDB7DEB77B01142F73
:10113000D22E4A832B830C83842F0E94680881114E
:1011400041C082E0E816F104C1F183E0E816F10441
:1011500039F0EA94EF2829F5173F29F485E004C017
:1011600087E0073F09F084E089838091B9048430E7
:10117000C1F480918E038F708093E90050E040E0CD
:1011800064E070E0CE0101960E942807811109C039
:101190008091E80085FD05C08091E8008E778093FE
:1011A000E8000F900F900F900F90DF91CF911F915B
:1011B0000F91FF90EF90DF90089587EFD812D3CF73
:1011C00086E0D2CF12951F701983CFCFCF92DF92D6
:1011D000EF92FF920F931F93CF93DF9300D000D035
:1011E00000D00F92CDB7DEB78C0108511F4F809110
:1011F000B904843009F087C0809193038F70809385
:10120000E9008091E80082FF7EC08091E80085FFC0
:101210007AC00E94F706811113C084E0E82EF12CF9
:10122000CE0101966C018091E80085FD61C080913E
:10123000E8008B778093E8000E94F706882399F3F3
:101240008091E80085FD05C08091E8008B77809350
:10125000E800FA808F2D0E946808282FFD828B817C
:101260008E838C818F8321110BC08981843041F161
:10127000873031F1863031F121E0853009F0B7CF88
:1012800030E0E5E0F0E0EC0FFD1FE30FF11DF08032
:101290004FB7F894D8011196EC911197F0E0CF0177
:1012A000019612966C9170E00E948028D8015C91A2
:1012B0005817190649F44FBF3F5F321710F397CF05
:1012C00023E0DECF22E0DCCF13968D919C91149722
:1012D000E80FF91FF08211968C91119790E001961A
:1012E00012966C9170E00E948028F8018183E3CF10
:1012F0008091F100D6018D936D01B1E0EB1AF108F8
:1013000009F091CF9DCF27960FB6F894DEBF0FBEA0
:10131000CDBFDF91CF911F910F91FF90EF90DF90A4
:10132000CF900895CF92DF92EF92FF920F931F9389
:101330002FB7F894409196045091970460919804C7
:10134000709199042FBF6A017B01EE24FF248C0168
:1013500030E020E0C016D106E206F30650F0481B4C
:10136000590BCA011F910F91FF90EF90DF90CF9022
:10137000089541505109F3CF9C01FC0132969FEF33
:1013800080E04191461751F09F3F19F4411101C08F
:10139000982F8F5F8630A9F79F3F09F40895290F92
:1013A000311D97FD3A95F90162830895CF92DF923E
:1013B000EF92FF926C01EE24FF2420E0C114D104CF
:1013C000E104F10419F0C701B60120E1C72ED82EBF
:1013D000E92EFF24C114D104E104F10419F0285FBF
:1013E000C701B6016B017C0154E0F694E794D794F1
:1013F000C7945A95D1F7C114D104E104F10419F04E
:101400002C5FC701B6016B017C0142E0F694E794C2
:10141000D794C7944A95D1F7C114D104E104F104DB
:1014200019F02E5FC701B601969587957795679558
:10143000672B682B692B09F02F5F822FFF90EF90AD
:10144000DF90CF90089580959091500498239093C9
:10145000500408958091500490914F04892B9091ED
:101460004E04892B80930204E0916204F09163049E
:10147000309731F00280F381E02D82E094E009940E
:1014800008952FE0929F800D1124982F97708695D4
:101490008695869525E0829FF0011124E45EFB4F3E
:1014A00050E040E080E0219130E0092E02C0369506
:1014B00027950A94E2F721703327042E01C0220FEA
:1014C0000A94EAF7822B4F5F5F4F4530510559F779
:1014D00008952FE0929F800D1124982F977041E07E
:1014E00001C0440F9A95EAF786958695869595E012
:1014F000899FF0011124E45EFB4F90E080E070E0F2
:101500005191DF0111979B01082E02C03695279556
:101510000A94E2F7217021952527242325272C936F
:1015200001968530910561F70895882341F08095F3
:1015300090914F04892380934F040C942A0A0895B4
:10154000882339F090914F04982B90934F040C947A
:101550002A0A0895882321F00E94230A0C942A0A5B
:101560000895882339F090915004982B909350045B
:101570000C942A0A0895209112043091130428171C
:10158000390771F09093130480931204E091620480
:10159000F0916304309721F00084F185E02D0994E7
:1015A000089520911004309111042817390771F023
:1015B0009093110480931004E0916204F09163040D
:1015C000309721F00680F781E02D0994089510925C
:1015D0004F0410924E040E942A0A90E080E00E947C
:1015E000D10A90E080E00C94BB0A60937004709381
:1015F000710480937204909373040C94E70A0F9320
:101600001F9341E050E060E070E004C0440F551FBC
:10161000661F771F8A95D2F7CB01BA016095709546
:10162000809590950091700410917104209172043E
:101630003091730460237123822393231F910F91B0
:101640000C94F50A0F931F9341E050E060E070E0C6
:1016500004C0440F551F661F771F8A95D2F78091EB
:10166000700490917104A0917204B09173048A0186
:101670009B01082B192B2A2B3B2BC901B8011F9169
:101680000F910C94F50A6093510470935204809367
:101690005304909354040C94E70A882381F19CEF3F
:1016A000980F913A78F4E4E0F4E02AE034E0919184
:1016B000891303C0DF0111971C922E173F07B9F75A
:1016C0000C942A0A90E2980F983050F4877091E0B9
:1016D00001C0990F8A95EAF7892F0E94230AF0CF5B
:1016E0009BE5980F933020F490E080E00C94D10AB1
:1016F000885A873120F490E080E00C94BB0A08956A
:10170000882309F4C1C09CEF980F913A38F4682FF0
:1017100082E094E00E94BC090C942A0A90E2980F9F
:10172000983068F4877021E030E001C0220F8A957C
:10173000EAF780915004822B80935004EDCF9BE513
:10174000980F933070F4853A31F0863A39F083E897
:1017500090E00C94D10A81E890E0FBCF82E890E021
:10176000F8CF98E5980F973108F08EC0883A09F4C1
:1017700046C0893A09F446C08A3A09F446C08B3A11
:1017800009F446C08C3A09F446C08B3B09F446C0C4
:101790008C3B09F446C08D3A09F446C0803B09F4FD
:1017A00046C08E3A09F446C08F3A09F446C0813BE0
:1017B00009F446C0823B09F446C0833B09F446C0A5
:1017C000843B09F446C0853B09F446C0863B09F4D6
:1017D00046C0873B09F446C0883B09F446C0893BB4
:1017E00009F446C08D3B09F446C08E3B09F446C05F
:1017F0008A3B09F446C090E080E00C94BB0A82EE7C
:1018000090E0FBCF89EE90E0F8CF8AEE90E0F5CF44
:1018100085EB90E0F2CF86EB90E0EFCF83EB90E0AA
:10182000ECCF84EB90E0E9CF87EB90E0E6CF8CEC57
:1018300090E0E3CF8DEC90E0E0CF83E891E0DDCF66
:101840008AE891E0DACF82E991E0D7CF84E991E0AC
:10185000D4CF81E292E0D1CF83E292E0CECF84E296
:1018600092E0CBCF85E292E0C8CF86E292E0C5CF8E
:1018700087E292E0C2CF8FE690E0BFCF80E790E0B2
:10188000BCCF8AE292E0B9CF0895E0916204F09172
:101890006304309721F00190F081E02D099480E0FD
:1018A0000895CF93DF93EC0181E0898B8091500400
:1018B0009F81892B8093500480914F049885892BB8
:1018C00080934F040E942A0AEA81FB81309739F005
:1018D0006C897D89CE010696DF91CF910994DF91C5
:1018E000CF910895EF92FF920F931F93CF93DF93C1
:1018F000EC018A85811139C0EB80FC8087E5F81AFC
:1019000026E12E9DC0012F9D900D1124DC01AC5FBE
:10191000BE4F1496ED91FC911597309731F0549687
:101920006D917C91865F9E4F099586E18E9D800129
:101930008F9D100D11240C5F1E4FF80187810E94AE
:10194000230AF8018085982F909580914F04892370
:1019500080934F040E942A0A188219861B861E82D1
:101960001D8210921A0410921904DF91CF911F91D9
:101970000F91FF90EF9008950F93E091C304F091C1
:10198000C40400E02BE740EB63E070E083EC94E0FC
:1019900009950F9108958091170481110C94BC0C46
:1019A00008959091600492FF06C0282F2871283076
:1019B000F9F4877F846093FF06C0282F28712831AF
:1019C000F1F4877E84612091610420FF06C0382FE6
:1019D00038713830D9F4877F816021FF06C0282F05
:1019E00028712831D1F4877E816194FD877E089526
:1019F000282F24712430F9F68B7F8860DCCF282FC4
:101A00002471243101F78B7E8861DDCF382F31714D
:101A1000313019F78E7F8860E0CF282F2171213176
:101A200021F78E7E8861E1CFCF93DF93972F70E00F
:101A30002FE0929F600D711D1124FB013BE4839FF9
:101A4000E00DF11D1124EE0FFF1FE255FF4FC59170
:101A5000D491CE01C238D105B9F1E8F5C133D10531
:101A600009F499C050F5C932D10509F48DC0CA32C4
:101A7000D10509F497C0C11542E5D40708F039C172
:101A8000C11521E5D20708F0AEC1C83ED10508F066
:101A900020C1C13ED10568F5C83AD10508F089C01A
:101AA000C53AD10508F070C1C130D10511F12097B8
:101AB00009F443C02497E8F440C0C533D10509F4C4
:101AC0005CC0C933D105B9F620916004237089F058
:101AD00080EE90E00EC0C33ED10591F168F4C03EA7
:101AE000D105F9F0C23ED10531F62091600422FD06
:101AF00020C0DF91CF910895C63ED10561F1C73E68
:101B0000D10581F1C43ED10509F0B5CF2091610422
:101B100021FFEFCF8091600484FD0FC087EE90E03D
:101B2000E8CF2091600420FD8BC13091610430FF2B
:101B3000E0CF83EE90E024FFDCCF90E080E0D9CFCF
:101B40002091600422FD7FC13091610430FDC0CF3F
:101B500024FFCFCFF2CF2091600423FFCACF24FD12
:101B6000ECCFDCCF2091600423FD70C13091610483
:101B700031FFEECF84EE90E0BCCF2091600425FFD2
:101B8000B8CF89E290E0B5CF2091600425FFB1CFB6
:101B900085E390E0AECF2091600426FFAACF8AE2D1
:101BA00090E0A7CF2091600426FFA3CF81E390E0CF
:101BB000A0CFCF3BD10508F682EE94E4C83AD10518
:101BC00009F497CF89EE94E4C93AD10509F491CF8D
:101BD0008AEE94E4CA3AD10509F48BCF85EB94E4FC
:101BE000CB3AD10509F485CF86EB94E4CC3AD10504
:101BF00009F47FCF83EB94E4CB3BD10509F479CF93
:101C000084EB94E4CC3BD10509F473CF87EB94E4E7
:101C1000CD3AD10509F46DCF8CEC94E4C03BD105ED
:101C200009F467CF8DEC94E4CE3AD10509F461CF85
:101C300083E895E4CF3AD10509F45BCF8AE895E4CF
:101C4000C13BD10509F455CF82E995E4C23BD105EA
:101C500009F44FCF84E995E4C33BD10509F449CF9A
:101C600081E296E4C43BD10509F443CF83E296E4D4
:101C7000C53BD10509F43DCF84E296E4C63BD105CE
:101C800009F437CF85E296E4C73BD10509F431CF9B
:101C900086E296E4C83BD10509F42BCF87E296E4AF
:101CA000C93BD10509F425CF8FE694E4CD3BD1059E
:101CB00009F41FCF80E794E4CE3BD10509F419CF96
:101CC00080E094E4CA3BD10509F013CF8AE296E4A0
:101CD00010CFC11530E5D30708F069C0C11540E445
:101CE000D40708F060C0DA95C115DF4108F401CFD0
:101CF00024CFC11536E5D30718F5C11545E5D4073E
:101D000008F087C0C11584E5D80708F07DC09C2F76
:101D100096959695AE0143705527C115D34508F4A5
:101D200067C021E030E002C0220F331F4A95E2F77E
:101D300040E2949FC0011124822B932B9A68D9CE44
:101D4000C1153AE5D30778F4C11549E5D40708F081
:101D50006AC0C11588E5D80708F4EFCE9C2F882704
:101D6000806F906AC6CECE0190568115904208F0E1
:101D7000E4CE8D2F8F710E94D10C90E0982F882790
:101D800088279F718C2B4DC081E890E4C53AD1051E
:101D900009F4AFCE82E890E4C63AD10509F4A9CEA1
:101DA00083E890E4A6CECE019F70906AA2CE9E01F9
:101DB000E4E036952795EA95E1F723708C2F869518
:101DC0008695837030E2839FC0011124922BC370EB
:101DD00021E030E002C0220F331FCA95E2F7822BC8
:101DE000932B9C6886CE9C2F8827816F906A81CE2A
:101DF00021E030E002C0220F331F4A95E2F740E2B3
:101E0000949FC0011124EBCF9C2F8827846F906A88
:101E100070CE8C2F0E94D10C90E0982F88278827B5
:101E20009F71906266CE8C2F8F700E94D10C34E02F
:101E3000D695C7953A95E1F7CF709C2F906959CE0A
:101E400089E390E056CE82EE90E053CE86EE90E0AD
:101E500050CEBF92CF92DF92EF92FF920F931F93DB
:101E6000CF93DF938C01C0907004D0907104E09008
:101E70007204F09073048091510490915204A091E7
:101E80005304B0915404C82AD92AEA2AFB2ACFE184
:101E9000D0E0BC2ED701C6010C2E04C0B695A79584
:101EA000979587950A94D2F780FD0EC0219788F701
:101EB000B12C8B2DDF91CF911F910F91FF90EF905F
:101EC000DF90CF90BF900895B8018C2F0E94140D21
:101ED000019761F3EECF82E00C94FF0AFC01808150
:101EE000813019F480E00C94220B80E00E94220BD8
:101EF00082E080930A04089581E00C94FF0AFC01BB
:101F00008081813019F482E00C94220B80E00E94E1
:101F1000220B81E080930A04089580E00C94FF0A6C
:101F2000FC018081813011F40C94220B80910A0411
:101F3000FBCFFC018081813069F48AE1809300014C
:101F40008EE480936E0482E38093830386E3809320
:101F500084030895823059F484E3809300018EE471
:101F600080936E0485E38093830382E3F0CF833014
:101F700081F78EE48093000180936E0487E3809361
:101F8000830388E3E4CFFC018081813069F489E137
:101F9000809300018EE480936E0482E38093830338
:101FA00085E3809384030895823059F483E380931A
:101FB00000018EE480936E0485E38093830381E3C4
:101FC000F0CF833081F78DE4809300018EE480931D
:101FD0006E0487E380938303E4CFFC01808181302A
:101FE00069F488E18093000182E480936E0482E3C7
:101FF0008093830384E3809384030895823059F4AB
:1020000082E38093000182E480936E0485E38093F1
:10201000830380E3F0CF833081F78CE48093000169
:1020200082E480936E0487E38093830386E3E3CFA7
:10203000FC018081813069F487E18093000186E5AD
:1020400080936E0482E38093830383E3809384030D
:102050000895823059F481E38093000186E58093EE
:102060006E0484E38093830389E3F0CF833081F7A8
:102070008BE48093000186E580936E0487E3809370
:10208000830385E3E3CFFC018081813061F486E145
:102090008093000183E480936E0482E38093830342
:1020A000809384030895823059F480E38093000183
:1020B00083E480936E0484E38093830388E3F0CF0A
:1020C000833081F78AE48093000183E480936E0477
:1020D00087E38093830384E3E3CFFC018081813035
:1020E00069F485E18093000188E580936E0482E3C2
:1020F0008093830381E3809384030895823059F4AD
:102100008FE28093000188E580936E0484E38093DE
:10211000830387E3F0CF833081F789E48093000164
:1021200088E580936E0487E38093830383E3E3CFA2
:10213000FC018081813069F484E1809300018AE5AB
:1021400080936E0482E38093830380E3809384030F
:102150000895823059F48EE2809300018AE58093DD
:102160006E0484E38093830386E3F0CF833081F7AA
:1021700088E4809300018AE580936E0487E380936E
:10218000830382E3E3CFFC018081813069F483E142
:10219000809300018CE480936E0481E38093830339
:1021A00089E3809384030895823059F48DE280930B
:1021B00000018CE480936E0484E38093830385E3C1
:1021C000F0CF833081F787E4809300018CE4809323
:1021D0006E0487E38093830381E3E3CFFC01808176
:1021E000813069F482E1809300018BE480936E0476
:1021F00081E38093830388E380938403089582308E
:1022000051F48CE2809300018BE480936E0484E3AC
:1022100080938303F1CF833089F786E480930001B4
:102220008BE480936E0487E38093830380E3E4CFA1
:10223000FC018081813069F481E1809300018AE4AE
:1022400080936E0481E38093830387E38093840308
:102250000895823059F48BE2809300018AE48093E0
:102260006E0484E38093830383E3F0CF833081F7AC
:1022700085E4809300018AE480936E0486E3809372
:10228000830389E3E3CFFC018081813069F480E13D
:102290008093000188E480936E0481E3809383033C
:1022A00086E3809384030895823059F48AE2809310
:1022B000000188E480936E0484E38093830382E3C7
:1022C000F0CF833081F784E48093000188E4809329
:1022D0006E0486E38093830388E3E3CFFC0180816F
:1022E000813069F48FE08093000187E480936E046D
:1022F00081E38093830385E3809384030895823090
:1023000059F489E28093000187E480936E0484E3AA
:102310008093830381E3F0CF833081F783E480935C
:10232000000187E480936E0486E38093830387E350
:10233000E3CFFC018081813069F48EE0809300015D
:1023400086E480936E0481E38093830384E3809327
:1023500084030895823059F488E28093000186E472
:1023600080936E0484E38093830380E3F0CF833013
:1023700081F782E48093000186E480936E0486E313
:1023800080938303E4CFFC018081813069F48DE088
:102390008093000184E480936E0481E3809383033F
:1023A00083E3809384030895823059F487E2809315
:1023B000000184E480936E0483E38093830389E3C4
:1023C000F0CF833081F781E48093000184E480932F
:1023D0006E0486E38093830385E3E3CFFC01808171
:1023E000813069F48CE08093000183E580936E0472
:1023F00081E38093830382E3809384030895823092
:1024000059F486E28093000183E580936E0483E3B0
:102410008093830388E3F0CF833081F780E4809357
:10242000000183E580936E0486E38093830384E355
:10243000E3CFFC018081813061F48BE08093000167
:1024400081E480936E0481E380938303809384030B
:102450000895823059F485E28093000181E48093ED
:102460006E0483E38093830387E3F0CF833081F7A7
:102470008FE38093000181E480936E0486E3809370
:10248000830383E3E3CFFC018081813069F48AE038
:102490008093000180E580936E0481E38093830341
:1024A00080E3809384030895823059F484E280931A
:1024B000000180E580936E0483E38093830386E3C9
:1024C000F0CF833081F78EE38093000180E5809325
:1024D0006E0486E38093830382E3E3CFFC01808173
:1024E000813069F489E0809300018FE480936E0469
:1024F00080E38093830389E380938403089582308B
:1025000059F483E2809300018FE480936E0483E3A7
:102510008093830385E3F0CF833081F78DE380934D
:1025200000018FE480936E0486E38093830381E34C
:10253000E3CFFC018081813069F488E08093000161
:1025400089E480936E0480E38093830388E380931F
:1025500084030895823059F482E28093000189E473
:1025600080936E0483E38093830384E3F0CF83300E
:1025700081F78CE38093000189E480936E0486E305
:102580008093830380E3E3CFFC018081813069F491
:1025900087E08093000185E580936E0480E380935B
:1025A000830387E3809384030895823051F481E2AA
:1025B0008093000185E580936E0483E38093830319
:1025C000F1CF833089F78BE38093000185E5809319
:1025D0006E0485E38093830389E3E4CFFC0180816B
:1025E000813069F486E08093000189E580936E0470
:1025F00080E38093830386E380938403089582308D
:1026000059F480E28093000189E580936E0483E3AE
:102610008093830382E3F0CF833081F78AE3809352
:10262000000189E580936E0485E38093830388E34A
:10263000E3CFFC018081813069F485E08093000163
:1026400084E580936E0480E38093830385E3809325
:1026500084030895823059F48FE18093000184E56A
:1026600080936E0483E38093830381E3F0CF833010
:1026700081F789E38093000184E580936E0485E30C
:102680008093830387E3E3CFFC018081813069F489
:1026900084E08093000182E580936E0480E3809360
:1026A000830384E3809384030895823059F48EE198
:1026B0008093000182E580936E0483E3809383031B
:1026C00080E3F0CF833081F788E38093000182E5D7
:1026D00080936E0485E38093830386E3E3CFFC015C
:1026E0008081813069F483E08093000185E48093E8
:1026F0006E0480E38093830383E3809384030895CF
:10270000823059F48DE18093000185E480936E045A
:1027100082E38093830389E3F0CF833081F787E3FB
:102720008093000185E480936E0485E380938303A6
:10273000E4CFFC018081813069F482E08093000164
:1027400087E580936E0480E38093830382E3809324
:1027500084030895823059F48CE18093000187E569
:1027600080936E0482E38093830388E3F0CF833009
:1027700081F786E38093000187E580936E0485E30B
:102780008093830384E3E3CFFC018081813061F493
:102790008093000181E580936E0480E3809383033E
:1027A00081E3809384030895823059F48BE1809310
:1027B000000181E580936E0482E38093830387E3C5
:1027C000F0CF833081F785E38093000191E590930A
:1027D0006E048093830383E3E4CF10925004E4E01B
:1027E000F4E086E0DF011D928A95E9F70C94E70A90
:1027F0001F93CF93DF93CDB7DEB7AA970FB6F894A8
:10280000DEBF0FBECDBF8BEB94E02091F100FC0149
:102810002193CF01F4E0833C9F07B9F78091BC047A
:10282000833009F46FC0B8F4813009F446C08230B7
:1028300009F4B0C08091E80083FF91C28091BB048D
:102840009091BC049A3008F08AC2E92FF0E0EC5075
:10285000F74D0C9494288A3009F48BC08B3009F41E
:102860006EC0893039F78091BB04813219F78091AD
:10287000BF049091C0040297E8F68091E800877F3A
:102880008093E8008091E80082FF37C09091F300C8
:102890008091F200029729F48091F1008B7F8130C2
:1028A00021F48091F1008093AE048091E8008B7751
:1028B0008093E8000E945207BDCF8091BB04813A0B
:1028C00009F0B8CF8091E800877F8093E80080917D
:1028D000BF049091C004892B61F468E08FEA94E012
:1028E00070E00E9404088091E8008B778093E800F4
:1028F000A1CF60E090E080E0F3CF8091B904811136
:10290000C1CF98CF8091BB04813A09F093CF8091D9
:10291000BF049091C004892B09F08CCF8091E8000E
:10292000877F8093E8008091E80080FFFCCF809152
:10293000A3038093F1008091E8008E77B9CF809156
:10294000BB04813209F076CF8091BF049091C0041E
:10295000892B09F06FCF8091E800877F8093E80092
:102960000E9452078091BD048093A3030E94ED133F
:1029700061CF8091BB04813209F05CCF8091E80087
:10298000877F8093E8000E9452078091BE04809365
:10299000AD0450CF8091BB04813A09F04BCF8091B8
:1029A000E800877F8093E8008091E80080FFFCCFFB
:1029B0008091AD04BECF803899F0823809F0CFC144
:1029C0008091BF048F70873008F0C9C18093E900FF
:1029D0008091EB0085FB882780F91092E90006C002
:1029E0008091B7049091B804911182609091E800B1
:1029F000977F9093E8008093F1001092F10080910E
:102A0000E8008E77A8C1882309F496C1823009F0C6
:102A1000A6C18091BD04811199C18091BF048F70BE
:102A20002FEF280F263008F09AC18093E9002091FB
:102A3000EB0020FF8BC1933031F48091EB0080627A
:102A40008093EB0083C19091EB0090619093EB0039
:102A500021E030E001C0220F8A95EAF72093EA00D6
:102A60001092EA008091EB008860EACF811177C173
:102A70001091BD041F778091E3008078812B8093B3
:102A8000E3008091E800877F8093E8000E9452076E
:102A90008091E80080FFFCCF8091E3008068809304
:102AA000E30082E0111183E08093B90458C180589B
:102AB000823008F054C18091BD049091BE048C3DD9
:102AC00023E09207A1F583E08A838AE289834FB7E6
:102AD000F894DE01139620E03EE051E2E32FF0E0AF
:102AE00050935700E49120FF03C0E295EF703F5FE1
:102AF000EF708E2F90E0EA30C0F0C7968D939D93D3
:102B00002F5F243159F74FBF8091E800877F809372
:102B1000E8006AE270E0CE0101960E94040880910C
:102B2000E8008B778093E8001AC1C096E7CF409108
:102B3000BF045091C004292F33272330310509F4F5
:102B400045C078F52130310509F47BC08FE990E06C
:102B5000E9E1F5E02230310509F001C12091E800FA
:102B6000277F2093E8002091C1043091C20482178E
:102B7000930708F49C0140E02115310509F070C06D
:102B800041116EC08091E80082FDC9CF8091B904E7
:102B9000882329F2853019F28091E80083FFF2CF73
:102BA000BECF2132310509F440C02232310509F08F
:102BB000D6C04115510509F44EC04130510509F008
:102BC000CEC086E390E0E3EAF4E0C8CF99278130F5
:102BD0009105D9F0009771F082309105F1F00397DB
:102BE00009F0BDC0EAECF5E0E4918E2F90E0EAEC4C
:102BF000F5E007C0E6EFF5E0E4918E2F90E0E6EF18
:102C0000F5E0009709F4ABC0A9CFE6EEF5E0E4915A
:102C10008E2F90E0E6EEF5E0F4CFE0EDF5E0E49104
:102C20008E2F90E0E0EDF5E0ECCF4115510571F00D
:102C30004130510509F093C089E090E0E4E4F5E00B
:102C40008DCF82E190E0E8EBF5E088CF89E090E07D
:102C5000EBE2F5E083CF80E490E0E9EDF4E07ECFB5
:102C60008091B904882309F45ACF853009F457CFED
:102C70008091E80083FD53CF8091E80082FD82CFF0
:102C80008091E80080FF78CF9091F3008091F2006E
:102C90002115310519F08830910550F041E0089771
:102CA00009F040E08091E8008E778093E80064CFDF
:102CB00044914093F1003196215031090196E8CFBB
:102CC000803809F04CC08091E800877F8093E8004D
:102CD0008091BA048093F10092CE811140C010918E
:102CE000BD041230E0F58091E800877F8093E80012
:102CF0001093BA040E945207112311F084E005C01A
:102D00008091E30087FDFACF81E08093B90442E02F
:102D100061EC81E00E94710742E261EC82E00E9476
:102D2000710742E361E883E00E94710742E360E8D3
:102D300084E00E94710713C08091BD04813079F452
:102D400081E0933009F080E08093B8041092E900AC
:102D50008091E800877F8093E8000E94520780916D
:102D6000E80083FF0AC08091E800877F8093E80035
:102D70008091EB0080628093EB00AA960FB6F894E6
:102D8000DEBF0FBECDBFDF91CF911F910895CF93CE
:102D9000DF93682F81E06A3019F06D3029F480E00C
:102DA000DF91CF910C9452178091B9079091BA0797
:102DB00026E0FC01A3EBB7E001900D922A95E1F724
:102DC000613E08F456C026E0FC0111922A95E9F70D
:102DD000C091B907D091BA0746E050E0BE0183EB3D
:102DE00097E00E94A328C35BD5409E012A5F3F4F16
:102DF000892B21F185E0D695C7958A95E1F741E0C9
:102E000050E0CA0102C0880F991FCA95E2F760918D
:102E1000B1057091B205862B972BB901E5E0769547
:102E20006795EA95E1F702C0440F551F6A95E2F7EE
:102E3000842B952B9093B2058093B1054091B005FA
:102E4000642F70E0C9010E946C28481B463010F4C2
:102E5000240F311D211582E0380710F030E020E00A
:102E60002D543A4F3093BA072093B907DF91CF9191
:102E70000895F6E06F9FB001112466507A4F46E046
:102E800050E00E949A28A4CFCF93DF93EC01FE017B
:102E90008491811103C0DF91CF9108950E94C716DC
:102EA0002196F5CFCF93382FE091B907F091BA076B
:102EB000E35BF5402091B005622F70E0CF010E94E6
:102EC0006C28281B822F332361F066E00E94602863
:102ED000C82FC15010F4CF91089580E20E94C71608
:102EE000F8CF9F01280F311D2115324018F080E0E6
:102EF000F0E0E0E08E0F9F2F911D8D549A4F90933C
:102F0000BA078093B907E7CFCF92DF92EF92FF9293
:102F10000F931F93CF93DF936C017B0164E670E006
:102F200088E70E947D27EC0197FD12C010E000E0C9
:102F3000F601E00FF11F849164E670E00E94D9274A
:102F4000EC01892B29F40F5F1F4F0E151F0581F728
:102F50000E945C28CE01DF91CF911F910F91FF90CD
:102F6000EF90DF90CF9008952FB7F894809196045A
:102F700090919704A0919804B09199042FBF805A22
:102F80009541AF4FBF4F80939A0490939B04A093B9
:102F90009C04B0939D0480919E04811108C062E05E
:102FA00070E08CEA90E00E948417892B19F08091E0
:102FB0009E04089581E080939E04F9CFCF9384E02E
:102FC00090E00E94B028C82F81E290E00E94B028D3
:102FD000982F8C2FCF910895CF93DF9300D00F922D
:102FE000CDB7DEB79C019091B904943019F599835F
:102FF0003B832A8382E08093E9008FEF9091E80081
:10300000815095FD06C095ED9A95F1F7000081116C
:10301000F5CF8091E80085FF0DC050E040E063E00F
:1030200070E0CE0101960E9428078091E8008E771B
:103030008093E8000F900F900F90DF91CF9108954B
:10304000CF93DF9300D00F92CDB7DEB72091B904B4
:10305000243031F523E02983805891099B838A83AA
:1030600082E08093E9008FEF9091E800815095FD18
:1030700006C095ED9A95F1F700008111F5CF80918A
:10308000E80085FF0DC050E040E063E070E0CE0155
:1030900001960E9428078091E8008E778093E800CF
:1030A0000F900F900F90DF91CF910895CF93DF9302
:1030B000EC018091B904843039F581E08093E90016
:1030C0008FEF9091E800815095FD06C095ED9A959F
:1030D000F1F700008111F5CF8091E80085FF14C061
:1030E00050E040E068E070E0CE010E942807809147
:1030F000E8008E778093E80088E0FE01AFEAB4E054
:1031000001900D928A95E1F7DF91CF91089581E0CA
:103110008093E00080E28093D8001092C9008FE194
:103120009EE40197F1F700C0000087E090EBDC011E
:103130008093BB079093BC07A093BD07B093BE07D5
:1031400088E19CE00FB6F894A895809360000FBECC
:1031500090936000FFCFCF93C82F0E94800BC9339C
:1031600049F42FEF87EE93E0215080409040E1F743
:1031700000C000008C2FCF910C944D0B6CEE7EEFB5
:1031800090E080E00E94DC2860E082E090E00E9415
:10319000BE2860E083E090E00E94BE2810925104B7
:1031A00010925204109253041092540460E084E090
:1031B00090E00E94BE2860E081E290E00E94BE287C
:1031C00060E085E090E00E94BE2860E086E090E04C
:1031D0000E94BE286FEF87E090E00E94BE2840E08A
:1031E00050E0BA0188E090E00E94D02860E08DE0D5
:1031F00090E00E94BE2840E050E0BA0188E190E0F3
:103200000E94D02860E087E190E00E94BE2840E064
:1032100050E0BA018CE190E00E94D02860E080E2AA
:1032200090E00E94BE2840E050E0BA018FE090E0BC
:103230000E94D02840E050E0BA0183E190E00C9475
:10324000D0281F920F920FB60F9211242F933F9305
:103250004F935F936F937F938F939F93AF93BF939E
:10326000CF93DF93EF93FF93D091E900DF708091CC
:10327000EC00C82FC17080FDC0E81092E900809179
:10328000F000877F8093F00078940E94F8131092EA
:10329000E9008091F00088608093F000CD2BCF7022
:1032A000C093E900FF91EF91DF91CF91BF91AF9172
:1032B0009F918F917F916F915F914F913F912F914E
:1032C0000F900FBE0F901F9018951F920F920FB680
:1032D0000F9211242F933F934F935F936F937F939C
:1032E0008F939F93AF93BF93EF93FF938091E100F0
:1032F00082FF09C08091E20082FF05C08091E10059
:103300008B7F8093E1008091DA0080FF24C0809160
:10331000D80080FF20C08091DA008E7F8093DA0091
:103320008091D90080FF9FC080E189BD82E189BD85
:1033300009B400FEFDCF81E08093B9048091AC0414
:10334000811109C00E94D8060E94A3078091E20063
:1033500084608093E2008091E10080FF17C080913B
:10336000E20080FF13C08091E2008E7F8093E20034
:103370008091E20080618093E2008091D8008062B9
:103380008093D80019BC85E08093B9048091E10056
:1033900084FF2DC08091E20084FF29C080E189BDB7
:1033A00082E189BD89B5982F917080FFFBCF809114
:1033B000D8008F7D8093D8008091E1008F7E80932C
:1033C000E1008091E2008F7E8093E2008091E20034
:1033D00081608093E2008091BA04882309F449C097
:1033E00084E08093B9040E94ED130E94450C809103
:1033F000E10083FF27C08091E20083FF23C080911A
:10340000E100877F8093E10082E08093B90410920D
:10341000BA048091E1008E7F8093E1008091E20008
:103420008E7F8093E2008091E20080618093E200D1
:1034300042E060E080E00E9471078091F0008860C7
:103440008093F000FF91EF91BF91AF919F918F9189
:103450007F916F915F914F913F912F910F900FBE90
:103460000F901F90189519BC1092B9041092AC04DB
:1034700072CF8091E30087FD93E09093B904B3CFBE
:1034800078941F921FB61F9211248F939F93AF932E
:10349000BF938091960490919704A0919804B09165
:1034A00099040196A11DB11D8093960490939704F1
:1034B000A0939804B0939904BF91AF919F918F917D
:1034C0001F901FBE1F9018952FB7F89480919604F7
:1034D00090919704A0919804B09199042FBF0895FA
:1034E0008F929F92AF92BF92CF92DF92EF92FF9214
:1034F0000F931F93CF93DF93CDB7DEB7A3970FB68C
:10350000F894DEBF0FBECDBF6C01DC0113968D9128
:103510009C911497892B41F01C911196FC90812F5E
:103520008F218F3F09F01BC6A3960FB6F894DEBF1C
:103530000FBECDBFDF91CF911F910F91FF90EF9004
:10354000DF90CF90BF90AF909F908F9008950E9492
:10355000290F082F682F89819A810E94690AE12F1B
:10356000F0E0BFE0FB9EE00DF11D11242BE4029F73
:10357000E00DF11D1124EE0FFF1FE255FF4FE59006
:10358000F490D60112968C9181110CC0F6018281C3
:10359000F7013497EC31F10508F054C1E250F74DD2
:1035A0000C949428809182038F3F81F304E011E012
:1035B000B12CA12C9924939480918203082E000CA5
:1035C000990B8A159B0514F3D80116968C911697C2
:1035D0008823D9F019968D919C918E159F0539F409
:1035E0008091190490911A048E159F0571F0F801CD
:1035F0009786F486E3868189811103C0C8010E9401
:10360000510CC80106960E94720CFFEFAF1ABF0A58
:103610000A5E1F4FD1CF91E4811110C03CE2E31646
:103620003CE5F30609F01AC1882309F441C181E0A1
:103630008093170479CF92E4882381F390936F04E9
:10364000EDCF93E48111FACFE9CF94E48111F6CF65
:10365000E5CF95E48111F2CFE1CF96E48111EECF71
:10366000DDCF97E48111EACFD9CF98E48111E6CF7D
:10367000D5CF99E48111E2CFD1CF9AE48111DECF89
:10368000CDCF9BE48111DACFC9CF9CE48111D6CF95
:10369000C5CF9DE48111D2CFC1CF9EE48111CECFA1
:1036A000BDCF9FE48111CACFB9CF90E58111C6CFBC
:1036B000B5CF91E58111C2CFB1CF92E58111BECFD7
:1036C000ADCF93E58111BACFA9CF94E58111B6CFE3
:1036D000A5CF95E58111B2CFA1CF96E58111AECFEF
:1036E0009DCF97E58111AACF99CF882309F496CF72
:1036F00098E5A4CF99E5882309F490CF90936F04BF
:10370000B8E2EB16BCE5FB0609F088CF882309F484
:10371000B1C08091180481113EC59CC0882381F3FB
:103720009AE5ECCF882361F38091500481FF22C099
:1037300082E00E94A00A8FE10E94800B80915004D9
:1037400081FF69C08FE10E944D0B82E0A3960FB606
:10375000F894DEBF0FBECDBFDF91CF911F910F91C7
:10376000FF90EF90DF90CF90BF90AF909F908F90A1
:103770000C94950A85FFDFCF80E20E94230A50EF68
:10378000E52E53E0F52EF70124912223B9F28701AB
:103790000F5F1F4F213049F4F801F4908F2D0E94E4
:1037A000800B8F2D0E944D0B06C0223049F4F8018A
:1037B00084910E94800B7801FFEFEF1AFF0AE3CF9C
:1037C000233019F4F8018491EDCF30E0F901E0598C
:1037D000FC4FD490F901E051FD4F0491F901E059FB
:1037E000FD4F1491002319F081EE0E94800B1123EC
:1037F00019F086EE0E94800B8D2D0E94AB181123CC
:1038000019F086EE0E944D0B002319F081EE0E9404
:103810004D0B8701D0CF85FD87CE8FE1A3960FB6E4
:10382000F894DEBF0FBECDBFDF91CF911F910F91F6
:10383000FF90EF90DF90CF90BF90AF909F908F90D0
:103840000C944D0B26E2E2162CE5F20609F09AC420
:10385000882321F081E08093180466CE9DE2E9166A
:103860009CE5F90639F4882319F10E94BC0C1092EA
:1038700017045ACEAEE2EA16ACE5FA0639F488230C
:10388000B9F0809117048111F0CFD1CEB9E2EB16D7
:10389000BCE5FB0669F4882359F00E94CB0C8091AB
:1038A000010190E0019683709927809301013CCE3D
:1038B00090911804911171C09091170491116DC0ED
:1038C000C70197558F3F910509F008F429C1D6012A
:1038D00012968C91882309F463C4B2E0EB16BCE520
:1038E000FB0608F461C2E6E1EE16ECE5FE0638F0F0
:1038F00097012A5F3C452930310508F055C20E94E6
:10390000DE179093610480936004F0E1EF16FCE50C
:10391000FF0609F418C208F09AC138E0E3163CE546
:10392000F30609F402C208F063C194E0E9169CE5CD
:10393000F90609F4F2C108F045C1B2E0EB16BCE5A6
:10394000FB0609F4E4C1809160048260E3E0EE16B6
:10395000ECE5FE0609F4DEC160916004109161049B
:1039600084E090E00E94BE28612F81E290E00E94F6
:10397000BE28A3960FB6F894DEBF0FBECDBFDF9171
:10398000CF911F910F91FF90EF90DF90CF90BF905C
:10399000AF909F908F900C94ED13882309F441C051
:1039A000E0EEEE16F10451F40E94CB0C81E080931E
:1039B00016041092150410921404B6CDF2EEEF1610
:1039C000F10461F40E94CB0C80911604882319F055
:1039D00081E08093150410921604A6CD23EEE21622
:1039E000F10439F4909115049923D9F00E94CB0C7D
:1039F000F2CF32E5E316F10451F480910201909187
:103A000003010A9790930301809302018DCD91E504
:103A1000E916F10431F480910201909103010A96B4
:103A2000F1CF9091010191110FC0D60111969C9197
:103A3000119745E050E0491B51092C91205FBCE0F3
:103A40004B9F200D11240FC0913079F5F601918123
:103A500045E050E0491B5109242F220F220F240F6B
:103A600090819D5C290F90911704882309F449C027
:103A7000992361F02F77E091C304F091C4040FE71C
:103A800040E963E070E083EC94E0099580911604CE
:103A9000882329F0809114048F5F80931404EFEF42
:103AA000EE16F10408F00CCF3FCD923061F4D60150
:103AB00011969C91119745E050E0491B51092C91BA
:103AC0002D5CB7E0BDCF2CE0933069F693E2E4EAD9
:103AD000F3E0DE01119601900D929A95E1F7D6017F
:103AE000EC91EC0FFD2FF11D11969C9145E050E0FB
:103AF000491B51092085BCE04B9F200D1124275FF5
:103B0000B2CF992361F22F77E091C304F091C404FE
:103B100000E040E863E070E083EC94E00995BFCFFB
:103B200020918203022E000C330B2817390714F45E
:103B300080938203D60112962C91129736E1389F1A
:103B40005001399FB00C112485010C5F1E4FF80104
:103B5000208B12969C918681992339F1F286E18619
:103B60008F5F86830E94641AD8011E969C938E9361
:103B70001D9717961C92179780914F0490915004AF
:103B8000892B18968C931897ED91FC91119730978B
:103B900039F054966D917C91C501865F9E4F0995D1
:103BA000F0921A04E092190492CE882309F48FCE81
:103BB0008189882309F48BCEC501865F9E4F0E94C0
:103BC000720C85CE809160048061F6E0EF16FCE512
:103BD000FF0609F49FC080916004886027E0E21628
:103BE0002CE5F20608F496C080916004806292C0D1
:103BF000809160048D7F3CE0E3163CE5F30609F418
:103C000089C078F4809160048C609AE0E9169CE5A4
:103C1000F90609F47FC008F48CC0809160048E7F9F
:103C200079C080916004877FBEE0EB16BCE5FB069F
:103C300009F470C0809160048B7FEFE0EE16ECE534
:103C4000FE0608F467C0809160048F7E63C0FBEFBE
:103C5000EF16FCE5FF0609F464C068F533E1E316EE
:103C60003CE5F30609F477C090F491E1E9169CE590
:103C7000F90609F46CC0A2E1EA16ACE5FA0609F00F
:103C80006BCE0E94ED13809160048F7743C0B5E145
:103C9000EB16BCE5FB0609F466C008F47AC0809117
:103CA00061048160FAEFEF16FCE5FF0609F054CEDF
:103CB0008093610451CE2FEFE2162CE5F20609F451
:103CC0004EC088F48DEFE8168CE5F806C1F18091BE
:103CD00061048E7F9EEFE9169CE5F90648F380911A
:103CE00061048360E5CFA1E0EA16ADE5FA0609F4C8
:103CF00059C008F444C060E0E2E0EE16EDE5FE06CF
:103D000009F02ACE8EE090E00E94BE2825CE809158
:103D100060048160809360041FCE809160048460A1
:103D2000F9CF809161048260C3CF80916004806488
:103D3000F1CF0E94ED13809160048068EBCF8091F9
:103D400061048D7FB5CF809160048F7DE3CF80913A
:103D500060048F7BDFCF80916004837FDBCF809115
:103D600061048C7FA5CF8091600482FB992790F934
:103D700021E0922790FB82F990FB83F9CBCF8091D1
:103D80006104982F909591708E7F892B90FB81F91B
:103D90008FCF0E94ED1390916004892F97FB87F9D4
:103DA0008058B8CF61E0AECFE114FCE5FF0671F1B9
:103DB0002EEDE2162CE5F206C1F1A6E1EA16ACE51D
:103DC000FA0609F048C0809150048A7A91E009F41B
:103DD00090E090931B0469E2811165E382E094E036
:103DE0000E94BC09A3960FB6F894DEBF0FBECDBFEC
:103DF000DF91CF911F910F91FF90EF90DF90CF90C7
:103E0000BF90AF909F908F900C942A0A0E94ED1360
:103E10000E94BC0C3FEF84E39CE031508040904016
:103E2000E1F700C000000E948718A3960FB6F8942F
:103E3000DEBF0FBECDBFDF91CF911F910F91FF90DD
:103E4000EF90DF90CF90BF90AF909F908F900C94A9
:103E5000BE1885E3B0C1F601008111818823B9F154
:103E6000C8010E94290FF82E682FC8010E94690A14
:103E7000B8018F2D0E94140D082FE82ED60112963E
:103E80008C91811110924F04192F12951F701430CC
:103E900009F46EC008F5123080F1E12FE850FF0BF5
:103EA000329708F041CBA3960FB6F894DEBF0FBE51
:103EB000CDBFDF91CF911F910F91FF90EF90DF90D9
:103EC000CF90BF90AF909F908F900C94450CC801FD
:103ED0000E94410AF82ECCCF183009F465C0193081
:103EE000E1F69F70F92E882309F432C1892F0E94D0
:103EF000220B802F0E94B10AD0CFB92FBF70FB2EAA
:103F0000907F19F0F29440EFF4228823C9F0FF204B
:103F100069F080E2800F883010F0E1100BC08091D2
:103F20005004F82AF09250040E942A0A802F0E941E
:103F3000800BB3CF80914F04F82AF0924F04F4CF56
:103F4000802F0E944D0BFF2009F4A7CF005E0830A0
:103F500010F0E11006C08F2D0E94230A0E942A0A49
:103F60009CCFF09480914F04F822F0924F04F6CF4A
:103F7000292F26952695237051F0213009F08DCFF9
:103F8000882379F0802F93700E94BB0A86CF882304
:103F900029F0802F93700E94D10A7FCF90E080E0BB
:103FA000FACF90E080E0F0CF292F237009F065C0B0
:103FB000811173CF802F829586958770880F880F27
:103FC000402F4F7050E070E060E0082E04C0440FB6
:103FD000551F661F771F0A94D2F7C12CD12C76018A
:103FE00004FF10C03FE0C32ED12CE12CF12C04C003
:103FF000CC0CDD1CEE1CFF1C8A95D2F7C094D0942B
:10400000E094F094969596959370923019F1D8F4C7
:104010008090510490905204A0905304B0905404A6
:10402000913069F04C295D296E297F29CB01BA01B5
:10403000682179218A219B210E94430B2ECF482998
:1040400059296A297B29CB01BA016C297D298E293E
:104050009F29F2CF4C295D296E297F29C0905104F8
:10406000D0905204E0905304F0905404CB01BA0174
:104070006C257D258E259F25DFCF2695882311F081
:10408000292F2170222309F408CF802F829586954D
:104090008770880F880F402F4F7050E070E060E00D
:1040A000082E04C0440F551F661F771F0A94D2F7CD
:1040B000C12CD12C760104FF10C02FE0C22ED12CD0
:1040C000E12CF12C04C0CC0CDD1CEE1CFF1C8A95ED
:1040D000D2F7C094D094E094F0949695969593700E
:1040E000923019F1D8F48090700490907104A090EF
:1040F0007204B0907304913069F04C295D296E29E7
:104100007F29CB01BA01682179218A219B210E9454
:10411000F50AC3CE482959296A297B29CB01BA015E
:104120006C297D298E299F29F2CF4C295D296E2982
:104130007F29C0907004D0907104E0907204F090D8
:104140007304CB01BA016C257D258E259F25DFCF19
:10415000802F0E94AA0A8F2D0E94FF0A9ECE85E022
:10416000F601DE01119601900D928A95E1F7D601D4
:1041700012962C9189819A812111E9C90E94410AE4
:10418000082FEDC9E7E2EE16ECE5FE0609F0B8CA25
:10419000882309F46FCB0E94CB0C10921804C4C979
:1041A000F6E1EF16FCE5FF0609F055CE80911B0401
:1041B00081114FCE89E2E4E0F4E02AE034E091910D
:1041C000891303C0DF0111971C922E173F07B9F71F
:1041D00009CE2F923F924F925F926F927F928F9271
:1041E0009F92AF92BF92CF92DF92EF92FF920F9386
:1041F0001F93CF93DF9300D00F92CDB7DEB786E544
:1042000094E066EE73E0B0E64B2EB4E05B2E212C1A
:10421000EE24E394F12CDC016D907D90CD01FD0145
:1042200012921292FB83EA83DB012D91BD01E22FF2
:10423000E295EF70F0E031A12F70570101C0AA0C98
:104240002A95EAF7232F2A2921A322A13A2C309478
:10425000232122A3B0EABA95F1F7ABEECA2EA3E070
:10426000DA2E30E020E0D6014D916D014983429570
:104270004F7050E0DA0190964C91AA81BB818D90ED
:104280009C9050E0B981BF7002C055954795BA9592
:10429000E2F740FD64C0A701022E02C0440F551F83
:1042A0000A94E2F748295929AA81BB8111965C93A7
:1042B0004E932F5F3F4F2F303105A9F621A13222B7
:1042C00031A222A1A22AA2A221E04D915C91461521
:1042D000570509F420E0222A4816590609F09BCF19
:1042E000222009F43FC081E080930D040E94641AEB
:1042F00090930C0480930B0480910B0490910C0418
:104300000E949209069790F180915604909157046B
:1043100090936504809364048091580490915904AB
:10432000909367048093660480915A0490915B0493
:10433000909369048093680480915C0490915D047B
:1043400090936B0480936A0480915E0490915F0463
:1043500090936D0480936C0410920D0407C050E09C
:1043600040E0A0CF80910D048111C6CF80918203DF
:104370008F3F79F0198256E1D52EE9812E2F30E05A
:1043800080918203082E000C990B821793070CF082
:1043900079C0E0915504EE0FEE0FE093550483B120
:1043A00090E0880F892F881F990B29B122FB0027E5
:1043B00000F922FF02C002E010E0082BE02BE0939E
:1043C0005504EF70F0E0E953FC4F808190910F04A9
:1043D000890F80930F048430C4F080910E048F5FA6
:1043E00080930E0460917004709171048091720446
:1043F000909173040E94D609813009F480C088230B
:1044000009F479C0823009F47CC080910F048D3F9B
:10441000C4F480910E04815080930E046091700466
:104420007091710480917204909173040E94D60976
:10443000813009F479C0882309F472C0823009F40C
:1044400075C080910F04837887FF03C081508C6F03
:104450008F5F80930F04822D0F900F900F90DF914C
:10446000CF911F910F91FF90EF90DF90CF90BF9071
:10447000AF909F908F907F906F905F904F903F9004
:104480002F900895D29EF001D39EF00D1124EC5F81
:10449000FE4FA288B388A114B10419F448ECA42EED
:1044A000B12CD29EC001D39E900D1124FC01EC5F73
:1044B000FE4F7F0186818823D1F0858596850E94F5
:1044C0009209A816B90698F4F981FD9D50011124AE
:1044D000D70151968C91811105C0C5018C5F9E4F0B
:1044E0000E94510CC501865F9E4F0E94720CB981DB
:1044F000BF5FB98342CF89EA0E94AB1886CF8DEBAC
:10450000FBCF209100012F77E091C304F091C40408
:1045100001E440EB63E070E083EC94E0099575CF33
:104520008AEA0E94AB188DCF8EEBFBCF2091000161
:104530002F77E091C304F091C4040FE340EB63E0F4
:1045400070E083EC94E009957CCFCDB7DEB7299776
:104550000FB6F894DEBF0FBECDBF1092E8041092E4
:10456000EA041092E90480EC8093AD058BEE94E0B0
:104570009093AF058093AE051092AC051092AB05F9
:104580001092C8041092C7041092CA041092C90471
:104590001092CC041092CB041092CE041092CD0451
:1045A0001092D0041092CF041092D2041092D10431
:1045B0001092D4041092D3041092D6041092D50411
:1045C0001092D8041092D7041092DA041092D904F1
:1045D0001092DC041092DB041092DE041092DD04D1
:1045E0001092E2041092E1048BE898E09093C404E6
:1045F0008093C30486EE98E09093E4048093E304F0
:1046000082E698E09093E0048093DF0483E698E0EC
:104610009093C6048093C50484B7877F84BF0FB688
:10462000F894A89580916000886180936000109252
:1046300060000FBE80E890E00FB6F89480936100B0
:10464000909361000FBE85B7806885BF85B780688D
:1046500085BF0E94D8060E94A3078091E200846073
:104660008093E20078948091B9048823A1F010919E
:10467000E9001F709091EC00892F817090FD80E817
:10468000182B1092E9008091E80083FD0E94F81336
:104690001F701093E90082E084BD93E095BD9AEF0E
:1046A00097BD80936E00A6EEB3E04BEE53E061E061
:1046B00070E08D91E82FE295EF70F0E011A18F701E
:1046C0009B0101C0220F8A95EAF7922F90959123C2
:1046D00091A382A1822B82A34A175B0751F7ABEE0D
:1046E000B3E04AEF53E061E070E08D91E82FE2958E
:1046F000EF70F0E011A18F709B0101C0220F8A952D
:10470000EAF7922F9095912391A382A1822B82A305
:104710004A175B0751F710925704109256041092F3
:104720006504109264041092590410925804109277
:1047300067041092660410925B0410925A0410925F
:1047400069041092680410925D0410925C04109247
:104750006B0410926A0410925F0410925E0410922F
:104760006D0410926C040E94E9208FE39CE901978C
:10477000F1F700C000000E94E9208091640480FFEE
:1047800008C06FEF7FEF90E080E00E94DC280E947D
:10479000871890E080E00E94B8288C3E9E4F11F070
:1047A0000E94BE1827982F9A52985A9A83B190E087
:1047B000880F892F881F990B4A9904C120E0822B0A
:1047C000809355041092940480E88093B0050E9471
:1047D00077276DE070E082E194E00E948417892BD6
:1047E00009F046C08091940463E070E081FDECC064
:1047F0008FE094E00E948417892BD1F56DE070E082
:104800008FEF93E00E948417892B91F52FB7F894CE
:104810008091960490919704A0919804B091990486
:104820002FBF805A9541AF4FBF4F80939A0490930A
:104830009B04A0939C04B0939D04E3EBF5E080E01F
:1048400092E0DF019C011D9221503040E1F7F0938E
:10485000BA07E093B9078FEF9FEF9093B20580936B
:10486000B10581E080939F0480939E04109295048B
:1048700090E080E00E94B8288C3E9E4F11F00E948C
:10488000BE1882E090E00E94B0288093A1040E94AC
:10489000DE17909361048093600483E090E00E94AF
:1048A000B028682F70E090E080E00E94430B89E917
:1048B00093E0909363048093620444244394512CC6
:1048C000EE24E394F12CA4E0AA2E0E94E920B82E55
:1048D000A4E6B4E0E2EAF4E010E000E0302E6D90EF
:1048E0007D90819191918615970509F478C0D12C1E
:1048F000C12C8625972542010C2C02C0880C991CDE
:104900000A94E2F79C0128213921232B09F45FC086
:104910000E94641AC9823A826820792021E06728BF
:1049200009F420E02B8381609D838C83CE01019666
:104930000E94701A000F111FF801EE55FB4F808185
:104940009181882699269182808280919F04882374
:1049500009F426C183EB95E09093BA078093B907D9
:1049600082E694E00E9444170E94450C182F609143
:1049700070047091710480917204909173040E948C
:10498000D609823008F43FC0823009F454C06091E7
:1049900070047091710480917204909173040E946C
:1049A000D609813009F44AC1882309F46BC08230EA
:1049B00009F447C18FE194E00E94441781E00E940E
:1049C000521764C022E0FBCE8CE094E013CF2FEFAF
:1049D000C21AD20A3FE0C316D10409F08CCF0F5F90
:1049E0001F4F0530110509F079CF0E94641A2FEF8F
:1049F00029832A831B8281609D838C83CE0101964B
:104A00000E94701AA2CF8FE494E011FF02C086E5E5
:104A100094E00E9444178DE594E00E944417809131
:104A20006F04811101C08AE20E94C7168AE494E0F3
:104A30000E944417ACCF86E494E00E944417E3E858
:104A4000F3E001900020E9F78F0101501109E3E83C
:104A5000CE2EE3E0DE2EC016D10670F080E494E0A6
:104A60000E94441780916E04811101C08AE20E9465
:104A7000C7168BE394E0DCCFD6018D916D010E94C7
:104A8000C716E9CF84E394E00E9444172091B10552
:104A90003091B2052115310509F457C08091950474
:104AA000811153C0082F10E06201082E02C0CC0C07
:104AB000DD1C0A94E2F7A60142235323452B09F497
:104AC000C3C09091940490FDC1C08295880F8076F8
:104AD00080938803980136952795369527952093DE
:104AE0008B03815E8093890310928C0324E630E06F
:104AF00047E050E066E873E088E70E940828892BC9
:104B000021F5A80165E0440F551F6A95E1F78091F2
:104B1000940480FDA9C04D545A4F04E610E020E2F1
:104B200030E060E488E70E942F28892B71F40E940E
:104B3000B417C094D0948091B1059091B205C82269
:104B4000D922D092B205C092B10580919E048823EB
:104B500039F140919A0450919B0460919C047091AA
:104B60009D042FB7F8948091960490919704A0919A
:104B70009804B09199042FBF841B950BA60BB70B1B
:104B8000B7FD0EC080919E04882351F062E070E072
:104B900081EA94E00E948417892B11F410929E04FC
:104BA000B1100E94B417E091E304F091E40430974F
:104BB00019F083EC94E009959FB7F8940091AC0547
:104BC0008091AB05081708F4B4C0081B9FBFD12C17
:104BD000C12C10E088248394C016D10608F4ADC01F
:104BE0000E94450C9091A004891721F00E94450C69
:104BF0008093A0048091B904843009F066CE80913E
:104C00008E038F708093E9009091E80090FF5BCE57
:104C10009091B904943009F056CE8093E9009091B8
:104C2000F3008091F200892B09F44DCE8091E800C9
:104C30008E778093E8000E94F70645CE8DE294E0DF
:104C400023CF86E294E020CF8F5F2CCF880F880F90
:104C5000880F8093880310928B03895F8093890368
:104C600083E080938C0342CF80E2E4E7F4E011928A
:104C70008A95E9F72EEF33E0398728870AEF13E0AA
:104C800037E0832EA885B9856D91B987A887F8018B
:104C900081918F01840F952F911D9C012D543A4FC6
:104CA0003F832E83E62FF0E0EC58FB4F30E020E00E
:104CB000682C621A942C022E01C0990C0A94EAF70F
:104CC0002E803F8090E0D1018D911D018921662DBC
:104CD000691B6770762E062E000C770BB82F01C06B
:104CE000BB0F7A94EAF77B2E719561957109677015
:104CF000772701C086956A95EAF7782A8081782A15
:104D000070829F5F9830F9F62F5F3F4F31962830C1
:104D1000310571F6E2E0F4E028853985E217F30702
:104D200009F0B0CF04E610E020E230E044E754E0C0
:104D3000F8CE2091AD05020F48CF8091AB0590E0F1
:104D40006091AD0570E00E9480282091AE05309101
:104D5000AF05280F391FD901BC909090E804B7EF38
:104D6000BB15E8F48092E80420E040E06B2D81E080
:104D700090E00E94E6059092E8042FB7F8948091A5
:104D8000AB0590E001966091AD0570E00E9480282F
:104D90008093AB052FBF8FEFC81AD80A1DCFB7FE7F
:104DA00053C0E4E09E1631F0B092E504F092EA04BC
:104DB000E092E9048B2D0E946808813069F0882315
:104DC000D1F08230A9F0833099F01092E80410926B
:104DD000EA041092E904D1CF8093E80420E040E097
:104DE0006B2D81E090E00E94E6051092E804C5CFAB
:104DF0008093E804C2CFF0EFBF16E9F027EFB212BC
:104E0000E4CF2091E9043091EA04C90163E070E045
:104E10000E946C28FC01ED53FB4FB2A2C901019620
:104E20009093EA048093E9042091E7044091E6041A
:104E30006091E504D8CFA092E804B092E504F09226
:104E4000EA04E092E90499CF992009F496CF2091E1
:104E5000E9043091EA04C90163E070E00E946C2823
:104E6000AC01FC01ED53FB4FB2A2C9010196909336
:104E7000EA048093E9044130510589F0423051053C
:104E800009F07BCF2091E7044091E6046091E504AE
:104E90000E94E6058091E804843089F66ECF32E006
:104EA00020E093126ACFF0CF1F921FB61F921124F9
:104EB0008F939F93AF93BF938091960490919704A3
:104EC000A0919804B09199044196A11DB11D8093C1
:104ED000960490939704A0939804B0939904BF917B
:104EE000AF919F918F911F901FBE1F9018951092A8
:104EF000B9008CE08093B8000895EF92FF920F9371
:104F00001F93CF93DF93182FEB011092BC0084EA1C
:104F10008093BC000E94641A7C018091BC0087FFD2
:104F200027C08091B900887F883029F08091B9002E
:104F3000887F8031D9F51093BB0084E88093BC0052
:104F40000E94641A8C018091BC0087FF24C02091CC
:104F5000B900287F90E080E02831B1F081E090E056
:104F6000203411F490E080E09195819591090CC076
:104F7000CF3FDC0791F20E94641A8E199F098C17AB
:104F80009D0758F28EEF9FEFDF91CF911F910F9108
:104F9000FF90EF900895CF3FDC07A9F20E94641ABA
:104FA000801B910B8C179D0770F2ECCF8FEF9FEF5A
:104FB000EBCF0F931F93CF93DF93EB018093BB0055
:104FC00084E88093BC000E94641A8C018091BC002C
:104FD00087FF11C02091B900287F81E090E028323E
:104FE00011F490E080E0919581959109DF91CF9146
:104FF0001F910F910895CF3FDC0741F30E94641A7F
:10500000801B910B8C179D0708F38EEF9FEFEECF5F
:10501000CF92DF92EF92FF920F931F93CF93DF9384
:105020006B018A017901B9010E947D27E6010C0D0F
:105030001D1DC017D10761F424E92093BC00DF9146
:10504000CF911F910F91FF90EF90DF90CF90089537
:1050500097FDF2CFB70189910E94D927EACFCF926D
:10506000DF92EF92FF920F931F93CF93DF93C62FA0
:105070006A017901B8010E947D2797FD0CC0B80133
:105080008C2F0E94D927E601EC0CFD1CCE15DF0504
:1050900011F097FF0CC024E92093BC00DF91CF9161
:1050A0001F910F91FF90EF90DF90CF900895B8017E
:1050B00089910E94D927EACF84E98093BC000895A2
:1050C000991B79E004C0991F961708F0961B881F5A
:1050D0007A95C9F780950895AA1BBB1B51E107C0BB
:1050E000AA1FBB1FA617B70710F0A61BB70B881F78
:1050F000991F5A95A9F780959095BC01CD01089507
:1051000097FB072E16F4009407D077FD09D00E9474
:105110006C2807FC05D03EF4909581959F4F08952B
:10512000709561957F4F0895EE0FFF1F0590F491E4
:10513000E02D0994FB01DC0102C005900D92415065
:105140005040D8F70895FB01DC0104C08D91019017
:10515000801921F441505040C8F7881B990B0895DD
:10516000F999FECF92BD81BDF89A992780B508952F
:10517000A8E1B0E042E050E00C94E428262FF99931
:10518000FECF92BD81BDF89A019700B4021639F0A6
:105190001FBA20BD0FB6F894FA9AF99A0FBE089577
:1051A0000396272F0E94BF280E94BE28252F0E9409
:1051B000BF28242F0C94BF280196272F0E94BF28B8
:1051C0000C94BE28DC01CB01FC01F999FECF06C08E
:1051D000F2BDE1BDF89A319600B40D9241505040B5
:1051E000B8F70895F894FFCFDB140315AF16031535
:1051F000AF1636155715AF1660166D160B1B1B1B19
:10520000211B251B291B2D1B311B351B391B3D1B4E
:10521000411B451B491B4D1B511B551B591B5D1B3E
:10522000611B651B691B6D1B711B751B7A1B8E1B1C
:04523000221C921B8F
:10523400010364000000900F8D0F000000000000C7
:105244000000000000000000000000007F0F7C0F41
:10525400000000000000000000000000000000004A
:1052640000006E0F6B0F0000000000000000000043
:105274000000000000000000C41300000000000053
:10528400000000000000000000000000000099136E
:10529400000000000000000000000000000000000A
:1052A400000000006F130000000000000000000078
:1052B4000000000000000000000044130000000093
:1052C40000000000000000000000000000000000DA
:1052D400191300000000000000000000000000009E
:1052E400000000000000EE120000000000000000BA
:1052F400000000000000000000000000C4120000D4
:105304000000000000000000000000000000000099
:1053140000009912000000000000000000000000DE
:1053240000000000000000006E12000000000000F9
:105334000000000000000000000000000000431214
:105344000000000000000000000000000000000059
:10535400000000001912000000000000000000001E
:1053640000000000000000000000EE11000000003A
:105374000000000000000000000000000000000029
:10538400C311000000000000000000000000000045
:10539400000000000000991100000000000000005F
:1053A4000000000000000000000000006E1100007A
:1053B40000000000000000000000000000000000E9
:1053C4000000431100000000000000000000000085
:1053D40000000000000000001811000000000000A0
:1053E4000000000000000000000000000000EE10BB
:1053F40000000000000000000000000000000000A9
:1054040000000000C31000000000000000000000C5
:1054140000000000000000000000981000000000E0
:105424000000000000000000000000000000000078
:105434006D100000000000000000000000000000EB
:105444000000000000004310000000000000000005
:105454000000000000000000000000001810000020
:105464000000000000000000000000000000000038
:105474000000ED0F0000000000000000000000002C
:105484000000000000000000C30F00000000000046
:105494000000000000000000000000000000990F60
:1054A40000000000000000000000000000000000F8
:1054B4000000FF3031000021007F220003038340FD
:1054C400000001044000000100650856186408202B
:1054D40018EC17010002040507090B0C0E10111338
:1054E4001517181A1C1D1F2123242628292B2D2F9C
:1054F4003032343537393B00FF0100010000FFFF33
:105504000000010001FF000203020000010001018C
:1055140001010100010133323130C693959496970D
:105524003435366667F7F6F4F1F0000810181810F1
:0255340008006D
:00000001FF
