:1070000055C000007EC000007CC000007AC00000B7
:1070100078C0000076C0000074C0000072C000009C
:1070200070C000006EC00000BCC500006AC0000057
:1070300068C0000066C0000064C0000062C00000BC
:1070400060C000005EC000005CC000005AC00000CC
:10705000F1C1000056C0000054C0000052C0000042
:1070600050C000004EC000004CC000004AC00000EC
:1070700048C0000046C0000044C0000042C00000FC
:1070800040C000003EC000003CC000003AC000000C
:1070900038C0000036C0000034C0000032C000001C
:1070A00030C000002EC000002CC0000011241FBE04
:1070B000CFEFDAE0DEBFCDBF83E090E05AD480FDB1
:1070C00004C084B78D7F84BF03C084B7877F84BF2B
:1070D000F0E0E0E08591949111E0A0E0B1E0E8EC0F
:1070E000FEE702C005900D92A237B107D9F721E063
:1070F000A2E7B1E001C01D92AF38B207E1F739D184
:10710000E1C67ECF815098F09091F3002091F2007B
:10711000392F232B69F49091E8009B7F9093E8002E
:107120009091E80092FDEECF9EB39111F9CF0895B2
:107130009091F100E7CFEAE7F1E082819381582F47
:10714000492F848195819827892798275093750125
:107150004093740190937301809372010895CF92CC
:10716000DF92EF92FF921F93CF93DF9300D00F92A5
:10717000CDB7DEB780917A0190918401992309F40B
:1071800042C0843039F580917B01811126C0809105
:107190007C018F3F11F580917B01833009F09EC007
:1071A00081E08093830180917C01E0918001F091E6
:1071B0008101309709F477C08130D1F480917E014C
:1071C00090917F0198278927982790937801809341
:1071D00077010EC0853009F49CC08AE080930001DD
:1071E00083E0809382018091EB0080628093EB00CA
:1071F0000F900F900F90DF91CF911F91FF90EF9024
:10720000DF90CF900895843031F260F48130E1F066
:10721000833071F780917B01982F9D7F49F58BDF3B
:1072200089E023C0853009F474C0863009F7809165
:107230007B018330E9F680917C018111D9CF809167
:107240007D0180937601D4CF10917B01123080F6BE
:1072500072DF111109C06091740170917501209164
:107260007601822F90E01ED385E080930001C0CF8D
:10727000813009F0BDCFF0E0E0E084918F3F69F00C
:1072800010927601F0937501E09374018AE0809387
:10729000000185E080938201ABCF3196E11520E7B4
:1072A000F20759F7A5CF811111C082E49CED9093AC
:1072B000900180938F0188E19CE00FB6F894A89527
:1072C000809360000FBE9093600092CF859194915F
:1072D000019609F08DCF109201018ACF811188CFDC
:1072E00080917C018F3F09F083CFC12CD12C760196
:1072F000C701B601D7D280E8C80ED11CE11CF11C31
:10730000C11420E7D206E104F10491F71092840140
:107310006FCF8091020190910301A09104018983B4
:107320009A83AB83E0917C0180917B01811109C03C
:10733000E33080F4EC0FFD2FF11D81818093790102
:1073400057CF813009F054CFE13379F040F488E52C
:10735000E033A1F38AE08093000188E09BCFE03620
:1073600031F087E8E13651F3F5CF8EE1E7CF85E9DB
:10737000E5CF84B7877F84BF0FB6F894A895809136
:107380006000886180936000109260000FBE80E80A
:1073900090E00FB6F89480936100909361000FBE67
:1073A000C1E0C5BF82E085BF559A5D9A819ADCD362
:1073B0006E9A769A3E9A469AC0936F0083E08093C5
:1073C0008100769846987894D0E0C0E003C0882386
:1073D000D9F3219680910101811104C0809183012C
:1073E000882369F04DD58FB1827090910001923061
:1073F00071F7C93893E1D90750F3882329F38FE94E
:107400009FE00197F1F700C000005BD36E9876987B
:107410003E98469810926F001092810081E085BFDF
:1074200015BE11BA10BA1BB81AB8E0917701F091E5
:10743000780109958F9380E48CB986B98F9118955E
:107440005F926F927F928F929F92AF92BF92CF92F4
:10745000DF92EF92FF920F931F93CF93DF93809170
:1074600087018F778132B1F480E48CB986B980913D
:107470008D0190918E019093810180938001809184
:107480008801833009F4A6C1A8F4813019F1823053
:1074900009F40EC1DF91CF911F910F91FF90EF90F2
:1074A000DF90CF90BF90AF909F908F907F906F9024
:1074B0005F900895853009F4B3C108F4A9C18630FE
:1074C00049F78091E800877F8093E80082E080930D
:1074D000000125C08091E800877F8093E8008091BB
:1074E0008301882319F03BDE109283018091800193
:1074F00090918101009739F580910001853051F418
:107500008091800190918101892B09F043C082E034
:10751000809300018091E8008B7F8093E800DF91E9
:10752000CF911F910F91FF90EF90DF90CF90BF9080
:10753000AF909F908F907F906F905F90A5C22EB379
:10754000222309F4A7CF2091E80022FFF8CF209151
:10755000F10020937A01019790938101809380013B
:10756000EBE7F1E09091F3008091F200892B81F03C
:107570008091F10081938091800190918101019728
:10758000909381018093800121E0E038F20751F768
:10759000E6DDB2CF8AE1B6DD00917401109175018C
:1075A000802F8F71AFDDC0917201D0917301219650
:1075B000C01BD10B80917B0181116AC0D695C79504
:1075C000680180917601E82EF12C7D2C682E5F2CCD
:1075D00010E0209759F4809172019091730190937B
:1075E00075018093740180E18DDD94CF9091F3005B
:1075F0008091F200892B21F121974091F100509167
:10760000F100C701B601A2D11F5F4601570182E018
:10761000880E911CA11CB11C750164011034E9F4A1
:10762000602F772D862D952D67D1209791F2C5017A
:10763000B40138D110E0082D792C6A2C5B2CC9CF0D
:107640008091E8008B7F8093E8008091E80082FDC4
:10765000D3CF8EB38111F9CF1DCF209709F0B9CFC9
:10766000DFCF9091F3008091F200892BA1F0219758
:107670006091F100809174019091750111D4809115
:107680007401909175010196909375018093740136
:10769000209739F7A8CF8091E8008B7F8093E8008E
:1076A0008091E80082FDE3CF8EB38111F9CFF2CE55
:1076B0008091E800877F8093E8008091E80080FF58
:1076C00016C0809100018930C9F08A30A1F4809100
:1076D0007B01813081F490917401809175019093C8
:1076E000F1008093F1008091E8008E7F16CF8EB379
:1076F0008111E3CFCFCE80917901F3CF2091740136
:1077000030917501C0917201D09173012196C21B15
:10771000D30B80917B01811134C0D695C795C901E7
:1077200020917601A22FB0E0219760F48091720140
:1077300090917301909375018093740182E080931E
:107740000001D1CF3091F3002091F20020323105B9
:1077500059F0FC01259134912093F1003093F10010
:107760000296A11DB11DE0CF2091E8002E7F20934D
:10777000E8002091E80020FDECCF2EB32111F9CFD5
:1077800089CE8230D9F62097C9F29091F30080918A
:10779000F200809791F0809174019091750178D3F7
:1077A0008093F100809174019091750101969093FE
:1077B0007501809374012197E6CF8091E8008E7F58
:1077C0008093E8008091E80080FDE5CF8EB38111C1
:1077D000F9CF60CE8091E800877F8093E8008091A8
:1077E000E80080FF11C0809182018093F100109227
:1077F000F1001092F1001092F1008091000180934D
:10780000F1001092F1006FCF8EB38111E8CF42CE1C
:107810008091E800877F8093E800109282017FCEFC
:107820008091E800877F8093E8008091E80080FFE6
:1078300003C08091000155CF8EB38111F6CF2ACEBF
:10784000292F30E022303105C9F02330310541F0D5
:1078500021303105C1F090E080E030E020E00AC046
:107860008823B1F08130C9F08230A9F78AE290E034
:1078700025E031E0FA013183208308958BE190E027
:1078800025E431E0F7CF82E190E020E631E0F2CF6D
:1078900084E090E021E431E0EDCF8EE090E021E360
:1078A00031E0E8CF0F931F93611520E77207810540
:1078B000910550F48B019C010F7711272227332764
:1078C000012B022B032B19F01F910F9108952FB755
:1078D000F89407B600FCFDCFF999FECF33E0FB0129
:1078E00030935700E89507B600FCFDCF81E1809307
:1078F0005700E8952FBFE8CF0F931F93611520E73E
:1079000072078105910550F48B019C010F771127B7
:1079100022273327012B022B032B19F01F910F91E4
:1079200008952FB7F89407B600FCFDCFF999FECF64
:1079300035E0FB0130935700E89507B600FCFDCF1A
:1079400081E180935700E8952FBFE8CF07B600FC90
:10795000FDCFF999FECF21E0FB010A0120935700EA
:10796000E8951124089521E2FC01209357008491A9
:10797000089529E0FC01209357008491089589E03F
:10798000E1E0F0E080935700849108959FB7F89468
:1079900007B600FCFDCFF999FECF809529E0E1E024
:1079A000F0E0082E20935700E8959FBF0895FC0152
:1079B00080918D0190918E0186179707A0F0611537
:1079C000710529F49091E8009E7F9093E80090E083
:1079D0006115710551F4911108C08091E80082FF92
:1079E00033C080E00895BC01F2CF8EB38823B9F193
:1079F0008530B9F18091E80083FD2FC08091E800C7
:107A000082FDEBCF8091E80080FFE2CF8091F30010
:107A10002091F200382F6115710519F020323105DF
:107A200058F091E02032310509F090E02091E80013
:107A30002E7F2093E800CCCF81918093F10061509C
:107A400071092F5F3F4FE7CF8EB3882341F0853018
:107A500041F08091E80083FFC0CF81E0089582E08B
:107A6000089583E00895EBEEF0E0808181608083EB
:107A7000EDEEF0E010826093EC0040838091EE0028
:107A8000881F8827881F08958091870187FF11C06C
:107A90008091E80082FF06C08091E8008B7F809390
:107AA000E80003C08EB38111F3CF08958EB388230D
:107AB000E1F38091E80080FFF9CF8091E8008E7FAC
:107AC000EECF62D069D0E0EEF0E08081816080830B
:107AD000E8EDF0E080818F77808319BCA7EDB0E0FE
:107AE0008C918E7F8C9380818F7E80831092860113
:107AF00008950F931F93CF93DF9346D04DD0C8EDD9
:107B0000D0E088818F7788838881806888838881A6
:107B10008F7D888319BC1EBA1092850100EE10E09B
:107B2000F80180818B7F808388818160888342E235
:107B300060E080E098DFE1EEF0E080818E7F80837E
:107B4000E2EEF0E0808181608083808188608083C4
:107B5000F80180818E7F8083888180618883DF91B6
:107B6000CF911F910F910895E8EDF0E080818F7E15
:107B70008083E7EDF0E080818160808384E082BFD4
:107B800081E080938601B5CFE8EDF0E080818E7FC3
:107B900080831092E20008951092DA001092E100C2
:107BA00008951F920F920FB60F9211242F933F93B7
:107BB0004F935F936F937F938F939F93AF93BF93F5
:107BC000EF93FF938091DA0080FF17C08091D80077
:107BD00080FF13C08091DA008E7F8093DA0080915D
:107BE000D90080FF88C080E189BD82E189BD09B4E8
:107BF00000FEFDCF81E08EBB42D18091E10080FF8D
:107C000017C08091E20080FF13C08091E2008E7F58
:107C10008093E2008091E20080618093E200809195
:107C2000D80080628093D80019BC85E08EBB27D134
:107C30008091E10084FF29C08091E20084FF25C08B
:107C400080E189BD82E189BD89B5982F917080FF5F
:107C5000FBCF8091D8008F7D8093D8008091E10088
:107C60008F7E8093E1008091E2008F7E8093E2001E
:107C70008091E20081608093E200809185018823F9
:107C800009F43DC084E08EBBFAD08091E10083FF0F
:107C900021C08091E20083FF1DC08091E100877FB9
:107CA0008093E10082E08EBB109285018091E1001B
:107CB0008E7F8093E1008091E2008E7F8093E200CE
:107CC0008091E20080618093E20042E260E080E027
:107CD000CADED5D0FF91EF91BF91AF919F918F9167
:107CE0007F916F915F914F913F912F910F900FBEB8
:107CF0000F901F90189519BC1EBAC1D07ECF8091ED
:107D0000E30087FD93E09EBBBFCF1F93CF93DF932C
:107D100000D0CDB7DEB787E891E02091F100FC01FB
:107D20002193CF01F1E08F389F07B9F789DB80916C
:107D3000E80083FF0DC08091870190918801963003
:107D400009F466C0C8F4992389F1953009F441C05B
:107D50008091E80083FF0AC08091E800877F8093CC
:107D6000E8008091EB0080628093EB000F900F9011
:107D7000DF91CF911F910895983009F46BC099302D
:107D800039F78111E5CF90918901923008F7809100
:107D9000E800877F8093E8009093850175DE8091ED
:107DA0008501882309F463C084E066C08D7F803834
:107DB00079F68091E800877F8093E8001092F100C7
:107DC0001092F1008091E8008E7F8093E8005CDEE5
:107DD000BFCF8111BDCF109189011F778091E30042
:107DE0008078812B8093E3008091E800877F8093E7
:107DF000E8004ADE8091E80080FFFCCF8091E3003C
:107E000080688093E30082E0111183E08EBBA0CFF5
:107E10008058823008F09CCF60918B0170918C016A
:107E2000AE014F5F5F4F8091890190918A0108DD1B
:107E3000BC01892B09F48CCF9091E800977F909337
:107E4000E80089819A81B3DD8091E8008B7F80937F
:107E5000E8007ECF803809F07BCF8091E800877FF3
:107E60008093E800809185018093F100ABCF8091F1
:107E7000E30087FD99CF81E08EBB01D069CF0895E3
:107E80008EB3882321F08091E80083FD3ECF0895D2
:107E9000F999FECF92BD81BDF89A992780B50895D2
:107EA000262FF999FECF92BD81BDF89A019700B4B3
:107EB000021639F01FBA20BD0FB6F894FA9AF99A53
:087EC0000FBE0895F894FFCFF6
:107EC800020120DCFB2A0350004800450052004F05
:107ED800004D004F004E004500200042006F006F2B
:107EE8000074006C006F006100640065007200009F
:107EF800000E034C00550041004E0054005900008C
:107F0800000403090409021B00010100803209046E
:107F1800000000FE0102000921030000000C10010E
:107F28001201100100000020EB03F42F00000102F1
:027F3800000146
:107FA00081CCAACCD3CCDFCCE4CCE9CCEFCC089507
:087FB000089508950895089555
:107FE000DFCFDFCFDFCFDFCFDFCFDFCFDFCFDFCF21
:087FF000DFCFDFCFDFCFDFCFD1
:087FF8000070000010DFFBDC4B
:040000030000700089
:00000001FF
