:100000000C949D050C94E4050C94E4050C94E40513
:100010000C94E4050C94E4050C94E4050C94E405BC
:100020000C94E4050C94E4050C9417150C94D3146B
:100030000C9479250C94E4050C94E4050C94E405E7
:100040000C94E4050C94E4050C94E4050C94E4058C
:100050000C94E4050C94F2150C94E4050C94E4055E
:100060000C94E4050C94E4050C94E4050C94E4056C
:100070000C94E4050C94E4050C94E4050C94E4055C
:100080000C94E4050C94E4050C94E4050C94E4054C
:100090000C94E4050C94E4050C94E4050C94E4053C
:1000A0000C94E4050C94E4050C94E40500AF2900DD
:1000B0001E001F0020002100220023002400250034
:1000C000260027002D002E0035002A002B000000FE
:1000D00014001A000800150017001C0018000C007E
:1000E000120013002F00300000003900000004004F
:1000F0001600070009000A000B000D000E000F009B
:1001000033003400310028000000E1001D001B0016
:1001100006001900050011001000360037003800F5
:10012000E50052000057E000E2000000E30000009C
:1001300000002C0000000000000000000000500043
:1001400051004F0001003A003B003C003D003E00E2
:100150003F00400041004200430001000100010057
:100160000100010000000100010001000100010088
:100170000100010001000100010001000100000078
:100180000100000001000100010001000100010068
:100190000100010001000100010001000100000058
:1001A0000100010001000100010001000100010047
:1001B00001000100010001000100015701000100E0
:1001C000000001000000000001000000000000002D
:1001D00000000000AC00AD00AB0001002F5C305C03
:1001E000315C325C335C345C355C365C375C385C8B
:1001F000395C3A5C3B5C010001000000085D095D70
:100200000A5D0B5D0C5D0D5D0E5D0F5D105D115D9A
:1002100001000100000001000000125D135D145D8B
:10022000155D165D175D185D195D1A5D0100010011
:1002300001000100000001001B5D1C5D1D5D1E5DD5
:100240001F5D205D215D01000100010001003C5C9B
:100250000257010001000000010000000000010041
:1002600000000000000000000000495C4A5C4B5C9C
:10027000000000000000000000000000000000007E
:10028000000000000000000000000000000000006E
:10029000000000000000000000000000000000005E
:1002A000000000000000000000000000000000004E
:1002B000000000000000000000000000000000003E
:1002C000000000000000000000000000000000002E
:1002D000000000000000000000000000000000001E
:1002E000000000000000000000000000000000000E
:1002F00000000000000000000000000000000000FE
:1003000000000000000000000000000000000000ED
:1003100000010101010101000101010100000000D3
:1003200000000000000000000000010001000101C9
:1003300001010101010101010101010101010101AD
:1003400001010101010101010101010000000101A0
:10035000000000000000000000000000000000009D
:100360000000000000000000000000010101010089
:1003700000000000000000002A2B28000000000000
:100380000000000000000000000000290000000044
:100390002C1E3420212224342627252E362D3738B2
:1003A000271E1F202122232425263333362E3738BB
:1003B0001F0405060708090A0B0C0D0E0F10111279
:1003C000131415161718191A1B1C1D2F3130232D45
:1003D000350405060708090A0B0C0D0E0F10111243
:1003E000131415161718191A1B1C1D2F3130354CF4
:1003F0006C75616E7479403136332E636F6D000019
:10040000DA02818FD9F1DB40A4A62EAF00A0C00094
:10041000A1C800AED580A81FD300408D14200020B5
:10042000204E4F4E450033204C54524D0032204652
:10043000554E4300312042415345005D20202000AD
:10044000202020205B00434320005D202020007BF3
:100450007C20202020007D7E4C4F434B002020201C
:100460005B00808182838485868788898A8B8C8DD6
:100470008E8F9091929394A0A1A2A3A4A5A6A7A8C1
:10048000A9AAABACADAEAFB0B1B2B3B4C0C1C2C338
:10049000C4C5C6C7C8C9CACBCCCDCECFD0D1D2D3A4
:1004A000D400AE05010980A10185031A81002A83C9
:1004B00000160100260300950175108100C0050C8F
:1004C0000901A10185041A01002A9C0216010026D7
:1004D0009C02950175108100C005010906A1010566
:1004E0000719E029E7150025019508750181029596
:1004F00001750881010507190029FF150026FF0075
:1005000095067508810005081901290595057501ED
:100510009102950175039101C009029F0004010039
:10052000A0FA0904000001030101000921110100E2
:10053000012240000705810308000A0904010001A7
:100540000300000009211101000122360007058285
:100550000320000A080B0202010100000904020046
:100560000001010000092401000109000103090440
:1005700003000201030000072401000141000624DA
:100580000201010006240202020009240301030102
:10059000020100092403020401010100090504020B
:1005A0004000050000052501010109058302400006
:1005B00005000005250101031201100100000008DB
:1005C000EDFE606001000102030104033000000041
:1005D000140350004800450052004F004D004F00EA
:1005E0004E00450000000E034C00550041004E0037
:1005F000540059000000040309040000000000003A
:100600003E5B4F5B3E003E6B4F6B3E001C3E7C3EB4
:100610001C00183C7E3C18001C577D571C001C5EBB
:100620007F5E1C0000183C180000FFE7C3E7FF00D6
:10063000001824180000FFE7DBE7FF0030483A0607
:100640000E00262979292600407F05050700407FF6
:1006500005253F005A3C663C5A007F3E1C1C0800A2
:10066000081C1C3E7F0014227F2214005F5F005F85
:100670005F0006097F017F00006689956A0060605F
:100680006060600094A2FFA2940008047E04080049
:1006900010207E20100008082A1C0800081C2A08C8
:1006A00008001E10101010000C1E0C1E0C0030381C
:1006B0003E383000060E3E0E06000000000000002E
:1006C00000005E000000000600060000143E143E1C
:1006D0001400242A7F2A1200261608343200364AD3
:1006E00056205000000A06000000003C42000000B6
:1006F0000000423C00002A1C3E1C2A0008083E085C
:10070000080000A0600000000808080808000000B9
:10071000606000002010080402003C4242423C009D
:1007200000447E400000645252524C0022424A4A29
:1007300036003824227E20002E4A4A4A32003C4AA3
:100740004A4A32000202621A0600344A4A4A340017
:100750004C5252523C000000140000000040340093
:1007600000000008142200001414141414000000E7
:10077000221408000004520A04003E415D594E0054
:100780007C1212127C007E4A4A4A34003C424242A9
:1007900042007E4242423C007E4A4A4A4A007E0A69
:1007A0000A0A0A003C42425272007E0808087E0093
:1007B00000007E0000002040423E00007E10081431
:1007C00062007E40404040007E0408047E007E04BB
:1007D00008107E003C4242423C007E1212120C0085
:1007E0003C4252225C007C1212325E004C4A4A4A61
:1007F000320002027E0202003E4040403E001E20C7
:1008000040201E003E4038403E0062140814620042
:1008100006087008060062524A464200007E4242C4
:100820000000020408102000000042427E0008047C
:10083000020408004040404040000000060A00005A
:10084000605454547C007E48484830003048484842
:100850004800304848487E00385454545800000836
:100860007C0A000098A4A4A478007E080808700000
:1008700000007A0000002040403A00007E1028442A
:10088000000000007E4000007C04780478007C04B6
:1008900004047800384444443800FC24242418001C
:1008A00018242424FC007C080404080048545454F0
:1008B000240000047E4400003C4040407C001C209A
:1008C00040201C003C4030403C004428102844009C
:1008D0005CA0A0A07C004464544C4400FEC1C1C98B
:1008E000C5DDC5C9C1C1FE00FCFEFEEEF6C6F6EED2
:1008F000FEFEFC003C2623263C000103053F053399
:100900000138003C00000000000000000000000072
:100910000000001C3C783C1C0080E0100800001423
:100920000C1E2C5440404040449A244080808080DB
:10093000E01088C8CEC88E080E080E080E080810F1
:10094000E0808080808080402020202070701C7893
:100950001818181888C040C040C040C040C040C0EF
:10096000800000000000000000000000001E003FAA
:100970002121212D2D213F00F00804C4242424C46A
:100980000408F000F0F8FC3CDCDCDC3CFCF8F00097
:10099000FEC1C1C9C5DDC5C9C1C1FE00FCFEFEEE78
:1009A000F6C6F6EEFEFEFC000000000000000000AF
:1009B0000000000000000000000000000000000037
:1009C0000000000000000000000000000000000027
:1009D000000000000000000000070F1121010101CC
:1009E00001C1213925C505091224292A2A2AAAAAC2
:1009F000FF0007EF4CCF474040C0404043E30000BA
:100A0000FFAAAA2A2A2A4A8A2A52220202024282D9
:100A1000024282020F1D171D97DD575D57DD971D9E
:100A20000F000000000000000000000000000000B7
:100A3000000000000000000007081013111111133E
:100A400010080700070F1F1C1E1E1E1C1F0F07008B
:100A50000000000000000000000000000000000096
:100A60000000000000000000000000000000000086
:100A7000000000000000000000000004021F22240B
:100A80002000000000000000000000000000000046
:100A90000000000000000000000000000000000056
:100AA000000705050507000000000000102F1000DA
:100AB0000306080B3A0A3A0A3A0A3A0A3A0B0806B7
:100AC000030030293E283000010101010101050722
:100AD00001050301000000000F18111214180F0087
:100AE0000000000000000000000000000000000006
:100AF0000000020A2A2A2A0000000000000000006C
:100B000000000000000000000000000000000000E5
:100B100000000000000000000000000000000000D5
:100B200000000000000000000000000000000000C5
:100B30000000000000000000000011241FBECFEFE5
:100B4000DAE0DEBFCDBF04B603FE27C08091830587
:100B500090918405A0918505B09186058730904BD2
:100B6000A740B04BD1F410928305109284051092E7
:100B700085051092860514BE84B7877F84BF0FB6A3
:100B8000F894A8958091600088618093600010922D
:100B900060000FBEE0E0F8E3099511E0A0E0B1E0ED
:100BA000E6E4FEE402C005900D92A83CB107D9F737
:100BB00025E0A8ECB1E001C01D92A338B207E1F72F
:100BC0000E94C7200C9417270C9400000F93062F47
:100BD0000F77282F2F77E0919604F091970440EB40
:100BE00063E070E086E994E009950F910895CF9253
:100BF000DF92EF92FF920F931F93CF93DF9300D07A
:100C00000F92CDB7DEB77C01162FD42EC22E809165
:100C1000BB048430B9F5E091B004F091B104309791
:100C200009F440C0C701019763E070E00E9491267B
:100C3000CB01880F991F860F971F19834A83CB8298
:100C40004E2D481B9E012F5F3F4FBC0186E994E06B
:100C50000995E091B404F091B504309739F00C2D6A
:100C60002D2D412FB70186E994E009950F900F9043
:100C70000F90DF91CF911F910F91FF90EF90DF9038
:100C8000CF90089582E0E816F10409F45AC083E099
:100C9000E816F104A9F081E0E816F10409F484C033
:100CA000F12CE12CE091B204F091B304309789F279
:100CB0000C2D2D2D412FB70186E994E00995C9CF60
:100CC000862F807F803A11F188F48038D1F0E0914E
:100CD0009A04F0919B04803929F7309719F3123F59
:100CE00049F12C2D4D2D612F6F7027C0803E99F05A
:100CF000803FB1F0E0919804F0919904803B91F627
:100D0000ECCFE0919C04F0919D04E7CFE0919E042C
:100D1000F0919F04E2CFE091A004F091A104DDCF17
:100D2000623F09F0BFCFE091A204F091A304309795
:100D300009F4B8CF2C2D4D2D62EF86E994E009958A
:100D400088CF862F807F803DB9F0803FD1F0E09141
:100D5000A404F091A504803C09F0A4CF309709F4D5
:100D6000A1CF812F8D7F4D2D612F6F70813FC9F0F5
:100D700086E994E009956DCFE091A604F091A7046F
:100D8000EDCFE091A804F091A904633F39F0613FF1
:100D900009F088CFE091AA04F091AB04309709F4F0
:100DA00081CF4D2D612FE4CFE091AC04F091AD04E3
:100DB000683F38F4663F09F075CFE091AE04F091DA
:100DC000AF04309709F46ECF612F86E994E009955E
:100DD00040CFE8EDF0E080818E7F80831092E200CA
:100DE0001092DA001092E100A0EEB0E08C918160E8
:100DF0008C9380818F77808319BCA7EDB0E08C91B4
:100E00008E7F8C9380818F7E8083109274020895F0
:100E10002091E4003091E50095E6A9012091EC00D5
:100E2000822F817020FF06C08091E80080FF06C0FD
:100E300080E008952091E80022FD1AC0809181028F
:100E4000882389F0853089F08091EB0085FD0FC003
:100E50002091E4003091E50042175307F9F29150D8
:100E6000E1F684E0089582E0089583E0089581E04A
:100E70000895EF92FF920F931F93CF937C018B0104
:100E80000E940807C82F811117C08091E80085FDD6
:100E90000BC08091E8008E778093E8000E940807DD
:100EA000882399F3C82F08C0F70181917F018093AF
:100EB000F1000150110949F78C2FCF911F910F912B
:100EC000FF90EF9008958091830287FF13C0809177
:100ED000E80082FF06C08091E8008B778093E800ED
:100EE00004C0809181028111F2CF08958091810226
:100EF0008823D9F38091E80080FFF8CF8091E80043
:100F00008E77ECCF982F9093E900242F762F50E026
:100F1000891731F07091EC002091ED005091F000B4
:100F200021FD07C09F5F973071F78093E90081E052
:100F300008953091EB003E7F3093EB003091ED004F
:100F40003D7F3093ED003091EB0031603093EB004A
:100F50007093EC002093ED005093F0002091EE0090
:100F600027FDE0CF80E00895CF92DF92EF92FF92CD
:100F70000F931F93CF93DF93C8EDD0E088818F7ECE
:100F80008883E7EDF0E080818160808384E082BF28
:100F900081E08093740288818E7F888302EE10E066
:100FA000F80110821092DA0081EEC82ED12CF601E1
:100FB000108288818F778883888180688883888180
:100FC0008F7D888319BC1092810210928202109248
:100FD000800210927F0290EEE92EF12CF7018081C1
:100FE0008B7F808388818160888342E060E080E03D
:100FF0000E948207F60180818E7F8083F8018081C4
:1010000081608083808188608083F70180818E7F0A
:101010008083888180618883DF91CF911F910F91B8
:10102000FF90EF90DF90CF900895FC0180918902AE
:1010300090918A0286179707A0F06115710529F42F
:101040009091E8009E779093E80090E0611571051B
:1010500051F4911108C08091E80082FF34C080E013
:101060000895BC01F2CF809181028823C1F18530BF
:10107000C1F18091E80083FD30C08091E80082FDDD
:10108000EACF8091E80080FFE1CF8091F3002091CA
:10109000F200382F6115710519F02830310558F02C
:1010A00091E02830310509F090E02091E8002E779A
:1010B0002093E800CBCF81918093F10061507109BA
:1010C0002F5F3F4FE7CF80918102882341F0853029
:1010D00041F08091E80083FFBECF81E0089582E077
:1010E000089583E008950895089508958091760203
:1010F0000895982F907F903BE9F040F49039D1F01B
:10110000903AC1F09038B1F080E00895903D19F028
:1011100020F4903CC9F782E00895903E59F0903F4A
:1011200099F7815F8F3080F7E82FF0E0E456FE4FAB
:101130008081089583E00895DF92EF92FF920F93EC
:101140001F93CF93DF9300D000D0CDB7DEB77B01E4
:10115000142FD22E4A832B830C83842F0E9479086C
:10116000811141C082E0E816F104C1F183E0E81684
:10117000F10439F0EA94EF2829F5173F29F485E0C6
:1011800004C087E0073F09F084E0898380918102F1
:101190008430C1F4809153018F708093E90050E056
:1011A00040E064E070E0CE0101960E9439078111B1
:1011B00009C08091E80085FD05C08091E8008E7728
:1011C0008093E8000F900F900F900F90DF91CF91D8
:1011D0001F910F91FF90EF90DF90089587EFD81245
:1011E000D3CF86E0D2CF12951F701983CFCFCF9285
:1011F000DF92EF92FF920F931F93CF93DF9300D074
:1012000000D000D00F92CDB7DEB78C0108511F4F30
:1012100080918102843009F087C0809158018F70DD
:101220008093E9008091E80082FF7EC08091E80011
:1012300085FF7AC00E940807811113C084E0E82E60
:10124000F12CCE0101966C018091E80085FD61C012
:101250008091E8008B778093E8000E94080788233C
:1012600099F38091E80085FD05C08091E8008B77B7
:101270008093E800FA808F2D0E947908282FFD8244
:101280008B818E838C818F8321110BC08981843067
:1012900041F1873031F1863031F121E0853009F0BC
:1012A000B7CF30E0E5E0F0E0EC0FFD1FE30FF11DFC
:1012B000F0804FB7F894D8011196EC911197F0E0B7
:1012C000CF01019612966C9170E00E94A526D8017C
:1012D0005C915817190649F44FBF3F5F321710F35E
:1012E00097CF23E0DECF22E0DCCF13968D919C9147
:1012F0001497E80FF91FF08211968C91119790E0E6
:10130000019612966C9170E00E94A526F8018183E7
:10131000E3CF8091F100D6018D936D01B1E0EB1A1E
:10132000F10809F091CF9DCF27960FB6F894DEBF54
:101330000FBECDBFDF91CF911F910F91FF90EF9026
:10134000DF90CF900895CF92DF92EF92FF920F93AC
:101350001F932FB7F89440915E0250915F02609105
:101360006002709161022FBF6A017B01EE24FF24AD
:101370008C0130E020E0C016D106E206F30650F002
:10138000481B590BCA011F910F91FF90EF90DF90FE
:10139000CF90089541505109F3CF9C01FC01329642
:1013A0009FEF80E04191461751F09F3F19F44111A2
:1013B00001C0982F8F5F8630A9F79F3F09F40895E9
:1013C000290F311D97FD3A95F90162830895CF9257
:1013D000DF92EF92FF926C01EE24FF2420E0C11413
:1013E000D104E104F10419F0C701B60120E1C72ED0
:1013F000D82EE92EFF24C114D104E104F10419F020
:10140000285FC701B6016B017C0154E0F694E794B4
:10141000D794C7945A95D1F7C114D104E104F104CB
:1014200019F02C5FC701B6016B017C0142E0F69414
:10143000E794D794C7944A95D1F7C114D104E10435
:10144000F10419F02E5FC701B6019695879577953F
:101450006795672B682B692B09F02F5F822FFF9010
:10146000EF90DF90CF900895809590911802982387
:101470009093180208958091180290911702892B79
:1014800090911602892B8093C801E0912A02F09175
:101490002B02309731F00280F381E02D88EC91E04F
:1014A000099408952FE0929F800D1124982F977032
:1014B00086958695869525E0829FF0011124EC5152
:1014C000FE4F50E040E080E0219130E0092E02C064
:1014D000369527950A94E2F721703327042E01C030
:1014E000220F0A94EAF7822B4F5F5F4F4530510578
:1014F00059F708952FE0929F800D1124982F97702F
:1015000041E001C0440F9A95EAF786958695869545
:1015100095E0899FF0011124EC51FE4F90E080E0AE
:1015200070E05191DF0111979B01082E02C03695A2
:1015300027950A94E2F72170219525272423252752
:101540002C9301968530910561F70895882341F029
:101550008095909117028923809317020C943B0A7F
:101560000895882339F090911702982B90931702D1
:101570000C943B0A0895882321F00E94340A0C94AD
:101580003B0A0895882339F090911802982B909384
:1015900018020C943B0A08952091DA013091DB0186
:1015A0002817390771F09093DB018093DA01E091FD
:1015B0002A02F0912B02309721F00084F185E02D72
:1015C000099408952091D8013091D901281739073D
:1015D00071F09093D9018093D801E0912A02F091A3
:1015E0002B02309721F00680F781E02D09940895B1
:1015F00010921702109216020E943B0A90E080E0BF
:101600000E94E20A90E080E00C94CC0A60933802D9
:101610007093390280933A0290933B020C94F80A3B
:101620000F931F9341E050E060E070E004C0440F6E
:10163000551F661F771F8A95D2F7CB01BA016095B7
:101640007095809590950091380210913902209103
:101650003A0230913B0260237123822393231F912E
:101660000F910C94060B0F931F9341E050E060E044
:1016700070E004C0440F551F661F771F8A95D2F78C
:101680008091380290913902A0913A02B0913B02C8
:101690008A019B01082B192B2A2B3B2BC901B8016E
:1016A0001F910F910C94060B6093190270931A020C
:1016B00080931B0290931C020C94F80A882381F1FA
:1016C0009CEF980F913A78F4EAECF1E020ED31E0EC
:1016D0009191891303C0DF0111971C922E173F07C8
:1016E000B9F70C943B0A90E2980F983050F4877049
:1016F00091E001C0990F8A95EAF7892F0E94340A78
:10170000F0CF9BE5980F933020F490E080E00C94AC
:10171000E20A885A873120F490E080E00C94CC0AE9
:101720000895882309F4C1C09CEF980F913A38F4CA
:10173000682F88EC91E00E94CD090C943B0A90E25E
:10174000980F983068F4877021E030E001C0220FD4
:101750008A95EAF780911802822B80931802EDCFC8
:101760009BE5980F933070F4853A31F0863A39F062
:1017700083E890E00C94E20A81E890E0FBCF82E8F5
:1017800090E0F8CF98E5980F973108F08EC0883A2E
:1017900009F446C0893A09F446C08A3A09F446C0B9
:1017A0008B3A09F446C08C3A09F446C08B3B09F4E5
:1017B00046C08C3B09F446C08D3A09F446C0803BD4
:1017C00009F446C08E3A09F446C08F3A09F446C07F
:1017D000813B09F446C0823B09F446C0833B09F4CF
:1017E00046C0843B09F446C0853B09F446C0863BAD
:1017F00009F446C0873B09F446C0883B09F446C05B
:10180000893B09F446C08D3B09F446C08E3B09F480
:1018100046C08A3B09F446C090E080E00C94CC0AB4
:1018200082EE90E0FBCF89EE90E0F8CF8AEE90E078
:10183000F5CF85EB90E0F2CF86EB90E0EFCF83EB36
:1018400090E0ECCF84EB90E0E9CF87EB90E0E6CF3F
:101850008CEC90E0E3CF8DEC90E0E0CF83E891E07A
:10186000DDCF8AE891E0DACF82E991E0D7CF84E951
:1018700091E0D4CF81E292E0D1CF83E292E0CECF6B
:1018800084E292E0CBCF85E292E0C8CF86E292E09C
:10189000C5CF87E292E0C2CF8FE690E0BFCF80E76E
:1018A00090E0BCCF8AE292E0B9CF0895E0912A029D
:1018B000F0912B02309721F00190F081E02D0994F6
:1018C00080E00895CF93DF93EC0181E0898B8091D4
:1018D00018029F81892B80931802809117029885A6
:1018E000892B809317020E943B0AEA81FB81309783
:1018F00039F06C897D89CE010696DF91CF910994EC
:10190000DF91CF910895EF92FF920F931F93CF93A2
:10191000DF93EC018A85811139C0EB80FC8087E57B
:10192000F81A26E12E9DC0012F9D900D1124DC0197
:10193000AC5FBE4F1496ED91FC911597309731F046
:1019400054966D917C91865F9E4F099586E18E9DA0
:1019500080018F9D100D11240C5F1E4FF8018781AF
:101960000E94340AF8018085982F90958091170283
:101970008923809317020E943B0A188219861B86CE
:101980001E821D821092E2011092E101DF91CF913F
:101990001F910F91FF90EF90089560E08BE70C94FA
:1019A000E6058091DF0181110C94CD0C0895909192
:1019B000280292FF06C0282F28712830F9F4877F6B
:1019C000846093FF06C0282F28712831F1F4877EA8
:1019D00084612091290220FF06C0382F38713830E9
:1019E000D9F4877F816021FF06C0282F2871283114
:1019F000D1F4877E816194FD877E0895282F24711C
:101A00002430F9F68B7F8860DCCF282F24712431B5
:101A100001F78B7E8861DDCF382F3171313019F7B6
:101A20008E7F8860E0CF282F2171213121F78E7EB3
:101A30008861E1CFCF93DF93972F70E02FE0929FE3
:101A4000600D711D1124FB013BE4839FE00DF11D2E
:101A50001124EE0FFF1FE255FF4FC591D491CE0127
:101A6000C238D105B9F1E8F5C133D10509F499C0FF
:101A700050F5C932D10509F48DC0CA32D10509F437
:101A800097C0C11542E5D40708F039C1C11521E559
:101A9000D20708F0AEC1C83ED10508F020C1C13E52
:101AA000D10568F5C83AD10508F089C0C53AD10515
:101AB00008F070C1C130D10511F1209709F443C07D
:101AC0002497E8F440C0C533D10509F45CC0C9339C
:101AD000D105B9F620912802237089F080EE90E0BC
:101AE0000EC0C33ED10591F168F4C03ED105F9F0B6
:101AF000C23ED10531F62091280222FD20C0DF919F
:101B0000CF910895C63ED10561F1C73ED10581F15F
:101B1000C43ED10509F0B5CF2091290221FFEFCFB6
:101B20008091280284FD0FC087EE90E0E8CF2091DD
:101B3000280220FD8BC13091290230FFE0CF83EED7
:101B400090E024FFDCCF90E080E0D9CF2091280204
:101B500022FD7FC13091290230FDC0CF24FFCFCFBD
:101B6000F2CF2091280223FFCACF24FDECCFDCCF97
:101B70002091280223FD70C13091290231FFEECF60
:101B800084EE90E0BCCF2091280225FFB8CF89E2F7
:101B900090E0B5CF2091280225FFB1CF85E390E0FA
:101BA000AECF2091280226FFAACF8AE290E0A7CFED
:101BB0002091280226FFA3CF81E390E0A0CFCF3B66
:101BC000D10508F682EE94E4C83AD10509F497CF1E
:101BD00089EE94E4C93AD10509F491CF8AEE94E4F0
:101BE000CA3AD10509F48BCF85EB94E4CB3AD10501
:101BF00009F485CF86EB94E4CC3AD10509F47FCF84
:101C000083EB94E4CB3BD10509F479CF84EB94E4E6
:101C1000CC3BD10509F473CF87EB94E4CD3AD105E1
:101C200009F46DCF8CEC94E4C03BD10509F467CF87
:101C30008DEC94E4CE3AD10509F461CF83E895E4C4
:101C4000CF3AD10509F45BCF8AE895E4C13BD105D1
:101C500009F455CF82E995E4C23BD10509F44FCF91
:101C600084E995E4C33BD10509F449CF81E296E4C8
:101C7000C43BD10509F443CF83E296E4C53BD105CB
:101C800009F43DCF84E296E4C63BD10509F437CF91
:101C900085E296E4C73BD10509F431CF86E296E4AC
:101CA000C83BD10509F42BCF87E296E4C93BD105A7
:101CB00009F425CF8FE694E4CD3BD10509F41FCF7D
:101CC00080E794E4CE3BD10509F419CF80E094E499
:101CD000CA3BD10509F013CF8AE296E410CFC115B3
:101CE00030E5D30708F069C0C11540E4D40708F017
:101CF00060C0DA95C115DF4108F401CF24CFC115CA
:101D000036E5D30718F5C11545E5D40708F087C0B7
:101D1000C11584E5D80708F07DC09C2F969596954F
:101D2000AE0143705527C115D34508F467C021E0C3
:101D300030E002C0220F331F4A95E2F740E2949F41
:101D4000C0011124822B932B9A68D9CEC1153AE594
:101D5000D30778F4C11549E5D40708F06AC0C11566
:101D600088E5D80708F4EFCE9C2F8827806F906A0B
:101D7000C6CECE0190568115904208F0E4CE8D2F4C
:101D80008F710E94D70C90E0982F882788279F7129
:101D90008C2B4DC081E890E4C53AD10509F4AFCE53
:101DA00082E890E4C63AD10509F4A9CE83E890E42C
:101DB000A6CECE019F70906AA2CE9E01E4E0369539
:101DC0002795EA95E1F723708C2F86958695837089
:101DD00030E2839FC0011124922BC37021E030E0D8
:101DE00002C0220F331FCA95E2F7822B932B9C6807
:101DF00086CE9C2F8827816F906A81CE21E030E0CB
:101E000002C0220F331F4A95E2F740E2949FC001BF
:101E10001124EBCF9C2F8827846F906A70CE8C2F73
:101E20000E94D70C90E0982F882788279F71906296
:101E300066CE8C2F8F700E94D70C34E0D695C79554
:101E40003A95E1F7CF709C2F906959CE89E390E0E5
:101E500056CE82EE90E053CE86EE90E050CEBF920A
:101E6000CF92DF92EF92FF920F931F93CF93DF9366
:101E70008C01C0903802D0903902E0903A02F09084
:101E80003B028091190290911A02A0911B02B0911D
:101E90001C02C82AD92AEA2AFB2ACFE1D0E0BC2EAC
:101EA000D701C6010C2E04C0B695A79597958795C6
:101EB0000A94D2F780FD0EC0219788F7B12C8B2DA4
:101EC000DF91CF911F910F91FF90EF90DF90CF9016
:101ED000BF900895B8018C2F0E941A0D019761F3ED
:101EE000EECF82E00C94100BFC018081813019F45C
:101EF00080E00C94330B80E00E94330B82E08093EF
:101F0000D001089581E00C94100BFC018081813098
:101F100019F482E00C94330B80E00E94330B81E0D3
:101F20008093D001089580E00C94100BFC01808117
:101F3000813011F40C94330B8091D001FBCF1092BF
:101F40001802EAECF1E086E0DF011D928A95E9F7DC
:101F50000C94F80A1F93CF93DF93CDB7DEB7AA97FF
:101F60000FB6F894DEBF0FBECDBF83E892E020919C
:101F7000F100FC012193CF01F2E08B389F07B9F704
:101F800080918402833009F46FC0B8F4813009F481
:101F900046C0823009F4B0C08091E80083FF91C24E
:101FA00080918302909184029A3008F08AC2E92FCE
:101FB000F0E0E75EF84D0C94B9268A3009F48BC046
:101FC0008B3009F46EC0893039F7809183028132F9
:101FD00019F780918702909188020297E8F6809124
:101FE000E800877F8093E8008091E80082FF37C097
:101FF0009091F3008091F200029729F48091F10012
:102000008B7F813021F48091F10080937602809162
:10201000E8008B778093E8000E946307BDCF809132
:102020008302813A09F0B8CF8091E800877F8093DE
:10203000E8008091870290918802892B61F468E022
:1020400087E792E070E00E9415088091E8008B77A6
:102050008093E800A1CF60E090E080E0F3CF809132
:1020600081028111C1CF98CF80918302813A09F01A
:1020700093CF8091870290918802892B09F08CCFB1
:102080008091E800877F8093E8008091E80080FFDE
:10209000FCCF809168018093F1008091E8008E77F9
:1020A000B9CF80918302813209F076CF8091870287
:1020B00090918802892B09F06FCF8091E800877F8B
:1020C0008093E8000E9463078091850280936801F5
:1020D0000E949F0F61CF80918302813209F05CCF13
:1020E0008091E800877F8093E8000E9463078091D9
:1020F00086028093750250CF80918302813A09F065
:102100004BCF8091E800877F8093E8008091E800C2
:1021100080FFFCCF80917502BECF803899F0823865
:1021200009F0CFC1809187028F70873008F0C9C154
:102130008093E9008091EB0085FB882780F910925D
:10214000E90006C080917F02909180029111826027
:102150009091E800977F9093E8008093F1001092AF
:10216000F1008091E8008E77A8C1882309F496C118
:10217000823009F0A6C180918502811199C18091B8
:1021800087028F702FEF280F263008F09AC18093B6
:10219000E9002091EB0020FF8BC1933031F4809156
:1021A000EB0080628093EB0083C19091EB00906123
:1021B0009093EB0021E030E001C0220F8A95EAF70E
:1021C0002093EA001092EA008091EB008860EACF49
:1021D000811177C1109185021F778091E30080788B
:1021E000812B8093E3008091E800877F8093E80053
:1021F0000E9463078091E80080FFFCCF8091E3009C
:1022000080688093E30082E0111183E08093810273
:1022100058C18058823008F054C180918502909155
:1022200086028C3D23E09207A1F583E08A838AE24F
:1022300089834FB7F894DE01139620E03EE051E227
:10224000E32FF0E050935700E49120FF03C0E295A4
:10225000EF703F5FEF708E2F90E0EA30C0F0C796CE
:102260008D939D932F5F243159F74FBF8091E800E4
:10227000877F8093E8006AE270E0CE0101960E94B9
:1022800015088091E8008B778093E8001AC1C0960A
:10229000E7CF4091870250918802292F33272330BE
:1022A000310509F445C078F52130310509F47BC0CA
:1022B0008FE990E0E9E1F5E02230310509F001C154
:1022C0002091E800277F2093E80020918902309137
:1022D0008A028217930708F49C0140E0211531051A
:1022E00009F070C041116EC08091E80082FDC9CF35
:1022F00080918102882329F2853019F28091E800CB
:1023000083FFF2CFBECF2132310509F440C0223223
:10231000310509F0D6C04115510509F44EC04130D0
:10232000510509F0CEC086E390E0E3EAF4E0C8CFBF
:10233000992781309105D9F0009771F0823091058D
:10234000F1F0039709F0BDC0EAECF5E0E4918E2FBF
:1023500090E0EAECF5E007C0E6EFF5E0E4918E2FBF
:1023600090E0E6EFF5E0009709F4ABC0A9CFE6EE08
:10237000F5E0E4918E2F90E0E6EEF5E0F4CFE0EDAD
:10238000F5E0E4918E2F90E0E0EDF5E0ECCF411523
:10239000510571F04130510509F093C089E090E09A
:1023A000E4E4F5E08DCF82E190E0E8EBF5E088CF62
:1023B00089E090E0EBE2F5E083CF80E490E0E9EDA6
:1023C000F4E07ECF80918102882309F45ACF8530D2
:1023D00009F457CF8091E80083FD53CF8091E80046
:1023E00082FD82CF8091E80080FF78CF9091F3004A
:1023F0008091F2002115310519F08830910550F0D7
:1024000041E0089709F040E08091E8008E778093E2
:10241000E80064CF44914093F10031962150310996
:102420000196E8CF803809F04CC08091E800877FA2
:102430008093E800809182028093F10092CE811116
:1024400040C0109185021230E0F58091E800877F4E
:102450008093E800109382020E946307112311F019
:1024600084E005C08091E30087FDFACF81E080938E
:10247000810242E061EC81E00E94820742E261EC6D
:1024800082E00E94820742E361E883E00E948207C3
:1024900042E360E884E00E94820713C080918502D5
:1024A000813079F481E0933009F080E080938002FC
:1024B0001092E9008091E800877F8093E8000E94F5
:1024C00063078091E80083FF0AC08091E800877F5E
:1024D0008093E8008091EB0080628093EB00AA96E5
:1024E0000FB6F894DEBF0FBECDBFDF91CF911F9125
:1024F0000895CF93DF93682F81E06A3019F06D3033
:1025000029F480E0DF91CF910C940413809194041E
:102510009091950426E0FC01AEE8B4E001900D92A4
:102520002A95E1F7613E08F456C026E0FC011192BD
:102530002A95E9F7C0919404D091950446E050E0C3
:10254000BE018EE894E00E94C826CE58D2409E017B
:102550002A5F3F4F892B21F185E0D695C7958A9553
:10256000E1F741E050E0CA0102C0880F991FCA9507
:10257000E2F760918C0270918D02862B972BB90146
:10258000E5E076956795EA95E1F702C0440F551F9F
:102590006A95E2F7842B952B90938D0280938C02A1
:1025A00040918B02642F70E0C9010E949126481B64
:1025B000463010F4240F311D211582E0380710F049
:1025C00030E020E022573D4F30939504209394044F
:1025D000DF91CF910895F6E06F9FB001112466500E
:1025E0007A4F46E050E00E94BF26A4CFCF93DF93FE
:1025F000EC01FE018491811103C0DF91CF91089518
:102600000E9479122196F5CFCF93382FE091940450
:10261000F0919504EE58F24020918B02622F70E009
:10262000CF010E949126281B822F332361F066E0A0
:102630000E948526C82FC15010F4CF91089580E2E2
:102640000E947912F8CF9F01280F311D21153240C9
:1026500018F080E0F0E0E0E08E0F9F2F911D825790
:102660009D4F9093950480939404E7CFCF92DF928F
:10267000EF92FF920F931F93CF93DF936C017B0137
:1026800064E670E088E70E94A225EC0197FD12C085
:1026900010E000E0F601E00FF11F849164E670E0C5
:1026A0000E94FE25EC01892B29F40F5F1F4F0E15A8
:1026B0001F0581F70E948126CE01DF91CF911F91E6
:1026C0000F91FF90EF90DF90CF9008952FB7F8947F
:1026D00080915E0290915F02A0916002B0916102D0
:1026E0002FBF805A9541AF4FBF4F809362029093A6
:1026F0006302A0936402B093650280916602811127
:1027000008C062E070E08CEA90E00E943613892BEA
:1027100019F080916602089581E080936602F9CFF6
:10272000CF9384E090E00E94D526C82F81E290E00C
:102730000E94D526982F8C2FCF910895CF93DF93A9
:1027400000D00F92CDB7DEB79C01909181029430FA
:1027500019F599833B832A8382E08093E9008FEF08
:102760009091E800815095FD06C095ED9A95F1F79E
:1027700000008111F5CF8091E80085FF0DC050E089
:1027800040E063E070E0CE0101960E94390780913D
:10279000E8008E778093E8000F900F900F90DF9104
:1027A000CF910895CF93DF9300D00F92CDB7DEB7CE
:1027B00020918102243031F523E02983805891094A
:1027C0009B838A8382E08093E9008FEF9091E800F9
:1027D000815095FD06C095ED9A95F1F700008111A5
:1027E000F5CF8091E80085FF0DC050E040E063E048
:1027F00070E0CE0101960E9439078091E8008E7743
:102800008093E8000F900F900F90DF91CF91089583
:10281000CF93DF93EC0180918102843039F581E020
:102820008093E9008FEF9091E800815095FD06C0FC
:1028300095ED9A95F1F700008111F5CF8091E800B0
:1028400085FF14C050E040E068E070E0CE010E94D7
:1028500039078091E8008E778093E80088E0FE01D8
:10286000A7E7B2E001900D928A95E1F7DF91CF9151
:10287000089581E08093E00080E28093D800109278
:10288000C9008FE19EE40197F1F700C0000087E0E6
:1028900090EBDC018093830590938405A0938505DC
:1028A000B093860588E19CE00FB6F894A8958093D4
:1028B00060000FBE90936000FFCFCF93C82F0E949F
:1028C000910BC93349F42FEF87EE93E021508040FC
:1028D0009040E1F700C000008C2FCF910C945E0B6C
:1028E0006CEE7EEF90E080E00E94012760E082E0E5
:1028F00090E00E94E32660E083E090E00E94E326FF
:102900001092190210921A0210921B0210921C02CD
:1029100060E084E090E00E94E32660E081E290E0E5
:102920000E94E32660E085E090E00E94E32660E0FC
:1029300086E090E00E94E3266FEF87E090E00E943F
:10294000E32640E050E0BA0188E090E00E94F526DE
:1029500060E08DE090E00E94E32640E050E0BA01A4
:1029600088E190E00E94F52660E087E190E00E9417
:10297000E32640E050E0BA018CE190E00E94F526A9
:1029800060E080E290E00E94E32640E050E0BA017F
:102990008FE090E00E94F52640E050E0BA0183E12C
:1029A00090E00C94F5261F920F920FB60F9211240F
:1029B0002F933F934F935F936F937F938F939F9347
:1029C000AF93BF93CF93DF93EF93FF93D091E90041
:1029D000DF708091EC00C82FC17080FDC0E81092BC
:1029E000E9008091F000877F8093F00078940E9446
:1029F000AA0F1092E9008091F00088608093F000A7
:102A0000CD2BCF70C093E900FF91EF91DF91CF9173
:102A1000BF91AF919F918F917F916F915F914F91F6
:102A20003F912F910F900FBE0F901F9018951F92FE
:102A30000F920FB60F9211242F933F934F935F93F2
:102A40006F937F938F939F93AF93BF93EF93FF9376
:102A50008091E10082FF09C08091E20082FF05C001
:102A60008091E1008B7F8093E1008091DA0080FF0C
:102A700024C08091D80080FF20C08091DA008E7F32
:102A80008093DA008091D90080FF9FC080E189BDEA
:102A900082E189BD09B400FEFDCF81E0809381020F
:102AA00080917402811109C00E94E9060E94B40756
:102AB0008091E20084608093E2008091E10080FFD9
:102AC00017C08091E20080FF13C08091E2008E7FEA
:102AD0008093E2008091E20080618093E200809127
:102AE000D80080628093D80019BC85E08093810271
:102AF0008091E10084FF2DC08091E20084FF29C015
:102B000080E189BD82E189BD89B5982F917080FFF0
:102B1000FBCF8091D8008F7D8093D8008091E10019
:102B20008F7E8093E1008091E2008F7E8093E200AF
:102B30008091E20081608093E2008091820288238C
:102B400009F449C084E0809381020E949F0F0E9493
:102B5000560C8091E10083FF27C08091E20083FF43
:102B600023C08091E100877F8093E10082E0809321
:102B70008102109282028091E1008E7F8093E100B9
:102B80008091E2008E7F8093E2008091E20080617C
:102B90008093E20042E060E080E00E948207809142
:102BA000F00088608093F000FF91EF91BF91AF91AA
:102BB0009F918F917F916F915F914F913F912F9155
:102BC0000F900FBE0F901F90189519BC10928102A4
:102BD0001092740272CF8091E30087FD93E090938E
:102BE0008102B3CF78941F921FB61F9211248F9346
:102BF0009F93AF93BF9380915E0290915F02A091EB
:102C00006002B09161020196A11DB11D80935E0228
:102C100090935F02A0936002B0936102BF91AF9165
:102C20009F918F911F901FBE1F9018952FB7F894FA
:102C300080915E0290915F02A0916002B09161026A
:102C40002FBF08958F929F92AF92BF92CF92DF9243
:102C5000EF92FF920F931F93CF93DF93CDB7DEB721
:102C6000A3970FB6F894DEBF0FBECDBF6C01DC0199
:102C700013968D919C911497892B49F01C91119674
:102C8000FC90812F8F218F3F11F00C94B41EA396DE
:102C90000FB6F894DEBF0FBECDBFDF91CF911F916D
:102CA0000F91FF90EF90DF90CF90BF90AF909F90EB
:102CB0008F9008950E942F0F082F682F89819A8185
:102CC0000E947A0AE12FF0E0BFE0FB9EE00DF11DCB
:102CD00011242BE4029FE00DF11D1124EE0FFF1FC4
:102CE000E255FF4FE590F490D60112968C91811138
:102CF0000EC2F6018281FFE1EF16F10409F46FC301
:102D000008F09EC030E1E316F10409F440C308F076
:102D10004EC0A9E0EA16F10409F425C350F5E6E037
:102D2000EE16F10409F417C3B8F424E0E216F10436
:102D300009F405C335E0E316F10409F407C3F6E22C
:102D4000EF16FCE5FF0609F0DBC3882309F46AC12E
:102D500081E08093E0019BCF97E0E916F10409F44C
:102D6000FEC2A8E0EA16F10451F795E48111EBC226
:102D700059C1BCE0EB16F10409F4FDC268F4FAE0B5
:102D8000EF16F10409F4F3C22BE0E216F104B9F6F0
:102D900098E48111D8C246C13EE0E316F10409F47B
:102DA000F2C208F4ECC29CE48111CDC23BC1A7E1A0
:102DB000EA16F10409F4FFC2F8F4E3E1EE16F104B7
:102DC00009F4EDC270F421E1E216F10409F4E3C262
:102DD00032E1E316F10409F0B2CF9FE48111B3C2EE
:102DE00021C195E1E916F10409F4E1C208F4DBC25E
:102DF00093E58111A8C216C1BAE1EB16F10409F4FA
:102E0000E2C270F4F8E1EF16F10409F4D8C229E146
:102E1000E216F10409F093CF96E5811194C202C144
:102E20003CE1E316F10409F4D6C208F4D0C2ADE1E6
:102E3000EA16F10409F083CF9AE5811184C2F2C049
:102E4000B4E1EB16BDE5FB0609F40BC208F078C04F
:102E5000FDE0EF16FDE5FF0609F4BEC1E8F53AE036
:102E6000E3163DE5F30609F49BC1E0F4A8E0EA1699
:102E7000ADE5FA0609F486C1B9E0EB16BDE5FB063F
:102E800009F05DCF882309F402CF82E0809300012E
:102E900087E58093360280E38093480182E3809344
:102EA0004901F5CEEBE0EE16EDE5FE0609F486C12C
:102EB000FCE0EF16FDE5FF0609F041CF882309F499
:102EC000E6CE85E08093000184E58093360280E3BE
:102ED0008093480185E3E3CF20E1E2162DE5F20679
:102EE00009F496C1D0F49EE0E9169DE5F90609F4CF
:102EF00081C1AFE0EA16ADE5FA0609F020CF8823DC
:102F000009F4C5CE88E08093000189E480933602FD
:102F100080E38093480188E3C2CFB2E1EB16BDE5C0
:102F2000FB0609F491C108F481C1882309F4AFCEEE
:102F30008CE08093000183E58093360281E3ACCF7F
:102F4000FBE1EF16FDE5FF0609F4C2C188F537E1A4
:102F5000E3163DE5F30609F49AC1B8F4A5E1EA16D3
:102F6000ADE5FA0609F488C1B6E1EB16BDE5FB064E
:102F700009F0E5CE882309F48ACE8FE08093000122
:102F800087E48093360281E3A3CFE9E1EE16EDE515
:102F9000FE0609F492C108F485C1882309F477CEAE
:102FA00083E1809300018CE48093360281E33AC18F
:102FB0002EE1E2162DE5F20609F4A0C1B8F49CE179
:102FC000E9169DE5F90609F48EC1ADE1EA16ADE515
:102FD000FA0609F0B4CE882309F459CE86E180932D
:102FE000000183E48093360282E338C1B0E2EB163D
:102FF000BDE5FB0609F498C108F48BC1F1E2EF16B8
:10300000FDE5FF0609F09BCE882361F09AE19093DD
:1030100000019DE49093360292E39093480196E379
:10302000909349019091E0019111BEC29091DF010E
:103030009111BAC2C70197558F3F910509F008F465
:1030400074C3D60112968C91882309F4A2C6B2E00B
:10305000EB16BCE5FB0608F4ACC4E6E1EE16ECE5C5
:10306000FE0638F097012A5F3C452930310508F00B
:10307000A0C40E9490139093290280932802F0E14B
:10308000EF16FCE5FF0609F463C408F0E5C338E079
:10309000E3163CE5F30609F44DC408F0AEC394E032
:1030A000E9169CE5F90609F43DC408F090C3B2E0C6
:1030B000EB16BCE5FB0609F42FC480912802826060
:1030C000E3E0EE16ECE5FE0609F429C4609128025F
:1030D0001091290284E090E00E94E326612F81E2B2
:1030E00090E00E94E326A3960FB6F894DEBF0FBED1
:1030F000CDBFDF91CF911F910F91FF90EF90DF90A7
:10310000CF90BF90AF909F908F900C949F0F809125
:1031100046018F3F09F4EDCD04E011E0B12CA12C64
:103120009924939480914601082E000C990B8A15DE
:103130009B050CF4DECDD80116968C91169788234A
:10314000D9F019968D919C918E159F0539F4809137
:10315000E1019091E2018E159F0571F0F8019786CB
:10316000F486E3868189811103C0C8010E94620C44
:10317000C80106960E94830CFFEFAF1ABF0A0A5ED1
:103180001F4FD0CF882309F482CD81E080930001C6
:1031900081E58093360280E38093480181E37FCE0E
:1031A000882309F474CD83E08093000185E4809343
:1031B000360280E38093480183E371CE882309F4CB
:1031C00066CD84E08093000182E58093360280E33F
:1031D0008093480184E363CE882309F458CD86E0C8
:1031E0008093000189E58093360280E38093480153
:1031F00086E355CE882309F44ACD87E08093000109
:1032000085E58093360280E38093480187E347CECB
:10321000882309F43CCD89E0809300018FE48093FA
:10322000360280E38093480189E339CE882309F48C
:103230002ECD8AE08093000180E58093360281E301
:103240008093480180E32BCE882309F420CD8BE0C6
:103250008093000181E48093360281E380934801EA
:103260001ECE882309F413CD8DE08093000184E401
:103270008093360281E39ECF882309F408CD8EE047
:103280008093000186E48093360281E3A1CF8823F6
:1032900009F4FDCC80E18093000188E4809336023C
:1032A00081E3A4CF882309F4F2CC81E1809300016B
:1032B0008AE48093360281E3A7CF882309F4E7CC20
:1032C00082E1809300018BE48093360281E321CE7A
:1032D000882309F4DCCC84E1809300018AE58093A3
:1032E000360282E3ADCF882309F4D1CC85E1809307
:1032F000000188E58093360282E34ECF882309F4EB
:10330000C6CC87E18093000186E58093360282E394
:1033100051CF882309F4BBCC88E18093000182E47B
:103320008093360282E354CF882309F4B0CC89E13C
:10333000809300018EE48093360282E3C9CD91E44C
:10334000882309F46FCE909337026CCE882309F45A
:1033500069CE92E4F8CF93E48111F5CF63CE94E483
:103360008111F1CF5FCE96E48111EDCF5BCE97E472
:103370008111E9CF57CE99E48111E5CF53CE9AE47C
:103380008111E1CF4FCE9BE48111DDCF4BCE9DE487
:103390008111D9CF47CE9EE48111D5CF43CE90E5A0
:1033A0008111D1CF3FCE91E58111CDCF3BCE92E5BA
:1033B0008111C9CF37CE94E58111C5CF33CE95E5C4
:1033C0008111C1CF2FCE97E58111BDCF2BCE98E5CE
:1033D0008111B9CF27CE99E58111B5CF23CE8823AE
:1033E00009F420CE8091180281FF22C082E00E9461
:1033F000B10A8FE10E94910B8091180281FF69C090
:103400008FE10E945E0B82E0A3960FB6F894DEBFB8
:103410000FBECDBFDF91CF911F910F91FF90EF9025
:10342000DF90CF90BF90AF909F908F900C94A60AA2
:1034300085FFDFCF80E20E94340A50EFE52E53E093
:10344000F52EF70124912223B9F287010F5F1F4F58
:10345000213049F4F801F4908F2D0E94910B8F2DAB
:103460000E945E0B06C0223049F4F80184910E944C
:10347000910B7801FFEFEF1AFF0AE3CF233019F425
:10348000F8018491EDCF30E0F901E059FC4FD49080
:10349000F901E051FD4F0491F901E059FD4F1491FC
:1034A000002319F081EE0E94910B112319F086EE92
:1034B0000E94910B8D2D0E945D14112319F086EE50
:1034C0000E945E0B002319F081EE0E945E0B8701C3
:1034D000D0CF85FDDCCB8FE1A3960FB6F894DEBF8D
:1034E0000FBECDBFDF91CF911F910F91FF90EF9055
:1034F000DF90CF90BF90AF909F908F900C945E0B19
:1035000027E2E2162CE5F20641F4882309F48ACD7D
:103510000E94D10C1092E001BACB38E2E3163CE5F0
:10352000F30641F49091E001882309F47BCD9111D9
:10353000EFCF0ECC9CE2E9169CE5F90639F488231E
:1035400009F470CD81E08093DF01A1CBADE2EA16F2
:10355000ACE5FA0641F4882309F464CD0E94CD0C51
:103560001092DF0194CBBEE2EB16BCE5FB0641F402
:10357000882309F457CD8091DF018111EFCFE2CF8D
:10358000E9E2EE16ECE5FE0609F04CCD882309F4DD
:1035900049CD0E94D10C8091010190E00196837089
:1035A00099278093010173CB882309F441C0F0EE81
:1035B000EF16F10451F40E94D10C81E08093DE01FA
:1035C0001092DD011092DC0162CB22EEE216F104D2
:1035D00061F40E94D10C8091DE01882319F081E012
:1035E0008093DD011092DE0152CB33EEE316F1043D
:1035F00039F49091DD019923D9F00E94D10CF2CFDA
:1036000092E5E916F10451F48091020190910301D1
:103610000A97909303018093020139CBA1E5EA1642
:10362000F10431F480910201909103010A96F1CFE7
:103630009091010191110DC0F601918145E050E09A
:10364000491B51092081205FFCE04F9F200D112470
:1036500011C0913089F5D60111969C91119745E0E2
:1036600050E0491B5109242F220F220F240F9C9157
:103670009D5C290F9091DF01882309F447C09923AD
:1036800061F02F77E0919604F09197040FE740E9FD
:1036900063E070E086E994E009958091DE0188237B
:1036A00029F08091DC018F5F8093DC01EFEFEE1653
:1036B000F10408F0BFCCEBCA923051F4F6019181CD
:1036C00045E050E0491B510920812D5CF7E0BDCF5A
:1036D0002CE0933079F693E2E9E6F1E0DE01119611
:1036E00001900D929A95E1F7D601EC91EC0FFD2F28
:1036F000F11D11969C9145E050E0491B5109208530
:10370000BCE04B9F200D1124275FB4CF992371F2A9
:103710002F77E0919604F091970400E040E863E091
:1037200070E086E994E00995C1CF20914601022E10
:10373000000C330B2817390714F480934601D60187
:1037400012962C91129736E1389F5001399FB00C98
:10375000112485010C5F1E4FF801208B12969C915D
:103760008681992339F1F286E1868F5F86830E94F4
:103770001616D8011E969C938E931D9717961C9231
:1037800017978091170290911802892B18968C93A5
:103790001897ED91FC911197309739F054966D91EF
:1037A0007C91C501865F9E4F0995F092E201E092FF
:1037B000E10147CC882309F444CC8189882309F4AA
:1037C00040CCC501865F9E4F0E94830C3ACC80910D
:1037D00028028061F6E0EF16FCE5FF0609F49FC0C1
:1037E00080912802886027E0E2162CE5F20608F4B2
:1037F00096C080912802806292C0809128028D7FBD
:103800003CE0E3163CE5F30609F489C078F48091C6
:1038100028028C609AE0E9169CE5F90609F47FC05D
:1038200008F48CC0809128028E7F79C08091280294
:10383000877FBEE0EB16BCE5FB0609F470C0809103
:1038400028028B7FEFE0EE16ECE5FE0608F467C079
:10385000809128028F7E63C0FBEFEF16FCE5FF0628
:1038600009F464C068F533E1E3163CE5F30609F4B6
:1038700077C090F491E1E9169CE5F90609F46CC073
:10388000A2E1EA16ACE5FA0609F020CC0E949F0FEF
:10389000809128028F7743C0B5E1EB16BCE5FB06AB
:1038A00009F466C008F47AC0809129028160FAEFB9
:1038B000EF16FCE5FF0609F009CC8093290206CC3F
:1038C0002FEFE2162CE5F20609F44EC088F48DEFD6
:1038D000E8168CE5F806C1F1809129028E7F9EEFF3
:1038E000E9169CE5F90648F3809129028360E5CF4B
:1038F000A1E0EA16ADE5FA0609F459C008F444C09F
:1039000060E0E2E0EE16EDE5FE0609F0DFCB8EE0CA
:1039100090E00E94E326DACB8091280281608093B8
:103920002802D4CB809128028460F9CF80912902AB
:103930008260C3CF809128028064F1CF0E949F0FE4
:10394000809128028068EBCF809129028D7FB5CFCE
:10395000809128028F7DE3CF809128028F7BDFCF7B
:1039600080912802837FDBCF809129028C7FA5CFB5
:103970008091280282FB992790F921E0922790FB01
:1039800082F990FB83F9CBCF80912902982F9095F3
:1039900091708E7F892B90FB81F98FCF0E949F0FB2
:1039A00090912802892F97FB87F98058B8CF61E062
:1039B000AECFE114FCE5FF0671F12EEDE2162CE529
:1039C000F206C1F1A6E1EA16ACE5FA0609F048C034
:1039D000809118028A7A91E009F490E09093E301D3
:1039E00069E2811165E388EC91E00E94CD09A3961C
:1039F0000FB6F894DEBF0FBECDBFDF91CF911F9100
:103A00000F91FF90EF90DF90CF90BF90AF909F907D
:103A10008F900C943B0A0E949F0F0E94CD0C3FEFA9
:103A200084E39CE0315080409040E1F700C000000A
:103A30000E943914A3960FB6F894DEBF0FBECDBF17
:103A4000DF91CF911F910F91FF90EF90DF90CF907A
:103A5000BF90AF909F908F900C94701485E3A4C199
:103A6000F601008111818823B9F1C8010E942F0F4E
:103A7000F82E682FC8010E947A0AB8018F2D0E9483
:103A80001A0D082FE82ED60112968C9181111092F2
:103A90001702192F12951F70143009F46EC008F523
:103AA000123080F1E12FE850FF0B329708F0EFC899
:103AB000A3960FB6F894DEBF0FBECDBFDF91CF91B6
:103AC0001F910F91FF90EF90DF90CF90BF90AF903C
:103AD0009F908F900C94560CC8010E94520AF82EA9
:103AE000CCCF183009F465C01930E1F69F70F92E7B
:103AF000882309F432C1892F0E94330B802F0E9442
:103B0000C20AD0CFB92FBF70FB2E907F19F0F2946C
:103B100040EFF4228823C9F0FF2069F080E2800F93
:103B2000883010F0E1100BC080911802F82AF09252
:103B300018020E943B0A802F0E94910BB3CF809104
:103B40001702F82AF0921702F4CF802F0E945E0B22
:103B5000FF2009F4A7CF005E083010F0E11006C086
:103B60008F2D0E94340A0E943B0A9CCFF0948091D2
:103B70001702F822F0921702F6CF292F26952695E4
:103B8000237051F0213009F08DCF882379F0802FF8
:103B900093700E94CC0A86CF882329F0802F9370DF
:103BA0000E94E20A7FCF90E080E0FACF90E080E0D0
:103BB000F0CF292F237009F065C0811173CF802FBA
:103BC000829586958770880F880F402F4F7050E040
:103BD00070E060E0082E04C0440F551F661F771F79
:103BE0000A94D2F7C12CD12C760104FF10C03FE01B
:103BF000C32ED12CE12CF12C04C0CC0CDD1CEE1C0E
:103C0000FF1C8A95D2F7C094D094E094F0949695D6
:103C100096959370923019F1D8F480901902909093
:103C20001A02A0901B02B0901C02913069F04C293E
:103C30005D296E297F29CB01BA01682179218A216A
:103C40009B210E94540B2ECF482959296A297B2990
:103C5000CB01BA016C297D298E299F29F2CF4C29ED
:103C60005D296E297F29C0901902D0901A02E09038
:103C70001B02F0901C02CB01BA016C257D258E251C
:103C80009F25DFCF2695882311F0292F217022232D
:103C900009F408CF802F829586958770880F880F4A
:103CA000402F4F7050E070E060E0082E04C0440FD9
:103CB000551F661F771F0A94D2F7C12CD12C7601AD
:103CC00004FF10C02FE0C22ED12CE12CF12C04C037
:103CD000CC0CDD1CEE1CFF1C8A95D2F7C094D0944E
:103CE000E094F094969596959370923019F1D8F4EB
:103CF0008090380290903902A0903A02B0903B0236
:103D0000913069F04C295D296E297F29CB01BA01D8
:103D1000682179218A219B210E94060BC3CE482964
:103D200059296A297B29CB01BA016C297D298E2961
:103D30009F29F2CF4C295D296E297F29C090380236
:103D4000D0903902E0903A02F0903B02CB01BA01E8
:103D50006C257D258E259F25DFCF802F0E94BB0AF5
:103D60008F2D0E94100B9ECE85E0F601DE0111968C
:103D700001900D928A95E1F7D60112962C918981D6
:103D80009A8121110C945A160E94520A082F0C9401
:103D90006216B6E1EB16BCE5FB0609F061CE809138
:103DA000E30181115BCE89E2EAECF1E020ED31E044
:103DB0009191891303C0DF0111971C922E173F07C1
:103DC000B9F715CE2F923F924F925F926F927F92EA
:103DD0008F929F92AF92BF92CF92DF92EF92FF921B
:103DE0000F931F93CF93DF9300D000D0CDB7DEB7F2
:103DF0008EE192E06BEA71E0B8E24B2EB2E05B2E0E
:103E00001982EE24E394F12CDC016D907D90CD01BC
:103E1000FD0112921292FC83EB83DB012D91BD0117
:103E2000E22FE295EF70F0E031A12F70570101C051
:103E3000AA0C2A95EAF7232F2A2921A322A13A2C9A
:103E40003094232122A3B0EABA95F1F7A0EBCA2E51
:103E5000A1E0DA2E30E020E0D6012D906D01422D58
:103E600042954F7050E0DA0190964C91AB81BC8145
:103E70008D909C9050E0B22DBF7002C05595479533
:103E8000BA95E2F740FD66C0A701022E02C0440FBA
:103E9000551F0A94E2F748295929AB81BC81119634
:103EA0005C934E932F5F3F4F2F303105A9F621A130
:103EB000322231A222A1A22AA2A221E04D915C913C
:103EC0004615570509F420E0B981B22BB98348168D
:103ED000590609F099CFBB2309F43FC081E08093D4
:103EE000D3010E9416169093D2018093D101809144
:103EF000D1019091D2010E94A309069790F180917F
:103F00001E0290911F0290932D0280932C028091AB
:103F100020029091210290932F0280932E02809193
:103F2000220290912302909331028093300280917B
:103F30002402909125029093330280933202809163
:103F400026029091270290933502809334021092BA
:103F5000D30107C050E040E09ECF8091D301811192
:103F6000C6CF809146018F3F79F01A8256E1D52E57
:103F7000EA812E2F30E080914601082E000C990B2B
:103F8000821793070CF0B2C0E0911D02EE0FEE0F06
:103F9000E0931D0283B190E0880F892F881F990B51
:103FA00029B122FB002700F922FF02C002E010E045
:103FB000082BE02BE0931D02EF70F0E0E457FE4F7A
:103FC00080819091D501890F8093D5018430C4F010
:103FD0008091D4018F5F8093D401609138027091F9
:103FE000390280913A0290913B020E94E7098130A8
:103FF00009F4B9C0882309F4B2C0823009F4B5C00D
:104000008091D5018D3FC4F48091D401815080937B
:10401000D401609138027091390280913A029091F6
:104020003B020E94E709813009F4A9C0882309F402
:10403000A2C0823009F4A5C08091D501837887FFA2
:1040400003C081508C6F8F5F8093D50186E8809389
:104050007A0080E880937B0080914701856080939F
:104060007C0080917A00806480937A0080917A004D
:1040700086FDFCCF6091780080917900782F809147
:10408000D6019091D7019B01281B390BC90137FF3D
:1040900003C09195819591090D9784F07093D70194
:1040A0006093D60177FF02C0695F7F4F33E075955B
:1040B00067953A95E1F78BE10E94E60589810F90BB
:1040C0000F900F900F90DF91CF911F910F91FF9064
:1040D000EF90DF90CF90BF90AF909F908F907F90A8
:1040E0006F905F904F903F902F900895D29EF00177
:1040F000D39EF00D1124EC5FFE4FA288B388A1146B
:10410000B10419F448ECA42EB12CD29EC001D39E68
:10411000900D1124FC01EC5FFE4F7F018681882306
:10412000D1F0858596850E94A309A816B90698F452
:10413000FA81FD9D50011124D70151968C91811176
:1041400005C0C5018C5F9E4F0E94620CC501865F51
:104150009E4F0E94830CBA81BF5FBA8309CF8AEA5F
:104160000E945D144DCF87E4FBCF6FE38091000187
:104170000E94E60545CF89EA0E945D145DCF88E480
:10418000FBCF61E4809100010E94E60555CFCDB7D9
:10419000DEB729970FB6F894DEBF0FBECDBF1092E1
:1041A000BB041092BD041092BC0480EC8093800587
:1041B0008EEB94E0909382058093810510927F05A9
:1041C00010927E0510929B0410929A0410929D0406
:1041D00010929C0410929F0410929E041092A104CD
:1041E0001092A0041092A3041092A2041092A504AD
:1041F0001092A4041092A7041092A6041092A9048D
:104200001092A8041092AB041092AA041092AD046C
:104210001092AC041092AF041092AE041092B1044C
:104220001092B0041092B5041092B4048CE998E096
:10423000909397048093960487EF98E09093B70447
:104240008093B60483E798E09093B3048093B2041C
:1042500084E798E0909399048093980484B7877FCB
:1042600084BF0FB6F894A895809160008861809310
:104270006000109260000FBE80E890E00FB6F894E6
:1042800080936100909361000FBE85B7806885BF01
:1042900085B7806885BF0E94E9060E94B4078091B7
:1042A000E20084608093E200789480918102882308
:1042B000A1F01091E9001F709091EC00892F81709E
:1042C00090FD80E8182B1092E9008091E80083FDB2
:1042D0000E94AA0F1F701093E90082E084BD93E052
:1042E00095BD9AEF97BD80936E00ABEAB1E040EBCD
:1042F00051E061E070E08D91E82FE295EF70F0E021
:1043000011A18F709B0101C0220F8A95EAF7922FAD
:104310009095912391A382A1822B82A34A175B07D8
:1043200051F7A0EBB1E04FEB51E061E070E08D910F
:10433000E82FE295EF70F0E011A18F709B0101C0B2
:10434000220F8A95EAF7922F9095912391A382A14B
:10435000822B82A34A175B0751F710921F0210921B
:104360001E0210922D0210922C0210922102109225
:10437000200210922F0210922E021092230210920D
:1043800022021092310210923002109225021092F5
:1043900024021092330210923202109227021092DD
:1043A000260210923502109234020E94E21E8FE320
:1043B0009CE90197F1F700C000000E94E21E809185
:1043C0002C0280FF08C06FEF7FEF90E080E00E943A
:1043D00001270E94391490E080E00E94DD268C3E87
:1043E0009E4F11F00E94701427982F9A52985A9A53
:1043F00083B190E0880F892F881F990B4A9907C1D4
:1044000020E0822B80931D0280E48093470110926C
:104410005C0280E880938B020E949C256DE070E036
:1044200082E194E00E943613892B09F046C0809106
:104430005C0263E070E081FDECC08FE094E00E94DC
:104440003613892BD1F56DE070E08FEF93E00E9479
:104450003613892B91F52FB7F89480915E029091D5
:104460005F02A0916002B09161022FBF805A954116
:10447000AF4FBF4F8093620290936302A093640298
:10448000B0936502EEE8F2E080E092E0DF019C018B
:104490001D9221503040E1F7F0939504E09394048D
:1044A0008FEF9FEF90938D0280938C0281E0809339
:1044B00067028093660210925D0290E080E00E94A5
:1044C000DD268C3E9E4F11F00E94701482E090E039
:1044D0000E94D526809369020E949013909329022E
:1044E0008093280283E090E00E94D526682F70E038
:1044F00090E080E00E94540B8EE591E090932B02B7
:1045000080932A0244244394512CEE24E394F12C0A
:10451000A4E0AA2E0E94E21EB82EACE2B2E0EAE6C7
:10452000F2E010E000E0302E6D907D90819191914D
:104530008615970509F478C0D12CC12C86259725BE
:1045400042010C2C02C0880C991C0A94E2F79C01D1
:1045500028213921232B09F45FC00E941616C98235
:104560003A826820792021E0672809F420E02B8333
:1045700081609D838C83CE0101960E942216000FDC
:10458000111FF801E659FD4F8081918188269926F7
:104590009182808280916702882309F426C18EE887
:1045A00092E0909395048093940482E694E00E94B4
:1045B000F6120E94560C182F609138027091390241
:1045C00080913A0290913B020E94E709823008F400
:1045D0003FC0823009F454C06091380270913902B2
:1045E00080913A0290913B020E94E709813009F4E0
:1045F0004AC1882309F46BC0823009F447C18FE1B6
:1046000094E00E94F61281E00E94041364C022E04C
:10461000F8CE8CE094E013CF2FEFC21AD20A3FE01D
:10462000C316D10409F08CCF0F5F1F4F0530110561
:1046300009F079CF0E9416162FEF29832A831B8257
:1046400081609D838C83CE0101960E942216A2CFA9
:104650008FE494E011FF02C086E594E00E94F61218
:104660008DE594E00E94F61280913702811101C01D
:104670008AE20E9479128AE494E00E94F612ACCF9A
:1046800086E494E00E94F612E8E4F1E00190002054
:10469000E9F78F0101501109E8E4CE2EE1E0DE2EAA
:1046A000C016D10670F080E494E00E94F61280916A
:1046B0003602811101C08AE20E9479128BE394E0F4
:1046C000DCCFD6018D916D010E947912E9CF84E390
:1046D00094E00E94F61220918C0230918D022115F7
:1046E000310509F457C080915D02811153C0082F34
:1046F00010E06201082E02C0CC0CDD1C0A94E2F727
:10470000A60142235323452B09F4C3C090915C02B8
:1047100090FDC1C08295880F807680934D019801ED
:10472000369527953695279520935001815E809385
:104730004E011092510124E630E047E050E06BE476
:1047400071E088E70E942D26892B21F5A80165E0FC
:10475000440F551F6A95E1F780915C0280FDA9C066
:1047600042575D4F04E610E020E230E060E488E765
:104770000E945426892B71F40E946613C094D09431
:1047800080918C0290918D02C822D922D0928D0204
:10479000C0928C0280916602882339F140916202B6
:1047A0005091630260916402709165022FB7F89492
:1047B00080915E0290915F02A0916002B0916102CF
:1047C0002FBF841B950BA60BB70BB7FD0EC08091B6
:1047D0006602882351F062E070E081EA94E00E9472
:1047E0003613892B11F410926602B1100E946613E1
:1047F000E091B604F091B704309719F086E994E09F
:1048000009959FB7F89400917F0580917E05081760
:1048100008F4B4C0081B9FBFD12CC12C10E0882421
:104820008394C016D10608F4ADC00E94560C909136
:104830006802891721F00E94560C809368028091CB
:104840008102843009F066CE809153018F7080938D
:10485000E9009091E80090FF5BCE90918102943046
:1048600009F056CE8093E9009091F3008091F20018
:10487000892B09F44DCE8091E8008E778093E80073
:104880000E94080745CE8DE294E023CF86E294E0B3
:1048900020CF8F5F2CCF880F880F880F80934D011A
:1048A00010925001895F80934E0183E08093510103
:1048B00042CF80E2ECE3F2E011928A95E9F723EC33
:1048C00031E0398728870FEB11E037E0832EA88588
:1048D000B9856D91B987A887F80181918F01840FFF
:1048E000952F911D9C0122573D4F3F832E83E62F2C
:1048F000F0E0E45CFD4F30E020E0682C621A942C7C
:10490000022E01C0990C0A94EAF72E803F8090E0B5
:10491000D1018D911D018921662D691B6770762E4D
:10492000062E000C770BB82F01C0BB0F7A94EAF764
:104930007B2E7195619571096770772701C0869507
:104940006A95EAF7782A8081782A70829F5F98308A
:10495000F9F62F5F3F4F31962830310571F6E7ECBD
:10496000F1E028853985E217F30709F0B0CF04E6B6
:1049700010E020E230E04CE352E0F8CE20918005D8
:10498000020F48CF80917E0590E06091800570E035
:104990000E94A5262091810530918205280F391F9C
:1049A000D901BC909090BB04B7EFBB15E8F480929E
:1049B000BB0420E040E06B2D81E090E00E94F70511
:1049C0009092BB042FB7F89480917E0590E00196F9
:1049D0006091800570E00E94A52680937E052FBF20
:1049E0008FEFC81AD80A1DCFB7FE53C0E4E09E1659
:1049F00031F0B092B804F092BD04E092BC048B2D6B
:104A00000E947908813069F08823D1F08230A9F0C2
:104A1000833099F01092BB041092BD041092BC0434
:104A2000D1CF8093BB0420E040E06B2D81E090E08B
:104A30000E94F7051092BB04C5CF8093BB04C2CF80
:104A4000F0EFBF16E9F027EFB212E4CF2091BC04DB
:104A50003091BD04C90163E070E00E949126FC0121
:104A6000EA56FB4FB2A2C90101969093BD04809310
:104A7000BC042091BA044091B9046091B804D8CF25
:104A8000A092BB04B092B804F092BD04E092BC04C2
:104A900099CF992009F496CF2091BC043091BD04A0
:104AA000C90163E070E00E949126AC01FC01EA5666
:104AB000FB4FB2A2C90101969093BD048093BC0440
:104AC0004130510589F04230510509F07BCF2091EA
:104AD000BA044091B9046091B8040E94F70580912E
:104AE000BB04843089F66ECF32E020E093126ACFA7
:104AF000F0CF1F921FB61F9211248F939F93AF93F5
:104B0000BF9380915E0290915F02A0916002B0918C
:104B100061024196A11DB11D80935E0290935F02D8
:104B2000A0936002B0936102BF91AF919F918F916A
:104B30001F901FBE1F9018951092B9008CE08093B3
:104B4000B8000895EF92FF920F931F93CF93DF93D6
:104B5000182FEB011092BC0084EA8093BC000E94E5
:104B600016167C018091BC0087FF27C08091B90098
:104B7000887F883029F08091B900887F8031D9F50D
:104B80001093BB0084E88093BC000E9416168C0131
:104B90008091BC0087FF24C02091B900287F90E05D
:104BA00080E02831B1F081E090E0203411F490E011
:104BB00080E09195819591090CC0CF3FDC0791F27F
:104BC0000E9416168E199F098C179D0758F28EEFBA
:104BD0009FEFDF91CF911F910F91FF90EF9008957C
:104BE000CF3FDC07A9F20E941616801B910B8C1791
:104BF0009D0770F2ECCF8FEF9FEFEBCF0F931F93DA
:104C0000CF93DF93EB018093BB0084E88093BC00DB
:104C10000E9416168C018091BC0087FF11C0209164
:104C2000B900287F81E090E0283211F490E080E024
:104C3000919581959109DF91CF911F910F910895E1
:104C4000CF3FDC0741F30E941616801B910B8C1797
:104C50009D0708F38EEF9FEFEECFCF92DF92EF929A
:104C6000FF920F931F93CF93DF936B018A0179011A
:104C7000B9010E94A225E6010C0D1D1DC017D10728
:104C800061F424E92093BC00DF91CF911F910F9133
:104C9000FF90EF90DF90CF90089597FDF2CFB7018E
:104CA00089910E94FE25EACFCF92DF92EF92FF9288
:104CB0000F931F93CF93DF93C62F6A017901B80139
:104CC0000E94A22597FD0CC0B8018C2F0E94FE25E2
:104CD000E601EC0CFD1CCE15DF0511F097FF0CC0B2
:104CE00024E92093BC00DF91CF911F910F91FF9099
:104CF000EF90DF90CF900895B80189910E94FE2532
:104D0000EACF84E98093BC000895991B79E004C040
:104D1000991F961708F0961B881F7A95C9F78095FA
:104D20000895AA1BBB1B51E107C0AA1FBB1FA617F2
:104D3000B70710F0A61BB70B881F991F5A95A9F744
:104D400080959095BC01CD01089597FB072E16F430
:104D5000009407D077FD09D00E94912607FC05D06A
:104D60003EF4909581959F4F0895709561957F4F82
:104D70000895EE0FFF1F0590F491E02D0994FB01BB
:104D8000DC0102C005900D9241505040D8F70895C3
:104D9000FB01DC0104C08D910190801921F4415088
:104DA0005040C8F7881B990B0895F999FECF92BD22
:104DB00081BDF89A992780B50895A8E1B0E042E056
:104DC00050E00C940927262FF999FECF92BD81BDA2
:104DD000F89A019700B4021639F01FBA20BD0FB639
:104DE000F894FA9AF99A0FBE08950396272F0E9415
:104DF000E4260E94E326252F0E94E426242F0C940B
:104E0000E4260196272F0E94E4260C94E326DC0179
:104E1000CB01FC01F999FECF06C0F2BDE1BDF89AC5
:104E2000319600B40D9241505040B8F70895F8946F
:104E3000FFCF8D10B5106112B5106112E810091185
:064E4000611212121F12A4
:104E4600010364000000960F930F000000000000AD
:104E5600000000000000000000000000850F820F27
:104E6600000000000000000000000000000000003C
:104E76000000740F710F0000000000000000000029
:104E8600000000000000FF403031000021007F22BA
:104E9600000303834000000104400000010076087F
:104EA60008147508D2139E13010002040507090BA6
:104EB6000C0E1011131517181A1C1D1F212324265A
:104EC60028292B2D2F3032343537393B00FF01008E
:104ED600010000FFFF0000010001FF0002030200C5
:104EE600000100010101010100010133323130C628
:104EF60093959496973435366667F7F6F4F1F00095
:084F0600081018181008000043
:00000001FF
