:100000000C949D050C94E4050C94E4050C94E40513
:100010000C94E4050C94E4050C94E4050C94E405BC
:100020000C94E4050C94E4050C9411150C94CD1477
:100030000C9447250C94E4050C94E4050C94E40519
:100040000C94E4050C94E4050C94E4050C94E4058C
:100050000C94E4050C94EC150C94E4050C94E40564
:100060000C94E4050C94E4050C94E4050C94E4056C
:100070000C94E4050C94E4050C94E4050C94E4055C
:100080000C94E4050C94E4050C94E4050C94E4054C
:100090000C94E4050C94E4050C94E4050C94E4053C
:1000A0000C94E4050C94E4050C94E40500AF2900DD
:1000B0001E001F0020002100220023002400250034
:1000C000260027002D002E0035002A002B000000FE
:1000D00014001A000800150017001C0018000C007E
:1000E000120013002F00300000003900000004004F
:1000F0001600070009000A000B000D000E000F009B
:1001000033003400310028000000E1001D001B0016
:1001100006001900050011001000360037003800F5
:10012000E50052000057E000E2000000E30000009C
:1001300000002C0000000000000000000000500043
:1001400051004F0001003A003B003C003D003E00E2
:100150003F00400041004200430001000100010057
:100160000100010000000100010001000100010088
:100170000100010001000100010001000100000078
:100180000100000001000100010001000100010068
:100190000100010001000100010001000100000058
:1001A0000100010001000100010001000100010047
:1001B00001000100010001000100015701000100E0
:1001C000000001000000000001000000000000002D
:1001D00000000000AC00AD00AB0001002F5C305C03
:1001E000315C325C335C345C355C365C375C385C8B
:1001F000395C3A5C3B5C010001000000085D095D70
:100200000A5D0B5D0C5D0D5D0E5D0F5D105D115D9A
:1002100001000100000001000000125D135D145D8B
:10022000155D165D175D185D195D1A5D0100010011
:1002300001000100000001001B5D1C5D1D5D1E5DD5
:100240001F5D205D215D01000100010001003C5C9B
:100250000257010001000000010000000000010041
:1002600000000000000000000000495C4A5C4B5C9C
:10027000000000000000000000000000000000007E
:10028000000000000000000000000000000000006E
:10029000000000000000000000000000000000005E
:1002A000000000000000000000000000000000004E
:1002B000000000000000000000000000000000003E
:1002C000000000000000000000000000000000002E
:1002D000000000000000000000000000000000001E
:1002E000000000000000000000000000000000000E
:1002F00000000000000000000000000000000000FE
:1003000000000000000000000000000000000000ED
:1003100000010101010101000101010100000000D3
:1003200000000000000000000000010001000101C9
:1003300001010101010101010101010101010101AD
:1003400001010101010101010101010000000101A0
:10035000000000000000000000000000000000009D
:100360000000000000000000000000010101010089
:1003700000000000000000002A2B28000000000000
:100380000000000000000000000000290000000044
:100390002C1E3420212224342627252E362D3738B2
:1003A000271E1F202122232425263333362E3738BB
:1003B0001F0405060708090A0B0C0D0E0F10111279
:1003C000131415161718191A1B1C1D2F3130232D45
:1003D000350405060708090A0B0C0D0E0F10111243
:1003E000131415161718191A1B1C1D2F3130354CF4
:1003F0006C75616E7479403136332E636F6D000019
:10040000DA02818FD9F1DB40A4A62EAF00A0C00094
:10041000A1C800AED580A81FD300408D14200020B5
:10042000204E4F4E450033204C54524D0032204652
:10043000554E4300312042415345005D20202000AD
:10044000202020205B00434320005D202020007BF3
:100450007C20202020007D7E4C4F434B002020201C
:100460005B00808182838485868788898A8B8C8DD6
:100470008E8F9091929394A0A1A2A3A4A5A6A7A8C1
:10048000A9AAABACADAEAFB0B1B2B3B4C0C1C2C338
:10049000C4C5C6C7C8C9CACBCCCDCECFD0D1D2D3A4
:1004A000D400AE05010980A10185031A81002A83C9
:1004B00000160100260300950175108100C0050C8F
:1004C0000901A10185041A01002A9C0216010026D7
:1004D0009C02950175108100C005010906A1010566
:1004E0000719E029E7150025019508750181029596
:1004F00001750881010507190029FF150026FF0075
:1005000095067508810005081901290595057501ED
:100510009102950175039101C009029F0004010039
:10052000A0FA0904000001030101000921110100E2
:10053000012240000705810308000A0904010001A7
:100540000300000009211101000122360007058285
:100550000320000A080B0202010100000904020046
:100560000001010000092401000109000103090440
:1005700003000201030000072401000141000624DA
:100580000201010006240202020009240301030102
:10059000020100092403020401010100090504020B
:1005A0004000050000052501010109058302400006
:1005B00005000005250101031201100100000008DB
:1005C000EDFE606001000102030104033000000041
:1005D000140350004800450052004F004D004F00EA
:1005E0004E00450000000E034C00550041004E0037
:1005F000540059000000040309040000000000003A
:100600003E5B4F5B3E003E6B4F6B3E001C3E7C3EB4
:100610001C00183C7E3C18001C577D571C001C5EBB
:100620007F5E1C0000183C180000FFE7C3E7FF00D6
:10063000001824180000FFE7DBE7FF0030483A0607
:100640000E00262979292600407F05050700407FF6
:1006500005253F005A3C663C5A007F3E1C1C0800A2
:10066000081C1C3E7F0014227F2214005F5F005F85
:100670005F0006097F017F00006689956A0060605F
:100680006060600094A2FFA2940008047E04080049
:1006900010207E20100008082A1C0800081C2A08C8
:1006A00008001E10101010000C1E0C1E0C0030381C
:1006B0003E383000060E3E0E06000000000000002E
:1006C00000005E000000000600060000143E143E1C
:1006D0001400242A7F2A1200261608343200364AD3
:1006E00056205000000A06000000003C42000000B6
:1006F0000000423C00002A1C3E1C2A0008083E085C
:10070000080000A0600000000808080808000000B9
:10071000606000002010080402003C4242423C009D
:1007200000447E400000645252524C0022424A4A29
:1007300036003824227E20002E4A4A4A32003C4AA3
:100740004A4A32000202621A0600344A4A4A340017
:100750004C5252523C000000140000000040340093
:1007600000000008142200001414141414000000E7
:10077000221408000004520A04003E415D594E0054
:100780007C1212127C007E4A4A4A34003C424242A9
:1007900042007E4242423C007E4A4A4A4A007E0A69
:1007A0000A0A0A003C42425272007E0808087E0093
:1007B00000007E0000002040423E00007E10081431
:1007C00062007E40404040007E0408047E007E04BB
:1007D00008107E003C4242423C007E1212120C0085
:1007E0003C4252225C007C1212325E004C4A4A4A61
:1007F000320002027E0202003E4040403E001E20C7
:1008000040201E003E4038403E0062140814620042
:1008100006087008060062524A464200007E4242C4
:100820000000020408102000000042427E0008047C
:10083000020408004040404040000000060A00005A
:10084000605454547C007E48484830003048484842
:100850004800304848487E00385454545800000836
:100860007C0A000098A4A4A478007E080808700000
:1008700000007A0000002040403A00007E1028442A
:10088000000000007E4000007C04780478007C04B6
:1008900004047800384444443800FC24242418001C
:1008A00018242424FC007C080404080048545454F0
:1008B000240000047E4400003C4040407C001C209A
:1008C00040201C003C4030403C004428102844009C
:1008D0005CA0A0A07C004464544C4400FEC1C1C98B
:1008E000C5DDC5C9C1C1FE00FCFEFEEEF6C6F6EED2
:1008F000FEFEFC003C2623263C000103053F053399
:100900000138003C00000000000000000000000072
:100910000000001C3C783C1C0080E0100800001423
:100920000C1E2C5440404040449A244080808080DB
:10093000E01088C8CEC88E080E080E080E080810F1
:10094000E0808080808080402020202070701C7893
:100950001818181888C040C040C040C040C040C0EF
:10096000800000000000000000000000001E003FAA
:100970002121212D2D213F00F00804C4242424C46A
:100980000408F000F0F8FC3CDCDCDC3CFCF8F00097
:10099000FEC1C1C9C5DDC5C9C1C1FE00FCFEFEEE78
:1009A000F6C6F6EEFEFEFC000000000000000000AF
:1009B0000000000000000000000000000000000037
:1009C0000000000000000000000000000000000027
:1009D000000000000000000000070F1121010101CC
:1009E00001C1213925C505091224292A2A2AAAAAC2
:1009F000FF0007EF4CCF474040C0404043E30000BA
:100A0000FFAAAA2A2A2A4A8A2A52220202024282D9
:100A1000024282020F1D171D97DD575D57DD971D9E
:100A20000F000000000000000000000000000000B7
:100A3000000000000000000007081013111111133E
:100A400010080700070F1F1C1E1E1E1C1F0F07008B
:100A50000000000000000000000000000000000096
:100A60000000000000000000000000000000000086
:100A7000000000000000000000000004021F22240B
:100A80002000000000000000000000000000000046
:100A90000000000000000000000000000000000056
:100AA000000705050507000000000000102F1000DA
:100AB0000306080B3A0A3A0A3A0A3A0A3A0B0806B7
:100AC000030030293E283000010101010101050722
:100AD00001050301000000000F18111214180F0087
:100AE0000000000000000000000000000000000006
:100AF0000000020A2A2A2A0000000000000000006C
:100B000000000000000000000000000000000000E5
:100B100000000000000000000000000000000000D5
:100B200000000000000000000000000000000000C5
:100B30000000000000000000000011241FBECFEFE5
:100B4000DAE0DEBFCDBF04B603FE27C080917F058B
:100B500090918005A0918105B09182058730904BDE
:100B6000A740B04BD1F410927F05109280051092EF
:100B700081051092820514BE84B7877F84BF0FB6AB
:100B8000F894A8958091600088618093600010922D
:100B900060000FBEE0E0F8E3099511E0A0E0B1E0ED
:100BA000E2EEFDE402C005900D92A63CB107D9F734
:100BB00025E0A6ECB1E001C01D92AF37B207E1F726
:100BC0000E9498200C94E5260C940000CF92DF92AE
:100BD000EF92FF920F931F93CF93DF9300D00F926A
:100BE000CDB7DEB77C01162FD42EC22E8091AC0279
:100BF0008430B9F5E091A102F091A202309709F496
:100C000040C0C701019763E070E00E945F26CB01FE
:100C1000880F991F860F971F19834A83CB824E2D09
:100C2000481B9E012F5F3F4FBC0187E892E009956A
:100C3000E091A502F091A602309739F00C2D2D2DF0
:100C4000412FB70187E892E009950F900F900F9020
:100C5000DF91CF911F910F91FF90EF90DF90CF9098
:100C6000089582E0E816F10409F45AC083E0E8161A
:100C7000F104A9F081E0E816F10409F484C0F12C34
:100C8000E12CE091A302F091A402309789F20C2D9F
:100C90002D2D412FB70187E892E00995C9CF862F06
:100CA000807F803A11F188F48038D1F0E0918B0296
:100CB000F0918C02803929F7309719F3123F49F1EE
:100CC0002C2D4D2D612F6F7027C0803E99F0803FF5
:100CD000B1F0E0918902F0918A02803B91F6ECCF6D
:100CE000E0918D02F0918E02E7CFE0918F02F091BA
:100CF0009002E2CFE0919102F0919202DDCF623F4B
:100D000009F0BFCFE0919302F0919402309709F47B
:100D1000B8CF2C2D4D2D62EF87E892E0099588CF52
:100D2000862F807F803DB9F0803FD1F0E091950221
:100D3000F0919602803C09F0A4CF309709F4A1CF3E
:100D4000812F8D7F4D2D612F6F70813FC9F087E816
:100D500092E009956DCFE0919702F0919802EDCF66
:100D6000E0919902F0919A02633F39F0613F09F0F6
:100D700088CFE0919B02F0919C02309709F481CFDB
:100D80004D2D612FE4CFE0919D02F0919E02683FCE
:100D900038F4663F09F075CFE0919F02F091A00210
:100DA000309709F46ECF612F87E892E0099540CF24
:100DB000E8EDF0E080818E7F80831092E200109257
:100DC000DA001092E100A0EEB0E08C9181608C938B
:100DD00080818F77808319BCA7EDB0E08C918E7FE6
:100DE0008C9380818F7E8083109270020895209171
:100DF000E4003091E50095E6A9012091EC00822FF6
:100E0000817020FF06C08091E80080FF06C080E06E
:100E100008952091E80022FD1AC080917D02882368
:100E200089F0853089F08091EB0085FD0FC020911D
:100E3000E4003091E50042175307F9F29150E1F6D2
:100E400084E0089582E0089583E0089581E00895A4
:100E5000EF92FF920F931F93CF937C018B010E941F
:100E6000F706C82F811117C08091E80085FD0BC0DF
:100E70008091E8008E778093E8000E94F70688232F
:100E800099F3C82F08C0F70181917F018093F10089
:100E90000150110949F78C2FCF911F910F91FF90AD
:100EA000EF90089580917F0287FF13C08091E80042
:100EB00082FF06C08091E8008B778093E80004C031
:100EC00080917D028111F2CF089580917D02882367
:100ED000D9F38091E80080FFF8CF8091E8008E7709
:100EE000ECCF982F9093E900242F762F50E08917AC
:100EF00031F07091EC002091ED005091F00021FD57
:100F000007C09F5F973071F78093E90081E00895F3
:100F10003091EB003E7F3093EB003091ED003D7F50
:100F20003093ED003091EB0031603093EB00709323
:100F3000EC002093ED005093F0002091EE0027FD8F
:100F4000E0CF80E00895CF92DF92EF92FF920F936F
:100F50001F93CF93DF93C8EDD0E088818F7E888385
:100F6000E7EDF0E080818160808384E082BF81E0F2
:100F70008093700288818E7F888302EE10E0F801F2
:100F800010821092DA0081EEC82ED12CF601108268
:100F900088818F77888388818068888388818F7D26
:100FA000888319BC10927D0210927E0210927C02FE
:100FB00010927B0290EEE92EF12CF70180818B7F5D
:100FC000808388818160888342E060E080E00E94C5
:100FD0007107F60180818E7F8083F80180818160B6
:100FE0008083808188608083F70180818E7F808309
:100FF000888180618883DF91CF911F910F91FF904D
:10100000EF90DF90CF900895FC0180918502909140
:10101000860286179707A0F06115710529F4909153
:10102000E8009E779093E80090E06115710551F417
:10103000911108C08091E80082FF34C080E00895DB
:10104000BC01F2CF80917D028823C1F18530C1F1CE
:101050008091E80083FD30C08091E80082FDEACFF6
:101060008091E80080FFE1CF8091F3002091F200B1
:10107000382F6115710519F02830310558F091E0CD
:101080002830310509F090E02091E8002E77209378
:10109000E800CBCF81918093F100615071092F5FFF
:1010A0003F4FE7CF80917D02882341F0853041F0AA
:1010B0008091E80083FFBECF81E0089582E008952B
:1010C00083E0089508950895089580917202089527
:1010D000982F907F903BE9F040F49039D1F0903A0E
:1010E000C1F09038B1F080E00895903D19F020F4FF
:1010F000903CC9F782E00895903E59F0903F99F7EF
:10110000815F8F3080F7E82FF0E0E556FE4F808159
:10111000089583E00895DF92EF92FF920F931F935B
:10112000CF93DF9300D000D0CDB7DEB77B01142F73
:10113000D22E4A832B830C83842F0E94680881114E
:1011400041C082E0E816F104C1F183E0E816F10441
:1011500039F0EA94EF2829F5173F29F485E004C017
:1011600087E0073F09F084E0898380917D02843025
:10117000C1F4809152018F708093E90050E040E00B
:1011800064E070E0CE0101960E942807811109C039
:101190008091E80085FD05C08091E8008E778093FE
:1011A000E8000F900F900F900F90DF91CF911F915B
:1011B0000F91FF90EF90DF90089587EFD812D3CF73
:1011C00086E0D2CF12951F701983CFCFCF92DF92D6
:1011D000EF92FF920F931F93CF93DF9300D000D035
:1011E00000D00F92CDB7DEB78C0108511F4F809110
:1011F0007D02843009F087C0809157018F70809301
:10120000E9008091E80082FF7EC08091E80085FFC0
:101210007AC00E94F706811113C084E0E82EF12CF9
:10122000CE0101966C018091E80085FD61C080913E
:10123000E8008B778093E8000E94F706882399F3F3
:101240008091E80085FD05C08091E8008B77809350
:10125000E800FA808F2D0E946808282FFD828B817C
:101260008E838C818F8321110BC08981843041F161
:10127000873031F1863031F121E0853009F0B7CF88
:1012800030E0E5E0F0E0EC0FFD1FE30FF11DF08032
:101290004FB7F894D8011196EC911197F0E0CF0177
:1012A000019612966C9170E00E947326D8015C91B1
:1012B0005817190649F44FBF3F5F321710F397CF05
:1012C00023E0DECF22E0DCCF13968D919C91149722
:1012D000E80FF91FF08211968C91119790E001961A
:1012E00012966C9170E00E947326F8018183E3CF1F
:1012F0008091F100D6018D936D01B1E0EB1AF108F8
:1013000009F091CF9DCF27960FB6F894DEBF0FBEA0
:10131000CDBFDF91CF911F910F91FF90EF90DF90A4
:10132000CF900895CF92DF92EF92FF920F931F9389
:101330002FB7F89440915A0250915B0260915C0281
:1013400070915D022FBF6A017B01EE24FF248C01A6
:1013500030E020E0C016D106E206F30650F0481B4C
:10136000590BCA011F910F91FF90EF90DF90CF9022
:10137000089541505109F3CF9C01FC0132969FEF33
:1013800080E04191461751F09F3F19F4411101C08F
:10139000982F8F5F8630A9F79F3F09F40895290F92
:1013A000311D97FD3A95F90162830895CF92DF923E
:1013B000EF92FF926C01EE24FF2420E0C114D104CF
:1013C000E104F10419F0C701B60120E1C72ED82EBF
:1013D000E92EFF24C114D104E104F10419F0285FBF
:1013E000C701B6016B017C0154E0F694E794D794F1
:1013F000C7945A95D1F7C114D104E104F10419F04E
:101400002C5FC701B6016B017C0142E0F694E794C2
:10141000D794C7944A95D1F7C114D104E104F104DB
:1014200019F02E5FC701B601969587957795679558
:10143000672B682B692B09F02F5F822FFF90EF90AD
:10144000DF90CF9008958095909114029823909307
:10145000140208958091140290911302892B9091A7
:101460001202892B8093C601E0912602F091270297
:10147000309731F00280F381E02D86EC91E0099401
:1014800008952FE0929F800D1124982F97708695D4
:101490008695869525E0829FF0011124E052FE4F4B
:1014A00050E040E080E0219130E0092E02C0369506
:1014B00027950A94E2F721703327042E01C0220FEA
:1014C0000A94EAF7822B4F5F5F4F4530510559F779
:1014D00008952FE0929F800D1124982F977041E07E
:1014E00001C0440F9A95EAF786958695869595E012
:1014F000899FF0011124E052FE4F90E080E070E0FF
:101500005191DF0111979B01082E02C03695279556
:101510000A94E2F7217021952527242325272C936F
:1015200001968530910561F70895882341F08095F3
:10153000909113028923809313020C942A0A089530
:10154000882339F090911302982B909313020C94F6
:101550002A0A0895882321F00E94230A0C942A0A5B
:101560000895882339F090911402982B90931402D7
:101570000C942A0A08952091D6013091D70128179A
:10158000390771F09093D7018093D601E09126023C
:10159000F0912702309721F00084F185E02D099425
:1015A00008952091D4013091D5012817390771F0A1
:1015B0009093D5018093D401E0912602F091270207
:1015C000309721F00680F781E02D0994089510925C
:1015D0001302109212020E942A0A90E080E00E94F8
:1015E000D10A90E080E00C94BB0A609334027093BF
:1015F000350280933602909337020C94E70A0F93DA
:101600001F9341E050E060E070E004C0440F551FBC
:10161000661F771F8A95D2F7CB01BA016095709546
:1016200080959095009134021091350220913602F8
:101630003091370260237123822393231F910F91EE
:101640000C94F50A0F931F9341E050E060E070E0C6
:1016500004C0440F551F661F771F8A95D2F78091EB
:10166000340290913502A0913602B09137028A017E
:101670009B01082B192B2A2B3B2BC901B8011F9169
:101680000F910C94F50A60931502709316028093E3
:101690001702909318020C94E70A882381F19CEFBB
:1016A000980F913A78F4E8ECF1E02EEC31E091916A
:1016B000891303C0DF0111971C922E173F07B9F75A
:1016C0000C942A0A90E2980F983050F4877091E0B9
:1016D00001C0990F8A95EAF7892F0E94230AF0CF5B
:1016E0009BE5980F933020F490E080E00C94D10AB1
:1016F000885A873120F490E080E00C94BB0A08956A
:10170000882309F4C1C09CEF980F913A38F4682FF0
:1017100086EC91E00E94BC090C942A0A90E2980F92
:10172000983068F4877021E030E001C0220F8A957C
:10173000EAF780911402822B80931402EDCF9BE58F
:10174000980F933070F4853A31F0863A39F083E897
:1017500090E00C94D10A81E890E0FBCF82E890E021
:10176000F8CF98E5980F973108F08EC0883A09F4C1
:1017700046C0893A09F446C08A3A09F446C08B3A11
:1017800009F446C08C3A09F446C08B3B09F446C0C4
:101790008C3B09F446C08D3A09F446C0803B09F4FD
:1017A00046C08E3A09F446C08F3A09F446C0813BE0
:1017B00009F446C0823B09F446C0833B09F446C0A5
:1017C000843B09F446C0853B09F446C0863B09F4D6
:1017D00046C0873B09F446C0883B09F446C0893BB4
:1017E00009F446C08D3B09F446C08E3B09F446C05F
:1017F0008A3B09F446C090E080E00C94BB0A82EE7C
:1018000090E0FBCF89EE90E0F8CF8AEE90E0F5CF44
:1018100085EB90E0F2CF86EB90E0EFCF83EB90E0AA
:10182000ECCF84EB90E0E9CF87EB90E0E6CF8CEC57
:1018300090E0E3CF8DEC90E0E0CF83E891E0DDCF66
:101840008AE891E0DACF82E991E0D7CF84E991E0AC
:10185000D4CF81E292E0D1CF83E292E0CECF84E296
:1018600092E0CBCF85E292E0C8CF86E292E0C5CF8E
:1018700087E292E0C2CF8FE690E0BFCF80E790E0B2
:10188000BCCF8AE292E0B9CF0895E0912602F091B0
:101890002702309721F00190F081E02D099480E03B
:1018A0000895CF93DF93EC0181E0898B809114023E
:1018B0009F81892B80931402809113029885892B34
:1018C000809313020E942A0AEA81FB81309739F043
:1018D0006C897D89CE010696DF91CF910994DF91C5
:1018E000CF910895EF92FF920F931F93CF93DF93C1
:1018F000EC018A85811139C0EB80FC8087E5F81AFC
:1019000026E12E9DC0012F9D900D1124DC01AC5FBE
:10191000BE4F1496ED91FC911597309731F0549687
:101920006D917C91865F9E4F099586E18E9D800129
:101930008F9D100D11240C5F1E4FF80187810E94AE
:10194000230AF8018085982F9095809113028923AE
:10195000809313020E942A0A188219861B861E820F
:101960001D821092DE011092DD01DF91CF911F9157
:101970000F91FF90EF9008950F93E0918702F091FF
:10198000880200E02BE740EB63E070E087E892E03C
:1019900009950F9108958091DB0181110C94BC0C85
:1019A00008959091240292FF06C0282F28712830B4
:1019B000F9F4877F846093FF06C0282F28712831AF
:1019C000F1F4877E84612091250220FF06C0382F24
:1019D00038713830D9F4877F816021FF06C0282F05
:1019E00028712831D1F4877E816194FD877E089526
:1019F000282F24712430F9F68B7F8860DCCF282FC4
:101A00002471243101F78B7E8861DDCF382F31714D
:101A1000313019F78E7F8860E0CF282F2171213176
:101A200021F78E7E8861E1CFCF93DF93972F70E00F
:101A30002FE0929F600D711D1124FB013BE4839FF9
:101A4000E00DF11D1124EE0FFF1FE255FF4FC59170
:101A5000D491CE01C238D105B9F1E8F5C133D10531
:101A600009F499C050F5C932D10509F48DC0CA32C4
:101A7000D10509F497C0C11542E5D40708F039C172
:101A8000C11521E5D20708F0AEC1C83ED10508F066
:101A900020C1C13ED10568F5C83AD10508F089C01A
:101AA000C53AD10508F070C1C130D10511F12097B8
:101AB00009F443C02497E8F440C0C533D10509F4C4
:101AC0005CC0C933D105B9F620912402237089F096
:101AD00080EE90E00EC0C33ED10591F168F4C03EA7
:101AE000D105F9F0C23ED10531F62091240222FD44
:101AF00020C0DF91CF910895C63ED10561F1C73E68
:101B0000D10581F1C43ED10509F0B5CF2091250260
:101B100021FFEFCF8091240284FD0FC087EE90E07B
:101B2000E8CF2091240220FD8BC13091250230FFA7
:101B3000E0CF83EE90E024FFDCCF90E080E0D9CFCF
:101B40002091240222FD7FC13091250230FDC0CFBB
:101B500024FFCFCFF2CF2091240223FFCACF24FD50
:101B6000ECCFDCCF2091240223FD70C130912502FF
:101B700031FFEECF84EE90E0BCCF2091240225FF10
:101B8000B8CF89E290E0B5CF2091240225FFB1CFF4
:101B900085E390E0AECF2091240226FFAACF8AE20F
:101BA00090E0A7CF2091240226FFA3CF81E390E00D
:101BB000A0CFCF3BD10508F682EE94E4C83AD10518
:101BC00009F497CF89EE94E4C93AD10509F491CF8D
:101BD0008AEE94E4CA3AD10509F48BCF85EB94E4FC
:101BE000CB3AD10509F485CF86EB94E4CC3AD10504
:101BF00009F47FCF83EB94E4CB3BD10509F479CF93
:101C000084EB94E4CC3BD10509F473CF87EB94E4E7
:101C1000CD3AD10509F46DCF8CEC94E4C03BD105ED
:101C200009F467CF8DEC94E4CE3AD10509F461CF85
:101C300083E895E4CF3AD10509F45BCF8AE895E4CF
:101C4000C13BD10509F455CF82E995E4C23BD105EA
:101C500009F44FCF84E995E4C33BD10509F449CF9A
:101C600081E296E4C43BD10509F443CF83E296E4D4
:101C7000C53BD10509F43DCF84E296E4C63BD105CE
:101C800009F437CF85E296E4C73BD10509F431CF9B
:101C900086E296E4C83BD10509F42BCF87E296E4AF
:101CA000C93BD10509F425CF8FE694E4CD3BD1059E
:101CB00009F41FCF80E794E4CE3BD10509F419CF96
:101CC00080E094E4CA3BD10509F013CF8AE296E4A0
:101CD00010CFC11530E5D30708F069C0C11540E445
:101CE000D40708F060C0DA95C115DF4108F401CFD0
:101CF00024CFC11536E5D30718F5C11545E5D4073E
:101D000008F087C0C11584E5D80708F07DC09C2F76
:101D100096959695AE0143705527C115D34508F4A5
:101D200067C021E030E002C0220F331F4A95E2F77E
:101D300040E2949FC0011124822B932B9A68D9CE44
:101D4000C1153AE5D30778F4C11549E5D40708F081
:101D50006AC0C11588E5D80708F4EFCE9C2F882704
:101D6000806F906AC6CECE0190568115904208F0E1
:101D7000E4CE8D2F8F710E94D10C90E0982F882790
:101D800088279F718C2B4DC081E890E4C53AD1051E
:101D900009F4AFCE82E890E4C63AD10509F4A9CEA1
:101DA00083E890E4A6CECE019F70906AA2CE9E01F9
:101DB000E4E036952795EA95E1F723708C2F869518
:101DC0008695837030E2839FC0011124922BC370EB
:101DD00021E030E002C0220F331FCA95E2F7822BC8
:101DE000932B9C6886CE9C2F8827816F906A81CE2A
:101DF00021E030E002C0220F331F4A95E2F740E2B3
:101E0000949FC0011124EBCF9C2F8827846F906A88
:101E100070CE8C2F0E94D10C90E0982F88278827B5
:101E20009F71906266CE8C2F8F700E94D10C34E02F
:101E3000D695C7953A95E1F7CF709C2F906959CE0A
:101E400089E390E056CE82EE90E053CE86EE90E0AD
:101E500050CEBF92CF92DF92EF92FF920F931F93DB
:101E6000CF93DF938C01C0903402D0903502E09084
:101E70003602F09037028091150290911602A091DF
:101E80001702B0911802C82AD92AEA2AFB2ACFE100
:101E9000D0E0BC2ED701C6010C2E04C0B695A79584
:101EA000979587950A94D2F780FD0EC0219788F701
:101EB000B12C8B2DDF91CF911F910F91FF90EF905F
:101EC000DF90CF90BF900895B8018C2F0E94140D21
:101ED000019761F3EECF82E00C94FF0AFC01808150
:101EE000813019F480E00C94220B80E00E94220BD8
:101EF00082E08093CE01089581E00C94FF0AFC01FA
:101F00008081813019F482E00C94220B80E00E94E1
:101F1000220B81E08093CE01089580E00C94FF0AAB
:101F2000FC018081813011F40C94220B8091CE0150
:101F3000FBCF10921402E8ECF1E086E0DF011D9285
:101F40008A95E9F70C94E70A1F93CF93DF93CDB7F7
:101F5000DEB7AA970FB6F894DEBF0FBECDBF8FE7EE
:101F600092E02091F100FC012193CF01F2E087384B
:101F70009F07B9F780918002833009F46FC0B8F4ED
:101F8000813009F446C0823009F4B0C08091E80085
:101F900083FF91C280917F02909180029A3008F075
:101FA0008AC2E92FF0E0E951F94D0C9487268A3076
:101FB00009F48BC08B3009F46EC0893039F78091F9
:101FC0007F02813219F780918302909184020297F7
:101FD000E8F68091E800877F8093E8008091E80030
:101FE00082FF37C09091F3008091F200029729F4AC
:101FF0008091F1008B7F813021F48091F1008093FA
:1020000072028091E8008B778093E8000E9452076B
:10201000BDCF80917F02813A09F0B8CF8091E8006E
:10202000877F8093E8008091830290918402892BBE
:1020300061F468E083E792E070E00E940408809118
:10204000E8008B778093E800A1CF60E090E080E02B
:10205000F3CF80917D028111C1CF98CF80917F0213
:10206000813A09F093CF8091830290918402892B69
:1020700009F08CCF8091E800877F8093E800809101
:10208000E80080FFFCCF809167018093F100809190
:10209000E8008E77B9CF80917F02813209F076CF48
:1020A0008091830290918402892B09F06FCF8091F7
:1020B000E800877F8093E8000E94520780918102A8
:1020C000809367010E94990F61CF80917F028132D6
:1020D00009F05CCF8091E800877F8093E8000E9440
:1020E0005207809182028093710250CF80917F02CB
:1020F000813A09F04BCF8091E800877F8093E80018
:102100008091E80080FFFCCF80917102BECF8038C3
:1021100099F0823809F0CFC1809183028F708730A7
:1021200008F0C9C18093E9008091EB0085FB882706
:1021300080F91092E90006C080917B0290917C02A8
:10214000911182609091E800977F9093E8008093CE
:10215000F1001092F1008091E8008E77A8C18823E9
:1021600009F496C1823009F0A6C1809181028111E3
:1021700099C1809183028F702FEF280F263008F0CD
:102180009AC18093E9002091EB0020FF8BC193302E
:1021900031F48091EB0080628093EB0083C19091D9
:1021A000EB0090619093EB0021E030E001C0220F42
:1021B0008A95EAF72093EA001092EA008091EB00FA
:1021C0008860EACF811177C1109181021F778091D9
:1021D000E3008078812B8093E3008091E800877F83
:1021E0008093E8000E9452078091E80080FFFCCFB6
:1021F0008091E30080688093E30082E0111183E026
:1022000080937D0258C18058823008F054C180917B
:102210008102909182028C3D23E09207A1F583E038
:102220008A838AE289834FB7F894DE01139620E00F
:102230003EE051E2E32FF0E050935700E49120FF9D
:1022400003C0E295EF703F5FEF708E2F90E0EA30B1
:10225000C0F0C7968D939D932F5F243159F74FBFE0
:102260008091E800877F8093E8006AE270E0CE0109
:1022700001960E9404088091E8008B778093E80023
:102280001AC1C096E7CF4091830250918402292F52
:1022900033272330310509F445C078F52130310565
:1022A00009F47BC08FE990E0E9E1F5E022303105E7
:1022B00009F001C12091E800277F2093E8002091D8
:1022C0008502309186028217930708F49C0140E052
:1022D0002115310509F070C041116EC08091E800F0
:1022E00082FDC9CF80917D02882329F2853019F2C1
:1022F0008091E80083FFF2CFBECF2132310509F48F
:1023000040C02232310509F0D6C04115510509F40B
:102310004EC04130510509F0CEC086E390E0E3EABB
:10232000F4E0C8CF992781309105D9F0009771F07A
:1023300082309105F1F0039709F0BDC0EAECF5E0B9
:10234000E4918E2F90E0EAECF5E007C0E6EFF5E0CF
:10235000E4918E2F90E0E6EFF5E0009709F4ABC032
:10236000A9CFE6EEF5E0E4918E2F90E0E6EEF5E001
:10237000F4CFE0EDF5E0E4918E2F90E0E0EDF5E0B4
:10238000ECCF4115510571F04130510509F093C072
:1023900089E090E0E4E4F5E08DCF82E190E0E8EBC5
:1023A000F5E088CF89E090E0EBE2F5E083CF80E4D0
:1023B00090E0E9EDF4E07ECF80917D02882309F47E
:1023C0005ACF853009F457CF8091E80083FD53CF71
:1023D0008091E80082FD82CF8091E80080FF78CF75
:1023E0009091F3008091F2002115310519F08830A9
:1023F000910550F041E0089709F040E08091E80035
:102400008E778093E80064CF44914093F100319639
:10241000215031090196E8CF803809F04CC08091F5
:10242000E800877F8093E80080917E028093F1002E
:1024300092CE811140C0109181021230E0F580915E
:10244000E800877F8093E80010937E020E94520785
:10245000112311F084E005C08091E30087FDFACFDD
:1024600081E080937D0242E061EC81E00E9471078F
:1024700042E261EC82E00E94710742E361E883E09E
:102480000E94710742E360E884E00E94710713C074
:1024900080918102813079F481E0933009F080E00D
:1024A00080937C021092E9008091E800877F8093FE
:1024B000E8000E9452078091E80083FF0AC08091E3
:1024C000E800877F8093E8008091EB008062809332
:1024D000EB00AA960FB6F894DEBF0FBECDBFDF911A
:1024E000CF911F910895CF93DF93682F81E06A30D9
:1024F00019F06D3029F480E0DF91CF910C94FE1239
:1025000080917D0590917E0526E0FC01A7E7B5E06E
:1025100001900D922A95E1F7613E08F456C026E03D
:10252000FC0111922A95E9F7C0917D05D0917E05B5
:1025300046E050E0BE0187E795E00E949626C75727
:10254000D3409E012A5F3F4F892B21F185E0D6952C
:10255000C7958A95E1F741E050E0CA0102C0880FB3
:10256000991FCA95E2F76091750370917603862BE7
:10257000972BB901E5E076956795EA95E1F702C0FA
:10258000440F551F6A95E2F7842B952B90937603A1
:102590008093750340917403642F70E0C9010E9419
:1025A0005F26481B463010F4240F311D211582E0B0
:1025B000380710F030E020E029583C4F30937E057A
:1025C00020937D05DF91CF910895F6E06F9FB001D4
:1025D000112466507A4F46E050E00E948D26A4CF29
:1025E000CF93DF93EC01FE018491811103C0DF9151
:1025F000CF9108950E9473122196F5CFCF93382F73
:10260000E0917D05F0917E05E757F340209174033A
:10261000622F70E0CF010E945F26281B822F332398
:1026200061F066E00E945326C82FC15010F4CF918C
:10263000089580E20E947312F8CF9F01280F311D88
:102640002115324018F080E0F0E0E0E08E0F9F2F7F
:10265000911D89589C4F90937E0580937D05E7CF0F
:10266000CF92DF92EF92FF920F931F93CF93DF935E
:102670006C017B0164E670E088E70E947025EC0144
:1026800097FD12C010E000E0F601E00FF11F849109
:1026900064E670E00E94CC25EC01892B29F40F5FE1
:1026A0001F4F0E151F0581F70E944F26CE01DF91A7
:1026B000CF911F910F91FF90EF90DF90CF900895F1
:1026C0002FB7F89480915A0290915B02A0915C021E
:1026D000B0915D022FBF805A9541AF4FBF4F80939D
:1026E0005E0290935F02A0936002B09361028091BA
:1026F0006202811108C062E070E08CEA90E00E9402
:102700003013892B19F080916202089581E0809343
:102710006202F9CFCF9384E090E00E94A326C82FF5
:1027200081E290E00E94A326982F8C2FCF910895EC
:10273000CF93DF9300D00F92CDB7DEB79C0190917D
:102740007D02943019F599833B832A8382E080933C
:10275000E9008FEF9091E800815095FD06C095ED5E
:102760009A95F1F700008111F5CF8091E80085FF7F
:102770000DC050E040E063E070E0CE0101960E94A1
:1027800028078091E8008E778093E8000F900F90E3
:102790000F90DF91CF910895CF93DF9300D00F92E8
:1027A000CDB7DEB720917D02243031F523E02983B7
:1027B000805891099B838A8382E08093E9008FEFA0
:1027C0009091E800815095FD06C095ED9A95F1F73E
:1027D00000008111F5CF8091E80085FF0DC050E029
:1027E00040E063E070E0CE0101960E9428078091EE
:1027F000E8008E778093E8000F900F900F90DF91A4
:10280000CF910895CF93DF93EC0180917D028430C6
:1028100039F581E08093E9008FEF9091E8008150D5
:1028200095FD06C095ED9A95F1F700008111F5CF61
:102830008091E80085FF14C050E040E068E070E05F
:10284000CE010E9428078091E8008E778093E800EF
:1028500088E0FE01A3E7B2E001900D928A95E1F7CE
:10286000DF91CF91089581E08093E00080E2809332
:10287000D8001092C9008FE19EE40197F1F700C0E3
:10288000000087E090EBDC0180937F05909380054A
:10289000A0938105B093820588E19CE00FB6F8947F
:1028A000A895809360000FBE90936000FFCFCF93F8
:1028B000C82F0E94800BC93349F42FEF87EE93E0B5
:1028C000215080409040E1F700C000008C2FCF9154
:1028D0000C944D0B6CEE7EEF90E080E00E94CF26D2
:1028E00060E082E090E00E94B12660E083E090E04A
:1028F0000E94B12610921502109216021092170231
:102900001092180260E084E090E00E94B12660E03E
:1029100081E290E00E94B12660E085E090E00E94B4
:10292000B12660E086E090E00E94B1266FEF87E07C
:1029300090E00E94B12640E050E0BA0188E090E0CB
:102940000E94C32660E08DE090E00E94B12640E046
:1029500050E0BA0188E190E00E94C32660E087E180
:1029600090E00E94B12640E050E0BA018CE190E096
:102970000E94C32660E080E290E00E94B12640E021
:1029800050E0BA018FE090E00E94C32640E050E0A2
:10299000BA0183E190E00C94C3261F920F920FB608
:1029A0000F9211242F933F934F935F936F937F93D5
:1029B0008F939F93AF93BF93CF93DF93EF93FF9347
:1029C000D091E900DF708091EC00C82FC17080FDCC
:1029D000C0E81092E9008091F000877F8093F000BA
:1029E00078940E94A40F1092E9008091F000886012
:1029F0008093F000CD2BCF70C093E900FF91EF9151
:102A0000DF91CF91BF91AF919F918F917F916F9106
:102A10005F914F913F912F910F900FBE0F901F909C
:102A200018951F920F920FB60F9211242F933F9378
:102A30004F935F936F937F938F939F93AF93BF93C6
:102A4000EF93FF938091E10082FF09C08091E20043
:102A500082FF05C08091E1008B7F8093E10080912F
:102A6000DA0080FF24C08091D80080FF20C08091D0
:102A7000DA008E7F8093DA008091D90080FF9FC0BA
:102A800080E189BD82E189BD09B400FEFDCF81E00E
:102A900080937D0280917002811109C00E94D80646
:102AA0000E94A3078091E20084608093E2008091FD
:102AB000E10080FF17C08091E20080FF13C0809189
:102AC000E2008E7F8093E2008091E200806180933B
:102AD000E2008091D80080628093D80019BC85E024
:102AE00080937D028091E10084FF2DC08091E200FF
:102AF00084FF29C080E189BD82E189BD89B5982F15
:102B0000917080FFFBCF8091D8008F7D8093D8009B
:102B10008091E1008F7E8093E1008091E2008F7EC2
:102B20008093E2008091E20081608093E2008091D6
:102B30007E02882309F449C084E080937D020E94CC
:102B4000990F0E94450C8091E10083FF27C080917E
:102B5000E20083FF23C08091E100877F8093E10042
:102B600082E080937D0210927E028091E1008E7F50
:102B70008093E1008091E2008E7F8093E20080915B
:102B8000E20080618093E20042E060E080E00E9429
:102B900071078091F00088608093F000FF91EF91C1
:102BA000BF91AF919F918F917F916F915F914F9165
:102BB0003F912F910F900FBE0F901F90189519BC49
:102BC00010927D021092700272CF8091E30087FD17
:102BD00093E090937D02B3CF78941F921FB61F921B
:102BE00011248F939F93AF93BF9380915A0290913A
:102BF0005B02A0915C02B0915D020196A11DB11D26
:102C000080935A0290935B02A0935C02B0935D02A2
:102C1000BF91AF919F918F911F901FBE1F901895EC
:102C20002FB7F89480915A0290915B02A0915C02B8
:102C3000B0915D022FBF08958F929F92AF92BF9285
:102C4000CF92DF92EF92FF920F931F93CF93DF9378
:102C5000CDB7DEB7A3970FB6F894DEBF0FBECDBFDA
:102C60006C01DC0113968D919C911497892B49F08E
:102C70001C911196FC90812F8F218F3F11F00C94A5
:102C8000AE1EA3960FB6F894DEBF0FBECDBFDF9188
:102C9000CF911F910F91FF90EF90DF90CF90BF9059
:102CA000AF909F908F9008950E94290F082F682F52
:102CB00089819A810E94690AE12FF0E0BFE0FB9EC2
:102CC000E00DF11D11242BE4029FE00DF11D1124F4
:102CD000EE0FFF1FE255FF4FE590F490D6011296DC
:102CE0008C9181110EC2F6018281FFE1EF16F10491
:102CF00009F46FC308F09EC030E1E316F10409F453
:102D000040C308F04EC0A9E0EA16F10409F425C357
:102D100050F5E6E0EE16F10409F417C3B8F424E028
:102D2000E216F10409F405C335E0E316F10409F4F1
:102D300007C3F6E2EF16FCE5FF0609F0DBC38823C4
:102D400009F46AC181E08093DC019BCF97E0E9162A
:102D5000F10409F4FEC2A8E0EA16F10451F795E483
:102D60008111EBC259C1BCE0EB16F10409F4FDC2BC
:102D700068F4FAE0EF16F10409F4F3C22BE0E2166E
:102D8000F104B9F698E48111D8C246C13EE0E316D9
:102D9000F10409F4F2C208F4ECC29CE48111CDC242
:102DA0003BC1A7E1EA16F10409F4FFC2F8F4E3E13C
:102DB000EE16F10409F4EDC270F421E1E216F1041B
:102DC00009F4E3C232E1E316F10409F0B2CF9FE463
:102DD0008111B3C221C195E1E916F10409F4E1C200
:102DE00008F4DBC293E58111A8C216C1BAE1EB1663
:102DF000F10409F4E2C270F4F8E1EF16F10409F409
:102E0000D8C229E1E216F10409F093CF96E58111C9
:102E100094C202C13CE1E316F10409F4D6C208F4FD
:102E2000D0C2ADE1EA16F10409F083CF9AE5811131
:102E300084C2F2C0B4E1EB16BDE5FB0609F40BC297
:102E400008F078C0FDE0EF16FDE5FF0609F4BEC10D
:102E5000E8F53AE0E3163DE5F30609F49BC1E0F43A
:102E6000A8E0EA16ADE5FA0609F486C1B9E0EB166A
:102E7000BDE5FB0609F05DCF882309F402CF82E0AF
:102E80008093000187E58093320280E380934701BD
:102E900082E380934801F5CEEBE0EE16EDE5FE0609
:102EA00009F486C1FCE0EF16FDE5FF0609F041CF0D
:102EB000882309F4E6CE85E08093000184E58093C1
:102EC000320280E38093470185E3E3CF20E1E216FD
:102ED0002DE5F20609F496C1D0F49EE0E9169DE5D1
:102EE000F90609F481C1AFE0EA16ADE5FA0609F08A
:102EF00020CF882309F4C5CE88E08093000189E4BF
:102F00008093320280E38093470188E3C2CFB2E12D
:102F1000EB16BDE5FB0609F491C108F481C18823D5
:102F200009F4AFCE8CE08093000183E580933202F8
:102F300081E3ACCFFBE1EF16FDE5FF0609F4C2C16A
:102F400088F537E1E3163DE5F30609F49AC1B8F4D4
:102F5000A5E1EA16ADE5FA0609F488C1B6E1EB167B
:102F6000BDE5FB0609F0E5CE882309F48ACE8FE0A3
:102F70008093000187E48093320281E3A3CFE9E1EB
:102F8000EE16EDE5FE0609F492C108F485C188232A
:102F900009F477CE83E1809300018CE480933202C0
:102FA00081E33AC12EE1E2162DE5F20609F4A0C153
:102FB000B8F49CE1E9169DE5F90609F48EC1ADE18E
:102FC000EA16ADE5FA0609F0B4CE882309F459CE25
:102FD00086E18093000183E48093320282E338C16A
:102FE000B0E2EB16BDE5FB0609F498C108F48BC10D
:102FF000F1E2EF16FDE5FF0609F09BCE882361F0B4
:103000009AE1909300019DE49093320292E39093B1
:10301000470196E3909348019091DC019111BEC263
:103020009091DB019111BAC2C70197558F3F91056D
:1030300009F008F474C3D60112968C91882309F420
:10304000A2C6B2E0EB16BCE5FB0608F4ACC4E6E1B0
:10305000EE16ECE5FE0638F097012A5F3C45293074
:10306000310508F0A0C40E948A1390932502809332
:103070002402F0E1EF16FCE5FF0609F463C408F052
:10308000E5C338E0E3163CE5F30609F44DC408F067
:10309000AEC394E0E9169CE5F90609F43DC408F0D6
:1030A00090C3B2E0EB16BCE5FB0609F42FC4809197
:1030B00024028260E3E0EE16ECE5FE0609F429C482
:1030C000609124021091250284E090E00E94B126D4
:1030D000612F81E290E00E94B126A3960FB6F8948A
:1030E000DEBF0FBECDBFDF91CF911F910F91FF903B
:1030F000EF90DF90CF90BF90AF909F908F900C9407
:10310000990F809146018F3F09F4EDCD04E011E065
:10311000B12CA12C9924939480914601082E000C87
:10312000990B8A159B050CF4DECDD80116968C916F
:1031300016978823D9F019968D919C918E159F052D
:1031400039F48091DD019091DE018E159F0571F0BB
:10315000F8019786F486E3868189811103C0C8014E
:103160000E94510CC80106960E94720CFFEFAF1A24
:10317000BF0A0A5E1F4FD0CF882309F482CD81E0B9
:103180008093000181E58093320280E380934701C0
:1031900081E37FCE882309F474CD83E0809300011E
:1031A00085E48093320280E38093470183E371CE0C
:1031B000882309F466CD84E08093000182E5809342
:1031C000320280E38093470184E363CE882309F4CD
:1031D00058CD86E08093000189E58093320280E338
:1031E0008093470186E355CE882309F44ACD87E0D2
:1031F0008093000185E58093320280E3809347014C
:1032000087E347CE882309F43CCD89E08093000111
:103210008FE48093320280E38093470189E339CEC3
:10322000882309F42ECD8AE08093000180E5809305
:10323000320281E38093470180E32BCE882309F497
:1032400020CD8BE08093000181E48093320281E302
:10325000809347011ECE882309F413CD8DE080931F
:10326000000184E48093320281E39ECF882309F435
:1032700008CD8EE08093000186E48093320281E3E2
:10328000A1CF882309F4FDCC80E18093000188E47C
:103290008093320281E3A4CF882309F4F2CC81E148
:1032A000809300018AE48093320281E3A7CF8823D0
:1032B00009F4E7CC82E1809300018BE48093320231
:1032C00081E321CE882309F4DCCC84E180930001E2
:1032D0008AE58093320282E3ADCF882309F4D1CC12
:1032E00085E18093000188E58093320282E34ECF2E
:1032F000882309F4C6CC87E18093000186E580939A
:10330000320282E351CF882309F4BBCC88E1809359
:10331000000182E48093320282E354CF882309F4CF
:10332000B0CC89E1809300018EE48093320282E385
:10333000C9CD91E4882309F46FCE909333026CCE0B
:10334000882309F469CE92E4F8CF93E48111F5CF94
:1033500063CE94E48111F1CF5FCE96E48111EDCF7D
:103360005BCE97E48111E9CF57CE99E48111E5CF87
:1033700053CE9AE48111E1CF4FCE9BE48111DDCF92
:103380004BCE9DE48111D9CF47CE9EE48111D5CF9C
:1033900043CE90E58111D1CF3FCE91E58111CDCFC4
:1033A0003BCE92E58111C9CF37CE94E58111C5CFCF
:1033B00033CE95E58111C1CF2FCE97E58111BDCFD9
:1033C0002BCE98E58111B9CF27CE99E58111B5CFE4
:1033D00023CE882309F420CE8091140281FF22C0DD
:1033E00082E00E94A00A8FE10E94800B809114026B
:1033F00081FF69C08FE10E944D0B82E0A3960FB65A
:10340000F894DEBF0FBECDBFDF91CF911F910F911A
:10341000FF90EF90DF90CF90BF90AF909F908F90F4
:103420000C94950A85FFDFCF80E20E94230A50EFBB
:10343000E52E53E0F52EF70124912223B9F28701FE
:103440000F5F1F4F213049F4F801F4908F2D0E9437
:10345000800B8F2D0E944D0B06C0223049F4F801DD
:1034600084910E94800B7801FFEFEF1AFF0AE3CFEF
:10347000233019F4F8018491EDCF30E0F901E059DF
:10348000FC4FD490F901E051FD4F0491F901E0594E
:10349000FD4F1491002319F081EE0E94800B11233F
:1034A00019F086EE0E94800B8D2D0E945714112377
:1034B00019F086EE0E944D0B002319F081EE0E9458
:1034C0004D0B8701D0CF85FDDCCB8FE1A3960FB6E6
:1034D000F894DEBF0FBECDBFDF91CF911F910F914A
:1034E000FF90EF90DF90CF90BF90AF909F908F9024
:1034F0000C944D0B27E2E2162CE5F20641F48823EA
:1035000009F48ACD0E94CB0C1092DC01BACB38E2D0
:10351000E3163CE5F30641F49091DC01882309F4BD
:103520007BCD9111EFCF0ECC9CE2E9169CE5F9061C
:1035300039F4882309F470CD81E08093DB01A1CBBD
:10354000ADE2EA16ACE5FA0641F4882309F464CD4D
:103550000E94BC0C1092DB0194CBBEE2EB16BCE5E2
:10356000FB0641F4882309F457CD8091DB018111DA
:10357000EFCFE2CFE9E2EE16ECE5FE0609F04CCD26
:10358000882309F449CD0E94CB0C8091010190E081
:103590000196837099278093010173CB882309F4E6
:1035A00041C0F0EEEF16F10451F40E94CB0C81E023
:1035B0008093DA011092D9011092D80162CB22EEE9
:1035C000E216F10461F40E94CB0C8091DA018823A9
:1035D00019F081E08093D9011092DA0152CB33EED9
:1035E000E316F10439F49091D9019923D9F00E949E
:1035F000CB0CF2CF92E5E916F10451F4809102016F
:10360000909103010A97909303018093020139CBB3
:10361000A1E5EA16F10431F48091020190910301D1
:103620000A96F1CF9091010191110DC0F60191819F
:1036300045E050E0491B51092081205FFCE04F9F8D
:10364000200D112411C0913089F5D60111969C915D
:10365000119745E050E0491B5109242F220F220FFA
:10366000240F9C919D5C290F9091DB01882309F424
:1036700047C0992361F02F77E0918702F09188028B
:103680000FE740E963E070E087E892E009958091F8
:10369000DA01882329F08091D8018F5F8093D801C7
:1036A000EFEFEE16F10408F0BFCCEBCA923051F404
:1036B000F601918145E050E0491B510920812D5CC4
:1036C000F7E0BDCF2CE0933079F693E2E8E6F1E045
:1036D000DE01119601900D929A95E1F7D601EC91D9
:1036E000EC0FFD2FF11D11969C9145E050E0491B18
:1036F00051092085BCE04B9F200D1124275FB4CFDA
:10370000992371F22F77E0918702F091880200E00F
:1037100040E863E070E087E892E00995C1CF20912E
:103720004601022E000C330B2817390714F480933E
:103730004601D60112962C91129736E1389F50011E
:10374000399FB00C112485010C5F1E4FF801208BAE
:1037500012969C918681992339F1F286E1868F5FDA
:1037600086830E941016D8011E969C938E931D97F7
:1037700017961C9217978091130290911402892B2F
:1037800018968C931897ED91FC911197309739F01A
:1037900054966D917C91C501865F9E4F0995F0927C
:1037A000DE01E092DD0147CC882309F444CC818915
:1037B000882309F440CCC501865F9E4F0E94720C9D
:1037C0003ACC809124028061F6E0EF16FCE5FF061A
:1037D00009F49FC080912402886027E0E2162CE55E
:1037E000F20608F496C080912402806292C0809113
:1037F00024028D7F3CE0E3163CE5F30609F489C022
:1038000078F4809124028C609AE0E9169CE5F90630
:1038100009F47FC008F48CC0809124028E7F79C0A7
:1038200080912402877FBEE0EB16BCE5FB0609F41D
:1038300070C0809124028B7FEFE0EE16ECE5FE066F
:1038400008F467C0809124028F7E63C0FBEFEF16FF
:10385000FCE5FF0609F464C068F533E1E3163CE5D6
:10386000F30609F477C090F491E1E9169CE5F906B6
:1038700009F46CC0A2E1EA16ACE5FA0609F020CC26
:103880000E94990F809124028F7743C0B5E1EB1617
:10389000BCE5FB0609F466C008F47AC080912502F5
:1038A0008160FAEFEF16FCE5FF0609F009CC809382
:1038B000250206CC2FEFE2162CE5F20609F44EC0E5
:1038C00088F48DEFE8168CE5F806C1F180912502A9
:1038D0008E7F9EEFE9169CE5F90648F3809125025C
:1038E0008360E5CFA1E0EA16ADE5FA0609F459C018
:1038F00008F444C060E0E2E0EE16EDE5FE0609F0F3
:10390000DFCB8EE090E00E94B126DACB80912402DA
:10391000816080932402D4CB809124028460F9CF0B
:10392000809125028260C3CF809124028064F1CF10
:103930000E94990F809124028068EBCF809125022C
:103940008D7FB5CF809124028F7DE3CF80912402BB
:103950008F7BDFCF80912402837FDBCF8091250294
:103960008C7FA5CF8091240282FB992790F921E0DA
:10397000922790FB82F990FB83F9CBCF80912502AF
:10398000982F909591708E7F892B90FB81F98FCF26
:103990000E94990F90912402892F97FB87F98058F4
:1039A000B8CF61E0AECFE114FCE5FF0671F12EED7A
:1039B000E2162CE5F206C1F1A6E1EA16ACE5FA063C
:1039C00009F048C0809114028A7A91E009F490E0ED
:1039D0009093DF0169E2811165E386EC91E00E943A
:1039E000BC09A3960FB6F894DEBF0FBECDBFDF9122
:1039F000CF911F910F91FF90EF90DF90CF90BF90EC
:103A0000AF909F908F900C942A0A0E94990F0E9469
:103A1000BC0C3FEF84E39CE0315080409040E1F7E4
:103A200000C000000E943314A3960FB6F894DEBFC6
:103A30000FBECDBFDF91CF911F910F91FF90EF90FF
:103A4000DF90CF90BF90AF909F908F900C946A14AE
:103A500085E3A4C1F601008111818823B9F1C80171
:103A60000E94290FF82E682FC8010E94690AB80128
:103A70008F2D0E94140D082FE82ED60112968C91DE
:103A8000811110921302192F12951F70143009F42E
:103A90006EC008F5123080F1E12FE850FF0B32972D
:103AA00008F0EFC8A3960FB6F894DEBF0FBECDBFE7
:103AB000DF91CF911F910F91FF90EF90DF90CF900A
:103AC000BF90AF909F908F900C94450CC8010E94BE
:103AD000410AF82ECCCF183009F465C01930E1F650
:103AE0009F70F92E882309F432C1892F0E94220B7E
:103AF000802F0E94B10AD0CFB92FBF70FB2E907FCC
:103B000019F0F29440EFF4228823C9F0FF2069F005
:103B100080E2800F883010F0E1100BC08091140219
:103B2000F82AF09214020E942A0A802F0E94800B29
:103B3000B3CF80911302F82AF0921302F4CF802FB2
:103B40000E944D0BFF2009F4A7CF005E083010F053
:103B5000E11006C08F2D0E94230A0E942A0A9CCFE2
:103B6000F09480911302F822F0921302F6CF292FDD
:103B700026952695237051F0213009F08DCF8823AA
:103B800079F0802F93700E94BB0A86CF882329F09A
:103B9000802F93700E94D10A7FCF90E080E0FACF0F
:103BA00090E080E0F0CF292F237009F065C08111EB
:103BB00073CF802F829586958770880F880F402F4E
:103BC0004F7050E070E060E0082E04C0440F551FB5
:103BD000661F771F0A94D2F7C12CD12C760104FFFF
:103BE00010C03FE0C32ED12CE12CF12C04C0CC0C32
:103BF000DD1CEE1CFF1C8A95D2F7C094D094E09493
:103C0000F094969596959370923019F1D8F480902F
:103C1000150290901602A0901702B09018029130F1
:103C200069F04C295D296E297F29CB01BA016821F1
:103C300079218A219B210E94430B2ECF48295929A3
:103C40006A297B29CB01BA016C297D298E299F29FC
:103C5000F2CF4C295D296E297F29C0901502D090A2
:103C60001602E0901702F0901802CB01BA016C2501
:103C70007D258E259F25DFCF2695882311F0292FBE
:103C80002170222309F408CF802F829586958770B2
:103C9000880F880F402F4F7050E070E060E0082ED2
:103CA00004C0440F551F661F771F0A94D2F7C12C1A
:103CB000D12C760104FF10C02FE0C22ED12CE12CB4
:103CC000F12C04C0CC0CDD1CEE1CFF1C8A95D2F735
:103CD000C094D094E094F094969596959370923019
:103CE00019F1D8F48090340290903502A0903602F9
:103CF000B0903702913069F04C295D296E297F29F7
:103D0000CB01BA01682179218A219B210E94F50A01
:103D1000C3CE482959296A297B29CB01BA016C29CC
:103D20007D298E299F29F2CF4C295D296E297F2973
:103D3000C0903402D0903502E0903602F090370205
:103D4000CB01BA016C257D258E259F25DFCF802FE5
:103D50000E94AA0A8F2D0E94FF0A9ECE85E0F601DE
:103D6000DE01119601900D928A95E1F7D601129627
:103D70002C9189819A8121110C9454160E94410A38
:103D8000082F0C945C16B6E1EB16BCE5FB0609F0B7
:103D900061CE8091DF0181115BCE89E2E8ECF1E038
:103DA0002EEC31E09191891303C0DF0111971C9231
:103DB0002E173F07B9F715CE2F923F924F925F9281
:103DC0006F927F928F929F92AF92BF92CF92DF922B
:103DD000EF92FF920F931F93CF93DF9300D00F9238
:103DE000CDB7DEB78AE192E06AEA71E0B4E24B2E29
:103DF000B2E05B2E212CEE24E394F12CDC016D90DB
:103E00007D90CD01FD0112921292FB83EA83DB01CA
:103E10002D91BD01E22FE295EF70F0E031A12F70FE
:103E2000570101C0AA0C2A95EAF7232F2A2921A3BA
:103E300022A13A2C3094232122A3B0EABA95F1F7BB
:103E4000AFEACA2EA1E0DA2E30E020E0D6014D9193
:103E50006D01498342954F7050E0DA0190964C9184
:103E6000AA81BB818D909C9050E0B981BF7002C047
:103E700055954795BA95E2F740FD64C0A701022E1B
:103E800002C0440F551F0A94E2F748295929AA8114
:103E9000BB8111965C934E932F5F3F4F2F303105BE
:103EA000A9F621A1322231A222A1A22AA2A221E0B6
:103EB0004D915C914615570509F420E0222A4816D9
:103EC000590609F09BCF222009F43FC081E080937E
:103ED000D1010E9410169093D0018093CF01809160
:103EE000CF019091D0010E949209069790F18091A4
:103EF0001A0290911B0290932902809328028091CC
:103F00001C0290911D0290932B0280932A028091B3
:103F10001E0290911F0290932D0280932C0280919B
:103F200020029091210290932F0280932E02809183
:103F300022029091230290933102809330021092DA
:103F4000D10107C050E040E0A0CF8091D1018111A4
:103F5000C6CF809146018F3F79F0198256E1D52E68
:103F6000E9812E2F30E080914601082E000C990B3C
:103F7000821793070CF079C0E0911902EE0FEE0F53
:103F8000E093190283B190E0880F892F881F990B65
:103F900029B122FB002700F922FF02C002E010E055
:103FA000082BE02BE0931902EF70F0E0E557FE4F8D
:103FB00080819091D301890F8093D3018430C4F024
:103FC0008091D2018F5F8093D20160913402709111
:103FD000350280913602909137020E94D6098130D5
:103FE00009F480C0882309F479C0823009F47CC0C8
:103FF0008091D3018D3FC4F48091D2018150809390
:10400000D201609134027091350280913602909114
:1040100037020E94D609813009F479C0882309F457
:1040200072C0823009F475C08091D301837887FF14
:1040300003C081508C6F8F5F8093D301822D0F90CE
:104040000F900F90DF91CF911F910F91FF90EF9004
:10405000DF90CF90BF90AF909F908F907F906F90A8
:104060005F904F903F902F900895D29EF001D39E85
:10407000F00D1124EC5FFE4FA288B388A114B104A7
:1040800019F448ECA42EB12CD29EC001D39E900D01
:104090001124FC01EC5FFE4F7F0186818823D1F063
:1040A000858596850E949209A816B90698F4F9812B
:1040B000FD9D50011124D70151968C91811105C0AD
:1040C000C5018C5F9E4F0E94510CC501865F9E4FBB
:1040D0000E94720CB981BF5FB98342CF89EA0E9406
:1040E000571486CF8DEBFBCF209100012F77E09105
:1040F0008702F091880201E440EB63E070E087E81A
:1041000092E0099575CF8AEA0E9457148DCF8EEB05
:10411000FBCF209100012F77E0918702F091880278
:104120000FE340EB63E070E087E892E009957CCF15
:10413000CDB7DEB729970FB6F894DEBF0FBECDBF5F
:104140001092AC021092AE021092AD0280EC8093FD
:1041500071038FEA92E0909373038093720310923D
:10416000700310926F0310928C0210928B021092C7
:104170008E0210928D021092900210928F02109275
:104180009202109291021092940210929302109255
:104190009602109295021092980210929702109235
:1041A0009A021092990210929C0210929B02109215
:1041B0009E0210929D021092A00210929F021092F5
:1041C000A2021092A1021092A6021092A5028BE800
:1041D00098E0909388028093870286EE98E090930F
:1041E000A8028093A70282E698E09093A4028093AD
:1041F000A30283E698E090938A028093890284B7B1
:10420000877F84BF0FB6F894A8958091600088617D
:1042100080936000109260000FBE80E890E00FB6BF
:10422000F89480936100909361000FBE85B7806819
:1042300085BF85B7806885BF0E94D8060E94A30706
:104240008091E20084608093E200789480917D0206
:104250008823A1F01091E9001F709091EC00892F44
:10426000817090FD80E8182B1092E9008091E800A1
:1042700083FD0E94A40F1F701093E90082E084BDAB
:1042800093E095BD9AEF97BD80936E00AAEAB1E0E6
:104290004FEA51E061E070E08D91E82FE295EF7018
:1042A000F0E011A18F709B0101C0220F8A95EAF7FF
:1042B000922F9095912391A382A1822B82A34A17DA
:1042C0005B0751F7AFEAB1E04EEB51E061E070E01F
:1042D0008D91E82FE295EF70F0E011A18F709B01B6
:1042E00001C0220F8A95EAF7922F9095912391A30E
:1042F00082A1822B82A34A175B0751F710921B02FF
:1043000010921A02109229021092280210921D0295
:1043100010921C0210922B0210922A0210921F027D
:1043200010921E0210922D0210922C021092210265
:104330001092200210922F0210922E02109223024D
:104340001092220210923102109230020E94DC1E62
:104350008FE39CE90197F1F700C000000E94DC1E8A
:104360008091280280FF08C06FEF7FEF90E080E02F
:104370000E94CF260E94331490E080E00E94AB267A
:104380008C3E9E4F11F00E946A1427982F9A5298E3
:104390005A9A83B190E0880F892F881F990B4A9908
:1043A00004C120E0822B809319021092580280E809
:1043B000809374030E946A256DE070E082E194E0CE
:1043C0000E943013892B09F046C08091580263E0A7
:1043D00070E081FDECC08FE094E00E943013892BE7
:1043E000D1F56DE070E08FEF93E00E943013892BE0
:1043F00091F52FB7F89480915A0290915B02A091A9
:104400005C02B0915D022FBF805A9541AF4FBF4F04
:1044100080935E0290935F02A0936002B09361026A
:10442000E7E7F3E080E092E0DF019C011D9221507C
:104430003040E1F7F0937E05E0937D058FEF9FEF2D
:10444000909376038093750381E080936302809359
:1044500062021092590290E080E00E94AB268C3EEE
:104460009E4F11F00E946A1482E090E00E94A32601
:10447000809365020E948A13909325028093240200
:1044800083E090E00E94A326682F70E090E080E037
:104490000E94430B8DE591E09093270280932602C2
:1044A00044244394512CEE24E394F12CA4E0AA2E4E
:1044B0000E94DC1EB82EA8E2B2E0E6E6F2E010E0D0
:1044C00000E0302E6D907D90819191918615970539
:1044D00009F478C0D12CC12C8625972542010C2CDB
:1044E00002C0880C991C0A94E2F79C01282139210A
:1044F000232B09F45FC00E941016C9823A826820FB
:10450000792021E0672809F420E02B8381609D83D6
:104510008C83CE0101960E941C16000F111FF8011A
:10452000EA59FD4F80819181882699269182808267
:1045300080916302882309F426C187E793E0909372
:104540007E0580937D0582E694E00E94F0120E9431
:10455000450C182F6091340270913502809136021B
:10456000909137020E94D609823008F43FC0823011
:1045700009F454C060913402709135028091360282
:10458000909137020E94D609813009F44AC18823EC
:1045900009F46BC0823009F447C18FE194E00E94B6
:1045A000F01281E00E94FE1264C022E0FBCE8CE09B
:1045B00094E013CF2FEFC21AD20A3FE0C316D10402
:1045C00009F08CCF0F5F1F4F0530110509F079CF2F
:1045D0000E9410162FEF29832A831B8281609D83FE
:1045E0008C83CE0101960E941C16A2CF8FE494E02A
:1045F00011FF02C086E594E00E94F0128DE594E080
:104600000E94F01280913302811101C08AE20E945F
:1046100073128AE494E00E94F012ACCF86E494E036
:104620000E94F012E7E4F1E001900020E9F78F0129
:1046300001501109E7E4CE2EE1E0DE2EC016D106CE
:1046400070F080E494E00E94F012809132028111B7
:1046500001C08AE20E9473128BE394E0DCCFD601A2
:104660008D916D010E947312E9CF84E394E00E9462
:10467000F01220917503309176032115310509F46C
:1046800057C080915902811153C0082F10E0620178
:10469000082E02C0CC0CDD1C0A94E2F7A6014223CE
:1046A0005323452B09F4C3C09091580290FDC1C01B
:1046B0008295880F807680934C01980136952795D6
:1046C0003695279520934F01815E80934D0110927E
:1046D000500124E630E047E050E06AE471E088E70A
:1046E0000E94FB25892B21F5A80165E0440F551F89
:1046F0006A95E1F78091580280FDA9C049585C4F46
:1047000004E610E020E230E060E488E70E94222620
:10471000892B71F40E946013C094D094809175032A
:1047200090917603C822D922D0927603C092750365
:1047300080916202882339F140915E0250915F02BC
:1047400060916002709161022FB7F89480915A02D3
:1047500090915B02A0915C02B0915D022FBF841B1F
:10476000950BA60BB70BB7FD0EC080916202882394
:1047700051F062E070E081EA94E00E943013892BEE
:1047800011F410926202B1100E946013E091A7022E
:10479000F091A802309719F087E892E009959FB749
:1047A000F8940091700380916F03081708F4B4C067
:1047B000081B9FBFD12CC12C10E088248394C01605
:1047C000D10608F4ADC00E94450C9091640289178F
:1047D00021F00E94450C8093640280917D02843018
:1047E00009F066CE809152018F708093E90090911C
:1047F000E80090FF5BCE90917D02943009F056CE98
:104800008093E9009091F3008091F200892B09F4E4
:104810004DCE8091E8008E778093E8000E94F706E5
:1048200045CE8DE294E023CF86E294E020CF8F5FE7
:104830002CCF880F880F880F80934C0110924F0166
:10484000895F80934D0183E08093500142CF80E2E5
:10485000E8E3F2E011928A95E9F722EC31E039873A
:1048600028870EEB11E037E0832EA885B9856D917E
:10487000B987A887F80181918F01840F952F911D29
:104880009C0129583C4F3F832E83E62FF0E0E85CE3
:10489000FD4F30E020E0682C621A942C022E01C0FB
:1048A000990C0A94EAF72E803F8090E0D1018D9117
:1048B0001D018921662D691B6770762E062E000C5E
:1048C000770BB82F01C0BB0F7A94EAF77B2E719556
:1048D000619571096770772701C086956A95EAF737
:1048E000782A8081782A70829F5F9830F9F62F5F4E
:1048F0003F4F31962830310571F6E6ECF1E028851E
:104900003985E217F30709F0B0CF04E610E020E2A2
:1049100030E048E352E0F8CE20917103020F48CF17
:1049200080916F0390E06091710370E00E947326A4
:104930002091720330917303280F391FD901BC9065
:104940009090AC02B7EFBB15E8F48092AC0220E087
:1049500040E06B2D81E090E00E94E6059092AC0271
:104960002FB7F89480916F0390E0019660917103E6
:1049700070E00E94732680936F032FBF8FEFC81AD9
:10498000D80A1DCFB7FE53C0E4E09E1631F0B092B6
:10499000A902F092AE02E092AD028B2D0E9468084F
:1049A000813069F08823D1F08230A9F0833099F00A
:1049B0001092AC021092AE021092AD02D1CF809351
:1049C000AC0220E040E06B2D81E090E00E94E60523
:1049D0001092AC02C5CF8093AC02C2CFF0EFBF16ED
:1049E000E9F027EFB212E4CF2091AD023091AE0290
:1049F000C90163E070E00E945F26FC01E957FD4FAA
:104A0000B2A2C90101969093AE028093AD022091AB
:104A1000AB024091AA026091A902D8CFA092AC0249
:104A2000B092A902F092AE02E092AD0299CF992025
:104A300009F496CF2091AD023091AE02C90163E036
:104A400070E00E945F26AC01FC01E957FD4FB2A265
:104A5000C90101969093AE028093AD024130510599
:104A600089F04230510509F07BCF2091AB02409193
:104A7000AA026091A9020E94E6058091AC028430EE
:104A800089F66ECF32E020E093126ACFF0CF1F920A
:104A90001FB61F9211248F939F93AF93BF93809162
:104AA0005A0290915B02A0915C02B0915D02419626
:104AB000A11DB11D80935A0290935B02A0935C02EA
:104AC000B0935D02BF91AF919F918F911F901FBED8
:104AD0001F9018951092B9008CE08093B80008954B
:104AE000EF92FF920F931F93CF93DF93182FEB0159
:104AF0001092BC0084EA8093BC000E9410167C01D6
:104B00008091BC0087FF27C08091B900887F8830E2
:104B100029F08091B900887F8031D9F51093BB00CE
:104B200084E88093BC000E9410168C018091BC0028
:104B300087FF24C02091B900287F90E080E02831D1
:104B4000B1F081E090E0203411F490E080E09195A4
:104B5000819591090CC0CF3FDC0791F20E9410169D
:104B60008E199F098C179D0758F28EEF9FEFDF91EA
:104B7000CF911F910F91FF90EF900895CF3FDC07E9
:104B8000A9F20E941016801B910B8C179D0770F2E2
:104B9000ECCF8FEF9FEFEBCF0F931F93CF93DF936C
:104BA000EB018093BB0084E88093BC000E94101648
:104BB0008C018091BC0087FF11C02091B900287F33
:104BC00081E090E0283211F490E080E091958195A9
:104BD0009109DF91CF911F910F910895CF3FDC078D
:104BE00041F30E941016801B910B8C179D0708F350
:104BF0008EEF9FEFEECFCF92DF92EF92FF920F9367
:104C00001F93CF93DF936B018A017901B9010E9451
:104C10007025E6010C0D1D1DC017D10761F424E9B4
:104C20002093BC00DF91CF911F910F91FF90EF90E7
:104C3000DF90CF90089597FDF2CFB70189910E9440
:104C4000CC25EACFCF92DF92EF92FF920F931F9382
:104C5000CF93DF93C62F6A017901B8010E947025B6
:104C600097FD0CC0B8018C2F0E94CC25E601EC0CFE
:104C7000FD1CCE15DF0511F097FF0CC024E9209331
:104C8000BC00DF91CF911F910F91FF90EF90DF90CB
:104C9000CF900895B80189910E94CC25EACF84E98C
:104CA0008093BC000895991B79E004C0991F961762
:104CB00008F0961B881F7A95C9F780950895AA1B5E
:104CC000BB1B51E107C0AA1FBB1FA617B70710F0F7
:104CD000A61BB70B881F991F5A95A9F78095909529
:104CE000BC01CD01089597FB072E16F4009407D060
:104CF00077FD09D00E945F2607FC05D03EF4909511
:104D000081959F4F0895709561957F4F0895EE0F9F
:104D1000FF1F0590F491E02D0994FB01DC0102C016
:104D200005900D9241505040D8F70895FB01DC01E9
:104D300004C08D910190801921F441505040C8F772
:104D4000881B990B0895F999FECF92BD81BDF89A01
:104D5000992780B50895A8E1B0E042E050E00C94B6
:104D6000D726262FF999FECF92BD81BDF89A0197DB
:104D700000B4021639F01FBA20BD0FB6F894FA9AA3
:104D8000F99A0FBE08950396272F0E94B2260E941B
:104D9000B126252F0E94B226242F0C94B22601960C
:104DA000272F0E94B2260C94B126DC01CB01FC0116
:104DB000F999FECF06C0F2BDE1BDF89A319600B474
:104DC0000D9241505040B8F70895F894FFCF8710E6
:104DD000AF105B12AF105B12E21003115B120C12EA
:024DE0001912A6
:104DE200010364000000900F8D0F0000000000001E
:104DF2000000000000000000000000007F0F7C0F98
:104E020000000000000000000000000000000000A0
:104E120000006E0F6B0F0000000000000000000099
:104E2200000000000000FF3031000021007F22005E
:104E320003038340000001044000000100650802F2
:104E4200146408CC139813010002040507090B0C23
:104E52000E1011131517181A1C1D1F2123242628A2
:104E6200292B2D2F3032343537393B00FF01000119
:104E72000000FFFF0000010001FF0002030200002A
:104E82000100010101010100010133323130C693F9
:104E9200959496973435366667F7F6F4F1F0000884
:064EA200101818100800B2
:00000001FF
