:100000000C9447050C948E050C948E050C948E056B
:100010000C948E050C948E050C948E050C948E0514
:100020000C948E050C948E050C94B8190C947419CC
:100030000C94A2200C948E050C948E050C948E05C5
:100040000C948E050C948E050C948E050C948E05E4
:100050000C948E050C94931A0C948E050C948E05BA
:100060000C948E050C948E050C948E050C948E05C4
:100070000C948E050C948E050C948E050C948E05B4
:100080000C948E050C948E050C948E050C948E05A4
:100090000C948E050C948E050C948E050C948E0594
:1000A0000C948E050C948E050C948E0500AF2900DF
:1000B0001E001F0020002100220023002400250034
:1000C000260027002D002E0035002A002B000000FE
:1000D00014001A000800150017001C0018000C007E
:1000E000120013002F00300000003900000004004F
:1000F0001600070009000A000B000D000E000F009B
:1001000033003400310028000000E1001D001B0016
:1001100006001900050011001000360037003800F5
:10012000E50052001150E000E2000000E300000092
:1001300000002C0000000000000000000000500043
:1001400051004F0001003A003B003C003D003E00E2
:100150003F00400041004200430001000100010057
:100160000100010000000100010001000100010088
:100170000100010001000100010001000100000078
:100180000100000001000100010001000100010068
:100190000100010001000100010001000100000058
:1001A0000100010001000100010001000100010047
:1001B00001000100010001000100105001000100D8
:1001C000000001000000000001000000000000002D
:1001D00000000000AC00AD00AB000000000000001B
:1001E000000000000000000000000000000000000F
:1001F00000000000000000000000000000000000FF
:1002000000000000000000000000000000000000EE
:1002100000000000000000000000000000000000DE
:1002200000000000000000000000000000000000CE
:1002300000000000000000000000000000000000BE
:1002400000000000000000000000000000000000AE
:10025000000000000000000000000000000000009E
:10026000000000000000000000000000000000008E
:100270000000000000000000000000010101010179
:100280000100010101010000000000000000000069
:100290000000000001000100010101010101010154
:1002A000010101010101010101010101010101013E
:1002B0000101010101000000010100000000000037
:1002C000000000000000000000000000000000002E
:1002D000000000000001010101000000000000001A
:1002E00000002A2B28000000000000000000000091
:1002F000000000000029000000002C1E34202122F4
:1003000024342627252E362D3738271E1F2021225C
:10031000232425263333362E37381F0405060708D5
:10032000090A0B0C0D0E0F101112131415161718C5
:10033000191A1B1C1D2F3130232D35040506070803
:10034000090A0B0C0D0E0F101112131415161718A5
:10035000191A1B1C1D2F3130354C6C75616E747968
:10036000403136332E636F6D0000DA02818FD9F190
:10037000DB40A4A62EAF00A0C000A1C800AED5806F
:10038000A81FD300408D14200020204E4F4E450062
:10039000322046554E4300312042415345005D20F6
:1003A0002020007B7C20202020007D7E4C4F434B72
:1003B000002020205B008081828384858687888955
:1003C0008A8B8C8D8E8F9091929394A0A1A2A3A4DE
:1003D000A5A6A7A8A9AAABACADAEAFB0B1B2B3B455
:1003E000C0C1C2C3C4C5C6C7C8C9CACBCCCDCECF95
:1003F000D0D1D2D3D400AE05010980A10185031A62
:1004000081002A83001601002603009501751081E2
:1004100000C0050C0901A10185041A01002A9C02F3
:10042000160100269C02950175108100C005010986
:1004300006A101050719E029E715002501950875B2
:100440000181029501750881010507190029FF1531
:100450000026FF0095067508810005081901290589
:10046000950575019102950175039101C009029FDF
:1004700000040100A0FA09040000010301010009C1
:1004800021110100012240000705810308000A092B
:1004900004010001030000000921110100012236BE
:1004A000000705820320000A080B02020101000078
:1004B00009040200000101000009240100010900F3
:1004C00001030904030002010300000724010001E5
:1004D0004100062402010100062402020200092450
:1004E00003010301020100092403020401010100C8
:1004F0000905040240000500000525010101090568
:1005000083024000050000052501010312011001CE
:1005100000000008EDFE6060010001020301040319
:1005200030000000140350004800450052004F0006
:100530004D004F004E00450000000E034C005500DA
:1005400041004E005400590000000403090400005B
:10055000000000003E5B4F5B3E003E6B4F6B3E0079
:100560001C3E7C3E1C00183C7E3C18001C577D57EE
:100570001C001C5E7F5E1C0000183C180000FFE79A
:10058000C3E7FF00001824180000FFE7DBE7FF00C7
:1005900030483A060E00262979292600407F0505B5
:1005A0000700407F05253F005A3C663C5A007F3ECD
:1005B0001C1C0800081C1C3E7F0014227F22140013
:1005C0005F5F005F5F0006097F017F00006689951D
:1005D0006A0060606060600094A2FFA2940008045A
:1005E0007E04080010207E20100008082A1C080045
:1005F000081C2A0808001E10101010000C1E0C1EEB
:100600000C0030383E383000060E3E0E060000006A
:100610000000000000005E00000000060006000070
:10062000143E143E1400242A7F2A12002616083491
:100630003200364A56205000000A06000000003CF6
:10064000420000000000423C00002A1C3E1C2A0020
:1006500008083E08080000A060000000080808081C
:1006600008000000606000002010080402003C4206
:1006700042423C0000447E400000645252524C0012
:1006800022424A4A36003824227E20002E4A4A4A14
:1006900032003C4A4A4A32000202621A0600344AD8
:1006A0004A4A34004C5252523C00000014000000F0
:1006B0000040340000000008142200001414141438
:1006C00014000000221408000004520A04003E41F5
:1006D0005D594E007C1212127C007E4A4A4A340058
:1006E0003C42424242007E4242423C007E4A4A4AEA
:1006F0004A007E0A0A0A0A003C42425272007E0800
:1007000008087E0000007E0000002040423E0000FD
:100710007E10081462007E40404040007E040804C1
:100720007E007E0408107E003C4242423C007E1265
:1007300012120C003C4252225C007C1212325E000B
:100740004C4A4A4A320002027E0202003E404040C9
:100750003E001E2040201E003E4038403E006214F5
:100760000814620006087008060062524A464200F9
:10077000007E4242000002040810200000004242B5
:100780007E00080402040800404040404000000091
:10079000060A0000605454547C007E4848483000EB
:1007A000304848484800304848487E00385454543F
:1007B000580000087C0A000098A4A4A478007E08D1
:1007C0000808700000007A0000002040403A000055
:1007D0007E102844000000007E4000007C04780465
:1007E00078007C0404047800384444443800FC2435
:1007F0002424180018242424FC007C080404080085
:1008000048545454240000047E4400003C404040BE
:100810007C001C2040201C003C4030403C00442810
:10082000102844005CA0A0A07C004464544C440008
:10083000FEC1C1C9C5DDC5C9C1C1FE00FCFEFEEED9
:10084000F6C6F6EEFEFEFC003C2623263C00010325
:10085000053F05330138003C0000000000000000A7
:10086000000000000000001C3C783C1C0080E010F0
:10087000080000140C1E2C5440404040449A244070
:1008800080808080E01088C8CEC88E080E080E08D0
:100890000E080810E080808080808040202020208A
:1008A00070701C781818181888C040C040C040C02C
:1008B00040C040C0800000000000000000000000B8
:1008C000001E003F2121212D2D213F00F00804C4EE
:1008D000242424C40408F000F0F8FC3CDCDCDC3CFC
:1008E000FCF8F000FEC1C1C9C5DDC5C9C1C1FE002B
:1008F000FCFEFEEEF6C6F6EEFEFEFC00000000007A
:1009000000000000000000000000000000000000E7
:1009100000000000000000000000000000000000D7
:1009200000000000000000000000000000070F11A0
:100930002101010101C1213925C505091224292AF6
:100940002A2AAAAAFF0007EF4CCF474040C04040E8
:1009500043E30000FFAAAA2A2A2A4A8A2A5222022C
:1009600002024282024282020F1D171D97DD575D6F
:1009700057DD971D0F000000000000000000000080
:100980000000000000000000000000000708101335
:100990001111111310080700070F1F1C1E1E1E1C2B
:1009A0001F0F070000000000000000000000000012
:1009B0000000000000000000000000000000000037
:1009C0000000000000000000000000000000000423
:1009D000021F222420000000000000000000000090
:1009E0000000000000000000000000000000000007
:1009F00000000000000705050507000000000000DA
:100A0000102F10000306080B3A0A3A0A3A0A3A0A6B
:100A10003A0B0806030030293E283000010101018D
:100A20000101050701050301000000000F18111264
:100A300014180F000000000000000000000000007B
:100A4000000000000000020A2A2A2A00000000001C
:100A50000000000000000000000000000000000096
:100A60000000000000000000000000000000000086
:100A70000000000000000000000000000000000076
:100A80000000000000000000000000000000112431
:100A90001FBECFEFDAE0DEBFCDBF04B603FE27C036
:100AA0008091350590913605A0913705B0913805B4
:100AB0008730904BA740B04BD1F41092350510927F
:100AC0003605109237051092380514BE84B7877F1B
:100AD00084BF0FB6F894A8958091600088618093D8
:100AE0006000109260000FBEE0E0F8E3099511E0AD
:100AF000A0E0B1E0E0EDF4E402C005900D92A03872
:100B0000B107D9F725E0A0E8B1E001C01D92A533F7
:100B1000B207E1F70E94261C0C9440220C940000BE
:100B2000CF92DF92EF92FF920F931F93CF93DF93B9
:100B300000D00F92CDB7DEB77C01162FD42EC22E77
:100B4000809162028430B9F5E0915702F091580229
:100B5000309709F440C0C701019763E070E00E943C
:100B6000BA21CB01880F991F860F971F19834A83DB
:100B7000CB824E2D481B9E012F5F3F4FBC018DE362
:100B800092E00995E0915B02F0915C02309739F0B8
:100B90000C2D2D2D412FB7018DE392E009950F907B
:100BA0000F900F90DF91CF911F910F91FF90EF90D9
:100BB000DF90CF90089582E0E816F10409F45AC05E
:100BC00083E0E816F104A9F081E0E816F10409F4E5
:100BD00084C0F12CE12CE0915902F0915A02309737
:100BE00089F20C2D2D2D412FB7018DE392E009954F
:100BF000C9CF862F807F803A11F188F48038D1F0F8
:100C0000E0914102F0914202803929F7309719F3BF
:100C1000123F49F12C2D4D2D612F6F7027C0803E62
:100C200099F0803FB1F0E0913F02F0914002803BAB
:100C300091F6ECCFE0914302F0914402E7CFE091CE
:100C40004502F0914602E2CFE0914702F09148025E
:100C5000DDCF623F09F0BFCFE0914902F0914A0237
:100C6000309709F4B8CF2C2D4D2D62EF8DE392E033
:100C7000099588CF862F807F803DB9F0803FD1F0E5
:100C8000E0914B02F0914C02803C09F0A4CF3097E8
:100C900009F4A1CF812F8D7F4D2D612F6F70813F82
:100CA000C9F08DE392E009956DCFE0914D02F0918E
:100CB0004E02EDCFE0914F02F0915002633F39F0C8
:100CC000613F09F088CFE0915102F09152023097D4
:100CD00009F481CF4D2D612FE4CFE0915302F091C3
:100CE0005402683F38F4663F09F075CFE091550231
:100CF000F0915602309709F46ECF612F8DE392E0A8
:100D0000099540CFE8EDF0E080818E7F80831092DE
:100D1000E2001092DA001092E100A0EEB0E08C91B7
:100D200081608C9380818F77808319BCA7EDB0E0C0
:100D30008C918E7F8C9380818F7E8083109226028F
:100D400008952091E4003091E50095E6A9012091F5
:100D5000EC00822F817020FF06C08091E80080FFA8
:100D600006C080E008952091E80022FD1AC080911D
:100D70003302882389F0853089F08091EB0085FD6E
:100D80000FC02091E4003091E50042175307F9F2BB
:100D90009150E1F684E0089582E0089583E008959B
:100DA00081E00895EF92FF920F931F93CF937C0100
:100DB0008B010E94A106C82F811117C08091E80005
:100DC00085FD0BC08091E8008E778093E8000E943B
:100DD000A106882399F3C82F08C0F70181917F01EC
:100DE0008093F1000150110949F78C2FCF911F9189
:100DF0000F91FF90EF9008958091350287FF13C007
:100E00008091E80082FF06C08091E8008B77809394
:100E1000E80004C0809133028111F2CF08958091DF
:100E200033028823D9F38091E80080FFF8CF8091C6
:100E3000E8008E77ECCF982F9093E900242F762F3F
:100E400050E0891731F07091EC002091ED00509145
:100E5000F00021FD07C09F5F973071F78093E90094
:100E600081E008953091EB003E7F3093EB003091AC
:100E7000ED003D7F3093ED003091EB003160309319
:100E8000EB007093EC002093ED005093F000209164
:100E9000EE0027FDE0CF80E00895CF92DF92EF9241
:100EA000FF920F931F93CF93DF93C8EDD0E088811B
:100EB0008F7E8883E7EDF0E080818160808384E02D
:100EC00082BF81E08093260288818E7F888302EE34
:100ED00010E0F80110821092DA0081EEC82ED12CB9
:100EE000F601108288818F77888388818068888363
:100EF00088818F7D888319BC10923302109234024E
:100F0000109232021092310290EEE92EF12CF7018C
:100F100080818B7F808388818160888342E060E06C
:100F200080E00E941B07F60180818E7F8083F8019C
:100F3000808181608083808188608083F7018081E7
:100F40008E7F8083888180618883DF91CF911F911C
:100F50000F91FF90EF90DF90CF900895FC0180916A
:100F60003B0290913C0286179707A0F0611571052E
:100F700029F49091E8009E779093E80090E0611545
:100F8000710551F4911108C08091E80082FF34C0CE
:100F900080E00895BC01F2CF809133028823C1F133
:100FA0008530C1F18091E80083FD30C08091E80078
:100FB00082FDEACF8091E80080FFE1CF8091F300CD
:100FC0002091F200382F6115710519F02830310594
:100FD00058F091E02830310509F090E02091E800C8
:100FE0002E772093E800CBCF81918093F100615060
:100FF00071092F5F3F4FE7CF80913302882341F083
:10100000853041F08091E80083FFBECF81E00895F4
:1010100082E0089583E008950895089508958091E9
:1010200028020895982F907F903BE9F040F4903982
:10103000D1F0903AC1F09038B1F080E00895903D41
:1010400019F020F4903CC9F782E00895903E59F0E1
:10105000903F99F7815F8F3080F7E82FF0E0EC5AEE
:10106000FE4F8081089583E00895DF92EF92FF9212
:101070000F931F93CF93DF9300D000D0CDB7DEB78F
:101080007B01142FD22E4A832B830C83842F0E9442
:101090001208811141C082E0E816F104C1F183E039
:1010A000E816F10439F0EA94EF2829F5173F29F4FE
:1010B00085E004C087E0073F09F084E089838091E0
:1010C00033028430C1F480910B018F708093E9006A
:1010D00050E040E064E070E0CE0101960E94D2064C
:1010E000811109C08091E80085FD05C08091E8006C
:1010F0008E778093E8000F900F900F900F90DF9104
:10110000CF911F910F91FF90EF90DF90089587EF9F
:10111000D812D3CF86E0D2CF12951F701983CFCFCC
:10112000CF92DF92EF92FF920F931F93CF93DF93B3
:1011300000D000D000D00F92CDB7DEB78C0108519F
:101140001F4F80913302843009F087C080911001D5
:101150008F708093E9008091E80082FF7EC08091CB
:10116000E80085FF7AC00E94A106811113C084E0C7
:10117000E82EF12CCE0101966C018091E80085FDEE
:1011800061C08091E8008B778093E8000E94A106FF
:10119000882399F38091E80085FD05C08091E800DF
:1011A0008B778093E800FA808F2D0E941208282FF9
:1011B000FD828B818E838C818F8321110BC089816D
:1011C000843041F1873031F1863031F121E08530D2
:1011D00009F0B7CF30E0E5E0F0E0EC0FFD1FE30FE2
:1011E000F11DF0804FB7F894D8011196EC9111974A
:1011F000F0E0CF01019612966C9170E00E94CE2132
:10120000D8015C915817190649F44FBF3F5F321758
:1012100010F397CF23E0DECF22E0DCCF13968D9141
:101220009C911497E80FF91FF08211968C911197F9
:1012300090E0019612966C9170E00E94CE21F80128
:101240008183E3CF8091F100D6018D936D01B1E0F0
:10125000EB1AF10809F091CF9DCF27960FB6F894BD
:10126000DEBF0FBECDBFDF91CF911F910F91FF90D9
:10127000EF90DF90CF9008959C01FC0132969FEF94
:1012800080E04191461751F09F3F19F4411101C090
:10129000982F8F5F8630A9F79F3F09F40895290F93
:1012A000311D97FD3A95F90162830895CF92DF923F
:1012B000EF92FF926C01EE24FF2420E0C114D104D0
:1012C000E104F10419F0C701B60120E1C72ED82EC0
:1012D000E92EFF24C114D104E104F10419F0285FC0
:1012E000C701B6016B017C0154E0F694E794D794F2
:1012F000C7945A95D1F7C114D104E104F10419F04F
:101300002C5FC701B6016B017C0142E0F694E794C3
:10131000D794C7944A95D1F7C114D104E104F104DC
:1013200019F02E5FC701B601969587957795679559
:10133000672B682B692B09F02F5F822FFF90EF90AE
:10134000DF90CF9008958091CB019091CA01892BB5
:101350009091C901892B80938001E091DD01F0918A
:10136000DE01309731F00280F381E02D80E891E0DA
:10137000099408952FE0929F800D1124982F977063
:1013800086958695869525E0829FF0011124E95681
:10139000FE4F50E040E080E0219130E0092E02C095
:1013A000369527950A94E2F721703327042E01C061
:1013B000220F0A94EAF7822B4F5F5F4F45305105A9
:1013C00059F708952FE0929F800D1124982F977060
:1013D00041E001C0440F9A95EAF786958695869577
:1013E00095E0899FF0011124E956FE4F90E080E0DE
:1013F00070E05191DF0111979B01082E02C03695D4
:1014000027950A94E2F72170219525272423252783
:101410002C9301968530910561F70895882341F05A
:1014200080959091CA0189238093CA010C94A309E5
:101430000895882339F09091CA01982B9093CA019E
:101440000C94A3090895882341F080959091CB01D5
:1014500089238093CB010C94A3090895882339F044
:101460009091CB01982B9093CB010C94A3090895F4
:1014700020918F01309190012817390771F09093D6
:10148000900180938F01E091DD01F091DE013097B2
:1014900021F00084F185E02D0994089520918D01BB
:1014A00030918E012817390771F090938E01809347
:1014B0008D01E091DD01F091DE01309721F0068091
:1014C000F781E02D099408951092CA011092C90184
:1014D0000E94A30990E080E00E944E0A90E080E024
:1014E0000C94380A6093EA017093EB018093EC014D
:1014F0009093ED010C94640A6093CC017093CD013C
:101500008093CE019093CF010C94640A8823B1F1AB
:101510009CEF980F913A70F4E2E8F1E09191891311
:1015200003C0DF0111971C9241E0E838F407B1F7DE
:101530000C94A30990E2980F983088F4877021E00A
:1015400030E0A90102C0440F551F8A95E2F7CA0195
:1015500080959091CB0189238093CB01E9CF9BE5C6
:10156000980F933020F490E080E00C944E0A885A53
:10157000873120F490E080E00C94380A08958823A5
:1015800009F4C1C09CEF980F913A38F4682F80E8B5
:1015900091E00E943C090C94A30990E2980F9830C6
:1015A00068F4877021E030E001C0220F8A95EAF7E5
:1015B0008091CB01822B8093CB01EDCF9BE5980FDF
:1015C000933070F4853A31F0863A39F083E890E050
:1015D0000C944E0A81E890E0FBCF82E890E0F8CFCF
:1015E00098E5980F973108F08EC0883A09F446C004
:1015F000893A09F446C08A3A09F446C08B3A09F49C
:1016000046C08C3A09F446C08B3B09F446C08C3B7B
:1016100009F446C08D3A09F446C0803B09F446C03F
:101620008E3A09F446C08F3A09F446C0813B09F46A
:1016300046C0823B09F446C0833B09F446C0843B64
:1016400009F446C0853B09F446C0863B09F446C010
:10165000873B09F446C0883B09F446C0893B09F43E
:1016600046C08D3B09F446C08E3B09F446C08A3B18
:1016700009F446C090E080E00C94380A82EE90E0D5
:10168000FBCF89EE90E0F8CF8AEE90E0F5CF85EBC6
:1016900090E0F2CF86EB90E0EFCF83EB90E0ECCFE1
:1016A00084EB90E0E9CF87EB90E0E6CF8CEC90E024
:1016B000E3CF8DEC90E0E0CF83E891E0DDCF8AE8E6
:1016C00091E0DACF82E991E0D7CF84E991E0D4CFFD
:1016D00081E292E0D1CF83E292E0CECF84E292E049
:1016E000CBCF85E292E0C8CF86E292E0C5CF87E219
:1016F00092E0C2CF8FE690E0BFCF80E790E0BCCF12
:101700008AE292E0B9CF0895E091DD01F091DE0127
:10171000309721F00190F081E02D099480E0089548
:101720000F93E0913D02F0913E0200E02BE740EB89
:1017300063E070E08DE392E009950F910895809148
:10174000940181110C94900B08959091DB0192FF0C
:1017500006C0282F28712830F9F4877F846093FF12
:1017600006C0282F28712831F1F4877E84612091EA
:10177000DC0120FF06C0382F38713830D9F4877F5C
:10178000816021FF06C0282F28712831D1F4877E7F
:10179000816194FD877E0895282F24712430F9F605
:1017A0008B7F8860DCCF282F2471243101F78B7E5A
:1017B0008861DDCF382F3171313019F78E7F886025
:1017C000E0CF282F2171213121F78E7E8861E1CF72
:1017D000CF93DF93972F70E02FE0929F600D711DE4
:1017E0001124FB013BE4839FE00DF11D1124EE0F5A
:1017F000FF1FE255FF4FC591D491CE01C238D105EC
:10180000B9F1E8F5C133D10509F499C050F5C932F1
:10181000D10509F48DC0CA32D10509F497C0C115AC
:1018200042E5D40708F039C1C11521E5D20708F017
:10183000AEC1C83ED10508F020C1C13ED10568F552
:10184000C83AD10508F089C0C53AD10508F070C181
:10185000C130D10511F1209709F443C02497E8F471
:1018600040C0C533D10509F45CC0C933D105B9F610
:101870002091DB01237089F080EE90E00EC0C33E22
:10188000D10591F168F4C03ED105F9F0C23ED10511
:1018900031F62091DB0122FD20C0DF91CF91089528
:1018A000C63ED10561F1C73ED10581F1C43ED105E7
:1018B00009F0B5CF2091DC0121FFEFCF8091DB0152
:1018C00084FD0FC087EE90E0E8CF2091DB0120FD82
:1018D0008BC13091DC0130FFE0CF83EE90E024FF3C
:1018E000DCCF90E080E0D9CF2091DB0122FD7FC1E9
:1018F0003091DC0130FDC0CF24FFCFCFF2CF20915B
:10190000DB0123FFCACF24FDECCFDCCF2091DB012C
:1019100023FD70C13091DC0131FFEECF84EE90E009
:10192000BCCF2091DB0125FFB8CF89E290E0B5CF95
:101930002091DB0125FFB1CF85E390E0AECF209170
:10194000DB0126FFAACF8AE290E0A7CF2091DB013E
:1019500026FFA3CF81E390E0A0CFCF3BD10508F6CF
:1019600082EE94E4C83AD10509F497CF89EE94E465
:10197000C93AD10509F491CF8AEE94E4CA3AD10567
:1019800009F48BCF85EB94E4CB3AD10509F485CFEC
:1019900086EB94E4CC3AD10509F47FCF83EB94E451
:1019A000CB3BD10509F479CF84EB94E4CC3BD10552
:1019B00009F473CF87EB94E4CD3AD10509F46DCFE8
:1019C0008CEC94E4C03BD10509F467CF8DEC94E432
:1019D000CE3AD10509F461CF83E895E4CF3AD10539
:1019E00009F45BCF8AE895E4C13BD10509F455CFF2
:1019F00082E995E4C23BD10509F44FCF84E995E42F
:101A0000C33BD10509F449CF81E296E4C43BD1053B
:101A100009F443CF83E296E4C53BD10509F43DCFF9
:101A200084E296E4C63BD10509F437CF85E296E41B
:101A3000C73BD10509F431CF86E296E4C83BD10516
:101A400009F42BCF87E296E4C93BD10509F425CFF1
:101A50008FE694E4CD3BD10509F41FCF80E794E4F1
:101A6000CE3BD10509F419CF80E094E4CA3BD105FF
:101A700009F013CF8AE296E410CFC11530E5D30701
:101A800008F069C0C11540E4D40708F060C0DA95D9
:101A9000C115DF4108F401CF24CFC11536E5D307C6
:101AA00018F5C11545E5D40708F087C0C11584E5D0
:101AB000D80708F07DC09C2F96959695AE0143708F
:101AC0005527C115D34508F467C021E030E002C0B6
:101AD000220F331F4A95E2F740E2949FC001112480
:101AE000822B932B9A68D9CEC1153AE5D30778F4A7
:101AF000C11549E5D40708F06AC0C11588E5D807C3
:101B000008F4EFCE9C2F8827806F906AC6CECE0156
:101B100090568115904208F0E4CE8D2F8F710E946F
:101B2000A50B90E0982F882788279F718C2B4DC09C
:101B300081E890E4C53AD10509F4AFCE82E890E49B
:101B4000C63AD10509F4A9CE83E890E4A6CECE0129
:101B50009F70906AA2CE9E01E4E036952795EA95A3
:101B6000E1F723708C2F86958695837030E2839FF2
:101B7000C0011124922BC37021E030E002C0220F7B
:101B8000331FCA95E2F7822B932B9C6886CE9C2F3D
:101B90008827816F906A81CE21E030E002C0220F59
:101BA000331F4A95E2F740E2949FC0011124EBCF26
:101BB0009C2F8827846F906A70CE8C2F0E94A50B73
:101BC00090E0982F882788279F71906266CE8C2F8F
:101BD0008F700E94A50B34E0D695C7953A95E1F732
:101BE000CF709C2F906959CE89E390E056CE82EE5B
:101BF00090E053CE86EE90E050CEBF92CF92DF922F
:101C0000EF92FF920F931F93CF93DF938C01C090BD
:101C1000EA01D090EB01E090EC01F090ED018091B1
:101C2000CC019091CD01A091CE01B091CF01C82AF5
:101C3000D92AEA2AFB2ACFE1D0E0BC2ED701C6017F
:101C40000C2E04C0B695A795979587950A94D2F760
:101C500080FD0EC0219788F7B12C8B2DDF91CF919D
:101C60001F910F91FF90EF90DF90CF90BF9008955C
:101C7000B8018C2F0E94E80B019761F3EECF109210
:101C8000CB01E2E8F1E086E0DF011D928A95E9F7F9
:101C90000C94640A1F93CF93DF93CDB7DEB7AA9756
:101CA0000FB6F894DEBF0FBECDBF85E392E0209162
:101CB000F100FC012193CF01F2E08D339F07B9F7CA
:101CC00080913602833009F46FC0B8F4813009F492
:101CD00046C0823009F4B0C08091E80083FF91C211
:101CE00080913502909136029A3008F08AC2E92F2D
:101CF000F0E0EE5BFD4D0C94E2218A3009F48BC0DC
:101D00008B3009F46EC0893039F780913502813209
:101D100019F78091390290913A020297E8F6809182
:101D2000E800877F8093E8008091E80082FF37C059
:101D30009091F3008091F200029729F48091F100D4
:101D40008B7F813021F48091F10080932802809173
:101D5000E8008B778093E8000E94FC06BDCF80915D
:101D60003502813A09F0B8CF8091E800877F8093EF
:101D7000E8008091390290913A02892B61F468E081
:101D800089E292E070E00E94AE078091E8008B77D4
:101D90008093E800A1CF60E090E080E0F3CF8091F5
:101DA00033028111C1CF98CF80913502813A09F079
:101DB00093CF8091390290913A02892B09F08CCF10
:101DC0008091E800877F8093E8008091E80080FFA1
:101DD000FCCF809120018093F1008091E8008E7704
:101DE000B9CF80913502813209F076CF80913902E6
:101DF00090913A02892B09F06FCF8091E800877F9C
:101E00008093E8000E94FC068091370280932001B5
:101E10000E943F0E61CF80913502813209F05CCF84
:101E20008091E800877F8093E8000E94FC06809103
:101E300038028093270250CF80913502813A09F011
:101E40004BCF8091E800877F8093E8008091E80085
:101E500080FFFCCF80912702BECF803899F0823876
:101E600009F0CFC1809139028F70873008F0C9C165
:101E70008093E9008091EB0085FB882780F9109220
:101E8000E90006C080913102909132029111826086
:101E90009091E800977F9093E8008093F100109272
:101EA000F1008091E8008E77A8C1882309F496C1DB
:101EB000823009F0A6C180913702811199C18091C9
:101EC00039028F702FEF280F263008F09AC18093C7
:101ED000E9002091EB0020FF8BC1933031F4809119
:101EE000EB0080628093EB0083C19091EB009061E6
:101EF0009093EB0021E030E001C0220F8A95EAF7D1
:101F00002093EA001092EA008091EB008860EACF0B
:101F1000811177C1109137021F778091E30080789B
:101F2000812B8093E3008091E800877F8093E80015
:101F30000E94FC068091E80080FFFCCF8091E300C6
:101F400080688093E30082E0111183E08093330284
:101F500058C18058823008F054C180913702909166
:101F600038028C3D23E09207A1F583E08A838AE260
:101F700089834FB7F894DE01139620E03EE051E2EA
:101F8000E32FF0E050935700E49120FF03C0E29567
:101F9000EF703F5FEF708E2F90E0EA30C0F0C79691
:101FA0008D939D932F5F243159F74FBF8091E800A7
:101FB000877F8093E8006AE270E0CE0101960E947C
:101FC000AE078091E8008B778093E8001AC1C09635
:101FD000E7CF4091390250913A02292F332723301D
:101FE000310509F445C078F52130310509F47BC08D
:101FF0008FE990E0EDE6F4E02230310509F001C10F
:102000002091E800277F2093E80020913B02309147
:102010003C028217930708F49C0140E0211531052A
:1020200009F070C041116EC08091E80082FDC9CFF7
:1020300080913302882329F2853019F28091E800DB
:1020400083FFF2CFBECF2132310509F440C02232E6
:10205000310509F0D6C04115510509F44EC0413093
:10206000510509F0CEC086E390E0E7EFF3E0C8CF7A
:10207000992781309105D9F0009771F08230910550
:10208000F1F0039709F0BDC0EEE1F5E0E4918E2F89
:1020900090E0EEE1F5E007C0EAE4F5E0E4918E2F90
:1020A00090E0EAE4F5E0009709F4ABC0A9CFEAE3D9
:1020B000F5E0E4918E2F90E0EAE3F5E0F4CFE4E27E
:1020C000F5E0E4918E2F90E0E4E2F5E0ECCF4115ED
:1020D000510571F04130510509F093C089E090E05D
:1020E000E8E9F4E08DCF82E190E0ECE0F5E088CF24
:1020F00089E090E0EFE7F4E083CF80E490E0EDE268
:10210000F4E07ECF80913302882309F45ACF8530E2
:1021100009F457CF8091E80083FD53CF8091E80008
:1021200082FD82CF8091E80080FF78CF9091F3000C
:102130008091F2002115310519F08830910550F099
:1021400041E0089709F040E08091E8008E778093A5
:10215000E80064CF44914093F10031962150310959
:102160000196E8CF803809F04CC08091E800877F65
:102170008093E800809134028093F10092CE811127
:1021800040C0109137021230E0F58091E800877F5F
:102190008093E800109334020E94FC06112311F092
:1021A00084E005C08091E30087FDFACF81E0809351
:1021B000330242E061EC81E00E941B0742E261ECE5
:1021C00082E00E941B0742E361E883E00E941B0754
:1021D00042E360E884E00E941B0713C0809137024D
:1021E000813079F481E0933009F080E0809332020D
:1021F0001092E9008091E800877F8093E8000E94B8
:10220000FC068091E80083FF0AC08091E800877F88
:102210008093E8008091EB0080628093EB00AA96A7
:102220000FB6F894DEBF0FBECDBFDF91CF911F91E7
:102230000895CF93DF93682F81E06A3019F06D30F5
:1022400029F480E0DF91CF910C94A41180913305A3
:102250009091340526E0FC01ADE2B5E001900D92CD
:102260002A95E1F7613E08F456C026E0FC01119280
:102270002A95E9F7C0913305D091340546E050E046
:10228000BE018DE295E00E94F121CD52D3409E0126
:102290002A5F3F4F892B21F185E0D695C7958A9516
:1022A000E1F741E050E0CA0102C0880F991FCA95CA
:1022B000E2F760912B0370912C03862B972BB901C9
:1022C000E5E076956795EA95E1F702C0440F551F62
:1022D0006A95E2F7842B952B90932C0380932B0324
:1022E00040912A03642F70E0C9010E94BA21481B63
:1022F000463010F4240F311D211582E0380710F00C
:1023000030E020E0235D3C4F3093340520933305CB
:10231000DF91CF910895F6E06F9FB0011124625BC9
:102320007A4F46E050E00E94E821A4CFCF93DF939C
:10233000EC01FE018491811103C0DF91CF910895DA
:102340000E9419112196F5CFCF93382FE0913305D4
:10235000F0913405ED52F34020912A03622F70E092
:10236000CF010E94BA21281B822F332361F066E03F
:102370000E94AE21C82FC15010F4CF91089580E281
:102380000E941911F8CF9F01280F311D21153240ED
:1023900018F080E0F0E0E0E08E0F9F2F911D835D4C
:1023A0009C4F9093340580933305E7CFCF92DF9213
:1023B000EF92FF920F931F93CF93DF936C017B01FA
:1023C00064E670E088E70E94CB20EC0197FD12C024
:1023D00010E000E0F601E00FF11F849164E670E088
:1023E0000E942721EC01892B29F40F5F1F4F0E1546
:1023F0001F0581F70E94AA21CE01DF91CF911F9185
:102400000F91FF90EF90DF90CF9008952FB7F89441
:102410008091100290911102A0911202B0911302CA
:102420002FBF805A9541AF4FBF4F809314029093B6
:102430001502A0931602B093170280911802811121
:1024400008C062E070E08CEA90E00E94D611892B0F
:1024500019F080911802089581E080931802F9CF55
:10246000CF9384E090E00E94FE21C82F81E290E0AB
:102470000E94FE21982F8C2FCF910895CF93DF9348
:1024800000D00F92CDB7DEB79C019091330294300B
:1024900019F599833B832A8382E08093E9008FEFCB
:1024A0009091E800815095FD06C095ED9A95F1F761
:1024B00000008111F5CF8091E80085FF0DC050E04C
:1024C00040E063E070E0CE0101960E94D206809168
:1024D000E8008E778093E8000F900F900F90DF91C7
:1024E000CF910895CF93DF9300D00F92CDB7DEB791
:1024F00020913302243031F523E02983805891095B
:102500009B838A8382E08093E9008FEF9091E800BB
:10251000815095FD06C095ED9A95F1F70000811167
:10252000F5CF8091E80085FF0DC050E040E063E00A
:1025300070E0CE0101960E94D2068091E8008E776D
:102540008093E8000F900F900F90DF91CF91089546
:10255000CF93DF93EC0180913302843039F581E031
:102560008093E9008FEF9091E800815095FD06C0BF
:1025700095ED9A95F1F700008111F5CF8091E80073
:1025800085FF14C050E040E068E070E0CE010E949A
:10259000D2068091E8008E778093E80088E0FE0103
:1025A000A9E2B2E001900D928A95E1F7DF91CF9117
:1025B000089581E08093E00080E28093D80010923B
:1025C000C9008FE19EE40197F1F700C0000087E0A9
:1025D00090EBDC018093350590933605A093370589
:1025E000B093380588E19CE00FB6F894A8958093E5
:1025F00060000FBE90936000FFCFCF93C82F0E9462
:10260000BF0AC93349F42FEF87EE93E02150804091
:102610009040E1F700C000008C2FCF910C94860A07
:102620006CEE7EEF90E080E00E942A2260E082E083
:1026300090E00E940C2260E083E090E00E940C2277
:102640001092CC011092CD011092CE011092CF01C8
:1026500060E084E090E00E940C2260E081E290E083
:102660000E940C2260E085E090E00E940C2260E075
:1026700086E090E00E940C226FEF87E090E00E94DD
:102680000C2240E050E0BA0188E090E00E941E2257
:1026900060E08DE090E00E940C2240E050E0BA0142
:1026A00088E190E00E941E2260E087E190E00E94B5
:1026B0000C2240E050E0BA018CE190E00E941E2222
:1026C00060E080E290E00E940C2240E050E0BA011D
:1026D0008FE090E00E941E2240E050E0BA0183E1CA
:1026E00090E00C941E228F929F92AF92BF92CF9255
:1026F000DF92EF92FF920F931F93CF93DF93CDB7AB
:10270000DEB7A3970FB6F894DEBF0FBECDBF6C0146
:10271000DC0113968D919C911497892B41F01C91AB
:102720001196FC90812F8F218F3F09F0BCC5A39695
:102730000FB6F894DEBF0FBECDBFDF91CF911F91D2
:102740000F91FF90EF90DF90CF90BF90AF909F9050
:102750008F9008950E94FD0D082F682F89819A811E
:102760000E94E209E12FF0E0BFE0FB9EE00DF11DC9
:1027700011242BE4029FE00DF11D1124EE0FFF1F29
:10278000E255FF4FE590F490D60112968C91F70137
:102790003497EC31F10508F01BC1E45BFD4D0C945E
:1027A000E22191E4811110C03CE2E3163CE5F3061E
:1027B00009F01AC1882309F441C181E08093940192
:1027C000B6CF92E4882381F39093E901EDCF93E4AF
:1027D0008111FACFE9CF94E48111F6CFE5CF95E4EA
:1027E0008111F2CFE1CF96E48111EECFDDCF97E4F6
:1027F0008111EACFD9CF98E48111E6CFD5CF99E402
:102800008111E2CFD1CF9AE48111DECFCDCF9BE40D
:102810008111DACFC9CF9CE48111D6CFC5CF9DE419
:102820008111D2CFC1CF9EE48111CECFBDCF9FE425
:102830008111CACFB9CF90E58111C6CFB5CF91E54F
:102840008111C2CFB1CF92E58111BECFADCF93E55B
:102850008111BACFA9CF94E58111B6CFA5CF95E567
:102860008111B2CFA1CF96E58111AECF9DCF97E573
:102870008111AACF99CF882309F496CF98E5A4CFE8
:1028800099E5882309F490CF9093E901B8E2EB161B
:10289000BCE5FB0609F088CF882309F4B1C080911C
:1028A000950181111CC59CC0882381F39AE5ECCF6A
:1028B000882361F38091CB0181FF22C082E00E94D6
:1028C000190A8FE10E94BF0A8091CB0181FF69C084
:1028D0008FE10E94860A82E0A3960FB6F894DEBFCD
:1028E0000FBECDBFDF91CF911F910F91FF90EF9061
:1028F000DF90CF90BF90AF909F908F900C940E0A76
:1029000085FFDFCF8F7D8093CB01AAE5EA2EA3E080
:10291000FA2EF70124912223B9F287010F5F1F4F8E
:10292000213049F4F801F4908F2D0E94BF0A8F2DB9
:102930000E94860A06C0223049F4F80184910E9460
:10294000BF0A7801FFEFEF1AFF0AE3CF233019F433
:10295000F8018491EDCF30E0F901E652FD4FD490BB
:10296000F901E65AFD4F0491F901E652FE4F149128
:10297000002319F081EE0E94BF0A112319F086EEA0
:102980000E94BF0A8D2D0E94FD12112319F086EEC0
:102990000E94860A002319F081EE0E94860A8701B0
:1029A000D0CF85FDC4CE8FE1A3960FB6F894DEBFDD
:1029B0000FBECDBFDF91CF911F910F91FF90EF9090
:1029C000DF90CF90BF90AF909F908F900C94860A2D
:1029D00026E2E2162CE5F20609F078C4882321F0FD
:1029E00081E080939501A3CE9DE2E9169CE5F9066E
:1029F00039F4882319F10E94900B1092940197CE1C
:102A0000AEE2EA16ACE5FA0639F48823B9F0809113
:102A100094018111F0CFD1CEB9E2EB16BCE5FB06F3
:102A200069F4882359F00E949F0B8091000190E087
:102A30000196837099278093000179CE909195013A
:102A4000911121C09091940191111DC0F6018281D4
:102A50008111DAC0F6E1EF16FCE5FF0609F078C255
:102A600080919601811172C289E2E2E8F1E028E8E2
:102A700031E09191891303C0DF0111971C922E1749
:102A80003F07B9F72CC2882309F441C0F0EEEF16D6
:102A9000F10451F40E949F0B81E080939301109206
:102AA00092011092910143CE22EEE216F10461F4FC
:102AB0000E949F0B80919301882319F081E08093FD
:102AC00092011092930133CE33EEE316F10439F400
:102AD000909192019923D9F00E949F0BF2CF92E539
:102AE000E916F10451F480910101909102010A97D5
:102AF00090930201809301011ACEA1E5EA16F10438
:102B000031F480910101909102010A96F1CF9091E8
:102B1000000191110DC0F601918145E050E0491B83
:102B200051092081205FFCE04F9F200D112411C02E
:102B3000913089F5D60111969C91119745E050E0AE
:102B4000491B5109242F220F220F240F9C919D5CB9
:102B5000290F90919401882309F447C0992361F0CB
:102B60002F77E0913D02F0913E020FE740E963E0EC
:102B700070E08DE392E0099580919301882329F01C
:102B8000809191018F5F80939101EFEFEE16F10438
:102B900008F05CCFCCCD923051F4F601918145E044
:102BA00050E0491B510920812D5CF7E0BDCF2CE09E
:102BB000933079F693E2E1E2F1E0DE0111960190C3
:102BC0000D929A95E1F7D601EC91EC0FFD2FF11DD6
:102BD00011969C9145E050E0491B51092085BCE0CD
:102BE0004B9F200D1124275FB4CF992371F22F77CB
:102BF000E0913D02F0913E0200E040E863E070E0C9
:102C00008DE392E00995C1CFF2E0EF16FCE5FF06F7
:102C100008F447C126E1E2162CE5F20638F09701E8
:102C20002A5F3C452930310508F03BC10E94301233
:102C30009093DC018093DB0130E1E3163CE5F30681
:102C400009F4FEC008F07DC098E0E9169CE5F9069D
:102C500009F4ECC008F046C0B4E0EB16BCE5FB0696
:102C600009F4D8C080F5F2E0EF16FCE5FF0609F4A0
:102C7000CBC08091DB01826023E0E2162CE5F206F6
:102C800009F4C5C06091DB011091DC0184E090E0A3
:102C90000E940C22612F81E290E00E940C22A396F8
:102CA0000FB6F894DEBF0FBECDBFDF91CF911F915D
:102CB0000F91FF90EF90DF90CF90BF90AF909F90DB
:102CC0008F900C943F0E8091DB01806136E0E3161B
:102CD0003CE5F30609F49BC008F4A0C08091DB0139
:102CE000806295C08091DB018D7F9CE0E9169CE5B8
:102CF000F90609F48CC078F48091DB018C60BAE0AD
:102D0000EB16BCE5FB0609F482C008F493C0809181
:102D1000DB018E7F7CC08091DB01877FFEE0EF16B8
:102D2000FCE5FF0609F473C08091DB018B7F2FE087
:102D3000E2162CE5F20608F46AC08091DB018F7E72
:102D400066C03BEFE3163CE5F30609F46BC068F59B
:102D500093E1E9169CE5F90609F47AC090F4B1E133
:102D6000EB16BCE5FB0609F46FC0E2E1EE16ECE5FC
:102D7000FE0609F087CF0E943F0E8091DB018F771E
:102D800046C0F5E1EF16FCE5FF0609F469C008F45A
:102D90007DC08091DC0181603AEFE3163CE5F306EB
:102DA00009F070CF8093DC016DCF8FEFE8168CE5D2
:102DB000F80609F451C0A0F48091DC018D7FADEFDD
:102DC000EA16ACE5FA0671F38091DC018E7FBEEF66
:102DD000EB16BCE5FB0630F38091DC018360E2CFAB
:102DE000E1E0EE16EDE5FE0609F459C008F444C032
:102DF00060E022E0E2162DE5F20609F043CF8EE016
:102E000090E00E940C223ECF8091DB018160809394
:102E1000DB0138CF8091DB018460F9CF8091DB0149
:102E20008860F5CF8091DC018260BCCF8091DB01AE
:102E30008064EDCF0E943F0E8091DB018068E7CF78
:102E40008091DB018F7DE3CF8091DB018F7BDFCF32
:102E50008091DB01837FDBCF8091DC018C7FA2CF6F
:102E60008091DB0182FB992790F921E0922790FB6A
:102E700082F990FB83F9CBCF8091DC01982F90955C
:102E800091708E7F892B90FB81F98CCF0E943F0E31
:102E90009091DB01892F97FB87F98058B8CF61E0CB
:102EA000AECFE1143CE5F30671F19EEDE9169CE529
:102EB000F906C1F1F6E1EF16FCE5FF0609F048C09E
:102EC0008091CB018A7A91E009F490E09093960189
:102ED00069E2811165E380E891E00E943C09A396D4
:102EE0000FB6F894DEBF0FBECDBFDF91CF911F911B
:102EF0000F91FF90EF90DF90CF90BF90AF909F9099
:102F00008F900C94A3090E943F0E0E94900BAFEF8C
:102F1000B4E3ECE0A150B040E040E1F700C00000B5
:102F20000E94D912A3960FB6F894DEBF0FBECDBF94
:102F3000DF91CF911F910F91FF90EF90DF90CF9095
:102F4000BF90AF909F908F900C94101385E38DCD20
:102F5000D6010D911C918823C1F1C8010E94FD0D7D
:102F6000F82E682FC8010E94E209B8018F2D0E9437
:102F7000E80B082FE82EF601828181111092CA0118
:102F8000192F12951F70143009F487C018F51230EC
:102F900008F446C0212F2850330B2230310508F0A9
:102FA000C6CBA3960FB6F894DEBF0FBECDBFDF91A0
:102FB000CF911F910F91FF90EF90DF90CF90BF9036
:102FC000AF909F908F900C94840BC8010E94BA0917
:102FD000F82ECBCF183009F47CC01930D9F69F7089
:102FE000C12CD12C7601C39404C0CC0CDD1CEE1C8A
:102FF000FF1C9A95D2F7882309F43FC16091EA013A
:103000007091EB018091EC019091ED016C297D298B
:103010008E299F290E94720A802F0E942E0ABACF01
:10302000F92FFF70FF2E907F19F0F294F0EFFF223E
:103030008823C9F0FF2069F080E2800F883010F00B
:10304000E1100BC08091CB01F82AF092CB010E94D5
:10305000A309802F0E94BF0A9DCF8091CA01F82A40
:10306000F092CA01F4CF802F0E94860AFF2009F453
:1030700091CFF094005E083010F0E11008C080910C
:10308000CB01F822F092CB010E94A30983CF80915B
:10309000CA01F822F092CA01F7CF292F269526956A
:1030A000237051F0213009F075CF882379F0802FFB
:1030B00093700E94380A6ECF882329F0802F937076
:1030C0000E944E0A67CF90E080E0FACF90E080E067
:1030D000F0CF292F237009F065C081115BCF802FBD
:1030E000829586958770880F880F402F4F7050E02B
:1030F00070E060E0082E04C0440F551F661F771F64
:103100000A94D2F7C12CD12C760104FF10C0EFE055
:10311000CE2ED12CE12CF12C04C0CC0CDD1CEE1CED
:10312000FF1C8A95D2F7C094D094E094F0949695C1
:1031300096959370923019F1D8F48090CC019090CC
:10314000CD01A090CE01B090CF01913069F04C2913
:103150005D296E297F29CB01BA01682179218A2155
:103160009B210E947C0A16CF482959296A297B296C
:10317000CB01BA016C297D298E299F29F2CF4C29D8
:103180005D296E297F29C090CC01D090CD01E090BF
:10319000CE01F090CF01CB01BA016C257D258E25A3
:1031A0009F25DFCF2695882311F0292F2170222318
:1031B00009F4F0CE802F829586958770880F880F4E
:1031C000402F4F7050E070E060E0082E04C0440FC4
:1031D000551F661F771F0A94D2F7C12CD12C760198
:1031E00004FF10C03FE0C32ED12CE12CF12C04C011
:1031F000CC0CDD1CEE1CFF1C8A95D2F7C094D09439
:10320000E094F094969596959370923019F1D8F4D5
:103210008090EA019090EB01A090EC01B090ED015C
:10322000913069F04C295D296E297F29CB01BA01C3
:10323000682179218A219B210E94720AABCE4829FC
:1032400059296A297B29CB01BA016C297D298E294C
:103250009F29F2CF4C295D296E297F29C090EA0170
:10326000D090EB01E090EC01F090ED01CB01BA01C0
:103270006C257D258E259F25DFCF802F0E94230A78
:10328000C701B6016095709580959095C090EA0150
:10329000D090EB01E090EC01F090ED016C217D21EC
:1032A0008E219F21C9CF85E0F601DE0111960190A4
:1032B0000D928A95E1F7D60112962C9189819A8117
:1032C000211148CA0E94BA09082F4CCAE7E2EE163B
:1032D000ECE5FE0609F0DACA882309F491CB0E94D6
:1032E0009F0B1092950123CA1F920F920FB60F9257
:1032F00011242F933F934F935F936F937F938F93FB
:103300009F93AF93BF93CF93DF93EF93FF93D091AE
:10331000E900DF708091EC00C82FC17080FDC0E82B
:103320001092E9008091F000877F8093F0007894FC
:103330000E944A0E1092E9008091F000886080930C
:10334000F000CD2BCF70C093E900FF91EF91DF919A
:10335000CF91BF91AF919F918F917F916F915F912D
:103360004F913F912F910F900FBE0F901F90189586
:103370001F920F920FB60F9211242F933F934F93EA
:103380005F936F937F938F939F93AF93BF93EF93CD
:10339000FF938091E10082FF09C08091E20082FFEB
:1033A00005C08091E1008B7F8093E1008091DA007D
:1033B00080FF24C08091D80080FF20C08091DA0077
:1033C0008E7F8093DA008091D90080FF9FC080E1DA
:1033D00089BD82E189BD09B400FEFDCF81E0809303
:1033E000330280912602811109C00E9482060E9448
:1033F0004D078091E20084608093E2008091E100BB
:1034000080FF17C08091E20080FF13C08091E2002E
:103410008E7F8093E2008091E20080618093E200E1
:103420008091D80080628093D80019BC85E0809399
:1034300033028091E10084FF2DC08091E20084FF7F
:1034400029C080E189BD82E189BD89B5982F91703D
:1034500080FFFBCF8091D8008F7D8093D800809132
:10346000E1008F7E8093E1008091E2008F7E809367
:10347000E2008091E20081608093E200809134025A
:10348000882309F449C084E0809333020E943F0EF0
:103490000E94840B8091E10083FF27C08091E200AD
:1034A00083FF23C08091E100877F8093E10082E069
:1034B00080933302109234028091E1008E7F8093DA
:1034C000E1008091E2008E7F8093E2008091E20033
:1034D00080618093E20042E060E080E00E941B0790
:1034E0008091F00088608093F000FF91EF91BF9190
:1034F000AF919F918F917F916F915F914F913F918C
:103500002F910F900FBE0F901F90189519BC10921D
:1035100033021092260272CF8091E30087FD93E080
:1035200090933302B3CF78941F921FB61F92112449
:103530008F939F93AF93BF9380911002909111024C
:10354000A0911202B09113020196A11DB11D8093AA
:10355000100290931102A0931202B0931302BF9134
:10356000AF919F918F911F901FBE1F9018952FB7FD
:10357000F8948091100290911102A0911202B091E2
:1035800013022FBF08952F923F924F925F926F9236
:103590007F928F929F92AF92BF92CF92DF92EF92E3
:1035A000FF920F931F93CF93DF9300D000D0CDB73E
:1035B000DEB781ED91E063E671E04BED442E41E032
:1035C000542E1982EE24E394F12CDC016D907D9051
:1035D000CD01FD0112921292FC83EB83DB012D9150
:1035E000BD01E22FE295EF70F0E031A12F7057019D
:1035F00001C0AA0C2A95EAF7232F2A2921A322A188
:103600003A2C3094232122A3B0EABA95F1F738E698
:10361000C32E31E0D32E30E020E0D6012D906D0195
:10362000422D42954F7050E0DA0190964C91AB815B
:10363000BC818D909C9050E0B22DBF7002C055951A
:103640004795BA95E2F740FD7EC0A701022E02C061
:10365000440F551F0A94E2F748295929AB81BC81D0
:1036600011965C934E932F5F3F4F2F303105A9F693
:1036700021A1322231A222A1A22AA2A221E04D91AF
:103680005C914615570509F420E0B981B22BB98346
:103690004816590609F099CFBB2309F457C081E0B9
:1036A00080938A010E94B71A9093890180938801C0
:1036B00020918801309189014FB7F89480911002D0
:1036C00090911102A0911202B09113024FBF6C01B0
:1036D0007D01EE24FF24A90170E060E0821B930BC2
:1036E000C416D506E606F70608F40197069790F18A
:1036F0008091D1019091D2019093E0018093DF01FC
:103700008091D3019091D4019093E2018093E101E3
:103710008091D5019091D6019093E4018093E301CB
:103720008091D7019091D8019093E6018093E501B3
:103730008091D9019091DA019093E8018093E7019B
:1037400010928A0107C050E040E086CF80918A0144
:103750008111AECFE091D001EE0FEE0FE093D001DA
:1037600083B190E0880F892F881F990B29B122FB24
:10377000002700F922FF02C002E010E0082BE02B36
:10378000E093D001EF70F0E0EC5BFE4F8081909110
:103790008C01890F80938C0184309CF080918B0187
:1037A0008F5F80938B016091EA017091EB018091B2
:1037B000EC019091ED010E9456098823D9F18130E6
:1037C000E9F180918C018D3F9CF480918B018150B7
:1037D00080938B016091EA017091EB018091EC0183
:1037E0009091ED010E945609882351F1813061F1D9
:1037F00080918C01837887FF03C081508C6F8F5F2D
:1038000080938C0189810F900F900F900F90DF9122
:10381000CF911F910F91FF90EF90DF90CF90BF90CD
:10382000AF909F908F907F906F905F904F903F9060
:103830002F90089589EA0E94FD12C3CF8DEBFBCF34
:103840008AEA0E94FD12D4CF8EEBFBCFCDB7DEB754
:103850002A970FB6F894DEBF0FBECDBF109262025A
:10386000109264021092630280EC8093270385E635
:1038700092E09093290380932803109226031092DC
:1038800025031092420210924102109244021092BB
:103890004302109246021092450210924802109282
:1038A000470210924A021092490210924C02109262
:1038B0004B0210924E0210924D0210925002109242
:1038C0004F02109252021092510210925402109222
:1038D0005302109256021092550210925802109202
:1038E000570210925C0210925B0285E398E090937D
:1038F0003E0280933D0280E998E090935E028093BF
:103900005D028CE098E090935A02809359028DE01A
:1039100098E09093400280933F0284B7877F84BFF2
:103920000FB6F894A895809160008861809360003C
:10393000109260000FBE80E890E00FB6F89480937C
:103940006100909361000FBE85B7806885BF85B721
:10395000806885BF0E9482060E944D078091E20028
:1039600084608093E2007894809133028823A1F0F0
:103970001091E9001F709091EC00892F817090FDEB
:1039800080E8182B1092E9008091E80083FD0E94E6
:103990004A0E1F701093E90082E084BD93E095BD4C
:1039A0009AEF97BD80936E00A3E6B1E048E651E040
:1039B00061E070E08D91E82FE295EF70F0E011A1E9
:1039C0008F709B0101C0220F8A95EAF7922F909584
:1039D000912391A382A1822B82A34A175B0751F7FF
:1039E000A8E6B1E061E070E08D91E82FE295EF701C
:1039F000F0E041A18F709B0101C0220F8A95EAF788
:103A0000922F9095942391A382A1822B82A321E0EF
:103A1000A737B20749F71092D2011092D101109244
:103A2000E0011092DF011092D4011092D3011092A4
:103A3000E2011092E1011092D6011092D50110928C
:103A4000E4011092E3011092D8011092D701109274
:103A5000E6011092E5011092DA011092D90110925C
:103A6000E8011092E7010E94C31A8FE39CE90197D5
:103A7000F1F700C000000E94C31A8091DF0180FFAF
:103A800008C06FEF7FEF90E080E00E942A220E9442
:103A9000D91290E080E00E9406228C3E9E4F11F0E9
:103AA0000E94101327982F9A52985A9A83B190E047
:103AB000880F892F881F990B4A9914C120E0822B07
:103AC0008093D00110920E0280E880932A030E9416
:103AD000C5206DE070E08CE793E00E94D611892B41
:103AE00009F046C080910E0263E070E081FDFCC0E9
:103AF00089E793E00E94D611892BD1F56DE070E043
:103B000089E693E00E94D611892B91F52FB7F8949E
:103B10008091100290911102A0911202B0911302B3
:103B20002FBF805A9541AF4FBF4F8093140290939F
:103B30001502A0931602B0931702EDE2F3E080E0C5
:103B400092E0DF019C011D9221503040E1F7F0939B
:103B50003405E09333058FEF9FEF90932C03809310
:103B60002B0381E0809319028093180210920F02B8
:103B700090E080E00E9406228C3E9E4F11F00E9451
:103B8000101382E090E00E94FE2180931B020E94AD
:103B900030129093DC018093DB0183E090E00E947F
:103BA000FE21682F70E090E080E00E947C0A86E1B0
:103BB00091E09093DE018093DD0144244394512CE5
:103BC000A3E06A2E712CAA24A394B12C0E94C31ADC
:103BD0008887AFEDB1E0ECE1F2E010E000E0302EDC
:103BE000CD90DD90819191918C159D0509F487C050
:103BF000F12CE12C8C259D2542010E2C02C0880C55
:103C0000991C0A94E2F79C0128213921232B09F4FD
:103C10006EC00E94B71AE9823A82C820D92021E0FA
:103C2000CD2809F420E02B8381609D838C83CE0115
:103C300001960E947313000F111FF801E45EFD4FFF
:103C400080819181882699269182808280911902B3
:103C5000882309F4F6C0EDE2F3E0F0933405E09335
:103C6000330586EB93E00E9496110E94840B182F77
:103C70006091EA017091EB018091EC019091ED016E
:103C80000E9456098230B8F483EA93E011FF02C023
:103C90008AEA93E00E94961181EB93E00E949611CC
:103CA0008091E901811101C08AE20E9419118EE917
:103CB00093E00E9496116091EA017091EB0180916E
:103CC000EC019091ED010E945609882361F1813049
:103CD00009F406C189E893E00E94961181E00E94F0
:103CE000A41125C022E0EBCE86E793E003CF2FEFAF
:103CF000E21AF20A3FE0E316F10409F07DCF0F5F0C
:103D00001F4F0530110509F06ACF0E94B71AAFEFB7
:103D1000A983AA831B8281609D838C83CE01019637
:103D20000E94731393CF87E993E00E94961120912C
:103D30002B0330912C032115310509F457C08091D4
:103D40000F02811153C0082F10E07201082E02C02B
:103D5000EE0CFF1C0A94E2F7A70142235323452BE4
:103D600009F4C1C090910E0290FDBFC08295880FEA
:103D7000807680930501980136952795369527958D
:103D800020930801815E809306011092090124E6C8
:103D900030E047E050E063E071E088E70E945621A0
:103DA000892B21F5A80165E0440F551F6A95E1F7BD
:103DB00080910E0280FDA7C0435D5C4F04E610E0D9
:103DC00020E230E060E488E70E947D21892B71F4D5
:103DD0000E940612E094F09480912B0390912C03A2
:103DE000E822F922F0922C03E0922B038091180232
:103DF000882339F140911402509115026091160206
:103E0000709117022FB7F8948091100290911102CF
:103E1000A0911202B09113022FBF841B950BA60B29
:103E2000B70BB7FD0EC080911802882351F062E0F5
:103E300070E085EF93E00E94D611892B11F4109267
:103E40001802388531110E940612E0915D02F0914E
:103E50005E02309719F08DE392E009959FB7F894D0
:103E60000091260380912503081708F4B1C0081BB0
:103E70009FBFF12CE12C10E099249394E016F106F9
:103E800008F4AAC00E94840B90911A02891721F0AD
:103E90000E94840B80931A0280913302843009F0CF
:103EA00095CE80910B018F708093E9009091E8008E
:103EB00090FF8CCE90913302943009F087CE80939E
:103EC000E9009091F3008091F200892B09F47ECEF5
:103ED0008091E8008E778093E8000E94A10676CE5C
:103EE00080E993E022CF8F5F2ECF880F880F880F55
:103EF0008093050110920801895F8093060183E099
:103F00008093090144CF80E2AEEEB1E01D928A9524
:103F1000E9F7EBE7F1E0FA87E98767E771E037E077
:103F2000C32EA985BA852D91BA87A987FB01219057
:103F3000BF01240E352E311CC101835D9C4F1C0135
:103F4000E22FF0E0E251FE4F90E080E08C2C881AE6
:103F5000D42C082E01C0DD0C0A94EAF73F822E8291
:103F600000E0AE81BF811D91BF83AE831D21282D4E
:103F7000201B2770922E022E000C330BB12F01C094
:103F8000BB0F9A94EAF79B2E319521953109277042
:103F9000332701C016952A95EAF7912A1081912AB4
:103FA00090820F5F0830E9F60196319688309105CE
:103FB00069F6EFE7F1E029853A85E217F30709F0A2
:103FC000B0CF04E610E020E230E04EEE51E0FACE51
:103FD00020912703020F4BCF8091250390E0609141
:103FE000270370E00E94CE212091280330912903FD
:103FF000280F391FD901DC90C0906202B7EFBD15C0
:10400000E8F49092620220E040E06D2D81E090E0C3
:104010000E949005C09262022FB7F8948091250308
:1040200090E001966091270370E00E94CE2180937A
:1040300025032FBFBFEFEB1AFB0A20CFD7FE53C0DB
:10404000E4E0CE1631F0D0925F02B0926402A0920A
:1040500063028D2D0E941208813069F08823D1F00F
:104060008230A9F0833099F01092620210926402BB
:1040700010926302D1CF8093620220E040E06D2D68
:1040800081E090E00E94900510926202C5CF80937B
:104090006202C2CFF0EFDF16E1F027EFD212E4CFD9
:1040A0002091630230916402C901B3010E94BA21D8
:1040B000FC01E35CFD4FD2A2C9010196909364021A
:1040C00080936302209161024091600260915F02DF
:1040D000D9CF34E030936202D0925F02B092640292
:1040E000A092630299CFCC2009F496CF209163026D
:1040F00030916402C901B3010E94BA21AC01FC01F4
:10410000E35CFD4FD2A2C9010196909364028093B3
:1041100063024130510589F04230510509F07CCFEE
:10412000209161024091600260915F020E949005BF
:1041300080916202843091F66FCFA2E020E0CA1233
:104140006BCFF0CF1F921FB61F9211248F939F93B6
:10415000AF93BF938091100290911102A09112022F
:10416000B09113024196A11DB11D8093100290934E
:104170001102A0931202B0931302BF91AF919F91CD
:104180008F911F901FBE1F9018951092B9008CE060
:104190008093B8000895EF92FF920F931F93CF93EF
:1041A000DF93182FEB011092BC0084EA8093BC00CF
:1041B0000E94B71A7C018091BC0087FF27C08091C4
:1041C000B900887F883029F08091B900887F8031DC
:1041D000D9F51093BB0084E88093BC000E94B71A05
:1041E0008C018091BC0087FF24C02091B900287FFA
:1041F00090E080E02831B1F081E090E0203411F4CB
:1042000090E080E09195819591090CC0CF3FDC074B
:1042100091F20E94B71A8E199F098C179D0758F2C8
:104220008EEF9FEFDF91CF911F910F91FF90EF9055
:104230000895CF3FDC07A9F20E94B71A801B910BAB
:104240008C179D0770F2ECCF8FEF9FEFEBCF0F93A2
:104250001F93CF93DF93EB018093BB0084E880939F
:10426000BC000E94B71A8C018091BC0087FF11C06E
:104270002091B900287F81E090E0283211F490E08D
:1042800080E0919581959109DF91CF911F910F91D8
:104290000895CF3FDC0741F30E94B71A801B910BB2
:1042A0008C179D0708F38EEF9FEFEECFCF92DF9232
:1042B000EF92FF920F931F93CF93DF936B018A01CD
:1042C0007901B9010E94CB20E6010C0D1D1DC0171C
:1042D000D10761F424E92093BC00DF91CF911F91B5
:1042E0000F91FF90EF90DF90CF90089597FDF2CF60
:1042F000B70189910E942721EACFCF92DF92EF92F6
:10430000FF920F931F93CF93DF93C62F6A0179011A
:10431000B8010E94CB2097FD0CC0B8018C2F0E94E1
:104320002721E601EC0CFD1CCE15DF0511F097FFEF
:104330000CC024E92093BC00DF91CF911F910F9115
:10434000FF90EF90DF90CF900895B80189910E947F
:104350002721EACF84E98093BC000895991B79E076
:1043600004C0991F961708F0961B881F7A95C9F705
:1043700080950895AA1BBB1B51E107C0AA1FBB1F54
:10438000A617B70710F0A61BB70B881F991F5A95E1
:10439000A9F780959095BC01CD01089597FB072E54
:1043A00016F4009407D077FD09D00E94BA2107FCCB
:1043B00005D03EF4909581959F4F08957095619535
:1043C0007F4F0895EE0FFF1F0590F491E02D0994A3
:1043D000FB01DC0102C005900D9241505040D8F71E
:1043E0000895FB01DC0104C08D910190801921F436
:1043F00041505040C8F7881B990B0895F999FECF9A
:1044000092BD81BDF89A992780B50895A8E1B0E0E2
:1044100042E050E00C943222262FF999FECF92BD53
:1044200081BDF89A019700B4021639F01FBA20BD79
:104430000FB6F894FA9AF99A0FBE08950396272FAB
:104440000E940D220E940C22252F0E940D22242F53
:104450000C940D220196272F0E940D220C940C2201
:10446000DC01CB01FC01F999FECF06C0F2BDE1BD34
:10447000F89A319600B40D9241505040B8F7089523
:10448000F894FFCF2D0F550F0111550F0111880F13
:10449000A90F0111B210BF10D113E113E713EB13F1
:1044A000EF13F313F713FB13FF13031407140B1489
:1044B0000F14131417141B141F14231427142B1474
:1044C0002F14331437143B1440145414E8145814A4
:1044D0000364000021007F220003038340000001E9
:1044E0000440000001000F08A8120E0872123E12CC
:1044F000010002040507090B0C0E10111315171803
:104500001A1C1D1F2123242628292B2D2F3032343D
:104510003537393B00FF0100010000FFFF000001BB
:104520000001FF000203020000010001010101017E
:1045300000010133323130C6939594969734353665
:104540006667F7F6F4F1F00008101818100800007C
:00000001FF
